:020000040000FA
:10000000682F00200D0300001503000017030000F7
:10001000190300001B0300001D0300000000000086
:100020000000000000000000000000001F030000AE
:10003000210300000000000023030000250300004E
:100040002907000027030000A5090000A5070000FC
:10005000B50700002703000011050000270300007A
:1000600027030000270300002703000027030000E8
:1000700027030000270300002703000027030000D8
:10008000270300008107000027030000270300006A
:10009000C507000027030000270300002703000016
:1000A00027030000270300002703000027030000A8
:1000B00027030000270300000000000000000000EC
:1000C0002703000027030000270300002703000088
:1000D0002703000027030000270300002703000078
:1000E0002703000027030000270300000000000092
:1000F00000000000270300000000000027030000AC
:1001000000000000000000000000000000000000EF
:1001100000000000000000000000000000000000DF
:1001200000000000000000000000000000000000CF
:1001300000000000000000000000000000000000BF
:1001400000000000000000000000000000000000AF
:10015000000000000000000000000000000000009F
:10016000000000000000000000000000000000008F
:10017000000000000000000000000000000000007F
:10018000000000000000000000000000000000006F
:10019000000000000000000000000000000000005F
:1001A000000000000000000000000000000000004F
:1001B000000000000000000000000000000000003F
:1001C000000000000000000000000000000000002F
:1001D000000000000000000000000000000000001F
:1001E000000000000000000000000000000000000F
:1001F00000000000000000000000000000000000FF
:10020000DFF80CD000F046F900480047A93800009C
:10021000682F002003464FF0000153E8000F43E829
:1002200000128A42F9D1704730B4044654E8000FF6
:100230000D4644E80053002BF8D1156030BC7047E0
:1002400030B4044654E8000F40EA010544E8005386
:10025000002BF7D1156030BC704730B4044654E829
:10026000000F00EA010544E80053002BF7D11560A8
:1002700030BC704730B4044654E8000F80EA0105F2
:1002800044E80053002BF7D1156030BC704730B400
:10029000044654E8000F00EB010544E80053002B2E
:1002A000F7D1156030BC704730B4044654E8000FF5
:1002B000A0EB010544E80053002BF7D1156030BCDA
:1002C000704770B404464FF0000054E8006F0D68AA
:1002D000AE4207BF44E80023012044E800630E60FB
:1002E000002B1CBF0020F0E770BC704730B4044600
:1002F00054E8000F88422CBF451A054644E80053D5
:10030000002BF5D1156030BC7047000006488047CF
:1003100006480047FEE7FEE7FEE7FEE7FEE7FEE7EA
:10032000FEE7FEE7FEE7FEE7C90700000102000066
:1003300000487047E09700002DE9FE4399461546B6
:100340008846074601AC022942D3002D40D0002048
:100350000290A8F101004FF0FF36009022E000FB70
:10036000057201FB057011464A469047002805DCDE
:1003700054F82600304444F8260013E060682A460A
:1003800000FB057154F8040C00FB057007E00B78C6
:1003900090F800C001F801CB00F8013B521E002A82
:1003A000F5D1764254F8040C61688842D7DC4B469C
:1003B0002A463846FFF7C0FF54F8040C4B46A8EB1A
:1003C0000001401C00FB05702A46491EFFF7B4FFE0
:1003D000BDE8FE8310B5431A934209D283188818EA
:1003E00003E010F8011D03F8011D521EF9D210BDE3
:1003F00040EA01039B0703D009E008C9121F08C0A7
:10040000042AFAD203E011F8013B00F8013B521E26
:10041000F9D210BDD2B201E000F8012B491EFBD287
:1004200070470022F6E710B513460A4604461946FF
:10043000FFF7F0FF204610BD421C10F8011B0029F9
:10044000FBD1801A704710B5002200E0521C835C7B
:100450008C5CA34201D1002BF8D1D8B2E1B2401A92
:1004600010BD034611F8012B00F8012B002AF9D129
:100470001846704730B505460020034600E05B1C77
:10048000934205D2EC5CC85C201A01D1002CF6D155
:1004900030BD0000064C074D06E0E06840F0010367
:1004A00094E8070098471034AC42F6D3FFF7ACFE4F
:1004B00070A2000090A2000070B58C1810F8015BCB
:1004C00015F0070301D110F8013B2A1106D110F8ED
:1004D000012B03E010F8016B01F8016B5B1EF9D1F1
:1004E0002B0705D40023521E0DD401F8013BFAE777
:1004F00010F8013BCB1A921C03E013F8015B01F8E2
:10050000015B521EF9D5A142D8D3002070BD000076
:100510002DE9F04F00268DB0DFF8A081B14604969A
:100520004FF48075012437460596284605F078FA81
:1005300038B1D8F80403204203D0284605F066FA03
:1005400026432D1D64007F1CADB2082FEDD34FF460
:10055000BE74204605F064FA48B1204605F056FA0C
:1005600046F0004604AA0221002005F019FA544C76
:1005700016F0FF0F15D00127002537420DD008EBEC
:100580008501D1F81005D1F81015C0F3052054F8F5
:100590002520C1F3014102B190477F006D1C082D59
:1005A000EBD3002E7EDA0020CDF82890411E0DF10D
:1005B000100B07AACDF82C9042F82010401C914651
:1005C0000228F9D300252E46A11911F8607F91F970
:1005D000000027F0C008401C40D007A9404603F0A7
:1005E00059FD40B34FEA971A404600F0D7FC54F843
:1005F00020701FB1BAF1030F03D006E0BAF1030F68
:100600002CD10AA9404603F04DFD02A8CDF8088080
:1006100005F004F9029900EB8100D0F8000704A965
:10062000C0F301400290404603F034FD00280298D8
:1006300002D0022802D011E003280FD1BAF1030F33
:1006400008D10298022833D00221404605F064F810
:100650006D1CEDB217B151464046B847761C042ECA
:10066000B2D3002D21D001AA0221002005F098F973
:1006700000205A460DF1040152F8206051F8203054
:10068000B34217D000200AAE4FEA090351F8207098
:1006900042F8207056F8207043F82070401C022861
:1006A000F4D300E001E0002D8CD10DB0BDE8F08F57
:1006B0000321CAE7401C0228DED3F6E700600040B1
:1006C0009C07002000F01F0201219140400980009A
:1006D00000F1E020C0F88012704700F01F020121F5
:1006E00091404009800000F1E020C0F800117047FF
:1006F00000F01F02012191404009800000F1E0203C
:10070000C0F8001270474907090E002806DA00F009
:100710000F0000F1E02080F8141D704700F1E02088
:1007200080F800147047000070B54FF480763046B2
:1007300004F036FC114CB50560B1304604F037FCCE
:100740000120C5F80803607920B901206071216893
:10075000002088474FF48276304604F021FC0028C0
:100760000AD0304604F023FC0220C5F808032168B3
:10077000BDE870400120084770BD00006C000020FB
:1007800007480021C0F84011C0F84411C0F84811D2
:10079000C0F84C11C0F80011C0F8041107F026BFD2
:1007A000001001400149024807F0CCBF08080020B2
:1007B0000030004002494FF0402006F05DBE0000CE
:1007C0004408002007F064BE30B54FF0805000228E
:1007D0008300D0F83011C3F80C21C3F81021624B0C
:1007E0001A60624B1B68624C2360604B1B1D1B68C8
:1007F000241D23605D4B08331B68241D23605B4B65
:100800000C331B68241D2360584B10331B68241DB8
:100810002360564B14331B68241D2360534B18333D
:100820001B68534C20342360504B1C331B68241D21
:1008300023604E4B20331B68241D23604B4B243315
:100840001B68241D2360494B28331B68241D23602B
:10085000464B2C331B68241D2360444B30331B68EC
:10086000434C40342360414B34331B68241D2360C8
:100870003E4B38331B68241D23603C4B3C331B68C4
:10088000241D2360394B40331B68241D2360012342
:10089000082902D1D0F8344114B1082904D006E067
:1008A000354C3449216005E0D0F8344114B10829B1
:1008B00004D006E0314CFB21216005E0D0F8344142
:1008C00014B1082908D00EE090F858422C4801686D
:1008D00064F30301016002E0D0F834411CB92949F6
:1008E0004FF40070086028480168C90702D06FF013
:1008F000010101602548016841F470010160BFF306
:100900004F8FBFF36F8F4FF01021D1F800020028F6
:1009100003DBD1F80402002822DA1D4C23601D48B5
:100920000368002BFCD01223C1F800320568002DAB
:10093000FCD0C1F8043201680029FCD022600168B3
:100940000029FCD0BFF34F8F10487C380168124A51
:1009500001F4E06111430160BFF34F8F00BFFDE779
:100960000F490E48086030BD3805004004040010EF
:1009700020C50040488103008C56004018F5004017
:10098000E40E0040409602400004004088ED00E084
:1009900004E5014000E401400400FA050090D003A2
:1009A0003001002010B5054C206818B904A1512071
:1009B00000F0FAF92068BDE81040004774000020FC
:1009C0002E2E5C2E2E5C2E2E5C2E2E5C2E2E5C2E61
:1009D0002E5C6D6F64756C65735C6E7266785C64BA
:1009E0007269766572735C7372635C7072735C6E4D
:1009F0007266785F7072732E6300000002E008C8B0
:100A0000121F08C1002AFAD170477047002001E088
:100A100001C1121F002AFBD17047000072B605F019
:100A200083FB00BF05F032F90028FBD1144D1549B6
:100A300015486A88081AC4082AB1012000EB04404E
:100A400012A105F059FA14480068C00700D000BE92
:100A50006888022805D3022000EB04400FA105F0AE
:100A60004BFABFF34F8F0C48E43801680F4A01F48A
:100A7000E06111430160BFF34F8F00BFFDE700004D
:100A80008801002058A30000F0A2000046617461B4
:100A90006C206572726F7200F0ED00E05379737430
:100AA000656D207265736574000000000400FA052E
:100AB0000EB500210091CDE901106A4644F2010013
:100AC000FFF7ACFF0EBD0000074B9B7823B12AB1A6
:100AD00020B10068037C1BB10820704707207047D5
:100AE0004174426100207047A008002070B507F0F3
:100AF00001FB104800240B21047044700E4D8170DE
:100B000014206C602C706C70FFF7DCFD0621142043
:100B1000FFF7F9FD1420FFF7E0FD08480460062107
:100B20001120FFF7F0FD0548001F0068A8600020B5
:100B300070BD0000A00800207C00002008150140C6
:100B40002DE9F843DFF8709099F802305BB350B3A9
:100B5000052902D20720BDE8F88343691BB3437C13
:100B6000012B22D000270446002588461646284639
:100B700000F036F8684608F0E1FAC0B101210170D2
:100B80000E4944600968C0E90218C0E904769DF87E
:100B9000000089F80100002000F050F81420FFF751
:100BA000A7FD2846D7E70820D5E70F46DBE7042551
:100BB000002000F043F8F4E7A008002004150140ED
:100BC0000649897839B130B1416921B100210174F8
:100BD000022107F0EBBC082070470000A0080020AD
:100BE00010B507F061FA012803D004A1432000F0FA
:100BF000DBF8BDE8104000F04FB800002E2E5C2E50
:100C00002E5C2E2E5C2E2E5C2E2E5C2E2E5C636FA8
:100C10006D706F6E656E74735C6C6962726172691F
:100C200065735C7574696C5C6170705F7574696C18
:100C30005F706C6174666F726D2E630010B507F0A3
:100C400033FA012803D004A1512000F0ADF8BDE82B
:100C5000104000F029B800002E2E5C2E2E5C2E2EA7
:100C60005C2E2E5C2E2E5C2E2E5C636F6D706F6E74
:100C7000656E74735C6C69627261726965735C75D0
:100C800074696C5C6170705F7574696C5F706C61C5
:100C900074666F726D2E630072B602480168491C5B
:100CA000016070479000002003490868401E0860FA
:100CB00000D162B6704700009000002070B5054674
:100CC00008680C46411C04D004F042FE206804F081
:100CD0000FFD6068411C02D0002104F0F7FC296878
:100CE000A069C1F82405607D227D29681043C1F800
:100CF0006C05D4E900122868C0F81425C0F80C155A
:100D0000207D012814D1A068411C02D0002104F0EC
:100D1000DDFCE068411C04D004F01AFEE06804F039
:100D2000E7FCD4E902122868C0F80825C0F81015BD
:100D300070BD70B5054608680C46411C04D004F02F
:100D400011FE206804F0DEFC6068411C02D0002126
:100D500004F0C5FC2968A069C1F82405607D217DE7
:100D60002A680843C2F86C05D4E900122868C0F864
:100D70000C15C0F81425207D012814D1A068411C51
:100D800002D0002104F0ABFCE068411C04D004F068
:100D9000E9FDE06804F0B6FCD4E902122868C0F866
:100DA0000825C0F8101570BD1CB56A46ADF80000E6
:100DB0000191002144F20200FFF730FE1CBD00004B
:100DC000F0B500220D4BCA60C1E901230C4B0D4D5B
:100DD0001446EE1A0A600CE003EB0215EF683F7947
:100DE000FF2F05D0A04202D1A8680860F0BD641CA6
:100DF000521CB2EB161FEFD3F0BD0000F8950000B7
:100E0000D0A20000F0A200002DE9FC410646C00778
:100E10004FF000050ED0104F00240122385D0095E0
:100E200000231146019504F073FB641C042CF4D3D9
:100E300000F03EF8B0070DD5074E0024361D002205
:100E4000305D032300951146019504F061FB641C9D
:100E5000042CF4D3BDE8FC811C93000010B50446BB
:100E6000042803D305A14720FFF79EFF0F48012167
:100E7000005DBDE8104004F07FBD00002E2E5C2E0A
:100E80002E5C2E2E5C2E2E5C2E2E5C2E2E5C636F26
:100E90006D706F6E656E74735C626F617264735CAB
:100EA000626F617264732E63000000001C93000087
:100EB00010B500242046FFF7D1FF641C042CF9D3A1
:100EC00010BD00002DE9F0470546861C90460F46F0
:100ED0004FF001090020FFF783FE1B4C20683860AB
:100EE000D4E90001401AA16804F21C47081A0EE078
:100EF0000121384602F00EFF02F0E0FB01463846C1
:100F000002F008FFD4E90001401AA168081A401C49
:100F10008642EDD8B8F1000F03D0052065F38910A3
:100F200002E0062065F39F50A2682168114004EB9F
:100F30008101C8602068304420600020FFF77EFEF9
:100F40004846BDE8F0870000440B002070B50D4610
:100F500004460A2902D10D21FFF7F8FFA068226894
:100F6000411CA1601554D4E90101814204D32046FB
:100F7000BDE8704004F076B970BD0000034803C8B6
:100F8000814201D10120704700207047440B0020AE
:100F90000268002A01D008461047704702490844F9
:100FA00090F93000704700009C07002070B5816800
:100FB00004468A7F002A4DD0C87F00284AD0121AE2
:100FC0000844D5B200F120016A1C1F30FFF702FA75
:100FD000A068C17F491EC177A068817F491E8177C3
:100FE0008DB308221C49206904F0FCF8204602F069
:100FF0005DFE8178C078814211D1A06817A2C17FBF
:10100000431808212046203303F056FC204600F008
:101010003DF929462046BDE8704001F05BBA204604
:1010200000F0A0F9204600F031F9A0680BA2C17FC2
:10103000431808212046203303F03EFC2046BDE83B
:10104000704000F059B92069BDE87040044A03A11E
:1010500004F0C8B870BD00008812000025730000BD
:101060003195000070B504468068827FC17F521AB6
:1010700012F0FF0548D0084400F121012A46203033
:10108000FFF7A8F9A068817F491E8177204602F00A
:101090000DFE8178C07881420CD1A0681BA2C17F6F
:1010A000431808212046203303F006FC40F28F4607
:1010B000C4B913E0204600F055F9204600F0E6F8E8
:1010C000A06812A2C17F431808212046203303F0F4
:1010D000F3FB2046BDE8704000F00EB90CA130468D
:1010E000FFF762FE206918B909A13046FFF75CFEE0
:1010F000154A06A1206904F075F86D1EE9B2204674
:10110000BDE8704001F0E6B970BD00002573000035
:101110002E2E5C2E2E5C2E2E5C2E2E5C2E2E5C2E09
:101120002E5C636F6D706F6E656E74735C6C69625C
:101130007261726965735C636C695C6E72665F6331
:101140006C692E6300000000359500002DE9F04128
:10115000044680680F46D0F84811C27F11F001069E
:10116000817FA1EB0203DDB20BD07F2901D3002DDB
:101170007ED0A068C17F0844002180F8207066B14D
:1011800013E07F297CD2002DF3D0831803F12001D6
:101190002A46481CFFF71EF9EBE7A068827F521C25
:1011A000D2B28277A068203281544DB3204602F03B
:1011B0007DFD8178C07881420ED1A06831A2C17FC7
:1011C000431808212046203303F076FBA81BC1B248
:1011D000204601F07FF921E0204600F0C3F8A06826
:1011E00028A2C17F431808212046203303F064FB66
:1011F000204600F081F80121204601F045FA0DE07B
:101200003EB1A068827F521CD2B28277A0682032A1
:1012100081543A461CA1206903F0E4FFA168C87F0D
:10122000401CC877204601F042F90028204603D030
:10123000BDE8F04101F05AB901F035FD00281FD09A
:10124000204602F033FD0546C078A978401A401EBA
:10125000C1B2204601F0CCF8204601F047F9E87809
:10126000A978401AC1B2204601F01AFA287800E0A5
:1012700006E0401EC1B22046BDE8F04101F004BACC
:10128000BDE8F081257300002563000070B50400FF
:101290004FF4EA7503D108A12846FFF785FD2069C0
:1012A00018B905A12846FFF77FFD2069BDE8704009
:1012B0000F4A10A103F096BF2E2E5C2E2E5C2E2E10
:1012C0005C2E2E5C2E2E5C2E2E5C636F6D706F6E0E
:1012D000656E74735C6C69627261726965735C637C
:1012E0006C695C6E72665F636C692E63000000005F
:1012F000299500002573000070B504004FF4F075C7
:1013000003D108A12846FFF74FFD206918B905A1B0
:101310002846FFF749FD2069BDE870400F4A10A13B
:1013200003F060BF2E2E5C2E2E5C2E2E5C2E2E5CCB
:101330002E2E5C2E2E5C636F6D706F6E656E7473F7
:101340005C6C69627261726965735C636C695C6E26
:1013500072665F636C692E630000000023950000D5
:101360002573000070B504004FF4ED7503D108A19A
:101370002846FFF719FD206918B905A12846FFF78F
:1013800013FD2069BDE870400F4A10A103F02ABF89
:101390002E2E5C2E2E5C2E2E5C2E2E5C2E2E5C2E87
:1013A0002E5C636F6D706F6E656E74735C6C6962DA
:1013B0007261726965735C636C695C6E72665F63AF
:1013C0006C692E630000000020950000257300006A
:1013D0002DE9F04F4FF0000995B005464F464C46B9
:1013E00000F0F6FE284601F08BFD284601F00CF8CF
:1013F000284601F05CF810B9284601F077F8AA6891
:101400000C2301A90EA8203202F0D4FA03460E984C
:1014100040B15BB14CA20221284603F04DFA15B051
:10142000BDE8F08F284601F061F8F8E74C484B49D9
:101430000026A1EB00080DF1040A834613E008D34F
:1014400048A000904CA202212846019B03F034FAE8
:10145000E5E70BEBC604606801685AF82900FEF75F
:10146000F2FF18B1761CB6EBD80FE8D9207820B17E
:1014700043A140F6A310FFF797FC00200F90A96846
:1014800048608860C86008616168C86828B14AC956
:10149000AA68C2E90360C2E90113606809F10104A6
:1014A0000026D0F808800E98844235D25AF82400DD
:1014B00041A1FEF7C8FF40B35AF824003FA1FEF750
:1014C000C2FF10B310A832460090761C0FAB214625
:1014D000404600F00FFEFEB10F98E8B101685AF8DF
:1014E0002400FEF7B0FF0028DDD10F98C16839B1A4
:1014F00090E84810AA682746C2E903C1C2E901364C
:101500000026641CD0F80880CDE7A868D0F8481100
:1015100041F00201C0F84811A868036933B10E9880
:101520000AEB8702C11B2846984704E025A2022146
:10153000284603F0C1F9A868D0F8481121F002014B
:10154000C0F848116BE700006E6F74207465726D0F
:10155000696E617465643A2025630A00D0A20000B8
:1015600090A200003A20636F6D6D616E64206E6F13
:101570007420666F756E6400257325730A00000081
:101580002E2E5C2E2E5C2E2E5C2E2E5C2E2E5C2E95
:101590002E5C636F6D706F6E656E74735C6C6962E8
:1015A0007261726965735C636C695C6E72665F63BD
:1015B0006C692E63000000002D6800002D2D686509
:1015C0006C700000506C65617365207370656369B1
:1015D0006679206120737562636F6D6D616E642E34
:1015E0000A0000008068D0F84801C0F3C0007047CE
:1015F0002DE9F0410446C0688EB00D4640680026D3
:101600003246006801A904F0BFFE18B100200EB0F8
:10161000BDE8F0816DB1019804F046FEA168D1F8F3
:101620003801401CC1F8380100F0070001287AD1C8
:101630000126204602F03AFB05468078012804D9AD
:10164000401EC1B2204601F02BF82878012804D9A9
:10165000401EC1B2204600F03DFF2046FFF716FEB7
:101660002EB132A20221204603F026F95BE04FF0B2
:1016700000080023082202A9019804F025FE04981E
:101680000590BDF80C00ADF81800BDF80E00ADF8DF
:101690001A008DF81D800298082700F00300012829
:1016A00002D0022818D032E002983B46860AC0F3E6
:1016B000C2008DF81C00029808A9C0F38315AA0087
:1016C000019804F001FE2069009005AB2A4608A9A4
:1016D000304604F03FFD1AE00298850DC0F3C200C9
:1016E0008DF81C00082D01D22E4600E008263B464E
:1016F000324608A9019804F0E7FD3744AD1B05AA5E
:10170000314608A8236904F0FBFB002DEAD10198BB
:1017100004F0CAFDE068002201A94068006804F0F6
:1017200033FE0028A5D0012071E700004C6F7374D0
:10173000206C6F6773202D20696E6372656173651D
:10174000206C6F67206261636B656E6420717565E4
:1017500075652073697A652E0A0000002DE9F04155
:101760001E4617460D46040000D025B90AA140F2D6
:101770002310FFF719FB606820B907A14FF492709E
:10178000FFF712FB606833463A4601680C69294648
:10179000A446BDE8F04160472E2E5C2E2E5C2E2E16
:1017A0005C2E2E5C2E2E5C2E2E5C636F6D706F6E29
:1017B000656E74735C6C69627261726965735C6397
:1017C0006C695C6E72665F636C692E63000000007A
:1017D0002DE9FC41002604460127019601AB0122B8
:1017E00069462046FFF7BAFF0198002836D09DF8D9
:1017F00000007F28F2D804F0C5FDA068417821B12F
:1018000001296FD002296ED18DE09DF800500D2D79
:1018100009D00A2D07D0D0F84821002161F38D129C
:10182000C0F8482122E0D0F84811C1F3871129B14E
:10183000D0F84811C1F38711A94217D1D0F8481147
:1018400065F38D11C0F84811A068817F41B1204631
:10185000FFF7BEFD0221204600F0F4F8BDE8FC8150
:10186000C0F84461204600F041FEF3E7092D1ED088
:1018700004DC002DB2D0082D04D121E01B2D12D0A4
:101880007F2D26D0FEF754FD0068405D10F03E0F1E
:10189000A4D02046FFF7A6FE30B39DF800102046E6
:1018A000FFF754FC9AE7A1680120487096E72046AC
:1018B000FFF798FE002891D0204600F0DDF88DE774
:1018C0002046FFF78FFE002888D02046FFF76EFBEA
:1018D00084E72046FFF786FE0028E3D02046FFF786
:1018E000C1FB7BE716E019E0A1689DF80020887F26
:1018F0007F28D7D2C87F0B18401CC87783F82020D8
:10190000A068C17F084480F82060A168887F401CDF
:10191000887763E79DF800105B2901D0002100E083
:10192000022141705AE7002141702046FFF75AFE1C
:10193000002893D09DF80000422840D01BDC3328BB
:101940007CD012DC312872D03228ABD1A1680320C0
:101950004870A068D0F84811D0F8482127EA010162
:1019600061F30002C0F8482138E7342856D04128F6
:1019700098D1012124E0462853D01BDC432823D0F2
:1019800044288FD1204602F091F905460078A979C4
:10199000491C884202D1A978012987D001284FF03B
:1019A000010120462FD000F095FDA168C87F401EA0
:1019B000C87713E748283DD04C2889D1C9E70021D2
:1019C000204601F083F909E7204602F06FF9054649
:1019D00000786978884203D1A978EA78914298D052
:1019E000697988424FF00101204606D100F000FDE0
:1019F0006979204600F06EFD01E000F045FEA16827
:101A0000C87F401CD4E700F04BFE6979204600F007
:101A10003BFEA068C17F491EC177DFE6A1680320B5
:101A20004870204600F0F0FCD8E607E0FFE7A16828
:101A300003204870204600F010FDCFE6A168032087
:101A4000487046E78268022911700CD18268002133
:101A500082F820108268D1778268917702A20321F0
:101A6000036802F029BF704725730000002801D0E9
:101A7000FEF7E2BC704700002DE9F04F054600205C
:101A8000A7B007461590064620900690A868817F6B
:101A9000C1F17F01C9B25FEA010970D0C27F00F1D4
:101AA0002001A030FEF796FCA8680024C17F0844FE
:101AB00080F8A040FEF73CFC21900168A8680C2348
:101AC000C27F0244D27F895CC0F84441AA6801F019
:101AD000010A07A916A8A03201F06CFF0798FFF7CA
:101AE000C5FF00F0FF08A34617941894169818B184
:101AF0005044401EB0426CD8BAF1000F01D0002013
:101B000005E007A850F82600FFF7B0FFC0B28046F6
:101B1000002419A822460090641C17AB3146584691
:101B200000F0E8FA179800286CD0016807A8424630
:101B300050F8260001F044FB0028EAD018987F1CDA
:101B4000F0B117980068FFF791FF0699C0B288427C
:101B500000D90690B9F1000F2ED022A8009018AB42
:101B600031465846159A00F0C5FA1798016818983A
:101B700001EB08020168002001EB080316E08DE08C
:101B8000601E209017980068FFF770FFC0B20690A3
:101B9000A0EB080048450FDAC0B20CE013F800C013
:101BA000614506D1401C10F0FF0010D0115C0029E7
:101BB000F4D1814500D98146601E15901798189080
:101BC000A7D266A20421284602F076FE1AE0FF2082
:101BD000EFE7002419A822460090641C17AB314699
:101BE000584600F087FAECB31798002856D00168E1
:101BF00007A850F82600FEF726FC0028EAD117981F
:101C0000D0F808B0BBF1000F09D0179838B1169979
:101C1000761CF6B201EB0A008642FFF467AF002F94
:101C20003CD0012F43D000212846069A06F08AF9BD
:101C3000209C0DF11C0A19A822460090641C17ABC9
:101C40003146584600F056FA1798424601685AF84D
:101C5000260001F0B5FA40B117987F1E069A016878
:101C6000284600E01DE006F06DF9002FE3D146A202
:101C7000032128462B6802F01FFEAB6843A208210F
:101C80002846203302F018FE284600F0C7FC1898BA
:101C90004A4601682846414400F03EFB27B0BDE8B3
:101CA000F08F2EA20421284602F006FEF6E79BF8EC
:101CB000000038B119A8009018AB31465846159A63
:101CC00000F018FA18980068FFF7D0FE404506D0DB
:101CD00018984A4601682846414400F01DFB2198A7
:101CE000A9680268C87F0B1893F82030D25CD2072D
:101CF00015D0897F8842D1D2284601F0D7FF847859
:101D0000A868C17F491CC177284601F0CFFF8078C1
:101D1000A0421FD10121284600F0B6FCBEE7D1F851
:101D20004801C00711D0D1F8480120F00100C1F8E6
:101D3000480120212846FFF709FAA868D0F8481181
:101D400041F00101C0F84811A8E720212846FFF71B
:101D5000FDF9A3E7284600F0C9FB9FE75461622024
:101D600066756E6374696F6E3A20636F6D6D616E38
:101D7000647320636F756E746572206F766572662A
:101D80006C6F7765642E0A000A25730025730000C6
:101D900070B505460C0004D107A140F62F20FFF7CF
:101DA00003F8002D06D0A068D0F8481141F02001BA
:101DB000C0F8481170BD00002E2E5C2E2E5C2E2E19
:101DC0005C2E2E5C2E2E5C2E2E5C636F6D706F6E03
:101DD000656E74735C6C69627261726965735C6371
:101DE0006C695C6E72665F636C692E630000000054
:101DF00070B5044640680D4690F8280030B1A068E0
:101E00000068FEF7DDFE08B108280CD1012685B177
:101E1000606903F0DBF9616800220831606903F052
:101E200063F908B1062070BD606880F82960002061
:101E300070BD606890F8280048B9074A0021A06882
:101E4000FEF742FE6168002881F82860F0D1204644
:101E5000BDE8704006F0ACB97584000070B504466A
:101E600040680D460260606800224360606880F848
:101E70002820606880F82920606820220830FEF75A
:101E8000A9FA2C61074A2946606903F02DF905007B
:101E900005D1E06804F078FE206904F075FE28465C
:101EA00070BD0000A58C00002DE9F0411C00164615
:101EB0000F46054603D106A1F820FEF775FF266000
:101EC00022463946E868BDE8F04104F019BD00003B
:101ED0002E2E5C2E2E5C2E2E5C2E2E5C2E2E5C2E3C
:101EE0002E5C636F6D706F6E656E74735C6C69628F
:101EF0007261726965735C636C695C756172745C54
:101F00006E72665F636C695F756172742E63000048
:101F100010B50446406903F059F9A0680068BDE8AF
:101F20001040FEF74DBE00002DE9FC411D00164695
:101F30000F46044604D11BA14FF48670FEF734FF10
:101F40002E602A463946206904F044FD050025D15B
:101F50006069244A0178515C19B1001D05F08CFFBD
:101F600002E00C3005F068FDC0B9FF2000900123AD
:101F70006A4601A9206904F0A5FD78B90098019985
:101F8000C2B2606903F012F90546606890F8290052
:101F900020B11DB92069009904F080FD2846BDE8F4
:101FA000FC8100002E2E5C2E2E5C2E2E5C2E2E5CD4
:101FB0002E2E5C2E2E5C636F6D706F6E656E74736B
:101FC0005C6C69627261726965735C636C695C7593
:101FD0006172745C6E72665F636C695F7561727466
:101FE0002E630000580000202DE9F8431F461446D8
:101FF0008846050002D0B8F1000F03D11EA1F420DD
:10200000FEF7D2FE6868006818B91BA1F520FEF73C
:10201000CBFE002628E000BF686808EB06016B468F
:102020000268D2F80CC02246E04718B112A1FF2086
:10203000FEF7BAFE0098844204D20FA14FF48070DC
:10204000FEF7B2FE00980644241A68B9A868017821
:10205000032909D0D0F848118906FBD5D0F84811DA
:1020600021F02001C0F84811002CD5D1002F01D05B
:1020700000983860BDE8F8832E2E5C2E2E5C2E2E44
:102080005C2E2E5C2E2E5C2E2E5C636F6D706F6E40
:10209000656E74735C6C69627261726965735C63AE
:1020A0006C695C6E72665F636C692E630000000091
:1020B00070B5084C050009D010342168002907D0FC
:1020C00008682060496828468847F6E70834F4E73E
:1020D00070BD000088070020054A012120B10128B9
:1020E00005D19170FFF7E4BF51700020FAE7704707
:1020F000880700202DE9F05F1C000A9F15468846DE
:10210000064604D121A14FF49C70FEF74DFE27B97D
:102110001EA140F23910FEF747FE4FF00009B8F15A
:10212000000F0BD01EB3307838B37268394628469A
:1021300090473868D8B12760BDE8F09F2149224810
:10214000A1EB0008B5EBD80F14D2DFF880A0002671
:10215000834609E00BEBC607786801685AF825004A
:10216000FEF771F920B1761CB6EBD80FF2D301E07F
:10217000786808E0C4F80090DEE7706800EB0510AE
:1021800001680029F6D02060D6E700002E2E5C2ED4
:102190002E5C2E2E5C2E2E5C2E2E5C2E2E5C636F03
:1021A0006D706F6E656E74735C6C6962726172697A
:1021B00065735C636C695C6E72665F636C692E63E9
:1021C00000000000D0A2000090A200003401002016
:1021D0002DE9F04185680646002495F82000002886
:1021E00011D0A046FEF7A4F80746006804F12001CC
:1021F00004F10104695CE4B2415CC90705D0002C1C
:10220000F4D185F82080BDE8F081641E14F0FF044D
:102210000FD0A87F021B04F12000291805F120002F
:10222000521CFEF7D7F8B168887F001B8877B16829
:10223000C877B2683D68937FD0181F3004460021EC
:1022400002E0491CC9B2401E0778EF5DFF07F8D1D4
:102250008442D8D05B1A203302F80380B268907FA2
:10226000401A9077B168C877CDE700002DE9F05F9C
:1022700026484168F1B3DFF898B00E688146DBF874
:10228000004087688078E11B21F07F45ED1CB0B9E4
:10229000DFF880804FF48030C8F84403C8F80403A6
:1022A0001120FEF70FFA1120FEF717FA4FF0010A7E
:1022B000C8F800A02F2004F057FD89F802A0B5420D
:1022C00000D23546124BE8193C3320F07F401860AD
:1022D000DBF800105A46091B21F07F41001B20F05B
:1022E0007F40C91C81420FD9106818602F2004F06C
:1022F0003BFD00E004E0BDE8F05F1120FEF7F8B917
:10230000BDE8F05F05F0F6BEBDE8F09F7C00002060
:1023100004150140001001402DE9F04115460F0061
:10232000044604D123A140F25360FEF73DFDA068AE
:10233000817FC27F8B1A2944DEB27F2937D8002DD6
:1023400035D0104400F1200105F120021044721C28
:10235000FEF740F8A0682A46C17F0844394620307D
:10236000FEF738F8A0682030FFF780FBA1681FA2B5
:102370008877A068C17F431808212046203302F0E7
:102380009BFAA068C17F2944C177204600F08FF8EE
:1023900018B9204600F087FC10B1204600F0A6F8DE
:1023A000002E04D02046BDE8F04100F037B9BDE86A
:1023B000F08100002E2E5C2E2E5C2E2E5C2E2E5CCC
:1023C0002E2E5C2E2E5C636F6D706F6E656E747357
:1023D0005C6C69627261726965735C636C695C6E86
:1023E00072665F636C692E63000000002573000055
:1023F000002904D00A46006901A102F0F3BE70472B
:102400001B5B25644200000070B5054601F04EFCE0
:10241000044600786178884203D1A078E178884248
:102420001AD0E178A078814204D9081AC1B22846AE
:10243000FFF7DEFF20786178884205D9401AC1B2E3
:10244000284600F047F804E0081AC1B2284600F018
:102450001BF9A868817FC17770BD70B5054601F092
:1024600025FC044601788079401C814202D1A07885
:1024700001281BD0A078012804D9401EC1B22846EB
:1024800000F00EF92078A179884206D9401A401E42
:10249000C1B2284600F01EF805E0081A401CC1B27F
:1024A000284600F0F1F8A9680020C87770BD10B583
:1024B00004460068FFF7DAFA0146A068C27F407E52
:1024C0001144B1FBF0F200FB121008B1002010BD66
:1024D000012010BD002904D00A46006901A102F0C4
:1024E00081BE70471B5B256444000000006901A1A8
:1024F00002F078BE0A0000002DE9FC4700260446E1
:102500008DF8046080683546B146B0468021A03021
:10251000FDF787FF4049206902F064FE206902F060
:10252000A1FE00276B46012201A92046FFF716F9FC
:102530000098D8B19DF804001B2806D0A16891F836
:10254000A0101B29EED152281FD0A26808F1A001CB
:10255000505408F1010000F0FF08B8F1090F0AD942
:10256000A168042081F8A090BDE8FC872A494FF6B5
:10257000C0101031884700980028D3D17F1CBFB20B
:10258000B7F57A7FCED30D20EEE7A16808F1A00061
:102590004A4601F80090A16891F8A1005B2803D099
:1025A00081F8A0200B20DFE702206FF02F0309E065
:1025B00005EB850503EB4505401C3D44C0B2ADB2BB
:1025C000802808D200F1A007CF5D3B2FF0D1401C3E
:1025D000C0B2802809D30C20C6E700BF06EB8606F0
:1025E00003EB46063E44B6B2F1E700F1A007CF5D2B
:1025F000002FF3D1FA20FA2E01D9087500E00E75EC
:10260000FA2D02D9A168887501E0A0688575A068D7
:1026100080F8A0200020A7E74195000070B505468E
:1026200001F044FB04468078E178884201D101261C
:1026300000E000262846FFF73AFF18B9284600F0C8
:1026400032FB10B12846FFF751FF1EB160782178A8
:10265000401A12E0E078A178401AC1B2284600F092
:102660001FF820786178884206D9401AC1B22846FE
:10267000BDE8704000F008B8081AC1B22846BDE8AD
:102680007040FFF727BF0000002904D00A46006908
:1026900001A102F0A7BD70471B5B25644300000049
:1026A000002904D00A46006901A102F09BBD7047D1
:1026B0001B5B25644100000010B50021024801F0B9
:1026C0003FFB80F3100010BD600F00207CB5154665
:1026D0000E46040004D115A14FF4E570FEF764FB2B
:1026E000A06818B1606808B1206820B90FA140F255
:1026F000CB10FEF759FB012E05D0A068D0F8480199
:10270000C0F3400038B102B02046BDE8704000225E
:10271000114602F02FB9696808A0CDE900010DA2A9
:10272000022120462B6802F0C7F87CBD2E2E5C2EBD
:102730002E5C2E2E5C6D61696E2E630020756E6BB3
:102740006E6F776E20706172616D657465723A208C
:102750000000000025733A257325730A000000006D
:10276000F8B5050004D114A14FF4A670FEF71CFBC8
:10277000A86818B1686808B1286820B90EA140F2AD
:102780004D10FEF711FBFF208DF8000000244FF4E0
:10279000A076A0B20122694600F0C2F928B10AA2CF
:1027A0000221284602F088F8F8BD641CB442F0D338
:1027B0000BA20821F5E700002E2E5C2E2E5C2E2E9B
:1027C0005C6D61696E2E6300636F6D6D756E69631C
:1027D0006174696F6E206572726F720A000000008A
:1027E0006D656D6F7279206572617365640A0000B2
:1027F00010B5040004D10DA140F26510FEF7D4FA23
:10280000A06818B1606808B1206820B907A14FF42A
:10281000B370FEF7C9FA00F03FF903462046BDE861
:10282000104006A2042102F047B800002E2E5C2EB4
:102830002E5C2E2E5C6D61696E2E63006572726F68
:102840007220776F72643A2025780A002DE9F04FE4
:1028500087B0060004D12FA140F27310FEF7A4FA4E
:10286000B06818B1706808B1306820B929A14FF478
:10287000BA70FEF799FA00244FF00109A24601ADA3
:1028800001AFADF81840022306AA50212548CDF823
:10289000009002F021FC30B922485021001D3A4638
:1028A000102304F0E1FB8DF814A038B11EA2022120
:1028B000304602F001F807B0BDE8F08F234624A2AD
:1028C0000821304601F0F8FF0027FDF731FD804672
:1028D0004FF02E0BEB5D20A20821304601F0ECFFFB
:1028E000E95DD8F80000405C10F03E0F01D105F81A
:1028F00007B07F1CFFB2102FECD301AB18A2082148
:10290000304601F0D9FF1034A4B2B4F5A07FB7D39C
:10291000D1E700002E2E5C2E2E5C2E2E5C6D6169A0
:102920006E2E630074920000454550524F4D207446
:1029300072616E736D697373696F6E206572726F09
:10294000722064657465637465642E0A000000007B
:10295000252E33783A200000252E32782000000002
:1029600025730A00F8B5002615460746022904D249
:102970001EA00090136823A212E006D923A00090A5
:10298000136820A24FF004010BE06868FDF754FDC6
:1029900001464FF4A070814207D900902B6826A20F
:1029A0000221384601F088FFF8BD6868C82230442B
:1029B0000146002403E0521E04F1010403D010F884
:1029C000013B002BF7D15CB12246304600F0A8F85D
:1029D00048B127A204213846BDE8F84001F06CBF99
:1029E00029A20821F7E7301986B2DEE72062616488
:1029F00020706172616D6574657220636F756E74AD
:102A00000A00000025733A2573000000206261640B
:102A100020706172616D6574657220636F756E748C
:102A2000202D20706C65617365207573652071754C
:102A30006F7465730A000000746F6F206C6F6E67AF
:102A400020737472696E673A206D6178696D756D77
:102A500020616C6C6F776564206368617261637478
:102A6000657220636F756E74203D2025640A000036
:102A7000636F6D6D756E69636174696F6E206572E9
:102A8000726F720A000000004F4B0A000148007884
:102A9000704700000000002010B5034804F0D0FB90
:102AA000024A0021117010BDF891000000000020C2
:102AB000F0B5174885B0502606701F2545701E24B6
:102AC00084704FF4004141600020124AB3000F5C53
:102AD0001754401C9842FAD30D490020091F1422B4
:102AE00048800D496846FDF775FC0B48CDE9025456
:102AF0000A4A69460838009604F0C4FB040003D172
:102B00000548083804F040FB05B02046F0BD000041
:102B100004000020C401002000920000BD8B0000D2
:102B200017B5B5B01446C82A02D9092038B010BD6F
:102B3000BDF8D420C820B2FBF0F32244521EB2FBF1
:102B4000F0F0834201D01020F0E7BDF8D400ADF8DA
:102B5000040022460DF10600FDF73CFC0020A41CF9
:102B60000090E3B201AA5021014802F0B5FADDE776
:102B7000749200000E4910B50A784C780023A242E6
:102B800012D0521CD2B20A70022A00D10B70084A2D
:102B90000B780C3252F8232002608868104420F031
:102BA0007F408860012010BD0360002010BD000040
:102BB0007C0000202DE9F05F17460E00814670D0A2
:102BC00013B1F9B2FFF760FD0024FDF7B1FB8246B7
:102BD000006800E0641C315D415CC907FAD1002542
:102BE0003046FEF743FFD9F80810001B4A7ED11B80
:102BF000814228D306EB040805E000BF18F8051051
:102C00000A290CD06D1C8542F8D33119D9F810006F
:102C100002F0E8FA4846BDE8F05FFFF767BCD9F874
:102C2000100002F01FFB414600232A464846FFF7EA
:102C3000DBF92C444846641CFFF758FCF9B24846BF
:102C4000FFF722FDE1E78B46DAF8001006EB0408F7
:102C500018F805000B5CDB0702D0AB460A2804D04D
:102C6000E819904201D26D1CF2E7D9F8100002F089
:102C7000F9FA414600235A464846FFF7B5F95C4445
:102C8000DAF8000000E0641C315D415CC907FAD14C
:102C90004846FFF72BFCF9B24846FFF7F5FC9EE7E4
:102CA000FFE7BDE8F09F10B504460068FEF7DEFEC2
:102CB0000146A068827F407E1144B1FBF0F200FB28
:102CC000121008B1002010BD012010BDFEB5002675
:102CD00004460096019602968068E9B3D0E9501246
:102CE0008A4272D0D0F83C0100286ED02046FFF70F
:102CF000B4FBA068D0F84451002D69D0002309220C
:102D00006946284603F0E0FAA1689DF8085000984B
:102D1000C1F84401A06800230922D0F844016946A3
:102D200003F0D2FAA1689DF808200923D1F84401E4
:102D30002031521C03F0C8FAA1689DF80800C8773A
:102D4000A1689DF8080088779DF80800A84202D283
:102D50002046FEF79BFA00E00BE0A3682BA20821B7
:102D60002046203301F0A8FD2046FFF7A0FB68BBFA
:102D700043E0D0F84401002847D02046FFF76DFB20
:102D8000A06800230922D0F84401694603F09CFAA8
:102D9000A0680199C0F84411A0680029857FB9D1C5
:102DA000A030FEF763FE0028A06805D000F1A00166
:102DB0002030FDF756FB01E080F82060A06820304D
:102DC000FEF754FE8DF80800B6E71EE01AE0FFE7B4
:102DD0002030FEF74BFE10F0FF05A068D0F83C1144
:102DE000C0F84411A06805D000F12001A030FDF723
:102DF00038FB8FE780F8A0608CE72046FFF753FF91
:102E0000002802D02046FFF771FBFEBD25730000AD
:102E1000FEB50D00044604D11E4940F2AA50FDF74C
:102E2000C3FFA1680026D1F83C0138B30023092272
:102E3000694603F049FA0195A06800230922D0F8F9
:102E40003C01694603F070FA0196A068D0F83C1185
:102E50000091807F8DF80800A068C0F83C510023E5
:102E600009226946284603F05FFAA168092328462B
:102E70008A7F2031521C03F057FAFEBDC1F83C5145
:102E8000A068C0F8405100960196A068807F8DF838
:102E90000800E4E73C840000FEB504468068D0F8F2
:102EA0004061002E28D0002309226946304603F0F5
:102EB0000BFAA16801980025C1F840010095019521
:102EC0002B46092269463046029503F02DFA30461A
:102ED00003F0CBF9A168D1F8400170B100230922B9
:102EE000694603F0F1F90095A06800230922D0F8A3
:102EF0004001694603F018FAFEBDC1F83C51FEBD21
:102F0000FEB5044680682030FEF7B0FD10F0FF05E6
:102F1000A0684FF00006C0F8446133D0A068D0F834
:102F20003C01E0B100230922694603F0CDF99DF888
:102F30000820AA4213D1A068092300F1A001D0F80B
:102F40003C01521C03F0C0F9A06800F1A001203040
:102F5000FDF779FA0028A06880F8A06012D000265A
:102F60000A352946606903F050F90100204604D073
:102F700003B0BDE8F040FFF74BBFFFF78DFF761CB5
:102F8000082EEED3FEBD00002DE9FC5F0E00834647
:102F9000DDE90C47C6F1000098469246814600D410
:102FA0000846012503E000BF90FBFAF06D1C504578
:102FB000FADAA84500D9454624B1002E01DB78078E
:102FC00000D5641EB80702D5B8F1000F0AD0F80783
:102FD00008D13CB1A54205D220215846641EFDF718
:102FE000B5FFF6E7002E02DA4E462D2102E0780703
:102FF00003D52B215846FDF7A9FF07F0030002284F
:103000000BD1B8F1000F08D13CB1A54205D2302157
:103010005846641EFDF79AFFF6E7CDE900474346A0
:1030200052463146584606F02FF8BDE8FC9F000096
:1030300070B50E46054600684FF48E7103F0E0FD52
:103040004FF4A271286803F0DBFD28681449C0F82A
:1030500004132868082E40F3073403D311A16B2012
:10306000FDF7A2FE7007000E002C06DA04F00F0137
:1030700001F1E02181F8140D03E004F1E02484F86B
:1030800000042868012140F3073000F01F0291403E
:103090004009800000F1E020C0F8001170BD000080
:1030A000800002002E2E5C2E2E5C2E2E5C2E2E5CBE
:1030B0002E2E5C2E2E5C696E746567726174696F6A
:1030C0006E5C6E7266785C6E7266785F676C756552
:1030D0002E68000070B50E46044600684FF48871F3
:1030E00003F09FFD4FF49071206803F09AFD4FF4B8
:1030F0009271206803F095FD4FF4A271206803F0EF
:1031000090FD20681449C0F804132068082E40F38D
:10311000073503D311A16B20FDF746FE7007000EA3
:10312000002D06DA05F00F0101F1E02181F8140D00
:1031300003E005F1E02585F800042068012140F353
:10314000073000F01F0291404009800000F1E020AC
:10315000C0F8001170BD0000100302002E2E5C2E7E
:103160002E5C2E2E5C2E2E5C2E2E5C2E2E5C696E1E
:10317000746567726174696F6E5C6E7266785C6E9E
:103180007266785F676C75652E68000002460020E5
:103190001268530713D502F00300012802D0022859
:1031A0000CD105E0C2F383100B68801C184404E0C6
:1031B0000223086803EB9252104408600120704714
:1031C00010B5FDF757F908B1002010BD012010BD62
:1031D0000268134602E08A4204D01268002AFAD13B
:1031E0000B600160704700002DE9F047394E002761
:1031F00080463D46DFF8E090D6F804A057E003D0C3
:103200000446D0F81C8035E099F8002002EB42011A
:10321000521CD2B289F8002009EBC10199F80230A2
:10322000091D9A4201D189F8005048680A7804467D
:10323000012A12D0022A02D0032A3BD108E005F06D
:1032400085F900B10127257434E00574C06900E0F8
:1032500070680028F9D170602CE0207C50BB886831
:103260006060C868A0600869E0604869A061F078A3
:1032700000B165606268B168184B501A20F07F4059
:10328000984202D2A168084406E0881AA16820F09A
:103290007F40814202D9081A206000E02560656005
:1032A0000120A56020742046E56105F031F9B8F1F0
:1032B0000000A4D199F8001099F801008142A3D12F
:1032C00017B97168514502D00120BDE8F087002090
:1032D000FBE700007C000020A0080020FFFF7F002B
:1032E000014B00F0E9BE0000AD340000014B00F0DE
:1032F000E3BE000079360000014B00F0DDBE0000A7
:1033000081360000014B00F0D7BE00006937000095
:103310007CB514460546012902D001F095FC38B170
:1033200002B02846BDE870400022114601F022BBE1
:10333000616805A0CDE9000109A2022128462368A1
:1033400001F0BAFA7CBD000020756E6B6E6F776E6F
:1033500020706172616D657465723A200000000032
:1033600025733A257325730D0A0000002DE9FC41F1
:10337000074601F069FC38B102B03846BDE8F041BB
:103380000022114601F0F6BA1248134E801B0509BF
:1033900000241AE006EB0410C2681179FF2903D05B
:1033A000527942B10DA207E083680EA20821384687
:1033B00001F082FA08E013A2CDE90021836814A28B
:1033C0000821384601F078FA641CAC42E2D3BDE82B
:1033D000FC810000F0A20000D0A20000656E6162D6
:1033E0006C65640025730D0A092D20537461747592
:1033F000733A2064656163746976617465640D0A6B
:103400000D0A000064697361626C6564000000006D
:1034100025730D0A092D205374617475733A2025A4
:10342000730D0A092D2049443A2025640D0A0D0A1E
:103430000000000010B5044601F006FC30B1204643
:103440000022BDE81040114601F094BA2046BDE8C4
:10345000104002A2022101F02FBA00004E6F74202A
:10346000737570706F727465642E0D0A0000000031
:1034700010B5044601F0E8FB30B120460022BDE85B
:103480001040114601F076BA2046BDE8104002A275
:10349000022101F011BA00004E6F74207375707034
:1034A0006F727465642E0D0A000000002DE9FF4F55
:1034B000C86881B01D46007917004FF000060090E3
:1034C00057D0072245A12868FCF7D4FF78B108221D
:1034D00044A12868FCF7CEFF00282FD02B6843A218
:1034E000019805B00221BDE8F04F01F0E5B9012FC8
:1034F00002D0022F08D008E0019805B041A2BDE833
:10350000F04F022101F0D8B90126DFF81081002424
:103510000A2258F824106868FCF7ACFF10B1641C4C
:10352000052CF5D3052C06D004F0FF090224002E4B
:1035300051D0002419E03AA26B68D1E7012F4FF077
:103540000009F6D0012446E04A462146009800F0E2
:1035500073FB48B90021204602F0D8FD034638A28B
:103560000221019801F0A8F9641C02F079FDA04243
:10357000EAD805B0BDE8F08F4FF0000A55F824B046
:1035800002F06EFD8046002609E00021304602F080
:10359000BDFD20225946FCF76DFF58B1761C46450B
:1035A000F3D3464508D04A465146009800F044FB04
:1035B00030B10FE0B246F4E755F8243029A205E017
:1035C0000021504602F0A2FD03461DA202210198EF
:1035D00001F072F9641CBC42CED3CAE7656E616229
:1035E0006C65000064697361626C6500556E6B6E9A
:1035F0006F776E206F7074696F6E3A2025730D0AB5
:103600000000000042616420706172616D65746544
:103610007220636F756E742E0D0A0000B8000020D2
:10362000556E6B6E6F776E2073657665726974790F
:10363000206C6576656C3A2025730D0A0000000049
:103640004C6576656C20756E617661696C61626C43
:103650006520666F72206D6F64756C653A20257306
:103660000D0A0000556E6B6E6F776E206D6F64757E
:103670006C653A25730D0A00C968012048717047CE
:10368000C96800204871704730B41346C4680A46C0
:10369000214630BCFFF70ABFC0680121C0684171F4
:1036A0007047C0680021C0684171704730B413464C
:1036B000C4680A46214630BC00F056B82DE9FF41E7
:1036C0000026264800F020FB2448001F074600F093
:1036D0001BFB234C60680090A56800E000986946D9
:1036E000284004EB80000C30FFF750FD0028F5D196
:1036F00001AA009901EA050304EB8303491CDB6876
:1037000042F82030401C00910228F2D3019800F0CA
:10371000030001281AD002280ED012494FF4BF70BE
:10372000FDF742FB384600F0ECFA08B10098606003
:1037300004B03046BDE8F0810198032101EB9050C0
:103740000099BDF80A6001EB900005E00198BDF812
:103750000A60C0F3831008440090E3E75C0F002088
:10376000440B0020589E00002DE9FE4F88468246FB
:1037700002F076FC0746D8F80C00407920B922A266
:103780000221504601F098F824A327A208215046B0
:1037900001F092F82CA20821504601F08DF8002487
:1037A0002DE000BFD8F80C0001231A460579214608
:1037B000284602F05FFC814600230122214628466C
:1037C00002F058FC0546032801D2064600E0032615
:1037D0000121204602F09AFC0346AE4201D22AA201
:1037E00000E028A2294850F8261050F829008DE85A
:1037F000070027A20821504601F05EF8641CBC4275
:10380000D0D3BDE8FE8F00004C6F677320617265F6
:103810002068616C746564210D0A00006D6F647529
:103820006C655F6E616D6500252D343073207C20E2
:1038300063757272656E74207C206275696C742D7C
:10384000696E200D0A0000002D2D2D2D2D2D2D2D02
:103850002D2D2D2D2D2D2D2D2D2D2D2D2D2D2D2D98
:103860002D2D2D2D2D2D2D2D2D2D2D2D2D2D2D2D88
:103870002D2D2D2D2D2D2D2D2D2D2D2D2D2D2D2D78
:103880002D2D0D0A000000002A000000B8000020C5
:10389000252D343073207C20252D3773207C202566
:1038A0007325730D0A0000008EB000250120FDF77E
:1038B000ABFA4FF40041002002F07AFB08B1FDF7AB
:1038C000F7F8FFF7F5F808B1FDF7F2F8334B0DF113
:1038D000240C0FCB8CE80F00304800231A4609A9AE
:1038E000103801F0D9FBE0B3FDF7E2F801F068FB16
:1038F00008B1FDF7DDF8002001F07CFBFDF7F6F8DC
:1039000008B1FDF7D5F825492022103101A8FCF7B0
:1039100061FD062001900820029000208DF818001B
:10392000032000901D4801231A4601A9283801F000
:1039300091F908B1FDF7BCF81848283801F0E0FA11
:1039400008B1FDF7B5F81748174A154E801AC00898
:103950007188052202EB0044032908D3204613494D
:1039600018E0FFE70D480C3803F092FABEE702F0CA
:103970008DF90A48283801F05DFAFFF787F8A84268
:10398000F5D0FFF783F80500F1D070880328EED357
:103990002046074902F0B0FAE9E7000084920000EF
:1039A0008801002058A30000F0A200003898000011
:1039B000E49700002DE9FF4F4FF0000881B0144656
:1039C0008B468146C246C0F800802578002D71D014
:1039D000FCF7AEFC00900068405DC00702D004F820
:1039E00001AB84E0D9F800008300401CC9F8000056
:1039F0004BF8034015E02678002E78D0B8F1000F80
:103A000005D1222E10D0272E0ED05C2E1ED0B04510
:103A100014D12046FEF72AF80246611C2046FCF726
:103A2000D9FC4FF00008E6E72046FEF71FF80246F3
:103A3000611C2046FCF7CEFCB046DCE7B8F1000F75
:103A400050D05C2E6AD16078404508D12046FEF700
:103A50000DF80246611C2046FCF7BCFC5EE03028F5
:103A60001CD100270225605DA0F13001072906D88E
:103A70006D1C41EAC701EDB2CFB2052DF3D3022D83
:103A80000CD92046FDF7F2FF421B61192046491E62
:103A9000921CFCF79FFC04F8017BACE778281ED150
:103AA00000270225605DA0F13001092903D841EA11
:103AB00007100DE021E0A0F16101052901D8573878
:103AC00004E0A0F14101052907D8373840EA071082
:103AD0006D1CEDB2C7B2042DE4D3022DD1D8B8F1DC
:103AE000000F1BD100980068805DC00716D0D9F880
:103AF000001004988142FFF468AFD9F800000C2848
:103B000004D907A140F22A50FDF74EF9D9F8002058
:103B100040464BF822A005B0BDE8F08F641C6AE770
:103B20002E2E5C2E2E5C2E2E5C2E2E5C2E2E5C2ECF
:103B30002E5C636F6D706F6E656E74735C6C696222
:103B40007261726965735C636C695C6E72665F63F7
:103B50006C692E63000000002DE9F05F1E46DDF861
:103B600028B091468A46040003D124A1B620FDF76F
:103B70001BF9B4F80680607908FB00F8A8F1040886
:103B8000464503D31DA1C420FDF70EF9E788301D7B
:103B9000B0FBF7F1B0FBF7F207FB1200D9F80050C9
:103BA000AA19424501D9A8EB0605C9F8005001E061
:103BB0002468491E0029FBD13E1A8846AE4215D81A
:103BC00017E000BF2044001D0AEB0803BBF1000F03
:103BD000324602D00146184600E01946FCF7FAFBCF
:103BE00000202468AD1BB044AF4201D92E4600E04E
:103BF0003E46002DE6D1BDE8F09F00002E2E5C2E43
:103C00002E5C2E2E5C2E2E5C2E2E5C2E2E5C636F78
:103C10006D706F6E656E74735C6C696272617269EF
:103C200065735C6D656D6F626A5C6E72665F6D6513
:103C30006D6F626A2E63000070B5144600230D4656
:103C400006461A4602F016FA844201D9002070BDD9
:103C500022462946304602F031FA012070BD0000AC
:103C600030B5024651B102F0FBF90021074C08E0E3
:103C700034F821301568AB4202D11160002030BD0C
:103C8000491C8142F4D3052030BD000054010020BE
:103C900010B50C460021E16061600349A16001217B
:103CA00002F034FA206010BDF095000070B5846811
:103CB000006804F11405FDF7D9FEC1B2A971E07FD7
:103CC0006A790844B0FBF2F302FB13035B1C2B7010
:103CD000E07F0844B0FBF2F35B1CAB70A07F0844AC
:103CE000B0FBF2F35B1CEB70A07F0844B0FBF2F179
:103CF00002FB1101491C6970284670BD002100F0CB
:103D00000FB8002100F012B8012100F01EB8012107
:103D100000F011B808B56A46FCF7B9FA009808BD7A
:103D200008B56A46FCF799FA009808BD08B56A46D6
:103D3000FCF793FA08BD08B56A46FCF781FA08BD9E
:103D400008B56A46FCF770FA08BD08B56A46FCF784
:103D500077FA009808BD08B56A46FCF7A5FA0098FE
:103D600008BD000070B5040004D114A14FF4927096
:103D7000FDF71AF800252846FCF732FF2068626834
:103D80000168914214D9491E01600D781CB91AA12D
:103D9000E820FDF709F8208BE16805FB0015206895
:103DA000217A0278891A0279C9B28A4200D2017155
:103DB0000020FCF743FF284670BD00002E2E5C2E2D
:103DC0002E5C2E2E5C2E2E5C2E2E5C2E2E5C636FB7
:103DD0006D706F6E656E74735C6C6962726172692E
:103DE00065735C62616C6C6F635C6E72665F62616E
:103DF0006C6C6F632E6300002E2E5C2E2E5C2E2EBC
:103E00005C2E2E5C2E2E5C2E2E5C636F6D706F6EA2
:103E1000656E74735C6C69627261726965735C6211
:103E2000616C6C6F635C6E72665F62616C6C6F6319
:103E30002E63000070B50C46050004D110A140F2BD
:103E40004710FCF7B1FF24B90DA14FF4A470FCF7A3
:103E5000ABFF0020FCF7C4FE1DB91849F520FCF7A4
:103E6000A3FFE8682A68211A288BB1FBF0F11068DB
:103E7000431C13600170BDE870400020FCF7DEBEFB
:103E80002E2E5C2E2E5C2E2E5C2E2E5C2E2E5C2E6C
:103E90002E5C636F6D706F6E656E74735C6C6962BF
:103EA0007261726965735C62616C6C6F635C6E7287
:103EB000665F62616C6C6F632E630000F83D00000A
:103EC00010B5040002D0206830B901E00E2010BD0A
:103ED00019A1FF20FCF768FF606820B916A14FF414
:103EE0008070FCF761FFA06820B913A140F20110B7
:103EF000FCF75AFFE06820B90FA14FF48170FCF77E
:103F000053FF208B20B90CA140F20310FCF74CFFAB
:103F1000207A61682268401AC0B2116004E0226809
:103F200011684B1C13600870401EC0B2F7D22168A4
:103F30000020087110BD00002E2E5C2E2E5C2E2E4F
:103F40005C2E2E5C2E2E5C2E2E5C636F6D706F6E61
:103F5000656E74735C6C69627261726965735C62D0
:103F6000616C6C6F635C6E72665F62616C6C6F63D8
:103F70002E6300002DE9F04F8146806889B0D0F8AB
:103F80004801C0F3400038B109B04846BDE8F04FE1
:103F90000022114600F0EEBC012907D909B04846BD
:103FA000BDE8F04F24A2022100F086BC2749284832
:103FB000081A1C21B0FBF1F8002538E02448C5EBB5
:103FC000C50110EB81044FF0000AB4F818B0D4E931
:103FD0000101A1EB000604D11EA140F24510FCF73F
:103FE000E3FE2068077924B91AA140F25510FCF7C6
:103FF000DBFE2068217A0078081AC0B2642117FB22
:1040000001F1B1FBF6F2642110FB01F1B1FBF6F115
:104010006369CDE90210CDE90462CDE90676CDE908
:1040200000BA1B4A0821484600F046FC6D1C454575
:10403000C4D309B0BDE8F08F426164206172677536
:104040006D656E7420636F756E74000098A3000038
:1040500060A300002E2E5C2E2E5C2E2E5C2E2E5C7D
:104060002E2E5C2E2E5C636F6D706F6E656E74739A
:104070005C6C69627261726965735C62616C6C6FC1
:10408000635C6E72665F62616C6C6F632E680000C9
:10409000709A0000C20800F007030120895C984074
:1040A0000840704710B5C20800F00703885C01247F
:1040B0009C402043885410BD2DE9FF5F8B46164875
:1040C00014499A46091A0F09914652F8046C0025C2
:1040D000804607E008EB05143046A168FCF7B3F909
:1040E00018B16D1CBD42F5D30BE0210009D000983A
:1040F00004B04B465A46D446BDE8F04F5DF804EB99
:104100006047009804B03346BDE8F05F03A2022187
:1041100000F0D2BBF0A20000D0A20000496E766190
:104120006C6964206261636B656E643A2025730D6F
:104130000A00000070B515468268D2F84841C4F301
:10414000400424B11A46294600F014FC05E031B1C0
:10415000536804A2022100F0AFFB012070BD0020D3
:1041600070BD000025733A2077726F6E6720706112
:1041700072616D6574657220636F756E740A0000FC
:1041800070B50D46040004D122A14FF45660FCF72F
:104190000BFEA06818B1606808B1206820B91DA1A5
:1041A00040F66150FCF700FE022D0CD1A068D0F85B
:1041B0004801C0F3400030B12046BDE87040002205
:1041C000114600F0D7BB40F669551CB911A128462D
:1041D000FCF7EAFD206918B90EA12846FCF7E4FDBA
:1041E0001A4A1BA1206900F0FDFF40F66A551CB970
:1041F00008A12846FCF7D8FD206918B905A1284672
:10420000FCF7D2FD2069BDE87040104A10A10932C8
:1042100000F0E8BF2E2E5C2E2E5C2E2E5C2E2E5C27
:104220002E2E5C2E2E5C636F6D706F6E656E7473D8
:104230005C6C69627261726965735C636C695C6E07
:1042400072665F636C692E63000000003D9500009C
:104250002573000070B50D46040004D113A140F68B
:104260006F50FCF7A1FDA06818B1606808B1206824
:1042700020B90EA14FF45760FCF796FD012D07D031
:10428000022D0CD1A068D0F84801C0F3400030B135
:104290002046BDE870400022114600F06BBB20466E
:1042A000BDE870400FA2022100F006BB2E2E5C2E4E
:1042B0002E5C2E2E5C2E2E5C2E2E5C2E2E5C636FC2
:1042C0006D706F6E656E74735C6C69627261726939
:1042D00065735C636C695C6E72665F636C692E63A8
:1042E00000000000506C6561736520737065636940
:1042F0006679206120737562636F6D6D616E642EE7
:104300000A0000001CB5012905D002290BD014D9E0
:104310004FF0010112E002B04FF00002BDE8104082
:10432000114600F027BB536808A1CDE900131368BC
:104330000CA2022100F0C0FA1CBD002102B0002333
:10434000BDE810401A46FFF7F5BE000020756E6B01
:104350006E6F776E20706172616D657465723A2060
:104360000000000025733A257325730A0000000041
:1043700010B50446012901D0012100E000210023ED
:104380001A46FFF7D7FE002809D1A168C1F8380105
:10439000E06840680068BDE8104002F0EFB810BD6A
:1043A0003EB50546012901D0012100E0002100238E
:1043B0001A46FFF7BFFE002818D1E8684068046875
:1043C000204602F0B1F8C0B2642110FB01F2A168EE
:1043D000B2FBF1F2D2B20092CDE90101A86804A2C9
:1043E0000021D0F83831284600F066FA3EBD0000C2
:1043F0004C6F7374206C6F67733A2025750A4D619A
:1044000078206C6F67207175657565207574696CAF
:10441000697A6174696F6E3A2025752525205B25C0
:10442000752F25755D0A00007CB515460E46040003
:1044300004D118A14FF45960FCF7B6FCA06818B17C
:10444000606808B1206820B912A140F69150FCF7CD
:10445000ABFC012E03D0022E09D0012108E002B0EE
:104460002046BDE870400022114600F083BA0021CA
:1044700000231A462046FFF75DFE002809D169682F
:1044800012A0CDE9000117A2022120462B6800F0FE
:1044900013FA7CBD2E2E5C2E2E5C2E2E5C2E2E5CF6
:1044A0002E2E5C2E2E5C636F6D706F6E656E747356
:1044B0005C6C69627261726965735C636C695C6E85
:1044C00072665F636C692E630000000020756E6B7E
:1044D0006E6F776E20706172616D657465723A20DF
:1044E0000000000025733A257325730A00000000C0
:1044F00010B50446012901D0012100E0002100236C
:104500001A46FFF717FE002806D1A068D0F8481118
:1045100021F00401C0F8481110BD10B5044601296E
:1045200001D0012100E0002100231A46FFF702FE1E
:10453000002806D1A068D0F8481141F00401C0F865
:10454000481110BD7CB514460D460646022901D916
:10455000012100E0002100231A46FFF7EBFD0028AF
:1045600011D1022D05D03046FDF73CF860B10BA308
:104570000BE061680AA0CDE900010FA202213046DC
:10458000236800F099F97CBD0EA302B03046BDE867
:1045900070400DA2002100F08FB900006F6E000086
:1045A00020756E6B6E6F776E20706172616D6574D1
:1045B00065723A200000000025733A257325730ABE
:1045C000000000006F6666004563686F20737461C9
:1045D0007475733A2025730A0000000010B5044674
:1045E000012901D0012100E0002100231A46FFF734
:1045F000A1FD002806D1A068D0F8481121F00801DB
:10460000C0F8481110BD10B50446012901D00121A0
:1046100000E0002100231A46FFF78CFD002806D198
:10462000A068D0F8481141F00801C0F8481110BD49
:104630007FB50D46040004D122A140F6C850FCF716
:10464000B3FBA06818B1606808B1206820B91DA14B
:1046500040F6C950FCF7A8FB012D01D0012100E074
:10466000002100231A462046FFF764FD002827D1C9
:10467000A0680026D0F84051F5B101E0082E1BD209
:104680000023092201A9284601F01EFE9DF80C20F6
:10469000A16809232846A031521C01F015FEA0682C
:1046A0003346A0300090029D761C14A200212046C3
:1046B00000F002F9002DE1D1A168002081F8A000EE
:1046C0007FBD00002E2E5C2E2E5C2E2E5C2E2E5CCE
:1046D0002E2E5C2E2E5C636F6D706F6E656E747324
:1046E0005C6C69627261726965735C636C695C6E53
:1046F00072665F636C692E63000000005B253364A3
:104700005D2025730A0000007CB515460E460400A6
:1047100004D120A140F62960FCF746FBA06818B13F
:10472000606808B1206820B91AA140F62A60FCF739
:104730003BFB012E03D0022E18D9012117E0A168FE
:10474000204601F11802193103F03AFE00281FD06B
:10475000A16850201DA24876A1681820087602B0F2
:104760002046BDE87040042100F0A6B800210023D7
:104770001A462046FFF7DEFC002809D1696822A00E
:10478000CDE9000126A2022120462B6800F094F812
:104790007CBD00002E2E5C2E2E5C2E2E5C2E2E5C00
:1047A0002E2E5C2E2E5C636F6D706F6E656E747353
:1047B0005C6C69627261726965735C636C695C6E82
:1047C00072665F636C692E63000000004E6F20729A
:1047D0006573706F6E73652066726F6D20746865A7
:1047E000207465726D696E616C2C20617373756DD8
:1047F00065642038307832342073637265656E20CA
:1048000073697A650A00000020756E6B6E6F776EB3
:1048100020706172616D657465723A20000000005D
:1048200025733A257325730A0000000070B504460D
:10483000012901D0012100E0002100231A46FFF7E1
:1048400079FC002817D140F622651CB90AA1284638
:10485000FCF7AAFA206918B907A12846FCF7A4FAC0
:10486000134A14A1206900F0BDFCA16850204876CD
:10487000A1681820087670BD2E2E5C2E2E5C2E2E80
:104880005C2E2E5C2E2E5C2E2E5C636F6D706F6E18
:10489000656E74735C6C69627261726965735C6386
:1048A0006C695C6E72665F636C692E630000000069
:1048B00056950000257300000FB4F8B5044608981B
:1048C0000E4620B91DA140F65F30FCF76DFA24B901
:1048D0001AA14FF43660FCF767FAA06818B1606857
:1048E00008B1206820B915A140F66130FCF75CFAE8
:1048F00009A80090A068D0F84811490718D5C17ED2
:10490000B14215D0B0F81B503146204604F04CFCA3
:104910006A462069089900F0D1FCE9B2204604F00B
:1049200043FC290A204604F021FCF8BC5DF814FB86
:104930006A462069089900F0C1FCF6E72E2E5C2E2D
:104940002E5C2E2E5C2E2E5C2E2E5C2E2E5C636F2B
:104950006D706F6E656E74735C6C696272617269A2
:1049600065735C636C695C6E72665F636C692E6311
:10497000000000002DE9F04F89B090460D4604007C
:1049800004D18EA14FF43E60FCF70EFAA06818B176
:10499000606808B1206820B988A140F6E130FCF7D2
:1049A00003FA9448FDF762F8064692483638FDF758
:1049B0005DF8301A1FFA80F98E488FA223380090D4
:1049C000A068082143682046FFF776FFA06840688A
:1049D000FDF74CF8064687482338FDF747F8304482
:1049E00082B2A068002381682046FEF7E3F884A223
:1049F00000212046FFF760FFB8F1000F21D005B37A
:104A000000261CE006EB460A05EB8A0BDBF80400E7
:104A1000FDF72CF8074655F82A00FDF727F8391856
:104A200049450BD9DBF80400FDF720F8074655F897
:104A30002A00FDF71BF838441FFA80F9761C46451A
:104A4000E0D36C483638FDF711F84844801C1FFA53
:104A500080F9684800904B466CA208212046FFF779
:104A60002BFF09F1030087B2079000233A4669A1A2
:104A70002046FEF79FF8002D51D000264DE000BFE4
:104A800006EB460A05EB8A0B55F82A00DBF80430E2
:104A900063B348B3574964A23639CDE90010082101
:104AA0002046FFF709FF09F102000090DBF804003F
:104AB000FCF7DCFF074655F82A00FCF7D7FF074450
:104AC0004C483638FCF7D2FF39180098401A801E3F
:104AD000C1B22046FDF7D8FD3A225649206900F0C0
:104AE00081FB0098401C0AE0009301E040B1009077
:104AF0004B4646A208212046FFF7DEFE079887B204
:104B0000DBF8081029B100233A462046FEF752F898
:104B100002E02046FDF7EAFC761C4645B0D3A068CB
:104B2000C068002847D0814600200646054603AFEE
:104B300002902A466D1C02AB012148460097FDF702
:104B4000D9FA029850B10068FCF790FFB042F0D952
:104B500002980068FCF78AFF86B2EAE7012D2AD0A6
:104B600035A200212046FFF7A7FE0025B8462A46B9
:104B70006D1C02AB01214846CDF80080FDF7BAFA62
:104B80000298002817D0B11C8FB2006800903B46F5
:104B90001EA208212046FFF78FFE0298FF1CBAB222
:104BA000416821B100232046FEF704F8DFE72046E4
:104BB000FDF79CFCDBE709B0BDE8F08F2E2E5C2EE4
:104BC0002E5C2E2E5C2E2E5C2E2E5C2E2E5C636FA9
:104BD0006D706F6E656E74735C6C69627261726920
:104BE00065735C636C695C6E72665F636C692E638F
:104BF000000000005C950000257325730000000094
:104C00004F7074696F6E733A0A0000002020252DE2
:104C10002A733A0053686F7720636F6D6D616E641D
:104C20002068656C702E0000202025732573257385
:104C30000000000088120000537562636F6D6D61A3
:104C40006E64733A0A0000008068D0F84801C0F32F
:104C5000400070472DE9F0411E46DDF818801546EA
:104C60000F46040004D10EA140F6A220FCF79CF8E8
:104C70002A463946204600F02FF805000DD166B1CE
:104C80004146E06800F0D4FE002802DA0420BDE8C6
:104C9000F081E0680121C06841712846F7E7000013
:104CA0002E2E5C2E2E5C2E2E5C2E2E5C2E2E5C2E3E
:104CB0002E5C636F6D706F6E656E74735C6C696291
:104CC0007261726965735C636C695C6E72665F6366
:104CD0006C692E63000000002DE9F04715460E4672
:104CE000040004D13EA140F64520FCF75DF8A06821
:104CF00018B1606808B1206820B939A140F6462093
:104D0000FCF752F8E0682346434A406884606068D4
:104D100001680F683146B84700285ED1606920B944
:104D20002FA140F65520FCF73FF8606901F0BAFA70
:104D3000002852D1A168C1F83C01A168C1F8400126
:104D40004FF4A671A068FBF76CFBA068D0F848117F
:104D500041F02001C0F84811A068D0F8481165F36F
:104D60008201C0F84811A068D0F8481141F008014C
:104D7000C0F84811A1680120284F0870A168502090
:104D800040F671294876A168182000240876244846
:104D9000244940F6722A0D1A804612E018EBC40628
:104DA00003D10FA14846FBF7FFFF7068006818B9F0
:104DB0000BA15046FBF7F8FF7068006847F8240025
:104DC000641CB4EBD50FE9D3072D05D9E908164BC0
:104DD00004223846FBF7B0FA0020BDE8F087000057
:104DE0002E2E5C2E2E5C2E2E5C2E2E5C2E2E5C2EFD
:104DF0002E5C636F6D706F6E656E74735C6C696250
:104E00007261726965735C636C695C6E72665F6324
:104E10006C692E6300000000911D00003401002029
:104E200090A20000D0A200005D8300000023FDF7E7
:104E3000DBB8000010B5040004D122A140F62930EF
:104E4000FBF7B2FFA06818B1606808B1206820B90C
:104E50001CA140F62A30FBF7A7FFA068102100F53F
:104E6000A470FEF772FFA0680078F8B101281DD089
:104E700002281BD12046FCF7ABFC00212046FCF7A2
:104E8000B7FB98B11DA2032120462368FFF714FD4C
:104E90002046FCF7A7FB48B1A36818A208212046CA
:104EA0002033FFF709FD2046FDF7B8FB206900F02D
:104EB000D9F9A068BDE810406FF0100100F5A470AA
:104EC000FEF72EBF2E2E5C2E2E5C2E2E5C2E2E5C20
:104ED0002E2E5C2E2E5C636F6D706F6E656E74731C
:104EE0005C6C69627261726965735C636C695C6E4B
:104EF00072665F636C692E6300000000257300001A
:104F000070B5040004D117A140F6F820FBF74CFF60
:104F1000A06818B1606808B1206820B911A140F6F6
:104F2000F920FBF741FFA0680078012801D0082094
:104F300070BD606801688A680021904705000FD144
:104F40000821204604F030F90121204604F00EF932
:104F500012A1206900F046F902212046FCF772FDFB
:104F6000284670BD2E2E5C2E2E5C2E2E5C2E2E5CC6
:104F70002E2E5C2E2E5C636F6D706F6E656E74737B
:104F80005C6C69627261726965735C636C695C6EAA
:104F900072665F636C692E63000000000A0A0000FD
:104FA00000F180400068002800D00120704708B55B
:104FB00000F18040002101600068009008BD000001
:104FC00070B50A4C207808B185250CE00020A0605F
:104FD00060602061E060064801F058FE054601F07F
:104FE00027FE01202070284670BD000088070020A1
:104FF000D920000070B5184C0546207818B917A1C3
:10500000E920FBF7D1FEA07838B115B1696801201D
:1050100088470020FBF7E4FD0CE00020FBF7E0FDF3
:1050200025B10D4829461030FEF7D2F8E06808B9DE
:1050300001F05EFEE068401CE0600020FBF7FEFD32
:10504000E068002806D1BDE8704004A140F20510D8
:10505000FBF7AABE70BD0000880700202E2E5C2E34
:105060002E5C2E2E5C2E2E5C2E2E5C2E2E5C696EFF
:10507000746567726174696F6E5C6E7266785C6C81
:1050800065676163795C6E72665F6472765F636C9C
:105090006F636B2E630000002DE9F0410646047833
:1050A0000B4815460F4640F82420083040F82430BD
:1050B000487B10B1084603F0D3FA0DB1054A00E071
:1050C000002223463946301DBDE8F04101F016BFED
:1050D000480000200587000038B5001D049C00949E
:1050E00001F0DAFF38BD00002DE9F04105460478F3
:1050F0001C4888B00F4640F8242008691949164614
:105100000831012C41F8240005D1787F18B916A187
:105110007620FBF749FEDFF84C80797FA8F1040880
:10512000202208F8041039466846FBF753F9049426
:10513000297818F8010050B10EB11A4A00E0002297
:105140006946281D02F0EAFC08B0BDE8F0810EB106
:10515000154A00E00022694605F10C0002F0DAFA77
:10516000F2E700005C0000202E2E5C2E2E5C2E2E1E
:105170005C2E2E5C2E2E5C2E2E5C696E7465677222
:105180006174696F6E5C6E7266785C6C6567616392
:10519000795C6E72665F6472765F756172742E639D
:1051A00000000000658F0000B18D000030B403786E
:1051B000054CE35C1BB130BC001D02F0DBBD30BC14
:1051C0000C3002F0B5BB0000580000200178044A02
:1051D000515C11B1001D02F05DBE0C3002F03CBC10
:1051E000580000200FB438B5040003D110A14220AC
:1051F000FBF7DAFD606918B90DA14320FBF7D4FD78
:10520000206818B90AA14420FBF7CEFD606818B9E0
:1052100007A14520FBF7C8FD0599002905D006A880
:1052200000906A46204600F049F838BC5DF814FB4F
:105230002E2E5C2E2E5C2E2E5C2E2E5C2E2E5C2EA8
:105240002E5C65787465726E616C5C667072696EF6
:1052500074665C6E72665F667072696E74662E63E9
:105260000000000010B5040003D107A13120FBF7B6
:105270009BFDA268002A05D0D4E904032168984761
:105280000020A06010BD00002E2E5C2E2E5C2E2E65
:105290005C2E2E5C2E2E5C2E2E5C65787465726EF4
:1052A000616C5C667072696E74665C6E72665F6675
:1052B0007072696E74662E63000000002DE9FC4771
:1052C00091460C465FEA000804D183A14FF4A27016
:1052D000FBF76AFDD8F8140020B97FA14FF4A37042
:1052E000FBF762FDD8F8000020B97BA140F247101F
:1052F000FBF75AFDD8F8040020B977A14FF4A47049
:10530000FBF752FD002C76D014F8011B39B125298A
:105310000ED04046FBF71AFE20780028F4D198F80A
:105320000C00002867D04046BDE8FC47FFF79ABF55
:105330000020012221782B291BD02D2902D03029D1
:1053400008D102E040F0010001E040F00200641CDE
:10535000002AEFD100252A290ED02178A1F13002B0
:105360000A2A11D205EB850201EB4205641C303D8F
:10537000F1E740F00400EAE7D9F800100B1DC9F886
:1053800000300968641C0D44217800232E290BD1BC
:1053900014F8011FA1F130020A2A05D203EB83029F
:1053A00001EB4203303BF3E76C290DD068290BD0A9
:1053B000692921D00BDC252918D0582931D063293F
:1053C0000ED0642915D117E014F8011FECE77029FD
:1053D00069D0732932D075291BD0782909D120E0F2
:1053E000D9F80000011DC9F8001001784046FBF70C
:1053F000ADFD641C90E76CE0D9F800100A1DC9F8F7
:1054000000200968CDE900500A224046FDF7BCFDA6
:10541000EFE7D9F800100A1DC9F8002009680A2230
:1054200006E0D9F800100A1DC9F80020096810220A
:10543000CDE90050404603F027FEDAE7D9F8001026
:1054400000270A1DC9F800200E68C00705D112E028
:105450004046761C7F1CFBF779FD31780029F7D197
:1054600004E0202140466D1EFBF770FDBD42C0D90F
:10547000002DF6D1BDE74EB13046FAF7DDFF074605
:1054800004E0202140466D1EFBF760FDBD4206D9B9
:10549000002DF6D103E04046761CFBF757FD31782E
:1054A0000029F8D1A5E7D9F80000011DC9F80010BE
:1054B000056830214046FBF749FD78214046FBF75F
:1054C00045FD08200021CDE90001034610222946B0
:1054D000B0E7BDE8FC8700002E2E5C2E2E5C2E2E41
:1054E0005C2E2E5C2E2E5C2E2E5C65787465726EA2
:1054F000616C5C667072696E74665C6E72665F6623
:105500007072696E74665F666F726D61742E63008F
:105510002DE9FF411C46DDE90A7815460E4668462E
:1055200000F01CF946EA450141EA840141EA0722FC
:1055300042EA0841009A00EB8200C0F80017BDE87B
:10554000FF8100002DE9F0471D46DDE90889164678
:105550000F460446302804D30DA14FF4F370FBF737
:1055600023FC202C02D24FF0A04002E0144804F0AB
:105570001F0447EA460141EA850242EA082200EB9D
:10558000840042EA0941C0F80017BDE8F087000036
:105590002E2E5C2E2E5C2E2E5C2E2E5C2E2E5C2E45
:1055A0002E5C6D6F64756C65735C6E7266785C689A
:1055B000616C2F6E72665F6770696F2E6800000005
:1055C000000300502DE9F0471D46DDE90889164625
:1055D0000F460446302804D30DA14FF4F370FBF7B7
:1055E000E3FB202C02D24FF0A04002E0144804F06C
:1055F0001F0447EA460141EA850242EA082200EB1D
:10560000840042EA0941C0F80017BDE8F0870000B5
:105610002E2E5C2E2E5C2E2E5C2E2E5C2E2E5C2EC4
:105620002E5C6D6F64756C65735C6E7266785C6819
:10563000616C2F6E72665F6770696F2E6800000084
:10564000000300502DE9FF411C46DDE90A781546AC
:105650000E46684600F012F946EA450141EA840127
:1056600041EA072242EA0841009A00EB8200C0F8B2
:105670000017BDE8FF812DE9FF411C46DDE90A78EE
:1056800015460E46684600F029F946EA450141EA0A
:10569000840141EA072242EA0841009A00EB8200B5
:1056A000C0F80017BDE8FF811CB5002100910B4632
:1056B00001220191FFF7C6FF1CBD1CB5002100911E
:1056C0000B4601220191FFF7D6FF1CBD1CB500223D
:1056D0000B46009211460192FFF7B4FF1CBD1CB5AA
:1056E00000220B46009211460192FFF7C4FF1CBD39
:1056F0001CB5002100910B46012201911146FFF7D4
:10570000A1FF1CBD1CB5002100910B460122019197
:105710001146FFF7B0FF1CBD13B50C46684600F0FC
:105720007DF8009900EB8101D1F8002722F4403286
:10573000C1F80027009900EB8100D0F8001741EA7A
:105740000441C0F800171CBD01B5684600F036F8EA
:10575000009A01219140C0F80C1508BD10B504460F
:105760000068302804D308A14FF4F370FBF71CFB4A
:105770002068202802D24FF0A04010BD00F01F008A
:1057800020600D4810BD00002E2E5C2E2E5C2E2EAB
:105790005C2E2E5C2E2E5C2E2E5C6D6F64756C65FF
:1057A000735C6E7266785C68616C5C6E72665F6773
:1057B00070696F2E680000000003005010B50446A9
:1057C0000068302804D308A14FF4F370FBF7ECFA1B
:1057D0002068202802D24FF0A04010BD00F01F002A
:1057E00020600D4810BD00002E2E5C2E2E5C2E2E4B
:1057F0005C2E2E5C2E2E5C2E2E5C6D6F64756C659F
:10580000735C6E7266785C68616C2F6E72665F673F
:1058100070696F2E680000000003005010B5044648
:105820000068302804D308A14FF4F370FBF7BCFAEA
:105830002068202802D24FF0A04010BD00F01F00C9
:1058400020600D4810BD00002E2E5C2E2E5C2E2EEA
:105850005C2E2E5C2E2E5C2E2E5C6D6F64756C653E
:10586000735C6E7266785C68616C2F6E72665F67DF
:1058700070696F2E680000000003005010B50446E8
:105880000068302804D308A14FF4F370FBF78CFABA
:105890002068202802D24FF0A04010BD00F01F0069
:1058A00020600D4810BD00002E2E5C2E2E5C2E2E8A
:1058B0005C2E2E5C2E2E5C2E2E5C6D6F64756C65DE
:1058C000735C6E7266785C68616C2F6E72665F677F
:1058D00070696F2E680000000003005010B5044688
:1058E0000068302804D308A14FF4F370FBF75CFA8A
:1058F0002068202802D24FF0A04010BD00F01F0009
:1059000020600D4810BD00002E2E5C2E2E5C2E2E29
:105910005C2E2E5C2E2E5C2E2E5C6D6F64756C657D
:10592000735C6E7266785C68616C2F6E72665F671E
:1059300070696F2E680000000003005001B56846D2
:10594000FFF73CFF009A01219140C0F8081508BDFF
:1059500001B56846FFF792FF009A01219140C0F817
:10596000081508BD01B56846FFF7B8FF009A012188
:105970009140C0F8081508BD38B50124009068466C
:1059800031B1FFF7EBFE00998C40C0F8084538BDF7
:10599000FFF7E4FE00998C40C0F80C4538BD0000CC
:1059A0007CB5154604460C4A6618022ED2E9000260
:1059B000CDE9000204D909A140F21630FBF7F4F951
:1059C000694605E051F82400D0F81005641C01C5B3
:1059D000A642F7D87CBD0000389300002E2E5C2E26
:1059E0002E5C2E2E5C2E2E5C2E2E5C2E2E5C6D6F71
:1059F00064756C65735C6E7266785C68616C2F6E42
:105A000072665F6770696F2E68000000034908B511
:105A10000844002101600068009008BD006000405B
:105A200002494058012800D0002070470060004023
:105A30002DE9F041054620480E460024D0F81034E8
:105A400019460AE0CA681179A14205D1641C0A2CE2
:105A5000F6DB4FF0FF342BE011680029F2D1611C16
:105A600026D0E9680C71D0F8101459B1C968EA68F9
:105A700009681160D0F81004C06805600027DFF8DD
:105A80003C8011E0C0F81054E96800200860F5E798
:105A900008EBC700C279B24200D33246E868394603
:105AA000007900F00BFB7F1C00F0DAFAB842EFD867
:105AB0002046BDE8F0810000440B0020F0A2000069
:105AC00038B5416800228C680868694600F05CFCC3
:105AD000002803D100212046FBF78AFD38BD10B510
