:020000040002F8
:10600000F05D0020F96202000163020003630200F8
:1060100007630200096302000B6302000000000036
:106020000000000000000000000000000D630200FE
:106030000F630200000000001163020013630200FE
:10604000E166020015630200916902001563020017
:106050001563020015630200C964020015630200A3
:106060001563020015630200156302001563020048
:106070001563020015630200156302001563020038
:1060800015630200856702001563020015630200B4
:10609000AD67020015630200B167020015630200DC
:1060A0001563020015630200156302001563020008
:1060B00015630200156302000000000000000000EC
:1060C00015630200156302001563020015630200E8
:1060D00015630200156302001563020015630200D8
:1060E0001563020015630200156302000000000042
:1060F00000000000156302000000000015630200AC
:10610000000000000000000000000000000000008F
:10611000000000000000000000000000000000007F
:10612000000000000000000000000000000000006F
:10613000000000000000000000000000000000005F
:10614000000000000000000000000000000000004F
:10615000000000000000000000000000000000003F
:10616000000000000000000000000000000000002F
:10617000000000000000000000000000000000001F
:10618000000000000000000000000000000000000F
:1061900000000000000000000000000000000000FF
:1061A00000000000000000000000000000000000EF
:1061B00000000000000000000000000000000000DF
:1061C00000000000000000000000000000000000CF
:1061D00000000000000000000000000000000000BF
:1061E00000000000000000000000000000000000AF
:1061F000000000000000000000000000000000009F
:10620000DFF80CD000F00EF900480047558402007A
:10621000F05D002030B4044654E8000F0D4644E819
:106220000053002BF8D1156030BC704730B40446E1
:1062300054E8000F40EA010544E80053002BF7D171
:10624000156030BC704730B4044654E8000F00EAD3
:10625000010544E80053002BF7D1156030BC7047AE
:1062600030B4044654E8000F80EA010544E80053C6
:10627000002BF7D1156030BC704730B4044654E8A9
:10628000000F00EB010544E80053002BF7D1156027
:1062900030BC704730B4044654E8000FA0EB010551
:1062A00044E80053002BF7D1156030BC704770B440
:1062B00004464FF0000054E8006F0D68AE4207BF7F
:1062C00044E80023012044E800630E60002B1CBF5B
:1062D0000020F0E770BC704730B4044654E8000F6B
:1062E00088422CBF451A054644E80053002BF5D1DF
:1062F000156030BC704700000748804707480047DA
:10630000FEE700BF00BFFEE7FEE7FEE7FEE7FEE7B1
:10631000FEE7FEE7FEE70000B5670200016202004B
:106320002DE9F05F0546002092469B4688460646CA
:10633000814640241BE0284641464746224600F05D
:1063400060F853465A46C01A914110D31146184678
:10635000224600F016F82D1A67EB01084F46224638
:106360000120002100F00DF817EB00094E41201E1E
:10637000A4F10104DFDC484631462A464346BDE825
:10638000F09F202A04DB203A00FA02F10020704737
:106390009140C2F1200320FA03F319439040704763
:1063A00040EA01039B0703D009E008C9121F08C097
:1063B000042AFAD203E011F8013B00F8013B521E17
:1063C000F9D27047D2B201E000F8012B491EFBD28E
:1063D00070470022F6E710B513460A4604461946F0
:1063E000FFF7F0FF204610BD30B5044600200346FD
:1063F00000E05B1C934203D2E05CCD5C401BF8D014
:1064000030BD202A04DB203A21FA02F00021704737
:1064100021FA02F3D040C2F120029140084319460C
:1064200070470000064C074D06E0E06840F00103AD
:1064300094E8070098471034AC42F6D3FFF7E4FE27
:10644000D0A80200F0A8020070B58C1810F8015B0B
:1064500015F0070301D110F8013B2A1106D110F8FD
:10646000012B03E010F8016B01F8016B5B1EF9D101
:106470002B0705D40023521E0DD401F8013BFAE787
:1064800010F8013BCB1A921C03E013F8015B01F8F2
:10649000015B521EF9D5A142D8D3002070BD000087
:1064A00070B50024064D074E03E0305D00F0FAFCA5
:1064B000641C28788442F8D30020287070BD000046
:1064C000E0290020743700202DE9F04F00268DB020
:1064D000DFF8A081B14604964FF480750124374659
:1064E0000596284602F020FD38B1D8F80403204272
:1064F00003D0284602F00EFD26432D1D64007F1CAC
:10650000ADB2082FEDD34FF4BE74204602F00CFD5F
:1065100048B1204602F0FEFC46F0004604AA0221E3
:10652000002002F0E1FC544C16F0FF0F15D00127BB
:10653000002537420DD008EB8501D1F81005D1F8C0
:106540001015C0F3052054F82520C1F3014102B114
:1065500090477F006D1C082DEBD3002E7EDA0020C3
:10656000CDF82890411E0DF1100B07AACDF82C9004
:1065700042F82010401C91460228F9D300252E46EF
:10658000A11911F8607F91F9000027F0C008401CA4
:1065900040D007A9404602F042F840B34FEA971AAC
:1065A000404601F09BFB54F820701FB1BAF1030F75
:1065B00003D006E0BAF1030F2CD10AA9404602F03D
:1065C00036F802A8CDF8088002F032FC029900EB00
:1065D0008100D0F8000704A9C0F3014002904046B2
:1065E00002F01DF80028029802D0022802D011E023
:1065F00003280FD1BAF1030F08D10298022833D033
:106600000221404602F0EEFB6D1CEDB217B151467F
:106610004046B847761C042EB2D3002D21D001AAE3
:106620000221002002F060FC00205A460DF1040116
:1066300052F8206051F82030B34217D000200AAE43
:106640004FEA090351F8207042F8207056F8207084
:1066500043F82070401C0228F4D300E001E0002D34
:106660008CD10DB0BDE8F08F0321CAE7401C022891
:10667000DED3F6E700600040D03B002000F01F02B0
:10668000012191404009800000F1E020C0F8801213
:10669000704700F01F02012191404009800000F185
:1066A000E020C0F80011704700F01F020121914066
:1066B0004009800000F1E020C0F80012704749074F
:1066C000090E002806DA00F00F0000F1E02080F843
:1066D000141D704700F1E02080F80014704700009E
:1066E0002DE9F0414FF48076304602F059FA234C00
:1066F000B50560B1304602F05AFA0120C5F808032A
:10670000607920B9012060712168002088474FF42A
:106710008276304602F044FA40B1304602F047FA41
:106720000220C5F808032168012088474FF48876C5
:10673000304602F035FA40B1304602F038FA102007
:10674000C5F808032168022088474FF48677384649
:1067500002F026FA00280ED00948002606603846C6
:1067600002F025FA0820C5F80803A6712168BDE8E3
:10677000F04103200847BDE8F0810000F42C002020
:10678000340C004007480021C0F84011C0F8441103
:10679000C0F84811C0F84C11C0F80011C0F804113D
:1067A00003F000BD0010014003F05EBB03F048BCE5
:1067B00002F0D6BC30B54FF0805000228300D0F8F4
:1067C0003011C3F80C21C3F81021624B1A60624BE0
:1067D0001B68624C2360604B1B1D1B68241D2360DB
:1067E0005D4B08331B68241D23605B4B0C331B6817
:1067F000241D2360584B10331B68241D2360564B07
:1068000014331B68241D2360534B18331B68534CEF
:1068100020342360504B1C331B68241D23604E4BD7
:1068200020331B68241D23604B4B24331B68241D1D
:106830002360494B28331B68241D2360464B2C33AF
:106840001B68241D2360444B30331B68434C403489
:106850002360414B34331B68241D23603E4B383387
:106860001B68241D23603C4B3C331B68241D2360A4
:10687000394B40331B68241D23600123082902D1B2
:10688000D0F8344114B1082904D006E0354C34491D
:10689000216005E0D0F8344114B1082904D006E0A5
:1068A000314CFB21216005E0D0F8344114B10829B6
:1068B00008D00EE090F858422C48016864F30301B8
:1068C000016002E0D0F834411CB929494FF400704E
:1068D000086028480168C90702D06FF00101016013
:1068E0002548016841F470010160BFF34F8FBFF389
:1068F0006F8F4FF01021D1F80002002803DBD1F890
:106900000402002822DA1D4C23601D480368002B76
:10691000FCD01223C1F800320568002DFCD0C1F86C
:10692000043201680029FCD0226001680029FCD0F3
:10693000BFF34F8F10487C380168124A01F4E061C0
:1069400011430160BFF34F8F00BFFDE70F490E48B1
:10695000086030BD380500400404001020C5004028
:10696000488103008C56004018F50040E40E0040BA
:10697000409602400004004088ED00E004E501403C
:1069800000E401400400FA050090D003782D0020B7
:106990000148006800470000FC2C0020014A024921
:1069A00000F026B84B810200702D002002E008C8DC
:1069B000121F08C1002AFAD170477047002001E079
:1069C00001C1121F002AFBD17047000001212028BD
:1069D00003DA81400548014003E0402802DA20380C
:1069E000814009B10120704700207047FC06FFBDBF
:1069F0002DE9F04116460F460446002503E03946CE
:106A0000B047641C6D1C20780028F8D12846BDE8EA
:106A1000F08131B500252C462146684601F0D9FDAC
:106A200000B16D1C641C142CF6D3284638BD10B57B
:106A300001220221002000F0BBFF08B1072810D17D
:106A400007220221012000F0B3FF08B1072808D176
:106A500000210A22084600F0ABFF08B1072800D148
:106A6000002010BD022000F0C3BE000070B500245D
:106A7000064D06E06868012110F8340002F026FC9B
:106A8000641C28788442F5D3002070BD082D0020B6
:106A9000F8B515460C460646052A01D20720F8BD72
:106AA00002F00AFD18B902F0CFFC0028F7D1124914
:106AB00000224E600C708D60C1E90422C1E90622FB
:106AC0000E4D0DE006EBC4002968009181788DF829
:106AD000011000780A4A694602F044FC0028DED121
:106AE000641EE4B2EED2BDE8F84004480021054A35
:106AF000001D00F0DBB80000082D0020D8A7020020
:106B0000A1810200217F020072B609480068C00717
:106B100000D000BEBFF34F8F0548E4380168054A36
:106B200001F4E06111430160BFF34F8F00BFFDE747
:106B3000F0ED00E00400FA050EB500210091CDE96A
:106B400001106A4644F20100FFF7DEFF0EBD10B5EA
:106B50008268C368934203D001F0E4FA002010BDBC
:106B6000052010BD29B112B1531E134203D00920D4
:106B700070470E2070470160838000218160C160F2
:106B80000846704710B58268C3689A1A83889A428B
:106B900003D801F0D1FA002010BD042010BD000080
:106BA0002DE9F84F254C8146924660880E46814279
:106BB00041D800274FF6FF788DF80070684600F046
:106BC0009BF922786078A188884201DA401C00E0B5
:106BD0000020C0B2904204D19DF8000000F0B0F94E
:106BE00027E065786078884201DA401C00E00020E8
:106BF00060709DF8000000F0A3F9454519D0A06829
:106C0000B9F1000F40F835A00DD066B16188E06899
:106C1000324605FB01004946FFF7C2FBA06800EBC6
:106C2000C500868002E000EBC50087800020BDE83B
:106C3000F88F0420FBE70920F9E70000282D002049
:106C400010B50E4C03E0401C00E0002020702078BE
:106C50006178814210D022786188E068A36802FBE5
:106C6000010003EBC20153F8322089889047207855
:106C7000A1888842E9DAE6E710BD0000282D00204F
:106C800030B5CB0008339DB293074FF0000401D01C
:106C9000072030BD044B9A602A44DA605C701C7097
:106CA00058809980002030BD282D0020074B9B780C
:106CB00023B12AB120B10068037C1BB108207047C2
:106CC000072070474174426100207047AC3C0020AF
:106CD00070B503F033F8104800240B2104704470A1
:106CE0000E4D817014206C602C706C70FFF7C6FC28
:106CF00006211420FFF7E3FC1420FFF7CAFC084824
:106D0000046006211120FFF7DAFC0548001F006827
:106D1000A860002070BD0000AC3C0020382D002091
:106D2000081501402DE9FC47DFF8789099F802300A
:106D300073B368B3052902D20720BDE8FC87436915
:106D400033B3437C012B25D0002704460025884619
:106D500016468DF80050684600F0CEF801A803F002
:106D60006BFCC8B1012101700F4944600968C0E99A
:106D70000218C0E904769DF8040089F801009DF826
:106D8000000000F0DDF81420FFF78EFC2846D4E761
:106D90000820D2E70F46D8E704259DF8000000F050
:106DA000CFF8F3E7AC3C0020041501400649897890
:106DB00039B130B1416921B100210174022103F0E0
:106DC000CDB9082070470000AC3C002070B50A4ED9
:106DD00001460A48B578FFF7BAFE04464DB10020D7
:106DE000B070711C0122C81D01F052FF08B1FFF7FD
:106DF000A3FE204670BD00004C2D0020B83D0020B1
:106E0000F0B5244E89B01F460D00044672603FD095
:106E1000A888296882B22048FFF7A4FE002835D14F
:106E2000A889A96882B21C481030FFF79BFE002891
:106E30002CD1202219496846FFF7B2FA6069069002
:106E4000207C00B101208DF814008DF81C70607C4E
:106E500000B10E208DF81500E0680290A068039044
:106E600020680190606800900A480D4A6946083021
:106E700001F0DAFE002809D1B0702068401C05D06E
:106E800004490122491CC81D01F002FF09B0F0BDF0
:106E90000720FBE74C2D0020B83D0020E8A70200AA
:106EA0001DA3020010B501461048FFF76BFE040059
:106EB00019D10F480F4A0178515C19B1001D02F039
:106EC0007BFD02E00C3002F05FFC60B90849074826
:106ED0000839FFF73CFE30B905490122083904485A
:106EE00001F0E6FE0446204610BD0000C83D00202B
:106EF000542D0020E02C002030B5EFF3108172B645
:106F00000D4A9468012324B10370002900D162B6B0
:106F100030BD93604FF0E023D3F88051074C2540FB
:106F20001560C3F88041D3F8844154605A17C3F800
:106F3000842100220270E8E7D83D0020FC06FFBD56
:106F40000B498A68002A11D000280FD1EFF3108076
:106F500072B60B684FF0E022C2F800314B68C2F8FD
:106F6000043100228A60002800D162B67047000018
:106F7000D83D002070B5054608680C46411C04D079
:106F800001F08BFF206801F019FF6068411C02D0FE
:106F9000002101F001FF2968A069C1F82405607D86
:106FA000227D29681043C1F86C05D4E900122868D5
:106FB000C0F81425C0F80C15207D012814D1A06854
:106FC000411C02D0002101F0E7FEE068411C04D022
:106FD00001F063FFE06801F0F1FED4E902122868D5
:106FE000C0F80825C0F8101570BD70B505460868D2
:106FF0000C46411C04D001F05AFF206801F0E8FE65
:107000006068411C02D0002101F0CFFE2968A06910
:10701000C1F82405607D217D2A680843C2F86C050B
:10702000D4E900122868C0F80C15C0F81425207D9A
:10703000012814D1A068411C02D0002101F0B5FE46
:10704000E068411C04D001F032FFE06801F0C0FEAE
:10705000D4E902122868C0F80825C0F8101570BDE0
:1070600070B588B182B10024158803E0065D641C08
:107070003444A4B2A54203D8061976789E4201D0C2
:107080008C42F3D38C4201D3002070BDA11C11802F
:10709000005D401E80B270BD2DE9F0418AB0064609
:1070A0000020ADF814001346102088468DF8040027
:1070B0000D4606AA01A9184664DFA6B398BB9DF841
:1070C0000400022804D0042807D0102839D10DE08C
:1070D00003208DF81000022003E005208DF8100039
:1070E00004208DF81100002404AF0FE007208DF874
:1070F00010000620F5E73B5D05AA41463046FFF744
:10710000AFFF641CE4B20546022C04D2BDF81400A3
:107110000028F0D003E0BDF81400002812D080B29F
:10712000064400240BE00CE030199DF8042006A969
:10713000FFF75AF948B19DF80400204484B2AC42EC
:10714000F2D300200AB0BDE8F0810120FAE7000088
:10715000054808B5C16800918168684601F04EFA9B
:107160000098FFF756FC08BD443B002070B540B1C5
:107170000C4D297839B1044602F0C4FD28B1002035
:1071800070BD0E2070BD082070BDE868062807D2CB
:107190000549226801EB8001401C0A60E860EEE7C7
:1071A000042070BDD02C00202C38002040B10549AF
:1071B00000220123CA600B70C1E90102104670472A
:1071C0000E207047D02C002070B504002DD000296F
:1071D0002BD020480078002827D020880D46112881
:1071E00015D0302804D0322807D033281ED109E02A
:1071F000211D284602F0F0FC18E0211D284602F06F
:10720000E9FB13E0211D284602F06EFC0EE0A08889
:10721000B5F8CA12884209D1002085F8C70285F85E
:10722000C8024FF6FF70A5F8CA0270BD95F8C802F3
:107230000028FAD020883028F7D34F28F5D8A08826
:10724000B5F8CA128842F0D12846BDE8704000F077
:107250001BBF0000D02C002048B1084A137843B16E
:10726000D26832B190F8C7222AB1112070470E209F
:1072700070470820704700F007BF0000D02C0020A6
:107280007CB50446011D00881F2856D00CDC324D09
:10729000102813D0112845D0132842D10023A088EC
:1072A0001A4685217FDF38E021284AD03B284ED07E
:1072B000562836D1A088132176DF2EE0A18800223F
:1072C00001EB410005EBC00000F030F908B1FFF719
:1072D00033FCA088214900EB400005EBC000D1F849
:1072E0000620026149898182072000F083FB08B1F2
:1072F000FFF722FC1948A1880C30FFF7ADFF08B159
:10730000FFF71AFCFFF724FF02280AD014480022D6
:107310004FF400414068FFF705FD002801D0FFF75A
:107320000BFC7CBD0F4800900888694600EB4000CC
:1073300005EBC00000F008F9EFE731F8040B75DF4A
:10734000EBE700200190A08801A98FDFE5E7A08886
:10735000132176DFE1E70000D8360020E029002085
:10736000B4A60200DD74020010B51A4C01886068F2
:1073700010290ED011292BD1401E606028D1FFF7B3
:1073800056FB002824D02168002921D0BDE81040F8
:107390000847D0B900210122084600F009FB08B1D6
:1073A00007280FD107220221012000F001FB08B1BC
:1073B000072807D104220221002000F0F9FA20B1A9
:1073C000072802D0216801B188476068401C6060CE
:1073D00010BD0000C82C00202DE9F04F074685881D
:1073E00002883D48012197B08346102A09D0112A0E
:1073F00049D01A2A6CD1387AB1EB101F45D201223C
:1074000044E0354C083CA068C0430B9061680BA871
:1074100001F0F4F80B990CA800F002FD2C220CA945
:107420006846FEF7BDFF0026E946A04610E000BF13
:1074300009EB46005FF00004B0F804A008EB8400FC
:107440005146001D01F0BAF8641C1D2CF6D3761CC1
:107450000098B042ECD8142D05D317B00420BDE835
:10746000F04FFFF769BB2946584601F0BDF82946A1
:1074700008F1040001F0B8F8F87B012828D016487C
:107480002946001D15E029461AE000220221B1EB31
:10749000101F01D2012600E000260F49083901F132
:1074A0001000041D294682B101F09EF836B129462C
:1074B000204617B0BDE8F04F01F096B829462046A7
:1074C00017B0BDE8F04F01F079B801F077F8F5E7B3
:1074D00017B0BDE8F08F00004C3B002010B504460B
:1074E000087838B1012818D002281ED1BDE8104014
:1074F00002F0BABC488801F10E020146204600F0B5
:1075000015F808B1FFF718FB204600F0D9F800285D
:107510000BD0BDE81040FFF70FBB8B8988686288ED
:10752000BDE81040194600F0EFB810BD48B14180E9
:107530002AB15188C1801188818091880181002001
:1075400070470E207047000030B5114B0D46040007
:107550000FCB85B08DE80F0018D0BDB1214668462D
:1075600062DF002810D120788DF812000120ADF8DC
:1075700010004FF6FF7060802868E0600020A08057
:10758000208104A8FFF7F2FD05B030BD0E20FBE717
:10759000A0A7020010B5024686B008002ED0002A2F
:1075A0002CD041884FF6FF73994202D09488A142B3
:1075B00024D11488112C14D0392C1FD18188002992
:1075C0001CD053898B4219D1C168002916D00121E2
:1075D0008DF8001002F110010291D189ADF80C1064
:1075E00009E092888A4209D1C168002906D00221A7
:1075F0008DF800104380C2686946904706B010BD00
:1076000030B585B00C46054614216846FEF7E1FE0C
:10761000207804F10E01002830D1A08801282DD156
:10762000A0792A78904229D1002217E002EBC2000B
:1076300031F81030022B02D0032B0ED105E001EB04
:1076400040000089ADF8120007E001EB400003891B
:10765000ADF80E304089ADF81000521C207A9042EF
:10766000E4D8E868002809D06088ADF8020000205E
:107670008DF80000EA6869462846904705B030BD9D
:107680003EB518B1142A03D907203EBD0E203EBDD9
:107690004388A3F57F44FF3C0DD0084D38CD8DE8DD
:1076A000380003890291ADF80230ADF80620408819
:1076B0006946A3DF3EBD08203EBD0000BCA7020016
:1076C0001FB5010019D04888A0F57F42FF3A16D0B7
:1076D000C988A1B101228DF80C200A4B00228DF837
:1076E0000D20D3E90423CDE90023ADF8021003A94E
:1076F00002916946A3DF04B010BD0E20FBE708200D
:10770000F9E70000A0A7020070B516460C460A462D
:10771000054601461148FEF743FE06EB46030F4EB1
:107720000E4A9C3EE1B206EBC3030A441E69166092
:107730000B489B8A9380891D01700021094A0846E5
:10774000FFF72EFA281910F8010C0D2804D10A2091
:10775000FFF7A8FB1128FAD070BD00007437002095
:10776000E0290020A16402000149085C7047000084
:10777000DCA60200084908B5085C0090684601F0E4
:1077800049FBD0F810050099C84010F0010000D066
:10779000012080F0010008BDDCA602002DE9FC41BB
:1077A0000646C0074FF000050ED0104F00240122FE
:1077B000385D009500231146019501F089FA641C9B
:1077C000042CF4D300F04EF8B0070DD5074E00247A
:1077D000361D0022305D032300951146019501F00E
:1077E00077FA641C042CF4D3BDE8FC81D8A602000F
:1077F000094908B5085C0090684601F00BFBD0F819
:107800000425009B0121994021EA0203C0F80835B4
:107810001140C0F80C1508BDD8A602000249085C4A
:10782000012101F04EBB0000D8A602000249085C0D
:10783000002101F046BB0000D8A60200084908B5A7
:10784000085C0090684601F0E5FAD0F8040500995C
:10785000C84010F0010000D0012080F0010008BDF8
:10786000D8A6020010B500242046FFF7D7FF641CFD
:10787000042CF9D310BD10B500242046FFF7D6FF25
:10788000641C042CF9D310BD10B50246064B4FF012
:10789000FF3000215C5C944201D1084610BD491CB8
:1078A0000429F7D310BD0000DCA6020070B50C4E11
:1078B0000C004FF0000530600BD0012000F06AF89A
:1078C00008B1022004E0002000F064F800B10B20B1
:1078D0002070706810B9FFF7AAF80546284670BDF9
:1078E000C82C002010B5002000F0BEF908B1062811
:1078F00006D1012000F0B8F908B1062800D1002017
:1079000010BD00002DE9F0470D468146FFF7BCFF92
:107910000446042836D2DFF874801B481C4EA8F1B8
:107920000C0725B3012D0ED0022D2BD104EB440002
:1079300030444578002D25D0B968002922D028464A
:10794000BDE8F047084704EB4401755C0E447178CC
:1079500049B10E4A4FF40041093A8068FFF7E2F955
:1079600008B987F80390B17808F80410E2E7806856
:10797000FFF71CFA04EB4401314418F804008D7839
:10798000A842D7D0BDE8F087E0A60200C42C0020B2
:1079900000380020042801D2FFF7ECBE0020704719
:1079A000042804D00A2802D1002001F0FBBA704755
:1079B00070B50023042810D20D4D00EB4004012ABD
:1079C00002D101290CD00022094E00EB40003044C6
:1079D00061B1012906D0022906D00723184670BDDF
:1079E0000E30C2B22A55F9E74270F7E78270F5E728
:1079F00000380020044A014600201279D20702D044
:107A0000084600F04DB87047B82C002070B5064607
:107A10001E480024C0E90161B00720D500250122DD
:107A200011462846FFF7C4FF6D1C0446042D02D200
:107A3000002CF4D013E094B940F26662042114489B
:107A4000FFF726F804000AD1FFF710F8040006D16A
:107A50000F48104A0021001FFFF728F90446F007DD
:107A600012D00120FFF79AFE74B909480A4A002192
:107A70000C38FFF71BF9040006D10548074A01211D
:107A80000838FFF713F90446204670BDB82C0020D3
:107A9000ECA602006F7C020035830200656A0200DA
:107AA0002DE9F05F6E4C054600266078B34618B1AC
:107AB00084F801B000F026FC6A4F4FF47A694FF465
:107AC000C87A4FF00108182D69D2DFE805F00C13D1
:107AD00013384754696E727B727BC58484848484B6
:107AE000B3B6B9BCC5C500F00DFC3868FFF75EF948
:107AF00006465CE00020FFF7A1FE00284FF00000E2
:107B000008D0FFF78BFE022D02D14FF4E16008E0B0
:107B1000484606E0FFF78AFE022D01D1C82000E0AA
:107B20005046410CC0034FF4FA72801841F1000135
:107B3000257052000023FEF7F3FB01462AE00020E7
:107B4000FFF77CFE00284FF0000004D0FFF766FE30
:107B50004FF44870E5E7FFF769FEDFE70020FFF725
:107B60006DFE00284FF0000002D0FFF757FECFE770
:107B7000FFF75CFED4E70020FFF760FE00284FF01F
:107B8000000002D0FFF74AFE01E0FFF74FFE25702C
:107B900041F69A1100223868FFF7C4F8064646E01D
:107BA0000020FFF725FE257008E0002051E0257039
:107BB0003DE084F801800120FFF71AFE002240F624
:107BC000CD41E8E784F801800120FFF711FE002293
:107BD0004FF48041DFE77868FFF7E8F80646D5F113
:107BE000110000D02EB10220FFF718FE84F802B079
:107BF0001DE0012816D980B2C8214843C117C90326
:107C000041EA5041C0034FF4FA72801841F100017B
:107C100052000023FEF784FB014600227868FFF73C
:107C200081F806460220FFF701FE84F80280304604
:107C3000BDE8F09F00F066FBB9E700F063FBB4E736
:107C400000F060FB04E000F05DFB0020FFF7EEFDBC
:107C50000120FFF7EBFDAAE7FFF70DFEA7E7000005
:107C6000B82C0020E0A60200012102F0FDBC007843
:107C70000221FFF747BE000005494FF0FF320828F8
:107C800041F8202002D3084480F8582070470000B3
:107C9000D03B0020F0B54FF0FF3512B1002308268D
:107CA00001E008230C260C4C05E000BF54F82370BB
:107CB0007F1C04D05B1CB342F8D32846F0BD2618C5
:107CC0005DB286F8305044F82310002AF5D1E1184F
:107CD00081F85800F1E70000D03B00200249084439
:107CE00090F9300070470000D03B002008B50246F4
:107CF00090F8C6020B4600EB8001C1EB801002EB4E
:107D0000400092F8C52242B1521ED2B202EBC2012B
:107D100000EB4102518A491C00E0C188ADF8001017
:107D20000089ADF80200694618469DDF08BD0000D5
:107D300070B5084C050009D010342168002907D01F
:107D400008682060496828468847F6E70834F4E761
:107D500070BD0000BC3B0020054A012120B1012874
:107D600005D19170FFF7E4BF51700020FAE770472A
:107D7000BC3B00202DE9F05F26484168F1B3DFF8F5
:107D800098B00E688146DBF8004087688078E11B78
:107D900021F07F45ED1CB0B9DFF880804FF48030D2
:107DA000C8F84403C8F804031120FEF767FC11204B
:107DB000FEF76FFC4FF0010AC8F800A02F2001F079
:107DC0007DFA89F802A0B54200D23546124BE81977
:107DD0003C3320F07F401860DBF800105A46091B46
:107DE00021F07F41001B20F07F40C91C81420FD948
:107DF000106818602F2001F061FA00E004E0BDE88F
:107E0000F05F1120FEF750BCBDE8F05F01F096BFB7
:107E1000BDE8F09F382D00200415014000100140FE
:107E200073B58CB00646002000900D9880B10024F8
:107E30006D4621460DA800F0CCFB30B1009805EB53
:107E4000400084800098401C0090641C142CF0D3E7
:107E50002C2269463046FEF7A3FA0EB070BD1FB55E
:107E600000220092ADF800100192ADF802100292CB
:107E7000039202AA694690DF04B010BD4188044A0B
:107E800001EB410102EBC10201461046FFF7B8BB0E
:107E9000D83600202DE9F843054690F8C6020F4673
:107EA00000EB8001C1EB801005EB400695F8C54260
:107EB000914604EBC40006EB40013279601C0A31A4
:107EC000904226D16B460022284600F0E9F918B30B
:107ED00010E0401EA04201D1002004E004EBC400E9
:107EE00006EB40001C30804602466B46284600F0F8
:107EF000D7F930B100203870694648469EDFBDE8AA
:107F0000F88395F8C5024146401C641C85F8C502FB
:107F1000E4B23079A042DCD8012038700020EEE7CE
:107F20002DE9F0470025DFF890803DE060680021F2
:107F300000EBC506012032789146FEF722FAD4E91B
:107F4000062300EA020701EA030C57EA0C0729D0CE
:107F500082438B434846C4E9062301F06DFA327828
:107F60008246914601200021FEF70BFAD4E9042352
:107F700000EA020401EA03074A4650460021FEF7E0
:107F800000FA44404F403C430CD17078012801D0A6
:107F9000012000E00020726880EA0A0012B1C1B23C
:107FA000484690476D1CEDB298F800004446854263
:107FB000BCD3BDE8F0870000082D00202DE9F04774
:107FC000894690F8C612904601EB8102C2EB8111FE
:107FD00000EB4107384601F095FE06002FD0194C02
:107FE000A06806282BD2184D762205EBC010394622
:107FF000A0F80280001DFEF7D3F90027B9F1000FA9
:1080000004D0A06805EBC010077004E0A16802204E
:1080100005EBC1110870A06805EBC011401CCE67CC
:10802000A060E16888420AD1002604E005EBC61092
:10803000C16F8847761CE0688642F7D3A760BDE829
:10804000F0870000D02C00204438002070B50E4688
:1080500090F8C612154601EB8102C2EB8111A0B067
:1080600000EB410001F04EFE040009D07C220549DE
:108070006846FEF795F9ADF8025068460196A047AC
:1080800020B070BD0CA7020070B50E4604464FF438
:108090003371FEF79EF911480025A4F8CA62856085
:1080A00084F8C9520E4884F8C65284F8C552006854
:1080B00020602246012130469BDF0121112806D095
:1080C000002809D184F8C71284F8C85203E084F864
:1080D000C71284F8C812002070BD0000D02C002008
:1080E0002C3800200E4910B50A784C780023A242A3
:1080F00012D0521CD2B20A70022A00D10B70084A68
:108100000B780C3252F8232002608868104420F06B
:108110007F408860012010BD0360002010BD00007A
:10812000382D0020826883881A4003689A5C0A70A0
:108130008168491C81607047C26883881A4003685F
:108140009954C168491CC160704710B50446C0B25B
:10815000FEF7A8FE204610BD0888A0F52062773AF9
:1081600003D188880149C01E48807047E02900205B
:1081700010B50949094800F06EFA08B1FEF7DCFCB9
:108180001721064800F05DFA002803D0BDE8104032
:10819000FEF7D2BC10BD0000598102000837002054
:1081A0002DE9F0418046024601200021FEF7E9F862
:1081B0001A4F05460E467868FEF7F8FD00280CD1E8
:1081C000174CD4E9062110462A4001EA06031A4357
:1081D00005D0A843B143C4E90601BDE8F08140469B
:1081E00001F02AF930B1D4E9040128433143C4E94C
:1081F000040105E0D4E90410A943B043C4E9041024
:10820000D4E9060128433143C4E90601A16878682E
:10821000BDE8F0410022FEF785BD0000D8A70200AE
:10822000082D002070B50D46044600684FF4887193
:1082300001F009F84FF49071206801F004F84FF450
:108240009271206800F0FFFF4FF4A271206800F0E7
:10825000FAFF20681149C0F804132068690740F349
:108260000730090E002806DA00F00F0000F1E020C8
:1082700080F8141D03E000F1E02080F8001420686D
:10828000012140F3073000F01F02914040098000B7
:1082900000F1E020C0F8001170BD000010030200E2
:1082A00010B509892AB1D088491C814218D1002013
:1082B00010BD90F8C62202EB8204C4EB821200EBE0
:1082C000420212899142F2D0491C198090F8C612DC
:1082D00001EB8102C2EB811100EB4100008902E059
:1082E0001980D088401E5880012010BD007DC0F349
:1082F000C100012803D0032801D0002070470120CD
:10830000704700000A4810B5807860B1002401E091
:10831000022C06D02046FFF781FA641C042CF7D308
:1083200010BD0324F6E7BDE81040FFF79BBA00003C
:10833000B82C002003480179C90702D00078FFF764
:10834000AFBB7047B82C002017210180418000216D
:10835000017141711B218171C17170472DE9F04795
:10836000394E002780463D46DFF8E090D6F804A05D
:1083700057E003D00446D0F81C8035E099F800207F
:1083800002EB4201521CD2B289F8002009EBC10174
:1083900099F80230091D9A4201D189F800504868C5
:1083A0000A780446012A12D0022A02D0032A3BD1BD
:1083B00008E001F0A3FE00B10127257434E0057444
:1083C000C06900E070680028F9D170602CE0207C62
:1083D00050BB88686060C868A0600869E060486950
:1083E000A061F07800B165606268B168184B501AFE
:1083F00020F07F40984202D2A168084406E0881A23
:10840000A16820F07F40814202D9081A206000E074
:10841000256065600120A56020742046E56101F0BB
:108420004FFEB8F10000A4D199F8001099F80100AE
:108430008142A3D117B97168514502D00120BDE82E
:10844000F0870020FBE70000382D0020AC3C002026
:10845000FFFF7F008AB0FEF73BFC08B1FEF76CFB24
:10846000424A01214248FEF721FC08B1FEF764FBB5
:108470003F48404A0021001DFEF718FC08B1FEF7F6
:108480005BFB3B4918220C316846FDF789FF3A48EF
:1084900006903A494FF48070CDE90701099007230F
:1084A000374A06A96846FEF7ABFC08B1FEF744FB65
:1084B000344A1E213220FEF7E3FB08B1FEF73CFBF5
:1084C00031490120FFF7A2FA08B1FEF735FB6946F2
:1084D0000020FFF7EBF908B1FEF72EFB2B48FEF763
:1084E00065FE08B1FEF728FB00F026FD08B1FEF797
:1084F00023FB00F0FBFD08B1FEF71EFB00200090FF
:108500006946012000F076FD08B1FEF715FB6846CC
:1085100000F0B4FD08B1FEF70FFBFFF729FE1C4881
:108520001C4D0024CDF8000004EB440005EBC00016
:108530006946FFF709F808B1FEF7FEFA641C022C41
:10854000F2D301F065FC14A0FEF728FA08220021FE
:10855000022077DF08B1FEF7EFFA01F085FC00BFDB
:10856000FEF76EFB00F0FCFCFAE700003DA0020005
:10857000B4A60200A9670200D02D0020D02E002052
:1085800055A20200D02F0020A17902007D7E0200BA
:10859000DD740200D8360020424C4520554152542B
:1085A0002063656E7472616C206578616D706C65B6
:1085B00020737461727465642E0D0A0001F01F034C
:1085C00001229A40D243490900EB8100114600F094
:1085D00015B84A0950F8220001F01F02012191400C
:1085E000084000D00120704701F01F0301229A408B
:1085F000490900EB8100114600F00BB808B56A4646
:10860000FDF721FE009808BD08B56A46FDF702FE99
:1086100008BD08B56A46FDF709FE009808BDC20806
:1086200000F007030120895C98400840704710B5AE
:10863000C20800F00703885C01249C402043885452
:1086400010BD18B1172903D0072070470E207047BE
:1086500041800020704770B5040010D01720A16140
:10866000208060801B202071002504EBC500801D48
:10867000FFF76AFE6D1C022DF7D3002070BD0E209F
:1086800070BD00002DE9F04785888EB00C462E465F
:10869000022D7DD20188DFF8909100274FF0010A6A
:1086A000242976D006DC102909D0112934D02329B9
:1086B00031D1AFE03A2935D055292CD154E004EB23
:1086C000C608217988F80C10C07B08F1060801283B
:1086D00002D0022805D101E0208800E06088A8F8D7
:1086E0000000B8F80010B8F8020081420AD93046FC
:1086F000A5DF10B1112803D004E088F805A001E03F
:1087000088F804A098F8061098F80700814271D9FB
:108710003046FFF7A4FB6DE004EBC600801DFFF7B9
:1087200013FE67E0314604EBC106408936F8062F98
:10873000824200D810467080172800D2172070801F
:10874000A06970B1707960B1D9E90020CDE900204D
:10875000ADF802107088ADF80400A26920466946A1
:1087600090477771377145E0C08804EBC60808F17F
:108770000608172800D21720B8F80010814200D848
:108780000846A8F8020088F80470B8F8001001E064
:108790003DE014E03046B5DF98F8050050BBA06915
:1087A00040B3D9E90210CDE90010ADF80260B8F885
:1087B0000200ADF8040020466946A26919E0011DD7
:1087C0002C226846FDF7ECFDBDF80000BDF8042042
:1087D00004EBC0014A73A26962B1D9E90432CDE960
:1087E0000B32ADF82E00487B8DF83000A269204690
:1087F0000BA9904704EBC504A07A002807D0E188B4
:108800002846A5DF002802D1A77284F80BA00EB07D
:10881000BDE8F08704EBC602017A107B8842BFF402
:1088200077AF014674E7000088A702002DE9F04108
:10883000044600F1140800F10A06877C007A8D1CBA
:1088400086B000281ED08BDF14216846FDF7C1FDDD
:108850000E4800213B4601608180D5F8011001607F
:10886000B5F8051081803246414628468CDF062146
:108870008DF800100190002804D0616A002901D011
:108880006846884706B0BDE8F0810000E629002070
:108890004FF4C87101820621418118218181002194
:1088A000C1817047017DA022C2825022028321F043
:1088B00018010022428341F0040101750121417534
:1088C0007047F0B520B11AB1032903D00720F0BDDD
:1088D0000E20F0BD04790346051D0CB10420F0BD47
:1088E00000211688084633F82170B742F7D0491C9A
:1088F00011F0FF01F7D003EB8401641C2C701268A7
:108900000A60F0BD18B100214171084670470E2081
:10891000704710B50B46040002D0980702D009E05A
:108920000E2010BD580705D4D80603D4180701D46B
:10893000072010BD2046FFF7E5FF580701D50120AD
:108940006071A271002010BD70B50D46040010D0FA
:108950000026266066606262EDB128792072287B6D
:10896000A074296839B10E2204F11400FDF718FD36
:1089700004E00E2070BD2046FFF794FFA86830B1D8
:108980000168C4F80A104068C4F80E0009E02046E7
:10899000FFF77EFF05E0FFF785FF2046FFF778FF32
:1089A000267204F12800A0641F20A4F84C000020C7
:1089B00070BD2DE9F04F044689B000208846074677
:1089C000069014216846FDF704FD04F1140004909C
:1089D0002046FFF78BFC010004F14800059011D000
:1089E00002208DF80000CDF80480616A684688474F
:1089F000002005998ADF41462046FFF717FF09B09E
:108A0000BDE8F08FA079002107916179834621B3F9
:108A100001210691824694F804900026B8F81C00C3
:108A20003546089012E004EB8502D8F81800089942
:108A3000FEF732FB28B1761CF6B2BAF1000F0DD06A
:108A400002E0BAF1000F06D16D1CEDB24D45EAD33C
:108A5000BAF1000F02D04E4501D009E046B19DF8B1
:108A6000080040F004008DF8080001207F1C0790EA
:108A7000CDF80480BBF1000F02D00698874203D0E6
:108A8000079830EA0B0007D000208DF8000041461F
:108A90002046FFF7CBFE02E003208DF80000616A5C
:108AA00009B168468847002005998ADFA7E770B5B5
:108AB0000D46014601F108020C1D284609881435AF
:108AC00086B0102935D01B291FD01D2917D0202989
:108AD00042D1064614216846241DFDF77AFC706ACF
:108AE000002839D005208DF80000049520680190F9
:108AF00060680290207A8DF80C00716A2AE006B056
:108B00001146BDE87040FFF754BF06461421684681
:108B1000241DFDF75EFC207801281DD1706A002815
:108B20001AD004208DF80000049520788DF80400F8
:108B3000E3E7064614216846FDF74BFC07208DF855
:108B40000000201D01902088ADF808000495716A8E
:108B5000002901D06846884706B070BD10B586B0C0
:108B600004001BD014216846FDF733FC8BDF204640
:108B7000FFF7BCFB30B1616A21B101208DF8000024
:108B80006846884704F1480104F114008ADF082888
:108B900001D0002800D1002006B010BD0E20FBE758
:108BA00000F180400068002800D00120704708B51F
:108BB00000F18040002101600068009008BD0000C5
:108BC00070B50B4C207808B185250FE00020A0601F
:108BD00060602061E060074800F052FB054600F04D
:108BE000D1FA08B900F036FB01202070284670BD8C
:108BF000BC3B0020597D020038B500258DF800509F
:108C00006846FEF779F9074CE068401EE060E068CE
:108C100010B900F045FBA5709DF80000FEF790F933
:108C200038BD0000BC3B0020F0B50546047815486F
:108C300089B0164640F82420124A08690832A2F189
:108C40000C0742F82400487F385520226846FDF77B
:108C5000A7FB04942878385C48B10EB10A4A00E0BA
:108C600000226946281D00F0A7FD09B0F0BD0EB135
:108C7000064A00E00022694605F10C0000F054FCB1
:108C8000F3E70000E42C002015A50200BDA30200BC
:108C900030B40378054CE35C1BB130BC001D00F020
:108CA000C1BD30BC0C3000F0A7BC0000E02C00209F
:108CB00030B40378054CE35C1BB130BC001D00F000
:108CC00033BE30BC0C3000F00DBD0000E02C0020A5
:108CD0002DE9FF411C46DDE90A7815460E46684637
:108CE00000F098F846EA450141EA840141EA07228A
:108CF00042EA0841009A00EB8200C0F80017BDE884
:108D0000FF812DE9FF411C46DDE90A7815460E4634
:108D1000684600F08DF846EA450141EA840141EADF
:108D2000072242EA0841009A00EB8200C0F80017CF
:108D3000BDE8FF812DE9FF411C46DDE90A781546B3
:108D40000E46684600F082F846EA450141EA840191
:108D500041EA072242EA0841009A00EB8200C0F88B
:108D60000017BDE8FF812DE9FF411C46DDE90A78C7
:108D700015460E46684600F077F846EA450141EA96
:108D8000840141EA072242EA0841009A00EB82008E
:108D9000C0F80017BDE8FF811CB500220B46009209
:108DA00011460192FFF7C6FF1CBD1CB500220B4601
:108DB000009211460192FFF7D6FF1CBD1CB50021A1
:108DC00000910B46012201911146FFF7B3FF1CBD34
:108DD0001CB5002100910B46012201911146FFF7BD
:108DE000C2FF1CBD13B50C46684600F021F800997F
:108DF00000EB8101D1F8002722F44032C1F80027AE
:108E0000009900EB8100D0F8001741EA0441C0F856
:108E100000171CBD0168202902D24FF0A040704706
:108E200001F01F010160014870470000000300507D
:108E30000168202902D24FF0A040704701F01F01C5
:108E400001600148704700000003005001682029BC
:108E500002D24FF0A040704701F01F0101600148AD
:108E600070470000000300500168202902D24FF033
:108E7000A040704701F01F010160014870470000E9
:108E80000003005001B56846FFF7D2FFD0F8100587
:108E90000099C84000F0010008BD01B56846FFF721
:108EA000D5FF009A01219140C0F8081508BD01B511
:108EB0006846FFF7D9FF009A01219140C0F80815D4
:108EC00008BD38B501240090684631B1FFF7A2FF14
:108ED00000998C40C0F8084538BDFFF79BFF00990A
:108EE0008C40C0F80C4538BD1CB5094C0144D4E990
:108EF0000034CDE900346C4606E000BF54F8203061
:108F0000D3F81035401C08C28142F7D81CBD0000C0
:108F1000C8A70200034908B50844002101600068A1
:108F2000009008BD0060004002494058012800D070
:108F30000020704700600040064910B500204870CE
:108F4000091D0860BFF35F8F0349044800F03EF934
:108F5000002010BD682D002020A80200E43D002064
:108F600008B500208DF800006846FDF7C5FFF1EE5A
:108F7000100A20F09F00E1EE100ABFF35F8F08494E
:108F80004020C1F880029DF80000FDF7D9FF00F0F5
:108F9000F9F808B141DF08BD20BF40BF20BF08BDC0
:108FA00004E000E070B504460C480121FFF72CFBFB
:108FB000BFF35F8F0025002809D10120074E042C44
:108FC00008D0311F4A781AB1BFF35F8F356070BD8A
:108FD0000C70487000F0C2FFF6E700006C2D002016
:108FE00020B1034909680160002070470E207047D6
:108FF000A4A80200FEB502460C460846FFF7F0FFA3
:10900000002839D1002500950195022606208DF80B
:109010000020ADF8040002958DF80260694620201A
:10902000226869DF00958DF801508DF802600126F5
:10903000019502958DF8036069464020226869DF3A
:109040000095019502958DF800606946012022681F
:1090500069DF4FF4B0600090019502956946A12048
:10906000226869DF0095019502958DF800506946E8
:10907000A020226869DF0020FEBD000060DF00281C
:1090800002D1024A0121117070470000772D0020A3
:1090900030B5144891B00078002820D05FF0340536
:1090A000ADF8405010A903A861DF30B1052816D0F3
:1090B00011B0BDE83040FDF73FBD03AC0A4968463A
:1090C00000F084F807E000BFD0E900212046904777
:1090D000684600F092F802980028E1D0F4E711B059
:1090E00030BD0000772D0020A8A802007CB5194CE7
:1090F000207808B108207CBD0120A070002000F07D
:10910000EFFE112819D0002000F002FF12480026BF
:10911000006801908DF800606846FDF7EDFE0F498C
:1091200001A810DF05000AD0002020709DF8000083
:10913000FDF706FF2DB128467CBD00207CBD012037
:10914000F3E7A670667000F04DFF012000F0E0FE2E
:10915000F3E70000742D00203CA80200096B020018
:109160000EB50749684600F031F805E0D0E9001077
:109170008847684600F041F802980028F6D10EBDF5
:1091800058A802000148007870470000742D0020A4
:109190001FB568464BDF30B1052814D004B0BDE8D8
:1091A0001040FDF7C9BC084901A800F00FF806E01F
:1091B000D0E900210098904701A800F01EF803981C
:1091C0000028E6D0F4E71FBDC4A8020001600968CA
:1091D0004160AFF3008010B5D0E900215368994297
:1091E00001D1002104E0D1E90034A34202D01946A4
:1091F000816010BD08314160F0E7816800290BD023
:10920000026892680A44826041684B689A4203D1BE
:1092100008314160FFF7DFBF70474058002800D099
:109220000120704708B5002242504058009008BD08
:10923000D0F80403084000D00120704740580028AF
:1092400000D00120704708B50022425040580090DD
:1092500008BD000008480068012110F0010F06D188
:109260004FF0E020C02280F80024C0F8001103492C
:10927000002008607047000000E100E01805004091
:109280000649024600200B790BB185207047002368
:109290008B710A6001220A714B717047F42C002017
:1092A00004490120086004480168C1F30041002915
:1092B000FAD170470C00004018040040002802D08A
:1092C0000149800108477047E1A702002DE9F041FC
:1092D0000E46804600F0F2FC204D0028404616D095
:1092E000FEF7FCFC284490F858008009032802D0BF
:1092F00001280AD003E04046FFF7C4FD28B103214E
:109300004046BDE8F041FFF76DBD0221F8E700F0EF
:10931000E1FC002820D04046FEF7E0FC0446104F58
:109320004FF4807007EB840100EB8400D1F8102526
:1093300080B242F00102C1F81025FFF7EBFD002ECC
:109340000AD04046FEF7CAFC55F82000002803D09A
:109350000120A040C7F80403BDE8F081D03B002005
:10936000006000402DE9FC41DFF8C080044608EBB6
:109370000400002790F930001346C0170E46401C29
:1093800001D008274FE0B0781946C0F340022046CC
:10939000FEF780FC0546401C44D0B07841071CD441
:1093A000C0070DD068460094FFF742FD009900EB1E
:1093B0008100D0F8001721F00201C0F8001707E083
:1093C00000217378204600910A460191FFF799FC2D
:1093D000164920466431FFF72AF9B078800718D57E
:1093E0001348317800EB8500D0F81025114B1A4056
:1093F000C0F810254FF47C524FF4403302EA0422A7
:1094000003EA01410A43D0F810150A43C0F81025B9
:1094100009E008EB0500327810F8581F41EA821184
:10942000017000E004273846BDE8FC81D03B0020F5
:1094300000600040FFC0FCFF10B5FFF723FD0028CF
:1094400000D0012010BD000070B5184D95F86A00DD
:1094500008B1082070BD0020411E2A18401CC0B26F
:1094600082F830103028F8D300242046FEF704FCA0
:10947000641CE4B20C2CF8D30C490024C0204C66C8
:10948000A1F868400A4981F8000401264020891F9C
:10949000C1F800014FF4BE70FFF73CFD0549F0072D
:1094A000C1F8040385F86A60204670BDD03B0020F7
:1094B00006E000E000600040034890F86A000028E1
:1094C00000D0012070470000D03B00200121B1EB0B
:1094D000507F01D1012070470020704738B50D46FC
:1094E00000F004FC040014D000208DF80000684651
:1094F000FDF702FD207928B19DF80000FDF720FD61
:10950000112038BD0120256020719DF80000FDF775
:1095100017FD002038BD00000149024800F066BF79
:109520003C3C0020002000402DE9F0410546007938
:1095300016460F4600EB40012C4A01EBC00102EB3E
:10954000810494F82A1011B10820BDE8F08128495F
:1095500051F820102868FFF7C1FF08B11120F4E787
:1095600039462846FDF706FD666038692060300000
:109570004FF001062DD03F7F4FF48E712868FFF722
:1095800051FE4FF4A2712868FFF74CFE2868194974
:10959000C0F8041328684FEA471140F30730002849
:1095A00006DA00F00F0000F1E02080F8141D03E05F
:1095B00000F1E02080F80014286840F3073000F044
:1095C0001F0106FA01F14009800000F1E020C0F817
:1095D000001128680421C0F800150020A061E06196
:1095E00084F8290044F8140FA675AEE73C3C00202F
:1095F000D0A70200800002002DE9F05F0546007947
:109600004FF4017600EB400303EBC000344B03EB57
:1096100080040020636813B12B68C3F80863A36952
:109620004FF000096BB1E06938B1606810B128688B
:10963000C0F804631120BDE8F09FE26101202161C0
:1096400005E0C4F82490A261E160C4F81C9094F88D
:109650002910014302D1284600F0BDFB60680028B4
:10966000286803D0C0F804630020E4E74FF4A27632
:109670003146FFF7D7FDB2464FF4927B5946286832
:10968000FFF7CBFD06464FF484712868FFF7C5FD50
:10969000804651462868FFF7C0FD074648EA0700A4
:1096A0003043EBD056EA070007D12146286800F086
:1096B00063FBA169606A8142E0D8C4F818900EB1DA
:1096C0000320B8E70FB10F20B5E794F82910012067
:1096D0000029296801D00860C6E74860C4E7000097
:1096E0003C3C00202DE9F047054600790B4600EB95
:1096F000400101EBC000234901EB8004284600F043
:1097000043F810B11120BDE8F0874FF00008C4F80D
:109710002080A360626184F828804FF48E764746EB
:1097200031462868FFF77EFD28684FF00109C0F830
:1097300008902146286800F06FFD606800BBD5F8EE
:1097400000A00EE094F8280008B10F2716E031467B
:109750005046FFF762FD0028F4D02146504600F045
:109760005BFD216A60698142F1D331462868FFF7C9
:1097700054FD0028F9D02868C0F80C90C4F8148073
:109780003846C0E73C3C0020007900EB400101EB8B
:10979000C000044901EB80004069002800D001208E
:1097A000704700003C3C00200149024800F0CABE5E
:1097B000683C0020002000402DE9F0410546164697
:1097C00000790F46154A00EBC00102EB810494F8C2
:1097D000201011B10820BDE8F081114951F8201086
:1097E0002868FFF77BFE08B11120F4E739462846C8
:1097F000FDF7FBFB6660386920601EB1397F2846A3
:10980000FEF710FD28680821C0F800150020A061AF
:10981000E0616061012184F82010DCE7683C0020F1
:10982000D4A702002DE9F05F044600790E4600EB54
:10983000C001DFF8F0A017460AEB81053046FFF7BC
:1098400045FEB0B168684FF000084FF4047910B1DC
:109850002168C1F80893A8694FF0000B80B1E8694E
:1098600048B1686810B12068C0F804931120BDE8C1
:10987000F09F1020FBE7EF614FF001082E6102E03E
:10988000EE60C5E9067B00254FF488712068FFF77C
:10989000DAFC4FF4A2712068FFF7D5FC2068C0F80D
:1098A0003465C0F838752068B8F1000F12D0D0F8D0
:1098B000001241F02001C0F800122079D04600EBE0
:1098C000C0010AEB8100406838B12068C0F80493F9
:1098D0002846CCE701210160EFE74FF4887A4FF486
:1098E000A27951462068FFF7A9FC0746494620683F
:1098F000FFF7A4FC06464FF492712068FFF79EFC28
:10990000014647EA06000843EBD0227902EBC20386
:1099100008EB8302C2F818B001B10325002ED7D09E
:109920000F25D5E7683C00202DE9F04704460E4698
:109930000079204900EBC00001EB80051746304656
:10994000FFF7C4FD30B1204600F036F820B11120F9
:10995000BDE8F0871020FBE76F61AE604FF49076B2
:10996000002731462068FFF76EFC4FF4AC78414683
:109970002068FFF768FC2068AA686969C0F8442578
:10998000C0F84815206801218160686878B9B1463F
:1099900049462068FFF752FC064641462068FFF71B
:1099A0004DFC0643F4D000B10F2700206861384613
:1099B000CEE70000683C00200079054900EBC000BC
:1099C00001EB80004069002800D0012070470000B2
:1099D000683C00202DE9F84F05460C460888B5F88C
:1099E000CA12884259D195F8C602DFF8F8A000EBF8
:1099F0008001C1EB801005EB400160884FF0030946
:109A00004FF00008F0BBE6880879A21DF3B250FAC7
:109A100086F6062E01D8034400E006230B710026CB
:109A20001CE000BF00EBC00306EB860702EB470714
:109A300001EB4303D7F802C0C3F80AC0D7F806C049
:109A4000C3F80EC07F895F82A3F81480A3F8168044
:109A5000A3F81880401CA3F81A80761C0B79834267
:109A6000E0D895F8C62200EBC00002EB8203C3EBFE
:109A7000821205EB420231F81000128990420ED298
:109A8000087900E00BE0062809D085F8C502218896
:109A90002846FEF72BF901000AD1BDE8F88F85F8BA
:109AA000C582228869462846FEF7F4F901000BD0EA
:109AB00085F8C78222882846FEF7C8FA8AF80090FF
:109AC0002188AAF80210E8E79DF800000028E4D0F9
:109AD000228801212846FEF771FA2188284600F0E5
:109AE000AFF8DAE744380020F8B505460C46088898
:109AF000B5F8CA1288425DD195F8C602A61D00EBE2
:109B00008001C1EB801005EB400395F8C502618828
:109B100000EBC00003EB40000A3039B329E000BF7E
:109B200001EB410206EB42029788B7F5245F0CD0A7
:109B30006FF4245C17EB0C070AD0012F02D0072F1B
:109B40000BD108E05288428107E05288828104E00C
:109B50005288C28101E05288028242892AB18289F8
:109B60001AB1C2890AB1028A1AB9491C32888A42DA
:109B7000D6D800268DF8006095F8C5021979401CEA
:109B8000884203D101208DF8000018E085F8C50255
:109B9000228869462846FEF77DF901000BD085F83A
:109BA000C76222882846FEF751FA0A48032101704D
:109BB00021884180F8BD9DF800000028FAD0228855
:109BC00001212846FEF7FAF92188284600F038F8E6
:109BD000F8BD00004438002070B505460C4690F8EA
:109BE000C602228800EB8001C1EB801005EB40012A
:109BF000B5F8CA02824220D1608848B100212846C7
:109C0000FEF7DCF921882846BDE8704000F018B85E
:109C1000E068C1F8060021882846FEF767F80100D1
:109C20000BD0002085F8C70222882846FEF70EFADE
:109C30000248032101702188418070BD4438002012
:109C40002DE9F041044690F8C9020E46401C19491E
:109C5000C0B284F8C902C9680327174D4FF0000E3F
:109C6000884224D284F8C5E294F8C602401CC0B2EF
:109C700000EB8001C1EB801104EB410284F8C602C5
:109C8000A5F1180101EB800001210068106082F845
:109C900004E030469BDF010007D084F8C7E232467B
:109CA0002046FEF7D3F92F706E80BDE8F08184F86E
:109CB000C7E2F8E7D02C00204438002004490844CB
:109CC00090F93000082801DB012070470020704720
:109CD000D03B00200449084490F93000082801D204
:109CE0000120704700207047D03B00200349884284
:109CF00001D1034870470020704700000020004059
:109D0000FC2C002070B50C4B00210A4ADC680DE0E9
:109D100002EB81058678AD78B54206D132F8215044
:109D20000688B54201D1586870BD491CA142EFD3E5
:109D3000002070BD2C380020D02C002070B50126EA
:109D400070044FF0E0210025C1F88001084C40105C
:109D5000C4F84803C4F8080366602F20FFF7AEFA82
:109D6000A660044C2F20A560FFF7A8FAA57070BD6F
:109D700000100140382D002070B5054688690C465A
:109D800000284FF4847128460AD0FFF74BFAD5F823
:109D90001805626AE1688854606A401C606270BDA0
:109DA000FFF740FAD5F8180570BD1FB501238DF8EF
:109DB0000030CDE90121D0E90012684690471FBD6F
:109DC0001FB501238DF80030CDE90121D0E9001243
:109DD000684690471FBD10B5044600684FF4927165
:109DE000FFF720FA4FF484712068FFF71BFA206810
:109DF0000121016010BD0178042906D0062906D191
:109E00004068002803D0FCF797BE00F02DB87047DB
:109E10001FB50020009001900290039001208DF862
:109E200004008DF80C000D4A69460D48FEF78CFDC4
:109E300008B1FCF781FE0B4A03210948FEF741FDFA
:109E400008B1FCF779FE002204210548FEF761FD08
:109E5000002801D0FCF770FE1FBD0000F79D020036
:109E600024370020BCA6020010B50848FEF776FE95
:109E700008B1FCF761FE0120FDF7BCFD002803D00E
:109E8000BDE81040FCF758BE10BD0000243700208C
:109E900038B50021012548B101280CD0032809D18B
:109EA000FFF7D8F9BDE83840FEF7A6BE4FF0E02036
:109EB000C0F8805138BD8DF800106846FDF71CF8D9
:109EC000064C207808B9FEF77BFEE068401CE06095
:109ED000A5709DF80000FDF733F838BDBC3B0020AD
:109EE0003EB5044609496846FFF770F908E000BF2F
:109EF000D0E900212046904730B16846FFF77DF950
:109F000002980028F4D13EBD11203EBD40A80200B9
:109F10003EB5044608496846FFF758F907E000BF18
:109F2000D0E90021204690476846FFF766F902987D
:109F30000028F5D13EBD00004CA8020010B5044633
:109F40000020FDF757FD08B1FCF7F6FD24B9FDF739
:109F5000C9FC08B1FCF7F0FD012010BD70B5164D2D
:109F6000164C07E0016820788847002822D0124864
:109F7000FFF743F9A8680028F4D1207803280CD013
:109F800002280AD0FFF7FEF800B133DF0C490120A8
:109F90000860BFF34F8F20BFFDE7BFF34F8F094825
:109FA0000168094A01F4E06111430160BFF34F8F7A
:109FB00000BFFDE770BD0000E43D0020682D0020DB
:109FC000000500400CED00E00400FA05002805D172
:109FD0000349012048700020FDF7AABE7047000029
:109FE000BC3B002010B51620FCF7F0FCA0B11148D6
:109FF00090F800044009082811D20121814011F095
:10A00000EC0F0CD00C4882684FF480016AB10168F3
:10A0100041F48001016010BD42F2010001E042F212
:10A020000200BDE81040FCF787BD4FF0E020C0F80B
:10A03000001110BD16E000E0D83D00207047000080
:10A040002DE9F84F1D4C00256846D4E901A6FEF71E
:10A0500049F8002738B30023009A61681CE0D1F862
:10A0600000C00846944503D9ACEB02020A6015E033
:10A07000A2EB0C0263440760D0F80CC0C1698146B2
:10A08000BCF1000F08D006EB030828F07F48C0E9B8
:10A09000018CC9F81C5005460029E0D128466160B2
:10A0A000FEF75CF903E02846FEF758F910B1504678
:10A0B000FDF760FEE770BDE8F88F0000382D002046
:10A0C0000D4B10B5596831B102680C68A24204D832
:10A0D000A21A0A60C161586010BD0B4603E00B462E
:10A0E000C969121B21B10C689442F8D3A41A0C6000
:10A0F0000260C161D86110BD382D00202DE9F0410A
:10A10000144E77683D462C4603E0844204D0254631
:10A11000E469002CF9D11BE0D4B1A5420BD1F86958
:10A12000706040B90C49012088600021B160F07076
:10A130002F20FFF7C3F82168E069E86110B10268D9
:10A14000114401607068874202D00120BDE8F081AF
:10A150000020FBE7382D0020001001407CB50646AA
:10A1600000240D468DF800406846FCF7C5FE01A8A6
:10A1700000F062FA70B10570094946609DF804006C
:10A1800048709DF80000FCF7DBFE1420FCF78CFA09
:10A1900020467CBD04249DF80000FCF7D1FEF7E7C3
:10A1A000AC3C00202DE9F041194D6C68002C2CD0FE
:10A1B000184800270068A968B846401A20F07F4672
:10A1C0002068B0420CD82146361A0744E469087C5E
:10A1D00020B181F81080886949698847002CEFD147
:10A1E00029786878814206D1401CC0B26870022884
:10A1F00001D185F80180064869780C3040F821705B
:10A20000BDE8F0411420FCF74FBABDE8F081000032
:10A21000382D00200415014070B50C4605464FF45A
:10A220008E71FEF7FFFF216AA068415C206A401C26
:10A230002062C5F81C1570BD1FB500228DF80020E6
:10A240000291816801914261D0E90012684690470D
:10A250001FBD00002DE9F0410178002641B1012920
:10A2600001D0022951D14068BDE8F041FCF764BC3F
:10A27000284C274DA0882844FCF7A8FDA088401C46
:10A2800080B22918A08011F8011C0A2902D0618827
:10A2900088423AD32844204A10F8021C06EB4603B1
:10A2A00002EBC3056B7D994218D110F8033C2F7D5A
:10A2B000BB4213D110F8043CEF7CBB420ED110F826
:10A2C000053CAF7CBB4209D110F8063C6F7CBB4219
:10A2D00004D110F8073C2F7CBB4204D0761CF6B2A8
:10A2E000022EDBD30FE0022E0DD2A0880849C01F3A
:10A2F00082B22846FDF7C4F9082804D01328F4D008
:10A3000008B1FCF719FC0020A080BDE8F081000036
:10A31000BC2D0020E0290020D83600207CB5017833
:10A32000244D81B301290BD002292BD18DF80010C7
:10A33000C068691C01900122C81DFEF7A9FC2EE02F
:10A34000406801781C48FCF71DFC1B4C012618B125
:10A350008DF80060019006E0A068E168814205D0B8
:10A3600000208DF80000696868468847A068E168A9
:10A37000081AA188884207D80E490122491CC81D25
:10A38000FEF786FC7CBD01E0AE70FBE70A48094998
:10A390001030FCF7DCFB30B103208DF80000696859
:10A3A00068468847EEE70349012201F10800FEF7FD
:10A3B0007FFCE7E74C2D0020B83D00201FB50A4682
:10A3C00001788DF8001041680191017A8DF808102C
:10A3D000C0680390044850F82210083850F8222032
:10A3E000684690471FBD0000EC2C00202DE9FF4778
:10A3F0000C4605464FF40071FEF71AFF01274FF493
:10A400000178002618B34FF4927949462846FEF7A2
:10A4100004FFE0B149462846FEF704FFC5F808836B
:10A4200094F8290000B96F6002208DF80000D5F87B
:10A430008004C5F880040390A0690290E068019050
:10A44000A661E661D4E900126846904728E004213D
:10A450002846FEF7EDFE18B34FF484712846FEF748
:10A46000DCFEE8B121462846FFF786FC616AA06958
:10A47000884215D1E06938B1E268616AA06120695B
:10A48000E6616662E06008E094F8290000B96F6058
:10A49000C5F80883A661E268616A2046FFF785FC7B
:10A4A0004FF48E7841462846FEF7B7FE78B1206A11
:10A4B0006169884202D294F8280020B341462846B8
:10A4C000FEF7B0FE616911B12046FFF7B5FE4FF40B
:10A4D000A27841462846FEF7A0FE002818D0414643
:10A4E0002846FEF79FFE94F8290000B12F60A0696E
:10A4F00000280DD0A661E268616A04B02046BDE87C
:10A50000F047FFF752BC21462846FFF785FEDEE7FD
:10A51000BDE8FF871FB50A4601788DF80010416835
:10A520000191017A8DF80810C0680390044850F832
:10A530002210083850F82220684690471FBD0000BE
:10A54000EC2C00202DE9FF410C464FF49277064693
:10A550003946FEF773FE0025B8B139463046FEF79E
:10A5600072FE02208DF80000D6F88004C6F8800440
:10A570000390D6F83C050290E0680190A561E56182
:10A58000D4E900126846904723E04FF488773946B3
:10A590003046FEF753FEE0B139463046FEF753FE33
:10A5A000D6F83C15A069884213D1E06960B1E26831
:10A5B000D6F8000220F02000C6F80002E069A06191
:10A5C0002069E561E06001E0A561E2682046FFF7EF
:10A5D000F7FB4FF4A27739463046FEF72FFE68B1FD
:10A5E00039463046FEF72FFEA06938B1A561E56116
:10A5F000D6F83C152046E268FFF7E2FB4FF490776F
:10A6000039463046FEF71AFE002812D03946304649
:10A61000FEF719FE606900280BD0D6F84C058DF8BE
:10A6200000500290A06801906561D4E9001268466C
:10A630009047BDE8FF8100000A494A788B78521C98
:10A64000D2B2934200D100220B78934201D1002074
:10A6500070470270487800EB400001EBC000001D1D
:10A6600070470000AC3C002010B504281DD209B191
:10A67000032400E00024FDF777F8202802D24FF0F1
:10A68000A04102E00A4900F01F0001EB8000D0F871
:10A69000001721F44031C0F80017D0F8001741EA44
:10A6A0000441C0F80017002010BD062010BD0000B6
:10A6B000000300507C2D00209C2D00200100020092
:10A6C0000800000006000000050000000700000070
:10A6D0000000000000E0D7010D0E0F100B0C181940
:10A6E000C0370020E03700200C3800200B000300AA
:10A6F000057902000C000300057902001800030030
:10A70000057902001900030005790200010000002C
:10A710000000000000000000000000000000000039
:10A720000000000000000000000000000000000029
:10A730000000000000000000000000000000000019
:10A740000000000000000000000000000000000009
:10A7500000000000000000000000000000000000F9
:10A7600000000000000000000000000000000000E9
:10A7700000000000000000000000000000000000D9
:10A780000000000000000000770A00000000000048
:10A79000770A0000000000007ADA000000000000E4
:10A7A0009ECADC240EE5A9E093F3A3B50000406E39
:10A7B0000101000000000200000000000201000092
:10A7C00000000000000000000000005000030050E6
:10A7D00019950200A9970200030000008C3C00209C
:10A7E0000338FDD870470000FFFFFFFFFFFFFFFFAA
:10A7F000FFFFFFFFFFFFFFFF000000000000000061
:10A800000000D6010601000000000000000000006A
:10A81000F0A80200F4A80200000000000000000000
:10A8200008A8020020A802000400000000000000A8
:10A8300000000000000000000000000000100207FF
:10A840002CA802003CA802000800000064A8020036
:10A8500074A802000800000074A8020084A8020086
:10A860000800000054A902005CA9020000000000DA
:10A870000000000044A9020054A9020000000000EA
:10A8800000000000F4A80200FCA80200FCA80200DE
:10A890001CA902001CA9020034A9020034A902006C
:10A8A0003CA90200E029002084A80200A4A802001C
:10A8B000080000003CA9020044A9020000000000BA
:10A8C00000000000B4A80200C4A8020008000000B4
:10A8D0005CA90200E02900209C03000048640200FB
:10A8E00074A902007C2D002074300000BC690200B5
:10A8F0003D9F0200D973020000000000858602001F
:10A9000008370020C9710200EC290020AF8A02003C
:10A9100024370020697302000000000095750200D2
:10A92000A837002095750200D836002095750200E2
:10A93000F03600208172020000000000CD9F02006E
:10A9400000000000919002000000000091910200C0
:10A9500000000000919E0200000000002102FF1490
:10A9600001FF01D503A1FFFF1220BA400801100426
:04A970000090D00380
:040000050002620192
:00000001FF
