:020000040002F8
:1060000020540020C1630200C9630200CB63020078
:10601000CD630200CF630200D163020000000000E4
:10602000000000000000000000000000D363020038
:10603000D563020000000000D7630200D9630200AC
:1060400091670200DB630200F1690200DB6302007A
:10605000DB630200DB63020079650200DB630200A0
:10606000DB630200DB630200DB630200DB63020030
:10607000DB630200DB630200DB630200DB63020020
:10608000DB630200E9670200DB630200DB630200FE
:106090000D680200DB63020011680200DB6302008E
:1060A000DB630200DB630200DB630200DB630200F0
:1060B000DB630200DB630200000000000000000060
:1060C000DB630200DB630200DB630200DB630200D0
:1060D000DB630200DB630200DB630200DB630200C0
:1060E000DB630200DB630200DB63020000000000F0
:1060F00000000000DB63020000000000DB63020020
:10610000000000000000000000000000000000008F
:10611000000000000000000000000000000000007F
:10612000000000000000000000000000000000006F
:10613000000000000000000000000000000000005F
:10614000000000000000000000000000000000004F
:10615000000000000000000000000000000000003F
:10616000000000000000000000000000000000002F
:10617000000000000000000000000000000000001F
:10618000000000000000000000000000000000000F
:1061900000000000000000000000000000000000FF
:1061A00000000000000000000000000000000000EF
:1061B00000000000000000000000000000000000DF
:1061C00000000000000000000000000000000000CF
:1061D00000000000000000000000000000000000BF
:1061E00000000000000000000000000000000000AF
:1061F000000000000000000000000000000000009F
:10620000DFF80CD000F07AF900480047A1A20200A4
:106210002054002030B450E8012F93B2C4892344A5
:106220008489A34228BF1B1B0489A34202BFBFF37A
:106230002F8F002007E0C3EA020340E80134002C5E
:10624000E9D14FF001000A6030BC704750E8012FDF
:10625000C2EA024240E801210029F7D1704730B478
:1062600050E8022F1FFAA2F3C488A34202BFBFF373
:106270002F8F00200DE0C48923448489A34228BFC6
:106280001B1BC2EA034340E80234002CE8D14FF064
:1062900001000A6030BC704750E8022FC2EA224277
:1062A00040E802210029F7D17047034653E8022F46
:1062B000D988B2EB324F4FF0000017BF92B241EADB
:1062C000014142EA014104E05A68B2EB324F08BF93
:1062D000012043E80212002AE8D1704730B4044696
:1062E00054E8000F0D4644E80053002BF8D1156028
:1062F00030BC704730B4044654E8000F40EA010552
:1063000044E80053002BF7D1156030BC704730B41F
:10631000044654E8000F00EA010544E80053002B4E
:10632000F7D1156030BC704730B4044654E8000F14
:1063300080EA010544E80053002BF7D1156030BC1A
:10634000704730B4044654E8000F00EB010544E800
:106350000053002BF7D1156030BC704730B40446B1
:1063600054E8000FA0EB010544E80053002BF7D1DF
:10637000156030BC704770B404464FF0000054E81C
:10638000006F0D68AE4207BF44E80023012044E8D7
:1063900000630E60002B1CBF0020F0E770BC70474C
:1063A00030B4044654E8000F88422CBF451A054615
:1063B00044E80053002BF5D1156030BC7047000055
:1063C0000648804706480047FEE7FEE7FEE7FEE78F
:1063D000FEE7FEE7FEE7FEE7FEE7FEE715680200E0
:1063E000016202002DE9F05F0546002092469B46BF
:1063F00088460646814640241BE0284641464746DB
:10640000224600F06BF853465A46C01A914110D309
:1064100011461846224600F016F82D1A67EB0108BF
:106420004F4622460120002100F00DF817EB00092D
:106430004E41201EA4F10104DFDC484631462A46C5
:106440004346BDE8F09F202A04DB203A00FA02F11F
:10645000002070479140C2F1200320FA03F3194352
:1064600090407047004870470007030040EA01036E
:106470009B0703D009E008C9121F08C0042AFAD2FA
:1064800003E011F8013B00F8013B521EF9D27047BE
:10649000D2B201E000F8012B491EFBD27047002266
:1064A000F6E710B513460A4604461946FFF7F0FF13
:1064B000204610BD421C10F8011B0029FBD1801A98
:1064C000704730B504460020034600E05B1C934251
:1064D00003D2E05CCD5C401BF8D030BD202A04DB49
:1064E000203A21FA02F00021704721FA02F3D0404D
:1064F000C2F120029140084319467047064C074DEF
:1065000006E0E06840F0010394E807009847103483
:10651000AC42F6D3FFF778FE441C0300641C030072
:1065200070B58C1810F8015B15F0070301D110F855
:10653000013B2A1106D110F8012B03E010F8016B82
:1065400001F8016B5B1EF9D12B0705D40023521E05
:106550000DD401F8013BFAE710F8013BCB1A921C6D
:1065600003E013F8015B01F8015B521EF9D5A1426B
:10657000D8D3002070BD00002DE9F04F00268DB06B
:10658000DFF8A081B14604964FF4807501243746A8
:106590000596284604F0E4FF38B1D8F804032042F9
:1065A00003D0284604F0D2FF26432D1D64007F1C33
:1065B000ADB2082FEDD34FF4BE74204604F0D0FFE7
:1065C00048B1204604F0C2FF46F0004604AA02216A
:1065D000002004F0A5FF544C16F0FF0F15D0012742
:1065E000002537420DD008EB8501D1F81005D1F810
:1065F0001015C0F3052054F82520C1F3014102B164
:1066000090477F006D1C082DEBD3002E7EDA002012
:10661000CDF82890411E0DF1100B07AACDF82C9053
:1066200042F82010401C91460228F9D300252E463E
:10663000A11911F8607F91F9000027F0C008401CF3
:1066400040D007A9404604F04AF940B34FEA971AF0
:10665000404601F0D3FE54F820701FB1BAF1030F89
:1066600003D006E0BAF1030F2CD10AA9404604F08A
:106670003EF902A8CDF8088004F0F6FE029900EB7E
:106680008100D0F8000704A9C0F301400290404601
:1066900004F025F90028029802D0022802D011E067
:1066A00003280FD1BAF1030F08D10298022833D082
:1066B0000221404604F0B2FE6D1CEDB217B1514606
:1066C0004046B847761C042EB2D3002D21D001AA33
:1066D0000221002004F024FF00205A460DF104019D
:1066E00052F8206051F82030B34217D000200AAE93
:1066F0004FEA090351F8207042F8207056F82070D4
:1067000043F82070401C0228F4D300E001E0002D83
:106710008CD10DB0BDE8F08F0321CAE7401C0228E0
:10672000DED3F6E700600040C42A002000F01F021C
:10673000012191404009800000F1E020C0F8801262
:10674000704700F01F02012191404009800000F1D4
:10675000E020C0F80011704700F01F0201219140B5
:106760004009800000F1E020C0F80012704749079E
:10677000090E002806DA00F00F0000F1E02080F892
:10678000141D704700F1E02080F8001470470000ED
:1067900070B54FF48076304604F0E4F9114CB5053D
:1067A00060B1304604F0E5F90120C5F808036079CE
:1067B00020B9012060712168002088474FF482765B
:1067C000304604F0CFF900280AD0304604F0D1F961
:1067D0000220C5F808032168BDE870400120084781
:1067E00070BD00000C23002007480021C0F84011B4
:1067F000C0F84411C0F84811C0F84C11C0F800119D
:10680000C0F8041108F024BF0010014008F06EBE6B
:1068100005F034BC30B54FF0805000228300D0F832
:106820003011C3F80C21C3F81021624B1A60624B7F
:106830001B68624C2360604B1B1D1B68241D23607A
:106840005D4B08331B68241D23605B4B0C331B68B6
:10685000241D2360584B10331B68241D2360564BA6
:1068600014331B68241D2360534B18331B68534C8F
:1068700020342360504B1C331B68241D23604E4B77
:1068800020331B68241D23604B4B24331B68241DBD
:106890002360494B28331B68241D2360464B2C334F
:1068A0001B68241D2360444B30331B68434C403429
:1068B0002360414B34331B68241D23603E4B383327
:1068C0001B68241D23603C4B3C331B68241D236044
:1068D000394B40331B68241D23600123082902D152
:1068E000D0F8344114B1082904D006E0354C3449BD
:1068F000216005E0D0F8344114B1082904D006E045
:10690000314CFB21216005E0D0F8344114B1082955
:1069100008D00EE090F858422C48016864F3030157
:10692000016002E0D0F834411CB929494FF40070ED
:10693000086028480168C90702D06FF001010160B2
:106940002548016841F470010160BFF34F8FBFF328
:106950006F8F4FF01021D1F80002002803DBD1F82F
:106960000402002822DA1D4C23601D480368002B16
:10697000FCD01223C1F800320568002DFCD0C1F80C
:10698000043201680029FCD0226001680029FCD093
:10699000BFF34F8F10487C380168124A01F4E06160
:1069A00011430160BFF34F8F00BFFDE70F490E4851
:1069B000086030BD380500400404001020C50040C8
:1069C000488103008C56004018F50040E40E00405A
:1069D000409602400004004088ED00E004E50140DC
:1069E00000E401400400FA050090D00308240020D0
:1069F00001480068004700001423002002E008C896
:106A0000121F08C1002AFAD170477047002001E028
:106A100001C1121F002AFBD170470000012120286C
:106A200003DA81400548014003E0402802DA2038BB
:106A3000814009B10120704700207047FC06FFBD6E
:106A40002DE9F843804643F2020659B9694606F03B
:106A500005FEB04202D008B100F0BAF99DF800007E
:106A6000800744D40021404606F034FE05003ED0A5
:106A7000112D3CD01F482049401AC708022000EBC6
:106A800007440D2D0AD00B2D1DD0B5421FD11B4937
:106A900020464246BDE8F84304F066BF2046424621
:106AA000174904F061FF1321404676DF00281ED00D
:106AB00005F06CFB024601B020464346BDE8F043BA
:106AC00010A104F058BF204642461C49E2E7284680
:106AD00005F05CFB0246012000EB0740434618A18D
:106AE00004F049FF2846BDE8F84300F071B9BDE85D
:106AF000F8830000AC1C0300741C0300840E030028
:106B0000100E030073645F626C655F6761705F64A1
:106B10006973636F6E6E656374282920726574757E
:106B2000726E6564202573206F6E20636F6E6E5FDA
:106B300068616E646C652025642E0000D00E030031
:106B4000417373657274696E672E20706D5F636F39
:106B50006E6E5F7365637572652829207265747542
:106B6000726E6564202573206F6E20636F6E6E5F9A
:106B700068616E646C652025642E000010B560B1FC
:106B800059B102780B785208B2EB530F05D10622A7
:106B9000401C491CFFF795FC08B1002010BD0120E6
:106BA00010BD800701D00020704701207047C368E6
:106BB0008B4206D811440069491E814201D8012048
:106BC00070470020704710B501220221002001F01B
:106BD000E1F908B1072810D107220221012001F0B4
:106BE000D9F908B1072808D100210A22084601F086
:106BF000D1F908B1072800D1002010BD10B560B14F
:106C00000B480C49401AC008032101EB00400AA1BF
:106C100004F0A6FE07F0ACFA03E003210A4800F0F6
:106C2000ABFC002803D0BDE8104000F0D1B810BD87
:106C3000041D0300741C0300457261736520626FBC
:106C40006E647321000000004024002070B58CB0F9
:106C500015460E4600236C46C3F10F01415CE1541A
:106C60005B1C102BF8D30D2104F11000FFF717FC6B
:106C70000020C0F10F02315C2244401C1174032833
:106C8000F7D3684646DF0020C0F10F01214491F898
:106C900020102954401C0328F6D30CB070BD0220EC
:106CA00001F07AB80149C97800F016BED822002058
:106CB00070B50024064D06E06868012110F8340024
:106CC00005F0C6FA641C28788442F5D3002070BD14
:106CD00020230020F8B515460C460646052A01D2A9
:106CE0000720F8BD05F0AAFB18B905F06FFB0028D6
:106CF000F7D1124900224E600C708D60C1E9042268
:106D0000C1E906220E4D0DE006EBC4002968009192
:106D100081788DF8011000780A4A694605F0E4FA96
:106D20000028DED1641EE4B2EED2BDE8F84004488B
:106D30000021054A001D00F057B800002023002064
:106D400074030300F99402000988020072B604F08B
:106D5000BBFE00BF04F0EAFC0028FBD11148124939
:106D6000401AC408012000EB044010A104F0F8FD13
:106D700011480068C00700D000BE022000EB0440AC
:106D80000EA104F0EDFDBFF34F8F0B48E43801680E
:106D90000E4A01F4E06111430160BFF34F8F00BF61
:106DA000FDE70000041D0300741C030046617461CC
:106DB0006C206572726F7200F0ED00E053797374AD
:106DC000656D207265736574000000000400FA05AB
:106DD0000EB500210091CDE901106A4644F2010090
:106DE000FFF7B4FF0EBD0000074B9B7823B12AB11B
:106DF00020B10068037C1BB1082070470720704752
:106E00004174426100207047A02B002070B507F04C
:106E1000DFFC104800240B21047044700E4D81707B
:106E200014206C602C706C70FFF780FC062114201D
:106E3000FFF79DFC1420FFF784FC0848046006213E
:106E40001120FFF794FC0548001F0068A86000208F
:106E500070BD0000A02B0020402300200815014039
:106E60002DE9FC47DFF8789099F8023073B368B3E6
:106E7000052902D20720BDE8FC87436933B3437C70
:106E8000012B25D0002704460025884616468DF89C
:106E90000050684600F038F801A808F07BFEC8B141
:106EA000012101700F4944600968C0E90218C0E976
:106EB00004769DF8040089F801009DF8000000F0B8
:106EC00047F81420FFF748FC2846D4E70820D2E70B
:106ED0000F46D8E704259DF8000000F039F8F3E7E5
:106EE000A02B0020041501400649897839B130B142
:106EF000416921B100210174022108F085BB0820FD
:106F000070470000A02B002030B5EFF3108172B65F
:106F10000D4A9468012324B10370002900D162B6A0
:106F200030BD93604FF0E023D3F88051074C2540EB
:106F30001560C3F88041D3F8844154605A17C3F8F0
:106F4000842100220270E8E7AC2C0020FC06FFBD83
:106F50000B498A68002A11D000280FD1EFF3108066
:106F600072B60B684FF0E022C2F800314B68C2F8ED
:106F7000043100228A60002800D162B67047000008
:106F8000AC2C002070B5054608680C46411C04D0A6
:106F900004F09FFA206804F02DFA6068411C02D0CA
:106FA000002104F015FA2968A069C1F82405607D64
:106FB000227D29681043C1F86C05D4E900122868C5
:106FC000C0F81425C0F80C15207D012814D1A06844
:106FD000411C02D0002104F0FBF9E068411C04D000
:106FE00004F077FAE06804F005FAD4E902122868A0
:106FF000C0F80825C0F8101570BD70B505460868C2
:107000000C46411C04D004F06EFA206804F0FCF930
:107010006068411C02D0002104F0E3F92968A069EE
:10702000C1F82405607D217D2A680843C2F86C05FB
:10703000D4E900122868C0F80C15C0F81425207D8A
:10704000012814D1A068411C02D0002104F0C9F924
:10705000E068411C04D004F046FAE06804F0D4F97A
:10706000D4E902122868C0F80825C0F8101570BDD0
:1070700002F0E6BF2DE9F047814605884A484FF007
:1070800000088AB001784246284600F03DFC99F895
:107090000500400701D4002176E005F58077B8B2FD
:1070A00001AB0122072105F04BFF04003F48404A95
:1070B0004FF00101A0EB02004FEAD00001EB0046C7
:1070C0000AD0204605F062F8024630462B46394980
:1070D00004F051FC214629E0284602F0CFFC4FF68F
:1070E000FF71044688422BD18A46029802F030FC98
:1070F0000446504510D00146284602F09FFC284621
:10710000FFF7D0FDE0B9284607F06AFD2846FFF7F3
:10711000C9FD0028BFD013E006F0DEF80446504554
:1071200008D1304624A104F01BFC0421284607F0B6
:1071300085FDB0E70146284602F080FC4FF00108CB
:10714000B8B22246072105F073FF07001BD0862F37
:107150001ED005F01BF8024630462B46234900940A
:1071600004F011FC3946284607F068FD0021484626
:1071700005F0DAFDB8F1000F02D0204602F068FCFD
:107180000AB0BDE8F0870121484605F0CDFDF7E7DC
:107190001822174903A8FFF769F9ADF80E5003A8A4
:1071A00001F0D2FCEFE70000D8220020B41C03005D
:1071B000741C030088110300436F756C64206E6FAC
:1071C0007420616C6C6F63617465206E65772070EC
:1071D0006565725F696420666F7220696E636F6DAA
:1071E000696E6720626F6E642E000000A4120300B7
:1071F000080303002DE9FC47002517880646158083
:1072000090F82D001446894630B13A46214648464A
:1072100000F0A4FB051E09D1B0784FF00C0A18B39A
:107220002088C846001DB84202D95046BDE8FC87F8
:10723000684679DF0028F9D12088032108F800107A
:1072400020881921401C80B2208008F80010208876
:10725000401C80B2208000EB0801BDF8000008F05F
:10726000BAFB218808442080F0780222C8B1218826
:1072700096F9033001F1030C4846BC45D5D8425479
:1072800021884FF0010C491C89B2218000F801C00F
:107290002188491C89B2218009F801302088401CCE
:1072A00020807068B8B1218890F9003001F1030C9A
:1072B0004846BC45B9D8425421880A22491C89B2A3
:1072C000218042542188491C89B2218009F801306B
:1072D0002088401C2080308950B1CDE900474B46C2
:1072E0000622022106F1080008F06CFC051E9DD163
:1072F000308A50B1CDE900474B460722032106F101
:10730000100008F05FFC051E90D1308B50B1CDE924
:1073100000474B461522142106F1180008F052FCD4
:10732000051E83D1306A30B13B462246494601F002
:1073300024F9051EDBD1706A30B13B46224649462E
:1073400003F0A6F8051ED2D196F82C0038B13B46C2
:1073500022464946304607F0B3FD051EC7D13078B6
:1073600038B13B4622464946304603F01FF9051E18
:10737000BDD128465AE718B504460020ADF80000F4
:1073800013466A46204600F006F8002802D0BDF8F1
:107390000000204418BD70B588B182B10024158862
:1073A00003E0065D641C3444A4B2A54203D8061968
:1073B00076789E4201D08C42F3D38C4201D30020D8
:1073C00070BDA11C1180005D401E80B270BD80F8B0
:1073D000301070472DE9F0470D00044606D02CB15F
:1073E00095F87A000026012803D006E00E20BDE8BB
:1073F000F08795F89800012821D04FF00109A67078
:107400002C2205F17801201DFFF730F884F8306058
:10741000D5F8A4006063D5F8A800A0634FF6FF700C
:10742000A4F8480204F50D70C4F84402C4F84A6296
:10743000A4F84E6284F85062207810B104E007206E
:10744000D5E7FF2084F8540004F15501C4F8341244
:1074500094F82400EE274FF01F08012833D0A4F839
:10746000388200BF04F50E722846FFF7C3FE0028DD
:10747000BDD104F24311C4F83C1294F82400012851
:1074800024D0A4F8408200BF04F5107205F13C003E
:10749000FFF7B0FE0028AAD184F85190208BA4F801
:1074A000480084F83C90266484F850606069606409
:1074B0004D4604F13C02002104F1540072DF002823
:1074C00095D1257093E7A4F83872CBE7A4F8407201
:1074D000DAE710B50288102A1BD0112A20D0262AFC
:1074E0001DD1007A0C46012801D0022817D1A078BE
:1074F0000521401CB0FBF1F201FB1201204600F017
:107500003BF800280BD0A16B002908D0BDE8104043
:107510000847C27B012A02D18088A1F8480210BD29
:107520000C46002184F852128088B4F84812884230
:10753000F5D120790028F2D10121DFE7704710B59D
:10754000044690F8540074DF012084F852020020B1
:1075500084F8540284F850000621204601F0D0FC43
:10756000002808D1A178204600F006F810B1A16BE0
:1075700001B18847002010BD2DE9F05F0446007876
:107580000F4698B1A7700025C4F84A52A4F84E528D
:1075900084F85052A079012608B1012F09D0E07972
:1075A00080B1012F05D0022F03D00BE00820BDE8E9
:1075B000F09F616B21B184F851620820884701E097
:1075C00084F8515204F24B2100200A5C0AB1304683
:1075D00003E0401C0628F8D300204FF002084FF0CB
:1075E000030B012F06D0022F0CD0032F0FD0042F36
:1075F00015D110E0A17929B194F8241011B908B17E
:1076000030460DE0E17911B108B1404608E0207A3A
:1076100008B1584604E0607A08B1042000E028462A
:10762000A070616B41B1032801D0042804D16079B6
:1076300010B194F85202A0B184F8535204F13C0006
:1076400018210746FEF72BFF04F12C0084F83C605C
:10765000814605F06DFF58B194F82C0084F8510074
:1076600008E084F8545284F8536207208847E5E71D
:1076700084F8516094F8240050B1484605F058FF52
:1076800020B194F8280084F8520001E084F8526098
:1076900084F85050A27804F24A2104F50D794FF095
:1076A000060A052A62D2DFE802F07A030F224100BF
:1076B00084F83160C4F84452C4E9101584F83C8061
:1076C0008020A4F8480053E084F8318094F8242006
:1076D000384612B10722027001E080F800B0228A19
:1076E0008281C4F844524160E168B96040E0606959
:1076F000B860208BB88194F824003D4610B184F81E
:107700003CA001E084F83C60204608F01FFA50B12C
:1077100085F814800421204601F0F2FB30BB0521DE
:1077200084F8311020E084F831B01DE0E069B860E1
:10773000208CB88194F824003D4610B184F83CA018
:1077400001E084F83C60204608F000FA48B185F872
:1077500014800421204601F0D3FB38B984F831A00D
:1077600002E0042084F83100C4F84492A07878B193
:107770003A4604F15400D4F8441272DF00287FF432
:1077800016AF94F8301094F8540073DF0028F6D147
:10779000616B11B194F831008847002007E784F845
:1077A0003150F5E770B5040012D001461C22144890
:1077B000FEF75CFE1248134D0560206850B17ADF79
:1077C000002806D12068016829604068686005E0EB
:1077D0000E2070BD0B487BDF0028FAD108484FF619
:1077E000FF711438084A20F8041B05493439016038
:1077F0000021FFF7F9FA0028EBD0032070BD00004C
:107800003827002030220020E5FA020010B5044697
:1078100000F09AF8002805D02146BDE81040024843
:1078200002F0C1BF10BD00006427002070B51546EE
:107830000E46044608F096F9002809D0054800EBEA
:10784000840080692A463146BDE8704001F084BB5F
:1078500070BD00005427002010B5044600F074F8F5
:10786000002805D02146BDE81040024802F09BBF29
:1078700010BD00006827002070B50546002400F008
:1078800063F838B12946044802F08DFF08B102249C
:1078900000E00124204670BD6027002070B5054639
:1078A000002400F051F838B12946044802F07BFF6B
:1078B00008B1022400E00124204670BD5C270020AE
:1078C00010B51821034802F049FF182800D0C0B2B3
:1078D00010BD00005427002070B505460C46084630
:1078E00008F040F960B1284600F02EF840B1054894
:1078F000294600EB8400BDE87040183002F053BF09
:10790000002070BD5427002070B5054614460E4671
:10791000084608F027F9002812D0284600F014F88D
:1079200000280DD00748294600EB860018301CB10E
:10793000BDE8704002F042BFBDE8704002F0F3BE07
:1079400070BD000054270020142801D30020704788
:107950000146014802F027BF582700207CB50546A4
:1079600008880C460930904201D90C207CBD68463D
:107970006DDF0028FAD121880820685420881B2157
:10798000401C80B2208029542088401C80B2208076
:107990002844DDF801100160BDF8051081802088C1
:1079A000801D80B220809DF80010490800D0012180
:1079B00029542088401C208000207CBD38B50188D7
:1079C0000446212930D012DC1E481F4A1029A0EBA2
:1079D00002004FEAD0004FF0030202EB00400ED04D
:1079E00011292AD1BDE8384018A103F0B9BF3B29BD
:1079F00024D0562921D18088132176DF0EE017A1EB
:107A000003F0AEFF072000F0E7FA08B1FFF7E0F956
:107A10001548A1880180154803F02CF800280CD0E7
:107A2000BDE83840FFF7D4B900200090A08869462F
:107A30008FDF002801D0FFF7CBF938BD80881321F4
:107A400076DFEBE7041D0300741C030044697363D5
:107A50006F6E6E65637465642E000000436F6E6E1A
:107A600065637465642E0000102200203424002019
:107A700010B51A4C0188606810290ED011292BD13D
:107A8000401E606028D1FFF79EF8002824D02168AE
:107A9000002921D0BDE810400847D0B900210122BB
:107AA000084600F077FA08B107280FD10722022113
:107AB000012000F06FFA08B1072807D10422022143
:107AC000002000F067FA20B1072802D0216801B138
:107AD00088476068401C606010BD000028220020BC
:107AE0002DE9F04701883B4E40F2F3194FF6FF7540
:107AF00010291BD011293ED0122954D0502946D12B
:107B0000C188F289841D914241D1618902293ED107
:107B10008688304602F060F8050038D004F10C0089
:107B200000F0F2F8A8B3294630464EE0C17B8788C2
:107B3000044601292BD1A846284602F04DF805003D
:107B400017D02F8000202872234843464A460168F8
:107B5000C5F80A104068C5F80E0004F1100105F1DF
:107B60000A0002F0F7F86872F08900280FD1294660
:107B70002AE0042013E0808802F02EF8040006D0EA
:107B80006068FFF7B1F908B107F03CF82580BDE85F
:107B9000F087FFE76868FFF7A7F90028F7D0BDE88E
:107BA000F04707F02FB887880646384602F014F8E9
:107BB0000400ECD02B464A4606F1080104F10A0005
:107BC00002F0C8F8607221463846BDE8F04700F080
:107BD0001BBD000038270020302200202DE9F04F87
:107BE0000746858802883D48012197B08346102AC0
:107BF00009D0112A49D01A2A6CD1387AB1EB101F5A
:107C000045D2012244E0354C083CA068C0430B90AB
:107C100061680BA802F0EBFD0B990CA800F08EFC3C
:107C20002C220CA96846FEF721FC0026E946A04656
:107C300010E000BF09EB46005FF00004B0F804A0BC
:107C400008EB84005146001D02F06DFD641C1D2CE4
:107C5000F6D3761C0098B042ECD8142D05D317B09B
:107C60000420BDE8F04FFFF7B3B82946584602F0AC
:107C7000A5FD294608F1040002F0A0FDF87B0128CB
:107C800028D016482946001D15E029461AE0002292
:107C90000221B1EB101F01D2012600E000260F499E
:107CA000083901F11000041D294682B102F086FD59
:107CB00036B12946204617B0BDE8F04F02F07EBD30
:107CC0002946204617B0BDE8F04F02F02CBD02F067
:107CD0002AFDF5E717B0BDE8F08F00005C27002013
:107CE00010B504460748007800280AD0204601F065
:107CF000A1FD204607F03CF92046BDE8104001F008
:107D000037BA10BD68220020007800F001007047EB
:107D10000149085C7047000080010300084908B56C
:107D2000085C0090684603F091FBD0F810050099BC
:107D3000C84010F0010000D0012080F0010008BD13
:107D4000800103002DE9FC410646C0074FF0000505
:107D50000ED0104F00240122385D009500231146FB
:107D6000019503F0BFFA641C042CF4D300F04EF824
:107D7000B0070DD5074E0024361D0022305D0323C9
:107D800000951146019503F0ADFA641C042CF4D360
:107D9000BDE8FC817C010300094908B5085C00903E
:107DA000684603F053FBD0F80425009B012199405D
:107DB00021EA0203C0F808351140C0F80C1508BDCF
:107DC0007C0103000249085C012103F096BB00001E
:107DD0007C0103000249085C002103F08EBB000017
:107DE0007C010300084908B5085C0090684603F070
:107DF0002DFBD0F804050099C84010F0010000D018
:107E0000012080F0010008BD7C01030010B50024B2
:107E10002046FFF7D7FF641C042CF9D310BD10B522
:107E200000242046FFF7D6FF641C042CF9D310BDB4
:107E300010B50246064B4FF0FF3000215C5C9442C7
:107E400001D1084610BD491C0429F7D310BD00001C
:107E50008001030070B50C4E0C004FF0000530603F
:107E60000BD0012000F06AF808B1022004E00020E5
:107E700000F064F800B10B202070706810B9FEF7B4
:107E8000A2FE0546284670BD2822002010B500201D
:107E900000F0DCF908B1062806D1012000F0D6F97F
:107EA00008B1062800D1002010BD00002DE9F047E0
:107EB0000D468146FFF7BCFF0446042836D2DFF8A2
:107EC00074801B481C4EA8F10C0725B3012D0ED061
:107ED000022D2BD104EB440030444578002D25D0F1
:107EE000B968002922D02846BDE8F047084704EBCE
:107EF0004401755C0E44717849B10E4A4FF400415B
:107F0000093A8068FEF7ACFF08B987F80390B178AA
:107F100008F80410E2E78068FEF7E6FF04EB44018E
:107F2000314418F804008D78A842D7D0BDE8F08716
:107F30008401030024220020D8260020042801D236
:107F4000FFF7ECBE002070470146104810B50088CE
:107F5000042907D007290ED00A2915D1BDE8104001
:107F600006F0F2BF132176DF0CE000280CD0BDE84C
:107F70001040FEF72DBFA0F57F41FF3904D1044822
:107F8000FFF7DDFA0828F0D110BD00001022002014
:107F90004024002070B50023042810D20D4D00EBC2
:107FA0004004012A02D101290CD00022094E00EB25
:107FB0004000304461B1012906D0022906D00723D0
:107FC000184670BD0E30C2B22A55F9E74270F7E785
:107FD0008270F5E7D8260020044A01460020127975
:107FE000D20702D0084600F04DB870471822002092
:107FF00070B506461E480024C0E90161B00720D5CF
:108000000025012211462846FFF7C4FF6D1C0446D7
:10801000042D02D2002CF4D013E094B940F2666231
:1080200004211448FEF756FE04000AD1FEF740FE74
:10803000040006D10F48104A0021001FFEF7D4FEAD
:108040000446F00712D00120FFF77CFE74B90948FE
:108050000A4A00210C38FEF7C7FE040006D1054885
:10806000074A01210838FEF7BFFE0446204670BDCE
:10807000182200209001030029830200E99D0200DC
:108080009F6C02002DE9F05F6E4C0546002660787B
:10809000B34618B184F801B001F08EFE6A4F4FF478
:1080A0007A694FF4C87A4FF00108182D69D2DFE8D9
:1080B00005F00C1313384754696E727B727BC584CC
:1080C00084848484B3B6B9BCC5C501F075FE386834
:1080D000FEF70AFF06465CE00020FFF783FE00285B
:1080E0004FF0000008D0FFF76DFE022D02D14FF4D3
:1080F000E16008E0484606E0FFF76CFE022D01D182
:10810000C82000E05046410CC0034FF4FA728018BA
:1081100041F10001257052000023FEF763F901468A
:108120002AE00020FFF75EFE00284FF0000004D098
:10813000FFF748FE4FF44870E5E7FFF74BFEDFE737
:108140000020FFF74FFE00284FF0000002D0FFF79D
:1081500039FECFE7FFF73EFED4E70020FFF742FEEF
:1081600000284FF0000002D0FFF72CFE01E0FFF7DF
:1081700031FE257041F69A1100223868FEF770FE34
:10818000064646E00020FFF707FE257008E00020C5
:1081900051E025703DE084F801800120FFF7FCFDEF
:1081A000002240F6CD41E8E784F801800120FFF786
:1081B000F3FD00224FF48041DFE77868FEF794FE7C
:1081C0000646D5F1110000D02EB10220FFF7FAFDCE
:1081D00084F802B01DE0012816D980B2C8214843B6
:1081E000C117C90341EA5041C0034FF4FA72801825
:1081F00041F1000152000023FEF7F4F8014600228D
:108200007868FEF72DFE06460220FFF7E3FD84F8AE
:1082100002803046BDE8F09F01F0CEFDB9E701F0E5
:10822000CBFDB4E701F0C8FD04E001F0C5FD00207E
:10823000FFF7D0FD0120FFF7CDFDAAE7FFF7EFFD27
:10824000A7E700001822002084010300012107F0A5
:1082500021BD00002DE9F8430546861C00208DF85D
:10826000000090460F464FF001096846FEF74CFEAD
:108270001B4C20683860D4E90001401AA16804F260
:108280001C47081A0EE00121384602F0AAFA01F054
:10829000B9FF0146384602F0A4FAD4E90001401AB9
:1082A000A168081A401C8642EDD8B8F1000F03D02F
:1082B000052065F3891002E0062065F39F50A2684F
:1082C0002168114004EB8101C860206830442060BF
:1082D0009DF80000FEF73CFE4846BDE8F88300002C
:1082E000FC2F002070B50D4604460A2902D10D214D
:1082F000FFF7F8FFA0682268411CA1601554D4E97B
:108300000101814204D32046BDE8704002F0AFBCB9
:1083100070BD0000034803C8814201D101207047AD
:1083200000207047FC2F002000780221FFF7BEBD1F
:108330001CB5044601F0A2FB00236A46092104F0A3
:1083400041FF052805D10348012241792046FFF766
:10835000DBFA1CBD382200201CB50446002000902A
:1083600042F6A620ADF8000001208DF80200084872
:1083700001AA6946006801902046A0DF002805D1C7
:108380000448012281792046FFF7BEFA1CBD000097
:10839000B00103003822002005494FF0FF320828C1
:1083A00041F8202002D3084480F85820704700008C
:1083B000C42A0020F0B54FF0FF3512B10023082683
:1083C00001E008230C260C4C05E000BF54F8237094
:1083D0007F1C04D05B1CB342F8D32846F0BD26189E
:1083E0005DB286F8305044F82310002AF5D1E11828
:1083F00081F85800F1E70000C42A0020024908442F
:1084000090F9300070470000C42A002070B504467F
:108410004FF6FF750A462846AC4209D14FF48074E6
:108420002146104602F09AF980B2A0420BD070BDEE
:10843000FF2CFCD82146104602F080F990F0010F85
:1084400001D0204670BD284670BD000070B5084CB4
:10845000050009D010342168002907D00868206081
:10846000496828468847F6E70834F4E770BD0000FD
:10847000B02A0020054A012120B1012805D19170C0
:10848000FFF7E4BF51700020FAE77047B02A0020E0
:108490002DE9F05F26484168F1B3DFF898B00E6827
:1084A0008146DBF8004087688078E11B21F07F453A
:1084B000ED1CB0B9DFF880804FF48030C8F8440379
:1084C000C8F804031120FEF731F91120FEF739F93D
:1084D0004FF0010AC8F800A02F2003F0B1FE89F880
:1084E00002A0B54200D23546124BE8193C3320F0C9
:1084F0007F401860DBF800105A46091B21F07F41CD
:10850000001B20F07F40C91C81420FD91068186001
:108510002F2003F095FE00E004E0BDE8F05F11209D
:10852000FEF71AB9BDE8F05F06F052B9BDE8F09F5A
:1085300040230020041501400010014073B58CB0A9
:108540000646002000900D9880B100246D4621461B
:108550000DA802F028F930B1009805EB40008480A6
:108560000098401C0090641C142CF0D32C22694607
:108570003046FDF77BFF0EB070BD2DE9F041178846
:108580000646B81D14460D46984202D90C20BDE897
:10859000F0813188072206290AD34FF4486C4FF640
:1085A000FF73614501D9994202D17088062801D232
:1085B0001046ECE7604501D99842F9D1994203D0C1
:1085C000984201D08142F3D80520E8552088122135
:1085D000401C80B2208029542088401C80B220801A
:1085E0004119308807F0F7F92188084480B22080CB
:1085F0004119708807F0EFF9218808442080002095
:10860000C5E7FEF7E5BB000038B54A7A0F4B62B10B
:1086100000220A725969002906D001228DF8002033
:10862000ADF802006846884738BD0A7A62B19B6897
:108630004C68024619462046FEF712FC0028F3D08B
:10864000BDE8384006F0DEBA5B68F1E73827002065
:10865000F0B587B016460F4604461D4618220B4952
:108660006846FDF703FF0A488DF80870ADF8024030
:10867000ADF80A608DF80C50017800222046FFF713
:1086800043F9684600F060FA07B0F0BD200303002C
:10869000D8220020FEF7D4B970B588B00646002075
:1086A00005900690ADF81410ADF8161001900290E8
:1086B00001AA05A9304690DF050021D003F066FD30
:1086C0000346114811493246401AC108012000EB07
:1086D000014004460E4903F04EF9BDF8042012B9DA
:1086E000BDF8060028B1BDF80630204609A103F008
:1086F00042F9BDF808201AB12046164903F034F9B2
:1087000008B0284670BD00008C1C0300741C0300D8
:10871000440A030054686520726571756573746559
:10872000642054582F5258207061636B6574206C1C
:10873000656E67746820697320746F6F206C6F6E4C
:10874000672062792025752F2575206F6374657405
:10875000732E0000900A030070B5044609480121F9
:1087600002F05AF8BFF35F8F0025002808D1204699
:1087700001F0C2FC002803D1BFF35F8F0148056000
:1087800070BD0000442200207FB50C4610B10120CE
:1087900004B070BD2079002638B141F61D5501287E
:1087A0001BD0022826D00F20F2E70220207102966B
:1087B0000396E0680190694601A805F065FF50B195
:1087C00002988188E18000882081BDF8001002981D
:1087D00005F0D8FFDCE70A20DAE70A4B6A460021F9
:1087E000A01D05F00DFF38B1064918398E61CE6124
:1087F0000A28CDD12846CBE702488188019805F0A8
:10880000C1FFF5E76C2300202DE9F0470025DFF8D4
:1088100090803DE06068002100EBC50601203278C1
:108820009146FDF710FED4E9062300EA020701EAAB
:10883000030C57EA0C0729D082438B434846C4E90E
:10884000062303F0BBFD32788246914601200021C9
:10885000FDF7F9FDD4E9042300EA020401EA030765
:108860004A4650460021FDF7EEFD44404F403C4350
:108870000CD17078012801D0012000E0002072683E
:1088800080EA0A0012B1C1B2484690476D1CEDB2B1
:1088900098F8000044468542BCD3BDE8F08700004C
:1088A0002023002010B50021024801F0B5FF80F31D
:1088B000100010BD183400200E4910B50A784C780D
:1088C0000023A24212D0521CD2B20A70022A00D156
:1088D0000B70084A0B780C3252F82320026088682B
:1088E000104420F07F408860012010BD036000200C
:1088F00010BD00004023002013460A460021FFF768
:10890000A7BE00002DE9F843104D0F4680461E46D5
:1089100091466946286801F0DAFE040014D01C2153
:10892000FDF7BDFD01202071C4F81490380BC4F888
:108930000080C4E902606946286801F0E9FE05F09C
:10894000CBFD0020BDE8F8830420FBE71004030002
:1089500010B503780022072B06D2DFE803F00504E8
:108960000610202930000A7010BD01230B70038906
:108970008B818388CB81C06888600A7410BD022215
:108980000A7002898A818288CA81C2688A60807D71
:10899000062802D00020087410BD0120FBE7032246
:1089A0000A70C2888A810289CA81C068886010BD45
:1089B00004230B70C0888881CA818A6010BD05209D
:1089C000087010BD70B5064D0646002455F82410F9
:1089D00009B130468847641C042CF7D370BD0000F1
:1089E000D42C002030B50446006887B00D4680685E
:1089F00000281FD018216846FDF751FD0195A06899
:108A00000590207910B1012810D107E001208DF8E0
:108A1000000020690290E068039005E002208DF8D4
:108A20000000E0680003029060690490206881689B
:108A30006846884707B030BD2DE9F04186B016463C
:108A40000C00804629D0112C27D0082C25D01821C5
:108A50006846FDF724FDADF80280404601F00EF8AF
:108A6000ADF804001B481C490027401AC5080D2C0E
:108A700016D0204603F08AFB0246012000EB054099
:108A80004346164902F077FF07208DF80000029454
:108A90008DF80C70684600F065F806B0BDE8F0810E
:108AA000022000EB054042460D4902F05DFF032025
:108AB0008DF8000026B13078C00701D0012000E019
:108AC00002208DF8080041F201108DF80C70ADF80D
:108AD0000A00DFE7BC1C0300741C030070140300D1
:108AE0006013030010B50446408800F0C7FFA08063
:108AF000024801682046BDE8104008474022002097
:108B000010B50446808800F003FF608002480168C9
:108B10002046BDE810400847502200202DE9F041D2
:108B200007460024064E074D05E000BF56F8241006
:108B300038468847641CE8788442F7DBBDE8F0815A
:108B4000642A00206822002010B50446408800F006
:108B500095FFA080024801682046BDE81040084704
:108B6000D4020300014909680847000060030300BC
:108B700070B586B0044618216846FDF790FCA089C0
:108B80000125A0F54040ADF804002078324E0628BB
:108B900035D2DFE800F0340303032E4EA08900F045
:108BA00093F930B9E08943F6FE71A0F54040884260
:108BB00025D8A07B8DF808002078032811D000204C
:108BC0008DF80900A0680390606860B109208DF8F5
:108BD0000000606804908DF81450684604F044FA70
:108BE0000DE00120ECE708208DF800008DF8105012
:108BF000F3E7A08900F068F908B1E08930B1707836
:108C0000002801D004F07AFB06B070BD606840B166
:108C10000B208DF80000606802908DF80C50757084
:108C2000DBE70A208DF80000BDF8040004F004FC26
:108C3000F5E7606858B114208DF800006068029074
:108C40008DF80C504FF6FF70ADF80400C5E7132007
:108C50008DF80000F6E700005422002038B50446E5
:108C60000E480078A8B1A4F57F40FF380FD06846C1
:108C700005F064FB78B10521017001210171C48008
:108C8000684605F069FB05F019FC002038BD04209A
:108C900038BD022038BD082038BD000074230020F4
:108CA0000C4808B5007888B1684605F047FB78B1F4
:108CB00006210170684605F04FFB0748017809B1AD
:108CC0000121017305F0FAFB002008BD022008BD58
:108CD000082008BD74230020982D0020F0B587B02F
:108CE00014216846FDF7DBFB2F4C207818B168464D
:108CF000FFF768FE55E0201D01F070FD98BB40F6BF
:108D0000F8700168481C02D14FF0102041694FF003
:108D10008050026940694B1C01D100FB02F12348DD
:108D200000220161A1F54051C160214902F034F9EE
:108D3000002822D120481C238C221E49006801F003
:108D4000B3FC03F023FF050016D0022D14D000273A
:108D50000126062D13D005A805F0F0FA90B1067093
:108D60000C2D19D200E01CE0DFE805F0160E160EFF
:108D700016151615161012100B2007B0F0BD267030
:108D80006760B4E70820F8E7077105E0032100E019
:108D90000221017100E0067105A805F0DDFA05F079
:108DA0008DFB0020E9E70000742300200C24002044
:108DB00020040300E42C00208803030038B50400DD
:108DC00014D0694605F060FCA0B1BDF8000000EBCE
:108DD0008001094800EB8100C16849B1A17A39B12D
:108DE000C168491EC1600020A07238BD052038BD91
:108DF000062038BD0A2038BD702D00201FB501A9FE
:108E0000684605F0FDFB04B010BD07B513460A46E1
:108E10006946002005F0F4FB0EBD07B513460A466F
:108E20000021684605F0ECFB0EBD20B119B10068C9
:108E3000086000207047052070470000F8B50D4617
:108E4000040018D0BDB1694605F01EFCA8B1BDF8FC
:108E500000000B4900EB800001EB800001210C3089
:108E6000666801F0BEFC2E6060680C30686001200E
:108E7000A0720020F8BD0520F8BD0A20F8BD000052
:108E8000702D002018B10323002207F04FB80520F1
:108E900070470223002207F049B80000084910B5C6
:108EA0000A69042A0AD0074A096942F821000448DD
:108EB0000121103001F095FC002010BD0C2010BDE8
:108EC00054230020D42C002043F6FE71A0F540402E
:108ED000884201D8012070470020704710B5044631
:108EE0000078182802D1FEF7EBFC207010BD10B5F9
:108EF00004460078182802D1FEF7E2FC207010BD6D
:108F000070B50D460446B0F83812D0F8340201228C
:108F1000FEF731FA00B1057004F13C0204F50D7161
:108F200004F1540072DF70BD70B51346002205468F
:108F3000112900D10122074C33B12179FEF7E4FC5D
:108F400000226178284600E06178BDE87040FEF7B5
:108F5000DBBC0000E0220020F7B517460E0011D060
:108F60000098002560B100242146684601F01BFCF2
:108F700018B1A0B23946B0476D1C641C142CF3D351
:108F80002846FEBD0020FEBD406805F0F7B9000090
:108F900070B508B1012070BD194C0025207B08B1C7
:108FA000257301E000F0A0F82078082826D2DFE839
:108FB00000F02504080C10251420BDE8704000F0D6
:108FC00021B8BDE8704000F07DB8BDE8704000F009
:108FD0005FB8BDE8704000F03BB86088084900EB1E
:108FE0008000283901EB80004068BDE8704003F044
:108FF000ADBD6560BDE8704003F0B6BD0F2070BD2B
:10900000982D00201149F0B48A1C00200346A1F1DC
:1090100028050C18A67A4EB1A37200EB800405EB6C
:109020008404E66816B9247C012C0AD0401C80B266
:109030000228EED30B704B804B60F0BC41F61D5004
:1090400070471080F0BC00F03DB80000982D002063
:109050000C48418801EB8102A0F1280101EB82015B
:10906000CA6852B105210170074802218180016858
:1090700000230122054801F0F3BE04220270496872
:10908000F6E70000982D00207C2300200C2400200F
:1090900038B50A49084803240B684268898803EBFD
:1090A000810153880470DB1C00201B0400909B0B83
:1090B000034802F029F838BD982D00207C230020B9
:1090C0000C240020074910B54888091D05F02CFB29
:1090D00018B1BDE81040FFF7DBBFBDE81040FFF757
:1090E000B7BF0000982D0020F0B51F481F4901258B
:1090F000067802248B88A0F12802082E19D2DFE816
:1091000006F00418181B222F2F170189491C018112
:109110000021418080F80C1001EB810312F823300C
:1091200043B100234418491C89B2A3720229F3D326
:109130000570F0BD0123F5E742685288D21C1A443D
:109140008A800470F0BD46880D6806EB860602EB47
:10915000860256680E60556013818C80062100E0FF
:1091600007210170F0BD0000982D00207C23002015
:109170002DE9F043064680883288DFF85C8187B0AD
:109180000746502A37D010DC5449554B06F10A05E2
:10919000A1EB03014FEAD1014FF0020303EB0144BD
:1091A000352A3AD0362A07D168E0522A02D0542A0A
:1091B000F9D102E000F044FF82E0182249496846F4
:1091C000FDF754F9ADF80270384600F057FCADF8E1
:1091D000040000F0D3F90022444698F80410384601
:1091E000FEF792FB0022E1783846FEF78DFB6846D9
:1091F000FFF778FC64E0307B012861D1B07A012868
:109200005ED13089A0F52451023959D10121384667
:1092100000F06AFF06F04EFC52E098F80610FEF7E8
:109220005BFB00284CD0002298F806103846FEF769
:109230006BFBF288B2F5857F17D012B120462AA1C8
:109240000BE02A88012A03D0204636A102F08CFBCD
:109250006A88012A04D0204641A102F085FB04E07F
:10926000A98800223846A1DF08B1002125E00122AB
:1092700098F807103846FEF747FB21E04FF0000949
:1092800098F80710FEF728FBD0B1002298F80710D5
:109290003846FEF739FBF28812B1204612A104E0ED
:1092A000AA88012A04D020462DA102F05DFB03E02C
:1092B000A87900B1012081464946384606F0E0F819
:1092C0000022364998F80200FEF7B0FA07B0BDE870
:1092D000F04305F01FBD000038220020741C03007D
:1092E000741C030014020300556E65787065637486
:1092F00065642047415454207374617475732077FA
:1093000068696C652067657474696E6720434152B3
:1093100020636861722076616C75653A203078252B
:10932000780000004D756C7469706C6520282564A8
:1093300029204341522063686172616374657269D8
:10934000737469637320666F756E642C207573691E
:109350006E67207468652066697273742E00000061
:10936000556E65787065637465642043415220636F
:109370006861726163746572697374696320766190
:109380006C7565206C656E67746820282564292CCF
:109390002073746F726520302E000000717002001F
:1093A00070B504460078002814D1608800F048FEAB
:1093B0006588284600F0A4F928B107480122C17841
:1093C0002846FEF7A1FA6088FEF7B2FFBDE87040BC
:1093D00006F070BB70BD00003822002070B5204C34
:1093E00000252570FEF76CFA6070FEF769FAA07030
:1093F000FEF766FAE070FEF763FA2071FEF760FA96
:109400006071FEF75DFAA071FEF75AFAE0716278BA
:109410000121182A18D0A278182A15D0E278182A23
:1094200012D02279182A0FD06279182A0CD0A2798A
:10943000182A09D0182807D004F10C000560BFF3E2
:109440005F8F2170002070BD0648074A801AC0084F
:1094500001EB0040054902F083FA032070BD0000D3
:1094600038220020741C0300741C0300040703004E
:109470007CB504460078082837D1607A58BB207A3A
:109480001C4E4FF6FF75012811D0072802D008287E
:109490002BD121E0A08800F03BFA0446A84224D05A
:1094A000012100F021FE2046FEF742FF1DE0A088CA
:1094B0006A46012103F0FAFC68B90198007850B1BE
:1094C000A08800F025FAA8420FD00122F178FEF71B
:1094D0001BFA05F01FFC08E0F068012805D1BFF376
:1094E0005F8F044900200C310860BDE87C4006F025
:1094F000E1BA0000382200202DE9F0418046024602
:1095000001200021FCF79FFF1A4F05460E467868A0
:10951000FDF7EAFC00280CD1174CD4E906211046CF
:109520002A4001EA06031A4305D0A843B143C4E91F
:109530000601BDE8F081404602F040FF30B1D4E9B9
:10954000040128433143C4E9040105E0D4E90410CF
:10955000A943B043C4E90410D4E9060128433143C8
:10956000C4E90601A1687868BDE8F0410022FDF772
:1095700077BC000074030300202300201CB5054ABB
:10958000D2E90212CDE900120022694603F054FE2E
:109590001CBD00003002030003484FF6FF718180BC
:1095A0000121017000207047482200202DE9FC4174
:1095B000804600F063FA002403250127A0F57F41CF
:1095C0002646FF3908D06A46082103F06FFC18B917
:1095D0000198841D8688056832462B462146404600
:1095E000B1DF042804D0082804D00B2808D002E0FA
:1095F000112000E00020002F00D10B20BDE8FC81ED
:109600000027A80701D50125E6E7344303D000244D
:1096100026460325E0E7064806494246401AC008A8
:10962000012101EB0040044902F09EF9E5E700004A
:109630007C1C0300741C0300CC0903002DE9FC41D1
:10964000804600F01BFAA0F57F410646FF390ED098
:1096500001252A466D1C0027ADB26B460821304615
:1096600003F06EFC040006D0072C33D033E043F245
:109670000200BDE8FC81019903230A1D0B604046EE
:10968000891DB2DF040004D00C2C09D0052C09D0B0
:1096900009E032460821104603F0CAFC04461AE0ED
:1096A000012700E000240821304603F0B7FC70B128
:1096B00002F06CFD0346094809493246401AC008C9
:1096C000012101EB0040074902F055F90324002F66
:1096D000BFD100E00C242046CBE700007C1C030037
:1096E000741C03004C09030004488088A0F57F41E6
:1096F000FF3901D005F018BB704700004822002058
:109700000EB502A9019100F0B9F96A46012103F0F2
:10971000CDFB08B100200EBD019800780EBD000001
:109720002DE9F04107464FF6FF761048B3DF78B1D8
:1097300002F02CFD02460E480E49401AC0080121D5
:1097400001EB00400C4902F00FF90320BDE8F08165
:10975000064C43F20305A41E324661883846AFDF4B
:10976000A842F3D16088401C6080F5E74A220020BF
:109770007C1C0300741C030000090300428800EBFA
:1097800082020C328A4201D9022070478188A1F5F9
:109790007F42FF3A03D0008808B1002070470120C3
:1097A0007047884204D20068401C01D001207047F5
:1097B000002070473EB5027802230C46B3EB520FEF
:1097C00017D1B0F80110ADF80010C1788DF8021073
:1097D0008188ADF8041080798DF8060002AA01A9ED
:1097E0002046FDF733FA032202A96846FCF769FE1A
:1097F00008B100203EBD01203EBD000070B50D4601
:109800000446142810D2FEF79FF868B1084904EB0B
:10981000840001EB4000D0F802102960C188A980C3
:10982000007AA871002070BD43F2020070BD0000F4
:10983000CC27002070B5018892B0102961D1011D9C
:109840002C226846FCF712FE9DF804004FF6FF76C6
:1098500003213446B1EB500F2BD003F0ABFC9DF845
:1098600004006D4640080ED001280CD0022820D1FB
:1098700018E00D99281D1131FDF780F918B100BFCE
:10988000BDF82C4015E00CAA0BA9072003F066FCDC
:109890000028EED10DE00D99281D491CFFF78AFF25
:1098A0000028EDD10CAA0BA9072003F057FC0028D3
:1098B000F1D1BDF80000B44200EB8001124820F85D
:1098C000114000EB41000199C0F80210BDF80810EA
:1098D000C1809DF80A10017213D0BDF80000ADF8E8
:1098E0002E000020ADF83040084E8DF82C000BAD56
:1098F000044600BF56F8241028468847641C022CF2
:10990000F8D312B070BD0000CC2700204402030041
:109910002DE9F0414FF6FF760546B04213D00B4FCC
:10992000002400BF04EB840037F81000A84206D1E1
:109930002046FEF709F810B12046BDE8F081641C0E
:10994000A4B2142CEED33046F7E70000CC27002059
:109950003EB50C46054603F02DFC0BE0BDF80000BB
:10996000A04207D02846029900F00EF810B1BDF8C9
:1099700000003EBD01AA6946072003F0EFFB002866
:10998000ECD14FF6FF703EBD2DE9F0410C46054687
:1099900000F1110701F111061022491C401CFCF7CF
:1099A00090FD48B9681C00F0F7F928B1601C00F080
:1099B000F3F908B1012400E0002431463846FDF7F0
:1099C000DDF83B780222B2EB530F0CD00321B1EB50
:1099D000530F08D03378B2EB530F04D0B1EB530FD1
:1099E00001D0012100E00021084201D18C4302D0C6
:1099F0000120BDE8F0810020FBE7018811B9421881
:109A000092780AB101207047491C0829F7D3002039
:109A1000704710B50C460346FFF7EFFF00280AD049
:109A200018882188884205D10822A11C981CFCF7BF
:109A300048FD08B1002010BD012010BD142804D23B
:109A4000024A00EB800022F810107047CC2700205B
:109A500070B50546FFF75CFF0446284603F02AFA76
:109A6000002808D1142C06D2034B04EB84024FF6D5
:109A7000FF7123F8121070BDCC27002010B50446EA
:109A8000142808D2FDF760FF28B1044904EB8400D4
:109A900031F8100010BD4FF6FF7010BDCC2700202C
:109AA0003EB5044603F086FB0EE0019920464631A0
:109AB000FFF7AFFF28B9019920462A31FFF7A9FF28
:109AC00010B1BDF808003EBD6A4602A9072003F0A8
:109AD00045FB0028E9D14FF6FF703EBD10B50A499D
:109AE00041600A4800F07AFE58B902F0D9FA0749F5
:109AF0001C238C22087404488C39001F006800F075
:109B0000D3FD002010BD000014040300442E0020EB
:109B10002DE9F0412D4F002518B17D600120BDE8F1
:109B2000F0810879012258B1294E01280CD0274C28
:109B30004FF002080834022821D0032842D128E03F
:109B40000A7103F011F83BE05FF0000000EB8001C8
:109B500016F82110022908D0401C80B20228F5D343
:109B60003A707D6041F61D50D9E700EB800006F8A1
:109B7000205006EB8000406802F0E8FF20E00D7105
:109B8000A4F80480002301221248216801F068F93A
:109B900016E00D71206802F0D9FF0D4923682831C5
:109BA000498801EB810206EB8201D1F804C0C4F8B8
:109BB00000C04B60A3880B81A4F8048006F82250F3
:109BC0000028ACD07D600E20A9E70000742300209F
:109BD000702D00200C2400200146034802888A4290
:109BE00000D0002070470000242700202DE9FC5FF2
:109BF0000E008346DDE90C47C6F100009846924608
:109C0000814600D40846012503E000BF90FBFAF02E
:109C10006D1C5045FADAA84500D9454624B1002EFE
:109C200001DB780700D5641EB80702D5B8F1000F34
:109C30000AD0F80708D13CB1A54205D220215846E8
:109C4000641EFEF74FFBF6E7002E02DA4E462D218A
:109C500002E0780703D52B215846FEF743FB07F0B7
:109C6000030002280BD1B8F1000F08D13CB1A54286
:109C700005D230215846641EFEF734FBF6E7CDE9E5
:109C80000047434652463146584605F0B9FEBDE806
:109C9000FC9F000070B50D46044600684FF48871C3
:109CA00002F094FA4FF49071206802F08FFA4FF4AA
:109CB0009271206802F08AFA4FF4A271206802F0D3
:109CC00085FA20681149C0F804132068690740F339
:109CD0000730090E002806DA00F00F0000F1E0203E
:109CE00080F8141D03E000F1E02080F800142068E3
:109CF000012140F3073000F01F029140400980002D
:109D000000F1E020C0F8001170BD00001003020057
:109D1000024600201268530713D502F00300012801
:109D200002D002280CD105E0C2F383100B68801C1E
:109D3000184404E00223086803EB925210440860C0
:109D4000012070470248007A002800D001207047A7
:109D5000442E0020F0B58488A518944200D82246ED
:109D6000A41AC288D6189A4200D81346D21A4B8831
:109D70000788BB420CD34088834209D88888A04218
:109D800006D3A84204D8C888904201D3B04201D972
:109D90000020F0BD0120F0BD0021425C0AB101208D
:109DA0007047491C1029F8D300207047800701D064
:109DB00000207047012070470A4810B5807860B1D4
:109DC000002401E0022C06D02046FDF7FBFF641CB6
:109DD000042CF7D310BD0324F6E7BDE81040FEF7CE
:109DE00015B800001822002003480179C90702D0E5
:109DF0000078FEF747B9704718220020172101802C
:109E000041800021017141711B218171C171704735
:109E10002DE9FE4F2E4F984692460D00814601D007
:109E200000260DE0684600F015FC6A460021484611
:109E300002F094FF3878009E10B99DF8090098B19F
:109E400052463146484605F0F5F9044601460022DF
:109E50004846FFF769F80D2C37D008DCA4B3082C6E
:109E600033D00B2C09D130E00520BDE8FE8F112C3A
:109E70001ED0A4F54050023827D0204602F086F9C3
:109E80000246144814494B46401AC008012101EB10
:109E90000040124901F06FFD5FF00305B8F1000FBB
:109EA00004D0324621464846FEF7C6FD2846DCE788
:109EB0002A46F9784846FDF727FD5246B9784846C4
:109EC000FDF722FD0025E9E7FFE72546E6E700006C
:109ED000E0220020BC1C0300741C030018140300C3
:109EE00070B50E460C49154604460978FDF7F4FC9A
:109EF00000280FD0204602F0D7FE00282A4631461F
:109F0000204603D0BDE8704002F0D4BEBDE87040EA
:109F1000FEF7F2BC70BD0000D822002070B5094DDC
:109F20000646A978FDF7D8FC0446E9783046FDF7E7
:109F3000D3FC014622463046BDE870400123FFF7BE
:109F400067BF0000E02200202DE9F047394E0027CE
:109F500080463D46DFF8E090D6F804A057E003D0F5
:109F60000446D0F81C8035E099F8002002EB42014D
:109F7000521CD2B289F8002009EBC10199F80230D5
:109F8000091D9A4201D189F8005048680A780446B0
:109F9000012A12D0022A02D0032A3BD108E005F0A0
:109FA00003FB00B10127257434E00574C06900E0AB
:109FB00070680028F9D170602CE0207C50BB886864
:109FC0006060C868A0600869E0604869A061F078D6
:109FD00000B165606268B168184B501A20F07F408C
:109FE000984202D2A168084406E0881AA16820F0CD
:109FF0007F40814202D9081A206000E02560656038
:10A000000120A56020742046E56105F0AFFAB8F1A3
:10A010000000A4D199F8001099F801008142A3D161
:10A0200017B97168514502D00120BDE8F0870020C2
:10A03000FBE7000040230020A02B0020FFFF7F0053
:10A04000F0B587B00546002718216846FCF727FAC7
:10A05000A5F57F40ADF80250FF3825D02846FFF720
:10A06000A5FA040022D01B481B49401AC6080B2C35
:10A0700022D0112C1ED0A4F5405002380ED020461C
:10A0800002F084F80246012000EB06402B461349FB
:10A0900001F071FC2146284604F0BCFD10483A4608
:10A0A00081782846FDF730FC07B0F0BD0E208DF812
:10A0B00000000BE00127F1E70F208DF800000220DF
:10A0C00000EB06402A46074901F04EFC6846FEF7C1
:10A0D00009FDE3E7741C0300741C0300D4070300AC
:10A0E00038220020280803000A4602494978FDF773
:10A0F0000BBC0000382200202DE9F041002786B07B
:10A1000080463E46FFF79AFA040022D0112C22D056
:10A110001B481C49401AC508862C1ED0A4F5405087
:10A1200002380ED0204602F031F80246012000EB42
:10A130000540434614A101F01EFC2146404604F0B0
:10A1400069FD39464046FFF7CFFF06B03046BDE80F
:10A15000F0810126F5E70127F3E718221A4968463E
:10A16000FCF784F90220ADF8028000EB054042467E
:10A1700016A101F0F9FB6846FEF7B4FCE1E7000028
:10A18000741C0300741C03006773636D5F6C6F6362
:10A19000616C5F64625F63616368655F7570646171
:10A1A000746528292072657475726E656420257344
:10A1B00020666F7220636F6E6E5F68616E646C659F
:10A1C0003A20256400000000E4010300466C61733E
:10A1D000682066756C6C2E20436F756C64206E6F02
:10A1E000742073746F7265206461746120666F728D
:10A1F00020636F6E6E5F68616E646C653A202564E3
:10A20000000000002DE9FF410026234800F0E3FA9A
:10A210002148001F074600F0DEFA204C60680090DD
:10A22000A56800E000986946284004EB80000C30E7
:10A23000FFF76EFD0028F5D101AA009901EA050398
:10A2400004EB8303491CDB6842F82030401C00917A
:10A250000228F2D3019800F0030001280BD0022855
:10A2600010D10198032101EB90500099BDF80A60CC
:10A2700001EB900005E00198BDF80A60C0F383107F
:10A2800008440090384600F0A3FA08B100986060D6
:10A2900004B03046BDE8F08114340020FC2F0020CB
:10A2A000ACB04FF40041002001F0D8FB08B1FCF73E
:10A2B0008FFD01F02DFAFCF7A9FD08B1FCF788FD30
:10A2C0005F490320FDF794FE08B1FCF781FD694664
:10A2D0000020FDF7BFFD08B1FCF77AFD9DF80000F6
:10A2E00002287CD05FF0000501F0CEFC08B1FCF73D
:10A2F0006FFD01F089FE08B1FCF76AFD0024694694
:10A300000120009401F010FD08B1FCF761FD6846E2
:10A3100001F08AFD08B1FCF75BFD9DF8080049A13A
:10A3200020F00F00401C20F0F00010308DF80800E5
:10A330000F2202A87CDF08B1FCF74AFD00945020F0
:10A34000ADF80000A0200194ADF80200ADF8044083
:10A350004FF4C870ADF8060068467ADF08B1FCF724
:10A3600037FD00213B4800F0CCFA08B1FCF730FD86
:10A37000AC216846FCF793F802208DF8000001201C
:10A380008DF802000621ADF810008DF87C008DF8E4
:10A3900003104FF4967030492290059144F25060BA
:10A3A00023902E4829902B4869462030FDF712F85B
:10A3B00008B1FCF70DFD274801212030FDF707F813
:10A3C0002748009023486946143000F05EFB08B12E
:10A3D000FCF7FEFC1C216846FCF761F800E02CE06D
:10A3E0004FF42030CDE900404FF4702002901D481A
:10A3F000059003261C488DF80C600690ADF80E40C1
:10A400008DF810406846FDF7CDF908B1FCF7E0FC87
:10A4100003F058F815481649401AC00806EB0040EA
:10A4200014A101F09DFA2846FCF7E8FB01F07EF943
:10A430000028FBD101F03CFCF8E7012554E70000BF
:10A44000497F02004E6F726469635F54656D706C82
:10A45000617465002024002012220020DDC8020063
:10A46000F5BC020031C9020003860200041D03008E
:10A47000741C030054656D706C61746520657861AF
:10A480006D706C6520737461727465642E000000D9
:10A4900070B5144682880E4605462088111D014479
:10A4A000921C994201D8FE2A01D90C2070BD521C81
:10A4B00032542088FF21401C80B2208031542088F3
:10A4C000401C80B220808119288805F084FA2188F8
:10A4D000084480B22080AA8842B1A96841B13044C2
:10A4E000FBF7C4FF2088A98808442080002070BDA5
:10A4F000072070BD2DE9F047C5881E1DB6FBF5F796
:10A500008946B6FBF5F1044605FB176C40791668E1
:10A510006843DDF820A0F718001F874200D9C61A4B
:10A52000166001E02468491E0029FBD1A5EB0C0749
:10A530008846B74216D818E004EB0C00001D09EB62
:10A540000803BAF1000F3A4602D00146184600E06F
:10A550001946FBF78BFF2468F61B4FF0000CB8443C
:10A56000B54201D9374600E02F46002EE4D1BDE8C0
:10A57000F087000030B5024651B101F08DFA00219C
:10A58000074C08E034F821301568AB4202D1116065
:10A59000002030BD491C8142F4D3052030BD0000AD
:10A5A00000000000BFF35F8F00F0FDB8F8B50F4664
:10A5B000017814460546012901D1687830B1208818
:10A5C000821C9A4232D8012902D006E00720F8BD49
:10A5D00069780144891C994228D8181A801E86B2CD
:10A5E000ADF800602188B81C084469467DDF00286A
:10A5F000EDD12978022904D06878BDF80020904276
:10A6000005D3BDF80000B04201D809200AE00820B7
:10A61000012905D16978B14202D8ADF8001001E0F6
:10A62000ADF80060BDF80010FE2901D90C20F8BD7E
:10A630002288491CB9542188491C89B22180785448
:10A640002088401C2080BDF8001008442080002095
:10A65000F8BD0000034A00219268C0E90021816032
:10A6600070470000E022002070B54FF6FF750E46DF
:10A67000A84201D1002000E0401C84B208E021463D
:10A68000304600F090F808B1204670BD641CA4B2BA
:10A69000FF2CF4D9284670BD10B5FBF706FE08B1B3
:10A6A000002010BD112010BD10B531B1B2FBF3F484
:10A6B00003FB14241CB1092010BD0E2010BD016045
:10A6C0000021416081608281C381084610BD70B560
:10A6D0000C460546FBF79EFD002802D0218828681D
:10A6E000084470BD10B50A8849888A4203D1FBF737
:10A6F000D3FD012010BD002010BD70B50C460546ED
:10A70000FBF7ADFD002802D061882868084470BDC1
:10A7100010B50A8849888A4203D1FBF797FD0120CA
:10A7200010BD002010BD01F01F0301229A40D2434A
:10A73000490900EB8100114600F059B80A4601F0C2
:10A740001F030121994010B552090C4600EB82000D
:10A7500000F05DF8204000D0012010BD2DE9F0414F
:10A7600080460D460024481E012101EB501716E0DB
:10A7700058F82400C04390FAA0F0B0FA80F02028E6
:10A780000CD200EB4416AE4208D231464046FFF7E9
:10A79000D5FF0028ECD13046BDE8F081641CA7420B
:10A7A000E6D82846F8E74A0950F8220001F01F02CF
:10A7B00001219140084000D00120704701F01F03A3
:10A7C00001229A40490900EB8100114600F029B8A6
:10A7D000002100F017B8012100F023B8012100F09A
:10A7E00016B808B56A46FBF7ACFD009808BD08B579
:10A7F0006A46FBF78CFD009808BD08B56A46FBF772
:10A80000A0FD08BD08B56A46FBF781FD08BD08B587
:10A810006A46FBF76FFD08BD08B56A46FBF75EFDAB
:10A8200008BD08B56A46FBF765FD009808BD08B588
:10A830006A46FBF793FD009808BD38B5044600252D
:10A840008DF800506846FCF75FFB21686268086875
:10A8500090420ED9401E08600178238AE26801FB0D
:10A860000325227A2168101AC0B20A79824200D2E6
:10A8700008719DF80000FCF76BFB284638BD38B521
:10A88000054600208DF800000C466846FCF73CFBAE
:10A89000E868298A201AB0FBF1F12A681068431C85
:10A8A000136001709DF80000FCF752FB38BD10B535
:10A8B00030B1017A42680368891AC9B21A6006E0A9
:10A8C0000E2010BD03681A68541C1C601170491ECC
:10A8D000C9B2F7D2006800210171084610BDC20854
:10A8E00000F007030120895C98400840704710B5CC
:10A8F000C20800F00703885C01249C402043885470
:10A9000010BD10B560B10161172120F8021B20F8BD
:10A91000021B1B2100F8021BFFF770FA002010BD7C
:10A920000E2010BDF0B5858893B00C46002D39D1AE
:10A93000018800263F4F24293BD006DC102909D08E
:10A9400011290CD0232958D14FE03A290BD0552991
:10A9500053D129E00146204601F0F8FF4DE0A01D4B
:10A96000FFF74CFA49E02246408934F8061F81423D
:10A9700000D808466080172800D217206080106930
:10A9800070B1607960B1D7E90001CDE90301ADF89C
:10A990000E506088ADF81000136903A9104698475F
:10A9A0006671267113B0F0BD0146204602F022F810
:10A9B00023E0011D2C2206A8FBF758FDBDF8180066
:10A9C000BDF81C2004EBC0014A732269AAB1D7E983
:10A9D0000423CDE90423ADF81200487B8DF8140060
:10A9E0002269204604A9904707E0017A207B88422B
:10A9F00000D201462846FDF74FFEA07A0028D1D0AC
:10AA0000E1882846A5DF012580B11128CAD001F0D0
:10AA1000BDFB02460848094913B0401AC00805EBBF
:10AA20000040BDE8F04006A100F09EBFA672E572AE
:10AA3000B8E700004C0203008C1C0300741C0300E8
:10AA400073645F626C655F67617474635F6578638C
:10AA500068616E67655F6D74755F7265717565734A
:10AA60007428292072657475726E65642025732EB2
:10AA70000000000020B10278DE2A03D008207047D1
:10AA80000E20704741800020704760B159B10278B4
:10AA9000DE2A0AD009684160DE2101704FF6FF719D
:10AAA0004180002070470E207047082070477FB516
:10AAB000054600294DD0002D4BD008780C46DE28E5
:10AAC00047D1A8886188884202D1204605F050F815
:10AAD0002888012825D002283BD011283AD05128B7
:10AAE00037D135F8040F6188884232D1A978A81C83
:10AAF00002292ED1017A042903D0062901D0052983
:10AB000027D10021009102228DF8002001914FF4FD
:10AB1000C07202910391ADF80420007A05280FD08D
:10AB200010E0297A2046012913D1A9884288914250
:10AB30000FD10121017204B0BDE8704005F018B8D2
:10AB4000ADF8041028886946B0DF002801D061689C
:10AB500088477FBDA88861888842FAD14FF6FF7088
:10AB600060807FBD00F180400068002800D0012097
:10AB7000704708B500F18040002101600068009036
:10AB800008BD000070B50B4C207808B185250FE09A
:10AB90000020A06060602061E060074801F032FBA7
:10ABA000054601F07DFA08B901F016FB012020707E
:10ABB000284670BDB02A00207584020038B50025F3
:10ABC0008DF800506846FCF79FF9074CE068401E7E
:10ABD000E060E06810B901F025FBA5709DF8000069
:10ABE000FCF7B6F938BD0000B02A0020F0B50546E4
:10ABF0000478154889B0164640F82420124A08699E
:10AC00000832A2F10C0742F82400487F3855202270
:10AC10006846FBF72BFC04942878385C48B10EB1E9
:10AC20000A4A00E000226946281D01F073FD09B0C0
:10AC3000F0BD0EB1064A00E00022694605F10C00A5
:10AC400001F03CFCF3E70000FC220020B5F8020014
:10AC500001F702000FB408B50399002904D004AA33
:10AC600000926A4600F00FF801B05DF814FB10B5D1
:10AC700082680446002A05D0D4E904032168984775
:10AC80000020A06010BD2DE9FC4791460C008046D5
:10AC900076D014F8011B39B125290ED04046FDF7B6
:10ACA00021FB20780028F4D198F80C00002867D008
:10ACB0004046BDE8FC47FFF7DABF002001222178BB
:10ACC0002B291BD02D2902D0302908D102E040F0D9
:10ACD000010001E040F00200641C002AEFD10025D1
:10ACE0002A290ED02178A1F130020A2A11D205EBCF
:10ACF000850201EB4205641C303DF1E740F00400A1
:10AD0000EAE7D9F800100B1DC9F800300968641C87
:10AD10000D44217800232E290BD114F8011FA1F135
:10AD200030020A2A05D203EB830201EB4203303BD7
:10AD3000F3E76C290DD068290BD0692921D00BDCF1
:10AD4000252918D0582931D063290ED0642915D16E
:10AD500017E014F8011FECE7702969D0732932D08D
:10AD600075291BD0782909D120E0D9F80000011DF0
:10AD7000C9F8001001784046FDF7B4FA641C90E76A
:10AD80006CE0D9F800100A1DC9F800200968CDE967
:10AD900000500A224046FEF729FFEFE7D9F80010DD
:10ADA0000A1DC9F8002009680A2206E0D9F8001037
:10ADB0000A1DC9F8002009681022CDE9005040465C
:10ADC00004F01EFEDAE7D9F8001000270A1DC9F8C2
:10ADD00000200E68C00705D112E04046761C7F1C9B
:10ADE000FDF780FA31780029F7D104E020214046B0
:10ADF0006D1EFDF777FABD42C0D9002DF6D1BDE733
:10AE00004EB13046FBF756FB074604E02021404692
:10AE10006D1EFDF767FABD4206D9002DF6D103E09D
:10AE20004046761CFDF75EFA31780029F8D1A5E797
:10AE3000D9F80000011DC9F800100568302140460E
:10AE4000FDF750FA78214046FDF74CFA0820002122
:10AE5000CDE90001034610222946B0E7BDE8FC8792
:10AE60002DE9F843884605002C482D499946A0EB6A
:10AE700001004FEAD0004FF00101164601EB0044FB
:10AE800024D0286800282CD0002E34D06968404691
:10AE90004FF010070A68511E11EA080F11D1014640
:10AEA00072432846FBF783FE00282ED028684B46C5
:10AEB0003246046901B041462846A446BDE8F04345
:10AEC00060472046174B18A2009722E00E20009002
:10AED0002046144B1EA220A100F055FD0E20BDE817
:10AEE000F8830820009020460E4B26A21AA100F0FD
:10AEF0004AFD0820F3E7092000902046094B24A2D0
:10AF000015A100F040FD0920E9E7064B214A204643
:10AF1000009711A100F037FD1020E0E7F41C0300BA
:10AF2000741C0300FB030300616464725F69735F58
:10AF3000706167655F616C69676E656428705F66E4
:10AF4000732C20706167655F616464722900000082
:10AF5000705F667300000000257320636865636B93
:10AF6000206661696C656420696E2025732829203C
:10AF7000776974682076616C756520307825782E45
:10AF800000000000705F66732D3E705F61706900A5
:10AF90006C656E00DC14030038B503001148124DD7
:10AFA0004FF00E04A0EB05004FEAD0004FF0010572
:10AFB00005EB004009D061B119600C6801B0A446EE
:10AFC000BDE83040114618466047084B08A200947F
:10AFD00002E0064B08A2009409A100F0D4FC0E2068
:10AFE00038BD0000F41C0300741C0300B003030010
:10AFF000705F667300000000705F617069000000A0
:10B00000257320636865636B206661696C656420E5
:10B01000696E202573282920776974682076616C11
:10B02000756520307825782E000000000448012145
:10B030004174007A08B10020704701207047000079
:10B04000442E0020012801D0032808D10449002201
:10B0500001284A7400D00020087403F0DFB970475B
:10B06000442E002070B50246022801D0032A45D1A3
:10B07000234C207A002841D0012833D0022831D136
:10B0800020480023022A006802D0032A2AD11BE0AC
:10B09000E360017911B1012924D10DE0D0E9056502
:10B0A000711B4FF48056B14200D33146294481616F
:10B0B0004569A9420ED015E00169491C0161426948
:10B0C00091420FD1237213E0E168491CE160082925
:10B0D00008D9E3602372022A0AD00D21FDF782FC11
:10B0E00003F042F9607C28B1BDE8704000F0DEBF9B
:10B0F0000021F3E7BDE8704003F090B970BD000097
:10B10000442E0020842300202DE9F84F90468A46E3
:10B110003A493B4A0500A1EB02014FEAD1014FF049
:10B120000102DDF828901E464FF00E0002EB0144AC
:10B130001AD0B8F1000F1CD02868002822D00920AE
:10B14000002E29D069684968B6FBF1F201FB126153
:10B15000002926D000902B4B20462BA235A100F0D1
:10B1600012FC0920BDE8F88F00902046254B3CA238
:10B1700003E00090234B20463BA22EA100F003FCED
:10B180000E20EFE70820009020461E4B38A229A190
:10B1900000F0F9FB0820E5E700902046194B37A2A4
:10B1A000DCE75046FBF7FDFC102798B14046FBF763
:10B1B000F8FCA0B1324651462846FBF7F8FC98B19E
:10B1C000CDF80090286833464246C4685146284668
:10B1D000A047C7E720460B4B29A2009708E020466E
:10B1E000084B2DA2009703E0064B204633A20097A0
:10B1F00010A100F0C8FB1020B4E70000F41C03000D
:10B20000741C0300E803030021286C656E202520D0
:10B21000705F66732D3E705F666C6173685F696E08
:10B22000666F2D3E70726F6772616D5F756E6974C7
:10B2300029000000257320636865636B20666169DF
:10B240006C656420696E20257328292077697468ED
:10B250002076616C756520307825782E000000001E
:10B26000705F667300000000705F7372630000001F
:10B27000705F66732D3E705F617069006C656E0073
:10B28000616464725F69735F616C69676E65643382
:10B290003228646573742900616464725F69735F46
:10B2A000616C69676E65643332282875696E743322
:10B2B000325F7429705F7372632900006164647285
:10B2C0005F69735F77697468696E5F626F756E64DA
:10B2D0007328705F66732C20646573742C206C6512
:10B2E0006E2900002DE9FF411C46DDE90A7815466C
:10B2F0000E46684600F0AAF846EA450141EA840194
:10B3000041EA072242EA0841009A00EB8200C0F8B5
:10B310000017BDE8FF812DE9FF411C46DDE90A78F1
:10B3200015460E46684600F09FF846EA450141EA98
:10B33000840141EA072242EA0841009A00EB8200B8
:10B34000C0F80017BDE8FF812DE9FF411C46DDE98B
:10B350000A7815460E46684600F094F846EA45011C
:10B3600041EA840141EA072242EA0841009A00EBDF
:10B370008200C0F80017BDE8FF812DE9FF411C469F
:10B38000DDE90A7815460E46684600F089F846EA77
:10B39000450141EA840141EA072242EA0841009A54
:10B3A00000EB8200C0F80017BDE8FF811CB500214A
:10B3B00000910B4601220191FFF7C6FF1CBD1CB591
:10B3C000002100910B4601220191FFF7D6FF1CBD21
:10B3D0001CB500220B46009211460192FFF7B4FF04
:10B3E0001CBD1CB500220B46009211460192FFF7CE
:10B3F000C4FF1CBD1CB5002100910B460122019128
:10B400001146FFF7A1FF1CBD1CB5002100910B46A2
:10B41000012201911146FFF7B0FF1CBD13B50C4688
:10B42000684600F021F8009900EB8101D1F800276F
:10B4300022F44032C1F80027009900EB8100D0F8D7
:10B44000001741EA0441C0F800171CBD016820291B
:10B4500002D24FF0A040704701F01F010160014887
:10B4600070470000000300500168202902D24FF00D
:10B47000A040704701F01F010160014870470000C3
:10B48000000300500168202902D24FF0A04070470D
:10B4900001F01F01016001487047000000030050E7
:10B4A0000168202902D24FF0A040704701F01F012F
:10B4B00001600148704700000003005001B5684674
:10B4C000FFF7D2FFD0F810050099C84000F0010046
:10B4D00008BD01B56846FFF7D5FF009A01219140EC
:10B4E000C0F8081508BD01B56846FFF7D9FF009AF6
:10B4F00001219140C0F8081508BD38B5012400901D
:10B50000684631B1FFF7A2FF00998C40C0F80845AA
:10B5100038BDFFF79BFF00998C40C0F80C4538BD43
:10B520001CB5094C0144D4E90034CDE900346C4623
:10B5300006E000BF54F82030D3F81035401C08C294
:10B540008142F7D81CBD000064030300034908B51D
:10B550000844002101600068009008BD00600040C0
:10B5600002494058012800D0002070470060004088
:10B5700030B5154A01460020D2F8104423460AE0AF
:10B58000DB681D79854205D1401C0A28F6DB4FF0A7
:10B59000FF3030BD1B68002BF2D1431CF9D0CB68C3
:10B5A0001871D2F8103443B1DB68CC681B68236093
:10B5B000D2F81024D268116030BDC2F81014C968E6
:10B5C00000220A6030BD0000FC2F0020F0B595B0CD
:10B5D0001C4615460F4608461A9E00F02FFB182100
:10B5E00009A8FAF75CFF0E96CDE90954002308225A
:10B5F00003A9384600F037FB05980690BDF8100007
:10B60000ADF81C00BDF81200ADF81E0000208DF84A
:10B6100021000398082600F00300012802D0022828
:10B6200018D032E003983346850AC0F3C2008DF883
:10B63000200003980FA9C0F38314A200384600F03D
:10B6400012FB09A8009006AB22460FA9284600F07D
:10B6500051FA1AE00398840DC0F3C2008DF820005F
:10B66000082C01D2254600E0082533462A460FA9BA
:10B67000384600F0F8FA2E44641B09AB06AA2946A6
:10B680000FA800F093F9002CEAD1384600F0DCFA5C
:10B6900015B0F0BD7047012004F050B8084810B54F
:10B6A0000178084A515C19B1001D01F0BFF802E0B1
:10B6B0000C3000F0CDFFBDE81040002004F03EB893
:10B6C00098230020F822002008B5034A0092402366
:10B6D000024AFFF77BFF08BD65EC0200642E0020E4
:10B6E0000A4A012902EBC00007D0022907D003292A
:10B6F00007D0042907D0002070470220704704209B
:10B70000704700797047407970470000741C03004F
:10B7100010B5FFF7C0FF04210348FFF729FF0249D6
:10B720000120C968487110BD641C03002DE9F04F69
:10B730008DB0FCF7EFFD18B100200DB0BDE8F08F23
:10B740007E4C4FF0000BC4F818B4BFF34F8F606805
:10B750000290A568D846284004EB80000CE000BFAA
:10B76000D4F8180470B921680298814201D8616048
:10B77000E2E7284004EB80000C3002A9FEF7C8FA8B
:10B780000028EDD1002005AA029901EA050304EB87
:10B790008303491CDB6842F82030401C02910228D8
:10B7A000F2D3059800F00300022802D001284DD002
:10B7B000AAE005985022810D8946B2EB905F00D82F
:10B7C00050210E4666F39F50059008315C4800F00A
:10B7D000ECF9070078D000F031FA4346082205A9B9
:10B7E000384600F048FA029908F1080A2940681A18
:10B7F0008000001D864222D9504D0C3530B1C2B2B6
:10B8000004EB8101301A90460C3104E02946F2B273
:10B81000002590462846C6B25346384600F02BFA1B
:10B820000AEB080325B132462946384600F023FAD0
:10B83000029909F1030001EB900002903BE004EB58
:10B8400081015346324638460C31EFE70598C0F384
:10B850008310062800D30620059960F38911C1F3EF
:10B860008310801C05918100354800F09EF9070087
:10B870004AD000F0E3F94346082205A9384600F013
:10B88000FAF908F1080800260FE00298434600EA9A
:10B890000501401C04EB81010290042238460C3162
:10B8A00000F0E9F908F10408761C0598C0F383104C
:10B8B000B042EAD847B1D4F81054D4F8180478B19B
:10B8C000384600F0C1F934E01EE0E868407901280C
:10B8D00004D12A682846394612689047E868056806
:10B8E000002DF2D1384600F0AFF98DF800B068466F
:10B8F000FBF70AFBD4F8180408B9029860609DF8B9
:10B900000000FBF725FB14E0D4F8104405E02168A3
:10B91000204689688847E0680468002CF7D1094808
:10B920000949401AC008022101EB004007A100F0BC
:10B9300017F8FCF7EFFC80F00100FEE6FC2F00207A
:10B94000241D0300041D0300741C03004261636B8B
:10B95000656E647320666C75736865640000000032
:10B9600000231A4603F046BD08B5012300926A463B
:10B9700003F040FD08BD1CB5CDE9002302236A4653
:10B9800003F038FD1CBD3EB5069C8DE81C0003236A
:10B990006A4603F02FFD3EBD7FB5DDE908458DE821
:10B9A0003C0004236A4603F025FD7FBD2DE9F047E6
:10B9B0000E4680461C469246082940D894F80C90C2
:10B9C000002020731946104602F060FC0025B542A5
:10B9D00006D218F805201BA12046FFF73BF903E02B
:10B9E0001AA12046FFF736F96D1C082DEFD318A1D8
:10B9F0002046FFF72FF90025B54212D218F805703E
:10BA00007E2F08D8FAF72EFD0068C05D10F03E0FBB
:10BA100001D03A4600E02E220EA12046FFF71AF987
:10BA200003E00DA12046FFF715F96D1C082DE3D3A7
:10BA300001222146504602F00BFC84F80C90BDE830
:10BA4000F087000020253032780000002020200000
:10BA50007C00000025630000200000000B4810B5AA
:10BA6000FF218160002101604160C0F81814C0F816
:10BA7000141480F82014064800F0E4F8002803D1DC
:10BA8000044800F039F9002010BD0000FC2F002010
:10BA9000241D0300CC05030002480349401AC008D6
:10BAA00070470000241D0300741C030013B5684692
:10BAB000FEF760FD08B100201CBD0248009950F857
:10BAC00031001CBD741C030070B509480125D0F875
:10BAD000104480F8205407E0E06845712168204652
