:020000040002F8
:1060000018580020F96202000163020003630200D5
:10601000056302000763020009630200000000003C
:106020000000000000000000000000000B63020000
:106030000D630200000000000F6302001163020004
:1060400079690200136302006D6C020013630200A1
:1060500013630200136302003D6402001363020035
:106060001363020013630200136302001363020050
:106070001363020013630200136302001363020040
:10608000796C02001D6A02001363020013630200B0
:10609000876A0200136302008B6A02001363020026
:1060A0001363020013630200136302001363020010
:1060B00013630200136302000000000000000000F0
:1060C00013630200136302001363020013630200F0
:1060D00013630200136302001363020013630200E0
:1060E0001363020013630200136302000000000048
:1060F00000000000136302000000000013630200B0
:10610000000000000000000000000000000000008F
:10611000000000000000000000000000000000007F
:10612000000000000000000000000000000000006F
:10613000000000000000000000000000000000005F
:10614000000000000000000000000000000000004F
:10615000000000000000000000000000000000003F
:10616000000000000000000000000000000000002F
:10617000000000000000000000000000000000001F
:10618000000000000000000000000000000000000F
:1061900000000000000000000000000000000000FF
:1061A00000000000000000000000000000000000EF
:1061B00000000000000000000000000000000000DF
:1061C00000000000000000000000000000000000CF
:1061D00000000000000000000000000000000000BF
:1061E00000000000000000000000000000000000AF
:1061F000000000000000000000000000000000009F
:10620000DFF80CD000F0FEF8004800476987020074
:106210001858002030B4044654E8000F0D4644E8F6
:106220000053002BF8D1156030BC704730B40446E1
:1062300054E8000F40EA010544E80053002BF7D171
:10624000156030BC704730B4044654E8000F00EAD3
:10625000010544E80053002BF7D1156030BC7047AE
:1062600030B4044654E8000F80EA010544E80053C6
:10627000002BF7D1156030BC704730B4044654E8A9
:10628000000F00EB010544E80053002BF7D1156027
:1062900030BC704730B4044654E8000FA0EB010551
:1062A00044E80053002BF7D1156030BC704770B440
:1062B00004464FF0000054E8006F0D68AE4207BF7F
:1062C00044E80023012044E800630E60002B1CBF5B
:1062D0000020F0E770BC704730B4044654E8000F6B
:1062E00088422CBF451A054644E80053002BF5D1DF
:1062F000156030BC704700000648804706480047DC
:10630000FEE7FEE7FEE7FEE7FEE7FEE7FEE7FEE765
:10631000FEE7FEE7916A0200016202002DE9F05FEC
:106320000546002092469B46884606468146402404
:106330001BE0284641464746224600F053F85346A4
:106340005A46C01A914110D311461846224600F011
:1063500016F82D1A67EB01084F462246012000214E
:1063600000F00DF817EB00094E41201EA4F10104C6
:10637000DFDC484631462A464346BDE8F09F202AE6
:1063800004DB203A00FA02F1002070479140C2F18C
:10639000200320FA03F319439040704740EA0103B9
:1063A0009B0703D009E008C9121F08C0042AFAD2CB
:1063B00003E011F8013B00F8013B521EF9D270478F
:1063C000D2B201E000F8012B491EFBD27047002237
:1063D000F6E710B513460A4604461946FFF7F0FFE4
:1063E000204610BD202A04DB203A21FA02F00021C9
:1063F000704721FA02F3D040C2F1200291400843D5
:1064000019467047064C074D06E0E06840F001036E
:1064100094E8070098471034AC42F6D3FFF7F4FE37
:10642000209E0200409E02004FF0FF3100203DDF21
:10643000B12100203CDF022002F0F4BD2DE9F04F35
:1064400000268DB0DFF8A081B14604964FF4807528
:10645000012437460596284602F0A6FD38B1D8F843
:106460000403204203D0284602F094FD26432D1D4C
:1064700064007F1CADB2082FEDD34FF4BE742046EC
:1064800002F092FD48B1204602F084FD46F000463D
:1064900004AA0221002002F067FD544C16F0FF0F01
:1064A00015D00127002537420DD008EB8501D1F822
:1064B0001005D1F81015C0F3052054F82520C1F3BC
:1064C000014102B190477F006D1C082DEBD3002ED7
:1064D0007EDA0020CDF82890411E0DF1100B07AA9E
:1064E000CDF82C9042F82010401C91460228F9D398
:1064F00000252E46A11911F8607F91F9000027F0C0
:10650000C008401C40D007A9404602F0D7FA40B36B
:106510004FEA971A404601F0DFFC54F820701FB193
:10652000BAF1030F03D006E0BAF1030F2CD10AA988
:10653000404602F0CBFA02A8CDF8088002F0DEFC5B
:10654000029900EB8100D0F8000704A9C0F30140D4
:106550000290404602F0B2FA0028029802D00228C7
:1065600002D011E003280FD1BAF1030F08D102982D
:10657000022833D00221404602F082FC6D1CEDB2AD
:1065800017B151464046B847761C042EB2D3002DB1
:1065900021D001AA0221002002F0E6FC00205A4688
:1065A0000DF1040152F8206051F82030B34217D0A9
:1065B00000200AAE4FEA090351F8207042F820701B
:1065C00056F8207043F82070401C0228F4D300E0F5
:1065D00001E0002D8CD10DB0BDE8F08F0321CAE79A
:1065E000401C0228DED3F6E700600040843600201D
:1065F0000623432201466820AFF3008030B41446DE
:106600000A46214630BCDBB201F0A4BE30B41446C9
:106610000A46214630BC012301F064BF1CB50020AE
:106620008DF80400C82002F0BBFB00F009FA01203D
:1066300000F058F94FF4967002F0B2FB002000F021
:10664000A3F8032000F097F8012000F082F8002062
:1066500000F088F8012000F09DF8502000F070F85C
:1066600001211F2000F035F901AC082307221F216A
:106670006820009400F04CF89DF80400012803D035
:1066800001211F2000F025F90121202000F021F92F
:106690000823072220216820009400F039F89DF893
:1066A0000400012803D00121202000F012F940212C
:1066B000382000F00EF908230722382168200094C2
:1066C00000F026F89DF80400402803D0402138202F
:1066D00000F0FFF80149012008701CBDA32A00202A
:1066E00008B50823009007223A21682000F010F82E
:1066F00008BD38B515461C460A4601236946FFF712
:106700007DFF01209DF80010A8400840207038BD92
:10671000F8B516461C460A4601236946069DFFF752
:106720006DFF0120A040311B401E491C8840C2B2B1
:106730009DF800001040C8408DF800002870F8BD9A
:1067400008B50823009007221921682000F043F8BB
:1067500008BD08B50323009002226B21682000F0D9
:106760003AF808BD08B50223009004221C216820D5
:1067700000F031F808BD08B50223009004221B2167
:10678000682000F028F808BD034606226B21682027
:1067900000F006B8034603226B216820AFF30080A7
:1067A000F8B515461C460E460A46074601236946BB
:1067B000FFF724FF01209DF80010A8400CB108430A
:1067C00001E021EA00008DF80000324669463846B3
:1067D000FFF71CFFF8BD2DE9F84316461D460F468E
:1067E0000A46804601236946089CFFF707FF0120FF
:1067F000A840711B401E491C88408C409DF8001029
:106800000440814321438DF800103A4669464046D2
:10681000FFF7FCFEBDE8F88308B500208DF8000006
:10682000012305226B216820FFF7BAFF6B46052282
:106830006B216820FFF75DFF9DF80000012805D05F
:10684000012305226B216820FFF7AAFF0123022202
:106850006C216820FFF7A4FF6B4602226C216820A0
:10686000FFF747FF9DF80000012805D00123022211
:106870006C216820FFF794FF01231A466C216820E1
:10688000FFF78EFF6B4601226C216820FFF731FF76
:106890009DF80000012805D001231A466C216820CC
:1068A000FFF77EFF012300226C216820FFF778FFAD
:1068B0006B4600226C216820FFF71BFF9DF800004B
:1068C000012805D0012300226C216820FFF768FF12
:1068D00008BD08B508230091014607226820FFF78C
:1068E0007AFF08BD034607226B216820FFF758BFD7
:1068F00000F01F02012191404009800000F1E020DA
:10690000C0F88012704700F01F0201219140400939
:10691000800000F1E020C0F80011704700F01F0275
:10692000012191404009800000F1E020C0F80012F0
:1069300070474907090E002806DA00F00F0000F141
:10694000E02080F8141D704700F1E02080F800146A
:1069500070470000BFF34F8F05480168054A01F4F6
:10696000E06111430160BFF34F8F00BFFDE70000FE
:106970000CED00E00400FA052DE9F0414FF48076BB
:10698000304602F0FDF9234CB50560B1304602F007
:10699000FEF90120C5F80803607920B90120607173
:1069A0002168002088474FF48276304602F0E8F9EB
:1069B00040B1304602F0EBF90220C5F80803216827
:1069C000012088474FF48876304602F0D9F940B16B
:1069D000304602F0DCF91020C5F8080321680220D7
:1069E00088474FF48677384602F0CAF900280ED05F
:1069F000094800260660384602F0C9F90820C5F8A3
:106A00000803A6712168BDE8F04103200847BDE8EE
:106A1000F0810000FC2A0020340C004007480021CF
:106A2000C0F84011C0F84411C0F84811C0F84C112A
:106A3000C0F80011C0F8041103F000B800100140C4
:106A4000F8B54FF4FA750D2002F010FA0C2002F0A0
:106A50000DFA0C2002F06BFA0D270126684600970C
:106A600002F030FAD0F80415009A06FA02F424EA8B
:106A70000102C0F808250C40C0F80C456D1E2D041D
:106A80002D0CEBD1F8BD02F027BF02F0B7BB000020
:106A900030B54FF0805000228300D0F83011C3F899
:106AA0000C21C3F81021624B1A60624B1B68624CC8
:106AB0002360604B1B1D1B68241D23605D4B083346
:106AC0001B68241D23605B4B0C331B68241D236053
:106AD000584B10331B68241D2360564B14331B681E
:106AE000241D2360534B18331B68534C2034236000
:106AF000504B1C331B68241D23604E4B20331B68F6
:106B0000241D23604B4B24331B68241D2360494BF9
:106B100028331B68241D2360464B2C331B68241D1F
:106B20002360444B30331B68434C40342360414B5B
:106B300034331B68241D23603E4B38331B68241DEF
:106B400023603C4B3C331B68241D2360394B40338E
:106B50001B68241D23600123082902D1D0F8344189
:106B600014B1082904D006E0354C3449216005E011
:106B7000D0F8344114B1082904D006E0314CFB218F
:106B8000216005E0D0F8344114B1082908D00EE0A6
:106B900090F858422C48016864F30301016002E058
:106BA000D0F834411CB929494FF4007008602848D6
:106BB0000168C90702D06FF0010101602548016832
:106BC00041F470010160BFF34F8FBFF36F8F4FF03F
:106BD0001021D1F80002002803DBD1F804020028BC
:106BE00022DA1D4C23601D480368002BFCD01223C1
:106BF000C1F800320568002DFCD0C1F804320168EC
:106C00000029FCD0226001680029FCD0BFF34F8F1F
:106C100010487C380168124A01F4E06111430160B8
:106C2000BFF34F8F00BFFDE70F490E48086030BD2E
:106C3000380500400404001020C5004048810300CE
:106C40008C56004018F50040E40E0040409602408B
:106C50000004004088ED00E004E5014000E401404C
:106C60000400FA050090D003442B0020014800687E
:106C700000470000042B002038B5064C2068002592
:106C8000002805D0044840688047256020680090AF
:106C900038BD0000000101400C2B00200EB50A4A4F
:106CA00007CA8DE807006846084902F089FB08B169
:106CB00000F074F8064802F03BFB08B100F06EF8F3
:106CC00002F058FB0EBD0000C89C0200AD9C020003
:106CD000A72A002002E008C8121F08C1002AFAD122
:106CE00070477047002001E001C1121F002AFBD14C
:106CF000704700000121202803DA81400548014047
:106D000003E0402802DA2038814009B101207047B1
:106D100000207047FC06FFBD10B5012202210020B3
:106D200000F0C4FF08B1072810D10722022101207A
:106D300000F0BCFF08B1072808D100210A2208464C
:106D400000F0B4FF08B1072800D1002010BD0000FA
:106D500010B50321044800F0FAFA002803D0BDE87A
:106D6000104000F01BB810BDB032002072B60948C8
:106D70000068C00700D000BEBFF34F8F0548E4385D
:106D80000168054A01F4E06111430160BFF34F8FD0
:106D900000BFFDE7F0ED00E00400FA050EB50021AC
:106DA0000091CDE901106A4644F20100FFF7DEFFD1
:106DB0000EBD000010B50E4C03E0401C00E00020AA
:106DC000207020786178814210D022786188E06854
:106DD000A36802FB010003EBC20153F8322089884B
:106DE00090472078A1888842E9DAE6E710BD0000E4
:106DF000142B002030B5CB0008339DB293074FF021
:106E0000000401D0072030BD044B9A602A44DA60A8
:106E10005C701C7058809980002030BD142B0020BD
:106E2000074B9B7823B12AB120B10068037C1BB1CA
:106E30000820704707207047417442610020704766
:106E4000F036002070B502F0B1FB104800240B2191
:106E5000047044700E4D817014206C602C706C7046
:106E6000FFF746FD06211420FFF763FD1420FFF70E
:106E70004AFD0848046006211120FFF75AFD054825
:106E8000001F0068A860002070BD0000F0360020E0
:106E9000242B0020081501402DE9FC47DFF87890ED
:106EA00099F8023073B368B3052902D20720BDE810
:106EB000FC87436933B3437C012B25D0002704466C
:106EC0000025884616468DF80050684600F038F8D0
:106ED00001A802F045FEC8B1012101700F494460CC
:106EE0000968C0E90218C0E904769DF8040089F831
:106EF00001009DF8000000F047F81420FFF70EFD98
:106F00002846D4E70820D2E70F46D8E704259DF8A5
:106F1000000000F039F8F3E7F036002004150140D6
:106F20000649897839B130B1416921B10021017434
:106F3000022102F05FBD082070470000F0360020FB
:106F400030B5EFF3108172B60D4A9468012324B175
:106F50000370002900D162B630BD93604FF0E0238A
:106F6000D3F88051074C25401560C3F88041D3F811
:106F7000844154605A17C3F8842100220270E8E764
:106F8000FC370020FC06FFBD0B498A68002A11D09F
:106F900000280FD1EFF3108072B60B684FF0E0229B
:106FA000C2F800314B68C2F8043100228A60002820
:106FB00000D162B670470000FC37002070B51500A4
:106FC000044609D00020286034B1206820B1A0799F
:106FD000800703D0072070BD0E2070BD084600F06A
:106FE00001FBC0B2142804D02179814203D80420C7
:106FF00070BD052070BDE288216800FB021028608A
:10700000002070BD2DE9FC47002517880646158035
:1070100090F82D001446894630B13A46214648463C
:1070200000F0F4FA051E09D1B0784FF00C0A18B33D
:107030002088C846001DB84202D95046BDE8FC87EA
:10704000684679DF0028F9D12088032108F800106C
:1070500020881921401C80B2208008F80010208868
:10706000401C80B2208000EB0801BDF8000002F057
:107070001FFD218808442080F0780222C8B12188B1
:1070800096F9033001F1030C4846BC45D5D842546B
:1070900021884FF0010C491C89B2218000F801C001
:1070A0002188491C89B2218009F801302088401CC0
:1070B00020807068B8B1218890F9003001F1030C8C
:1070C0004846BC45B9D8425421880A22491C89B295
:1070D000218042542188491C89B2218009F801305D
:1070E0002088401C2080308950B1CDE900474B46B4
:1070F0000622022106F1080002F04AFD051E9DD17C
:10710000308A50B1CDE900474B460722032106F1F2
:10711000100002F03DFD051E90D1308B50B1CDE93D
:1071200000474B461522142106F1180002F030FDED
:10713000051E83D1306A30B13B462246494601F0F4
:1071400032F8051EDBD1706A30B13B462246494613
:1071500001F0FEFB051ED2D196F82C0038B13B465B
:1071600022464946304602F09DFA051EC7D13078C6
:1071700038B13B4622464946304601F01BFC051E0D
:10718000BDD128465AE718B504460020ADF80000E6
:1071900013466A46204600F006F8002802D0BDF8E3
:1071A0000000204418BD70B588B182B10024158854
:1071B00003E0065D641C3444A4B2A54203D806195A
:1071C00076789E4201D08C42F3D38C4201D30020CA
:1071D00070BDA11C1180005D401E80B270BD80F8A2
:1071E000301070472DE9F0470D00044606D02CB151
:1071F00095F87A000026012803D006E00E20BDE8AD
:10720000F08795F89800012821D04FF00109A67069
:107210002C2205F17801201DFFF7C0F884F83060BA
:10722000D5F8A4006063D5F8A800A0634FF6FF70FE
:10723000A4F8480204F50D70C4F84402C4F84A6288
:10724000A4F84E6284F85062207810B104E0072060
:10725000D5E7FF2084F8540004F15501C4F8341236
:1072600094F82400EE274FF01F08012833D0A4F82B
:10727000388200BF04F50E722846FFF7C3FE0028CF
:10728000BDD104F24311C4F83C1294F82400012843
:1072900024D0A4F8408200BF04F5107205F13C0030
:1072A000FFF7B0FE0028AAD184F85190208BA4F8F3
:1072B000480084F83C90266484F8506060696064FB
:1072C0004D4604F13C02002104F1540072DF002815
:1072D00095D1257093E7A4F83872CBE7A4F84072F3
:1072E000DAE710B50288102A1BD0112A20D0262AEE
:1072F0001DD1007A0C46012801D0022817D1A078B0
:107300000521401CB0FBF1F201FB1201204600F008
:107310001EF800280BD0A16B002908D0BDE8104052
:107320000847C27B012A02D18088A1F8480210BD1B
:107330000C46002184F852128088B4F84812884222
:10734000F5D120790028F2D10121DFE770472DE93E
:10735000F05F044600780F4698B1A7700025C4F886
:107360004A52A4F84E5284F85052A079012608B12E
:10737000012F09D0E07980B1012F05D0022F03D071
:107380000BE00820BDE8F09F616B21B184F85162E9
:107390000820884701E084F8515204F24B21002074
:1073A0000A5C0AB1304603E0401C0628F8D30020EE
:1073B0004FF002084FF0030B012F06D0022F0CD024
:1073C000032F0FD0042F15D110E0A17929B194F823
:1073D000241011B908B130460DE0E17911B108B1BE
:1073E000404608E0207A08B1584604E0607A08B1C7
:1073F000042000E02846A070616B41B1032801D051
:10740000042804D1607910B194F85202A0B184F834
:10741000535204F13C0018210746FEF7D8FF04F14F
:107420002C0084F83C60814602F0B5F858B194F81D
:107430002C0084F8510008E084F8545284F8536218
:1074400007208847E5E784F8516094F8240050B19C
:10745000484602F0A0F820B194F8280084F85200C1
:1074600001E084F8526084F85050A27804F24A2176
:1074700004F50D794FF0060A052A62D2DFE802F022
:107480007A030F22410084F83160C4F84452C4E901
:10749000101584F83C808020A4F8480053E084F85C
:1074A000318094F82420384612B10722027001E09E
:1074B00080F800B0228A8281C4F844524160E168B9
:1074C000B96040E06069B860208BB88194F824000E
:1074D0003D4610B184F83CA001E084F83C602046B1
:1074E00002F020FB50B185F814800421204600F002
:1074F000F5FE30BB052184F8311020E084F831B06E
:107500001DE0E069B860208CB88194F824003D4605
:1075100010B184F83CA001E084F83C60204602F001
:1075200001FB48B185F814800421204600F0D6FE06
:1075300038B984F831A002E0042084F83100C4F89E
:107540004492A07878B13A4604F15400D4F8441239
:1075500072DF00287FF416AF94F8301094F85400CE
:1075600073DF0028F6D1616B11B194F831008847C0
:10757000002007E784F83150F5E7000070B50400FB
:1075800012D001461C221448FEF708FF1248134D82
:107590000560206850B17ADF002806D120680168B4
:1075A00029604068686005E00E2070BD0B487BDFF5
:1075B0000028FAD108484FF6FF711438084A20F81D
:1075C000041B0549343901600021FFF729FC00281C
:1075D000EBD0032070BD0000DC350020F42A002031
:1075E000BD9A020010B5044600F006F808B1204626
:1075F00010BD142010BD0000142801D300207047D6
:107600000146014801F034BAFC3500207CB505463E
:1076100008880C460930904201D90C207CBD684690
:107620006DDF0028FAD121880820685420881B21AA
:10763000401C80B2208029542088401C80B22080C9
:107640002844DDF801100160BDF805108180208814
:10765000801D80B220809DF80010490800D00121D3
:1076600029542088401C208000207CBD38B5054668
:1076700001880020244C21292ED00BDC102913D0A6
:10768000112922D013291FD100231A468521E08910
:107690007FDF2FE03B2933D0522926D0562913D142
:1076A000A888132176DF25E0072000F021FB08B130
:1076B000FFF774FBA988E181144801F0E9FA08B1E9
:1076C000FFF76CFB0120607038BD4FF6FF71E18160
:1076D00060702071208138BD0090A88869468FDFD6
:1076E0000028F8D0FFF75AFB38BD00231A46194688
:1076F000E089B1DF0028F7D0BDE83840FFF74EBB86
:10770000A888132176DFF5E7A02A0020A432002004
:1077100010B51A4C0188606810290ED011292BD1A0
:10772000401E606028D1FFF7F7FA002824D02168B6
:10773000002921D0BDE810400847D0B9002101221E
:10774000084600F0B3FA08B107280FD1072202213A
:10775000012000F0ABFA08B1072807D1042202216A
:10776000002000F0A3FA20B1072802D0216801B15F
:1077700088476068401C606010BD0000EC2A002053
:107780002DE9F04701883B4E40F2F3194FF6FF75A3
:1077900010291BD011293ED0122954D0502946D18E
:1077A000C188F289841D914241D1618902293ED16B
:1077B0008688304600F0BCFE050038D004F10C008D
:1077C00000F0B4F9A8B3294630464EE0C17B878863
:1077D000044601292BD1A846284600F0A9FE050041
:1077E00017D02F8000202872234843464A4601685C
:1077F000C5F80A104068C5F80E0004F1100105F143
:107800000A0000F09FFE6872F08900280FD1294617
:107810002AE0042013E0808800F08AFE040006D0ED
:107820006068FFF77DFB08B101F034FF2580BDE8FB
:10783000F087FFE76868FFF773FB0028F7D0BDE823
:10784000F04701F027BF87880646384600F070FEF3
:107850000400ECD02B464A4606F1080104F10A0068
:1078600000F070FE607221463846BDE8F04700F037
:10787000E1BC0000DC350020F42A00202DE9F04FA7
:107880000746858802883D48012197B08346102A23
:1078900009D0112A49D01A2A6CD1387AB1EB101FBD
:1078A00045D2012244E0354C083CA068C0430B900F
:1078B00061680BA801F0F1F80B990CA800F054FCDA
:1078C0002C220CA96846FEF769FD0026E946A04671
:1078D00010E000BF09EB46005FF00004B0F804A020
:1078E00008EB84005146001D01F0B7F8641C1D2C04
:1078F000F6D3761C0098B042ECD8142D05D317B0FF
:107900000420BDE8F04FFFF749BA2946584601F078
:10791000BAF8294608F1040001F0B5F8F87B01280F
:1079200028D016482946001D15E029461AE00022F5
:107930000221B1EB101F01D2012600E000260F4901
:10794000083901F11000041D294682B101F09BF8AD
:1079500036B12946204617B0BDE8F04F01F093B884
:107960002946204617B0BDE8F04F01F076B801F087
:1079700074F8F5E717B0BDE8F08F0000003600207E
:10798000F0B585B016460F4604001D4614D004AA73
:1079900019466069FFF712FB00280BD1A5F57F405F
:1079A000FF380BD0049848B1007848B13088F428EB
:1079B00008D9072005B0F0BD0E20FBE70520F9E748
:1079C0000820F7E700200090019002900390A08823
:1079D000ADF8000001208DF80200CDE9026769468C
:1079E0002846AEDFE6E70000F0B5334D04008DB069
:1079F0002DCD08AE86E82D005BD0E9B30868A06104
:107A0000214608A862DF002851D120788DF8320085
:107A10000326A21CADF830600CA90120A8DF0028C5
:107A200045D120216846FEF7D2FC0220ADF80000C7
:107A3000207801258DF802008DF80C509DF80D007E
:107A4000F427ADF8047040F00C008DF81150ADF83B
:107A500006508DF80D008DF81250608804F10C026C
:107A6000694600F041FA002821D120216846FEF73E
:107A7000AEFCADF8006000E01BE020788DF802005D
:107A80008DF80C509DF80D008DF81150ADF8047074
:107A900040F010008DF81250ADF806508DF80D0032
:107AA0008DF813506088221D694600F01DFA0DB054
:107AB000F0BD0E20FBE70000349D020070B588B0D9
:107AC0000446002924D0002C22D008462188102901
:107AD00020D0502924D057291AD10546A1884069C1
:107AE00006AAFFF76BFA002812D1069E307800280C
:107AF0000ED018216846FEF76AFC01208DF80000C0
:107B00000195A088ADF808000396A96968468847E2
:107B100008B070BD08B02146BDE8704001F0C4BC9B
:107B200008B02146BDE8704001F0F3BC007800F0D9
:107B3000010070470149085C70470000EA9C0200A0
:107B4000094908B5085C0090684601F0C9F9D0F809
:107B50000425009B0121994021EA0203C0F8083561
:107B60001140C0F80C1508BDE69C02000249085CF3
:107B7000012101F0E6B90000E69C02000249085C20
:107B8000002101F0DEB90000E69C0200084908B5BA
:107B9000085C0090684601F0A3F9D0F8040500994C
:107BA000C84010F0010000D0012080F0010008BDA5
:107BB000E69C020010B500242046FFF7D7FF641CA6
:107BC000042CF9D310BD10B500242046FFF7D6FFD2
:107BD000641C042CF9D310BD10B50246064B4FF0BF
:107BE000FF3000215C5C944201D1084610BD491C65
:107BF0000429F7D310BD0000EA9C020010B5002054
:107C000000F066F908B1062806D1012000F060F9FD
:107C100008B1062800D1002010BD00002DE9F04772
:107C20000D468146FFF7D8FF0446042836D2DFF818
:107C300074801B481C4EA8F10C0725B3012D0ED0F3
:107C4000022D2BD104EB440030444578002D25D083
:107C5000B968002922D02846BDE8F047084704EB60
:107C60004401755C0E44717849B10E4A4FF40041ED
:107C7000093A8068FFF710F908B987F80390B178DE
:107C800008F80410E2E78068FFF74AF904EB4401C2
:107C9000314418F804008D78A842D7D0BDE8F087A9
:107CA000F09C0200E82A00207C35002070B50023FB
:107CB000042810D20D4D00EB4004012A02D1012905
:107CC0000CD00022094E00EB4000304461B1012984
:107CD00006D0022906D00723184670BD0E30C2B266
:107CE0002A55F9E74270F7E78270F5E77C35002006
:107CF000044A014600201279D20702D0084600F05B
:107D000003B87047DC2A00202DE9F05F6E4C054671
:107D100000266078B34618B184F801B000F034FC56
:107D20006A4F4FF47A694FF4C87A4FF00108182D62
:107D300069D2DFE805F00C1313384754696E727B83
:107D4000727BC58484848484B3B6B9BCC5C500F095
:107D50001BFC3868FFF7E4F806465CE00020FFF7FC
:107D600015FF00284FF0000008D0FFF7FFFE022D9E
:107D700002D14FF4E16008E0484606E0FFF7FEFE5E
:107D8000022D01D1C82000E05046410CC0034FF441
:107D9000FA72801841F10001257052000023FEF7AD
:107DA000BDFA01462AE00020FFF7F0FE00284FF060
:107DB000000004D0FFF7DAFE4FF44870E5E7FFF764
:107DC000DDFEDFE70020FFF7E1FE00284FF00000B6
:107DD00002D0FFF7CBFECFE7FFF7D0FED4E70020BD
:107DE000FFF7D4FE00284FF0000002D0FFF7BEFEE0
:107DF00001E0FFF7C3FE257041F69A1100223868B2
:107E0000FFF74AF8064646E00020FFF799FE257086
:107E100008E0002051E025703DE084F80180012059
:107E2000FFF78EFE002240F6CD41E8E784F801809E
:107E30000120FFF785FE00224FF48041DFE77868DC
:107E4000FFF76EF80646D5F1110000D02EB10220E2
:107E5000FFF78CFE84F802B01DE0012816D980B22D
:107E6000C8214843C117C90341EA5041C0034FF438
:107E7000FA72801841F1000152000023FEF74EFA19
:107E8000014600227868FFF707F806460220FFF750
:107E900075FE84F802803046BDE8F09F00F074FB68
:107EA000B9E700F071FBB4E700F06EFB04E000F00E
:107EB0006BFB0020FFF762FE0120FFF75FFEAAE7E1
:107EC000FFF781FEA7E70000DC2A0020F09C0200FB
:107ED000012101F0C5BE00000249084490F93000BC
:107EE00070470000843600202DE9F04381468878F1
:107EF00091B090460C4600B901208DF83E002088D4
:107F0000ADF83C0000250095607C694601F00EFC50
:107F10006E46A07C711C01F009FCE07B00289DF8F6
:107F2000020002D040F0080001E020F008008DF8C7
:107F30000200217C11B140F0100001E020F010009F
:107F40008DF80200217B11B140F0010001E020F02A
:107F500001008DF80200217D09B1022100E001211C
:107F600061F342008DF802001C2102A8FEF72FFAEF
:107F7000607BC10601D4800617D50E950EAFE07C5C
:107F8000791C01F0D3FB9DF83800079720F00F0013
:107F9000401C20F0F00010308DF838009DF83A00B9
:107FA00020F00600801C8DF83A00607B8DF80800F8
:107FB000A07B8DF80900142109A8FEF708FA0FA884
:107FC000CDE90906A088ADF83000A06820B1E088AE
:107FD000ADF82C00A0680D90A06998B301950088B9
:107FE000ADF81000A06901AD01A94088ADF81200FC
:107FF000A069406806950390A069007B01F096FB9C
:10800000A069691C407B01F091FBA069807A00287F
:108010009DF8060002D040F0080001E020F00800C2
:108020008DF80600A169C97A11B140F0100001E095
:1080300020F010008DF80600A169097A19B140F00E
:10804000010002E00DE020F001008DF80600A169BA
:10805000897B09B1022100E0012161F342008DF822
:108060000600E06900B10590434609AA02A9484606
:10807000AADF11B0BDE8F08370B5084C050009D047
:1080800010342168002907D0086820604968284614
:108090008847F6E70834F4E770BD0000703600202A
:1080A000054A012120B1012805D19170FFF7E4BFF5
:1080B00051700020FAE77047703600202DE9F05F1C
:1080C00026484168F1B3DFF898B00E688146DBF8C6
:1080D000004087688078E11B21F07F45ED1CB0B936
:1080E000DFF880804FF48030C8F84403C8F80403F8
:1080F0001120FEF7FDFB1120FEF705FC4FF0010AF1
:10810000C8F800A02F2001F00BF989F802A0B542B1
:1081100000D23546124BE8193C3320F07F401860FE
:10812000DBF800105A46091B21F07F41001B20F0AC
:108130007F40C91C81420FD9106818602F2001F0C0
:10814000EFF800E004E0BDE8F05F1120FEF7E6BBC9
:10815000BDE8F05F01F02ABABDE8F09F242B0020B3
:10816000041501400010014073B58CB00646002094
:1081700000900D9880B100246D4621460DA800F0B6
:1081800077FC30B1009805EB400084800098401CDB
:108190000090641C142CF0D32C2269463046FEF764
:1081A000FDF80EB070BD2DE9F04117880646B81DE8
:1081B00014460D46984202D90C20BDE8F081318862
:1081C000072206290AD34FF4486C4FF6FF73614526
:1081D00001D9994202D17088062801D21046ECE7F5
:1081E000604501D99842F9D1994203D0984201D013
:1081F0008142F3D80520E85520881221401C80B226
:10820000208029542088401C80B220804119308869
:1082100001F04EFC2188084480B22080411970880A
:1082200001F046FC2188084420800020C5E7FEF7C5
:10823000B5BD000038B54A7A0F4B62B100220A7210
:108240005969002906D001228DF80020ADF80200FE
:108250006846884738BD0A7A62B19B684C68024616
:1082600019462046FEF718FE0028F3D0BDE8384036
:1082700001F010BA5B68F1E7DC3500201FB5002281
:108280000092ADF800100192ADF802100292039234
:1082900002AA694690DF04B010BD00000E4910B577
:1082A0000A784C780023A24212D0521CD2B20A7033
:1082B000022A00D10B70084A0B780C3252F82320A6
:1082C00002608868104420F07F408860012010BD63
:1082D0000360002010BD0000242B002070B50D4667
:1082E0000446B0F83812D0F834020122FEF74BFFF2
:1082F00000B1057004F13C0204F50D7104F1540065
:1083000072DF70BD06484A88C3899A4207D10A883D
:10831000A2F52063773B02D18988C91E018270478C
:10832000A02A002010B50949094800F0E5FB08B172
:10833000FEF734FDF721064800F0D2FB002803D0F9
:10834000BDE81040FEF72ABD10BD00000583020005
:10835000903200202DE9F0411E461746884604461B
:1083600000F09CF8124D6000687000F075F885F818
:10837000018000F071F800F091F8012000EB44005A
:10838000687000F069F8002409E0301B01280DD066
:10839000002138467F1C00F00DF8641CE4B2B442A2
:1083A000F3D300F090F82878BDE8F0810121F0E7E0
:1083B000D82A00202DE9F0410F4606460024082562
:1083C00021460C2000F049FD0D2000F0B0FD0C20EE
:1083D00000F0A2FD4FEA446110F0FF0F4FEA116474
:1083E00001D044F001040D2000F062FD6D1E15F077
:1083F000FF05E9D1384600F019F83470BDE8F08186
:1084000010B5002421460C2000F027FD0D2000F0BF
:108410008EFD0C2000F080FD00B101240D2000F045
:1084200047FD0C2000F022FD204610BD10B504468B
:108430000C2000F01BFD4FF00C0014B100F077FD94
:1084400001E000F035FD0D2000F071FDBDE81040A9
:108450000D2000F02DBD000070B580240E4E0825C3
:10846000707820424FF00C0002D000F060FD01E077
:1084700000F01EFD0D2000F05AFD0D2000F018FD4B
:1084800064086D1E15F0FF05EAD10C2000F04FFDC9
:10849000BDE87040FFF7B4BFD82A002010B50D200A
:1084A00000F0E4FC0C2000F0E1FC0C2000F03FFDAB
:1084B0000D2000F03CFD0C2000F0FAFCBDE810405F
:1084C0000D2000F0F5BC10B50D2000F0F1FC0C20E3
:1084D00000F0EEFC0D2000F02AFDBDE810400C205D
:1084E00000F025BD2DE9F0411F4616460C46054615
:1084F0004FF00008FFF7D2FF68000C4D6870FFF7DF
:10850000ABFF6C70FFF7A8FF57B1002406E030788E
:108510006870FFF7A1FF641CE4B2761CBC42F6D37E
:10852000FFF7D1FF4046BDE8F0810000D82A0020C7
:108530000146034802888A4200D0002070470000AC
:10854000C8350020F0B58488A518944200D822468A
:10855000A41AC288D6189A4200D81346D21A4B8859
:108560000788BB420CD34088834209D88888A04240
:1085700006D3A84204D8C888904201D3B04201D99A
:108580000020F0BD0120F0BD0A4810B5807860B130
:10859000002401E0022C06D02046FFF7E7FA641C15
:1085A000042CF7D310BD0324F6E7BDE81040FFF715
:1085B00001BB0000DC2A0020F72101801721418047
:1085C000002101714171FB2181711B21C171704733
:1085D0002DE9F047394E002780463D46DFF8E09010
:1085E000D6F804A057E003D00446D0F81C8035E04C
:1085F00099F8002002EB4201521CD2B289F8002007
:1086000009EBC10199F80230091D9A4201D189F89C
:10861000005048680A780446012A12D0022A02D083
:10862000032A3BD108E001F0B5F900B10127257418
:1086300034E00574C06900E070680028F9D170600A
:108640002CE0207C50BB88686060C868A060086926
:10865000E0604869A061F07800B165606268B16867
:10866000184B501A20F07F40984202D2A16808446B
:1086700006E0881AA16820F07F40814202D9081ADA
:10868000206000E0256065600120A5602074204620
:10869000E56101F061F9B8F10000A4D199F800108A
:1086A00099F801008142A3D117B97168514502D0F0
:1086B0000120BDE8F0870020FBE70000242B00200C
:1086C000F0360020FFFF7F00F8B500258DF8005040
:1086D00000F05EFE214C6079012807D060890126F8
:1086E0001F4F782806D2401C60811AE0FDF79CFEDF
:1086F000FEF730F9A07830B1607820B9194890F8C9
:10870000540074DFA570A079012805D07868FEF7C1
:1087100007FCA67125712581E07810B1FEF77CF881
:10872000E5706846FDF7DCFF9DF80000400614D5B3
:108730006581A07810B9FEF70BFBA670E07808B948
:10874000FDF76CFFA079012807D1002240F28F21AC
:108750007868FEF7A1FBA571A581F8BDA02A0020CD
:10876000B09C0200B0320020ACB0FEF76BFB08B149
:10877000FEF714FB684A01216848FEF751FB08B177
:10878000FEF70CFB6548664A0121001DFEF748FB19
:1087900008B1FEF703FB634A1E213220FEF72AFBD5
:1087A00008B1FEF7FBFA00F007FC08B1FEF7F6FA95
:1087B00000F0EAFC08B1FEF7F1FA00246946012056
:1087C000009400F059FC08B1FEF7E8FA684600F0A2
:1087D000A1FC08B1FEF7E2FA9DF8080052A120F0D2
:1087E0000F00401C20F0F00010308DF808000B2224
:1087F00002A87CDF08B1FEF7D1FA00941020ADF892
:1088000000003C200194ADF80200ADF804404FF4A4
:10881000C870ADF8060068467ADF08B1FEF7BEFA08
:10882000FFF780FD4348019001A9434800F03BFA5F
:1088300008B1FEF7B3FA4148009069464048FFF797
:10884000D3F808B1FEF7AAFAAC216846FDF7BFFDE0
:1088500002208DF800008DF8024006208DF80300FC
:1088600037480125801F1490ADF84C508020CDE989
:1088700022048DF87C50334829902F4869460C30EB
:10888000FEF7B0FC08B1FEF789FA2B4801210C3045
:10889000FEF7A5FC1C216846FDF799FD4FF420303A
:1088A000CDE900404FF47020029003208DF80C00B9
:1088B0002548059025480690ADF80E408DF81040EB
:1088C0006846FEF75BFE08B1FEF768FA1A48082210
:1088D0000C3090F85410012077DF08B1FEF75EFAF3
:1088E000FEF736FA164E0D48183E001FB5700022EE
:1088F0004FF400418068FEF7CFFA08B1FEF74EFA58
:10890000FDF78CFE7471FEF7C9F900BFFEF752FA4D
:1089100000F066FBFAE7000065980200B49C0200D4
:10892000C9860200882B00205941585F4D505536AA
:108930003035300061900200A43200201194020012
:10894000B82A0020699402008D9402002F82020050
:1089500070B5144682880E4605462088111D0144D4
:10896000921C994201D8FE2A01D90C2070BD521CDC
:1089700032542088FF21401C80B22080315420884E
:10898000401C80B220808119288801F091F821884C
:10899000084480B22080AA8842B1A96841B130441D
:1089A000FDF7FCFC2088A98808442080002070BDC9
:1089B000072070BDF8B50F46017814460546012919
:1089C00001D1687830B12088821C9A4232D80129BE
:1089D00002D006E00720F8BD69780144891C99425D
:1089E00028D8181A801E86B2ADF800602188B81CFD
:1089F000084469467DDF0028EDD12978022904D09A
:108A00006878BDF80020904205D3BDF80000B04260
:108A100001D809200AE00820012905D16978B1426E
:108A200002D8ADF8001001E0ADF80060BDF800100C
:108A3000FE2901D90C20F8BD2288491CB95421888F
:108A4000491C89B2218078542088401C2080BDF8C0
:108A50000010084420800020F8BD01F01F0301220F
:108A60009A40D243490900EB8100114600F015B845
:108A70004A0950F8220001F01F02012191400840EC
:108A800000D00120704701F01F0301229A404909DC
:108A900000EB8100114600F00BB808B56A46FDF7FF
:108AA000D2FB009808BD08B56A46FDF7B3FB08BDC8
:108AB00008B56A46FDF7BAFB009808BDC20800F089
:108AC00007030120895C98400840704710B5C20830
:108AD00000F00703885C01249C402043885410BDAB
:108AE00028B1A1F11702E12A03D3072070470E2015
:108AF000704701800020704710B560B10161F72117
:108B000020F8021B20F8021BFB2100F8021BFFF7D4
:108B100053FD002010BD0E2010BD00002DE9F047D0
:108B2000B0F804A08EB00C465FEA0A0957D101885C
:108B3000564E0127002524297BD006DC102909D0B8
:108B4000112929D0232926D199E03A2928D055295D
:108B500021D147E021792173C07BA61D012802D0D5
:108B6000022804D101E0208800E06088308031884C
:108B70007088814208D94846A5DF10B1112802D07B
:108B800002E0777100E03771B179F07981426BD9F9
:108B90004846FFF773FB67E0A01DFFF70DFD63E09C
:108BA0002246408934F8061F814200D8084660807A
:108BB000172800D217206080106970B1607960B109
:108BC000D6E90001CDE90001ADF802906088ADF86A
:108BD00004001369694610469847657125710EB007
:108BE000BDE8F087C08804F10608172800D21720D6
:108BF000B8F80010814200D80846A8F8020088F8AA
:108C000004502846B8F80010B5DF98F8050058BBA6
:108C1000206948B3D6E90201CDE90001ADF8029020
:108C2000B8F80200ADF804002046694622691AE04F
:108C3000FFE7011D2C226846FDF7B0FBBDF80000E0
:108C4000BDF8042004EBC0014A73226962B1D6E981
:108C50000423CDE90B23ADF82E00487B8DF83000BE
:108C6000226920460BA99047A07A0028B7D0E18856
:108C70005046A5DF0028B2D1A572E772AFE7017AAE
:108C8000207B884284D2014682E700001C9D0200BE
:108C900020B10278DE2A03D0082070470E207047EA
:108CA00041800020704760B159B10278DE2A0AD0B5
:108CB00009684160DE2101704FF6FF71418000209C
:108CC00070470E207047082070477FB50546002981
:108CD0004DD0002D4BD008780C46DE2847D1A8880F
:108CE0006188884202D1204600F028FF28880128A8
:108CF00025D002283BD011283AD0512837D135F859
:108D0000040F6188884232D1A978A81C02292ED18B
:108D1000017A042903D0062901D0052927D1002191
:108D2000009102228DF8002001914FF4C07202914F
:108D30000391ADF80420007A05280FD010E0297ABD
:108D40002046012913D1A988428891420FD10121DF
:108D5000017204B0BDE8704000F0F0BEADF8041040
:108D600028886946B0DF002801D0616888477FBD48
:108D7000A88861888842FAD14FF6FF7060807FBD75
:108D800000F180400068002800D00120704708B53D
:108D900000F18040002101600068009008BD0000E3
:108DA0002DE9F041040007D0044E4FF47A47751CBA
:108DB0003846A847641EFAD1BDE8F081E09C020065
:108DC00070B50B4C207808B185250FE00020A0601D
:108DD00060602061E060074800F084FA054600F01A
:108DE0001FFA08B900F068FA01202070284670BD0B
:108DF00070360020A180020038B500258DF80050A3
:108E00006846FEF79DF8074CE068401EE060E068A9
:108E100010B900F077FAA5709DF80000FEF7B4F8DD
:108E200038BD0000703600202DE9FF411C46DDE909
:108E30000A7815460E46684600F044F846EA4501B1
:108E400041EA840141EA072242EA0841009A00EB24
:108E50008200C0F80017BDE8FF811CB500220B4658
:108E6000009211460192FFF7DFFF1CBD1CB50021E7
:108E700000910B46012201911146FFF7D5FF1CBD61
:108E800013B50C46684600F039F8009900EB8101F3
:108E9000D1F8002722F44032C1F80027009900EBF6
:108EA0008100D0F8001741EA0441C0F800171CBD4A
:108EB00001B5684600F006F8009A01219140C0F81B
:108EC0000C1508BD0168202902D24FF0A040704760
:108ED00001F01F01016001487047000000030050CD
:108EE0000168202902D24FF0A040704701F01F0115
:108EF000016001487047000000030050016820290C
:108F000002D24FF0A040704701F01F0101600148FC
:108F1000704700000003005001B56846FFF7D2FF1C
:108F2000D0F810050099C84000F0010008BD01B557
:108F30006846FFF7C7FF009A01219140C0F8081565
:108F400008BD38B501240090684631B1FFF7C8FF6D
:108F500000998C40C0F8084538BDFFF7C1FF009963
:108F60008C40C0F80C4538BD1CB5094C0144D4E90F
:108F70000034CDE900346C4606E000BF54F82030E0
:108F8000D3F81035401C08C28142F7D81CBD000040
:108F9000449D0200034908B50844002101600068AF
:108FA000009008BD0060004002494058012800D0F0
:108FB0000020704700600040064910B5002048704E
:108FC000091D0860BFF35F8F0349044800F04CF9A6
:108FD000002010BD382B0020709D020008380020B2
:108FE00008B500208DF800006846FDF7A9FFF1EEF6
:108FF000100A20F09F00E1EE100ABFF35F8F0849CE
:109000004020C1F880029DF80000FDF7BDFF00F090
:1090100007F908B141DF08BD20BF40BF20BF08BD30
:1090200004E000E070B504460C480121FFF73BFD69
:10903000BFF35F8F0025002809D10120074E042CC3
:1090400008D0311F4A781AB1BFF35F8F356070BD09
:109050000C70487000F082FBF6E700003C2B00200B
:10906000FDF79CBE20B103490968016000207047EC
:109070000E207047F49D0200FEB506460D460846D8
:10908000FFF7F0FF002844D1002400940194012749
:1090900006208DF80060ADF8040002948DF802708F
:1090A000694620202A6869DF00948DF801708DF8E8
:1090B0000240019402948DF80340694640202A68DA
:1090C00069DF00948DF80060F720ADF8020001948C
:1090D0000294694623202A6869DF0094019402946F
:1090E0008DF80070694601202A6869DF4FF4B0608E
:1090F0000090019402946946A1202A6869DF0094D7
:10910000019402948DF800406946A0202A6869DF26
:109110000020FEBD60DF002802D1024A012111704B
:1091200070470000432B002030B51548ADF5017D98
:109130000078002821D04FF4FA7500BFADF8005236
:1091400080A9684661DF38B1052816D00DF5017D8C
:10915000BDE83040FDF722BE6C460A497DA800F00C
:1091600083F806E0D0E90021204690477DA800F072
:1091700092F87F980028E1D0F4E70DF5017D30BD2D
:10918000432B0020F89D02007CB5194C207808B1D3
:1091900008207CBD0120A070002000F04DFA1128AD
:1091A00019D0002000F060FA1248002600680190F3
:1091B0008DF800606846FDF7C3FE0F4901A810DF77
:1091C00005000AD0002020709DF80000FDF7DCFEAD
:1091D0002DB128467CBD00207CBD0120F3E7A670A0
:1091E000667000F013FB012000F03EFAF3E7000088
:1091F000402B00208C9D02006D6D02000EB50749CA
:10920000684600F031F805E0D0E90010884768466C
:1092100000F041F802980028F6D10EBDA89D02008A
:109220000148007870470000402B00201FB56846B9
:109230004BDF30B1052814D004B0BDE81040FDF775
:10924000ADBD084901A800F00FF806E0D0E9002103
:109250000098904701A800F01EF803980028E6D077
:10926000F4E71FBD149E0200016009684160AFF37E
:10927000008010B5D0E900215368994201D1002146
:1092800004E0D1E90034A34202D01946816010BD48
:1092900008314160F0E7816800290BD002689268CC
:1092A0000A44826041684B689A4203D108314160A8
:1092B000FFF7DFBF7047000008480068012110F089
:1092C000010F06D14FF0E020C02280F80024C0F842
:1092D00000110349002008607047000000E100E031
:1092E000180500400649024600200B790BB1852085
:1092F000704700238B710A6001220A714B7170471D
:10930000FC2A002004490120086004480168C1F3D8
:1093100000410029FAD170470C00004018040040B9
:10932000002802D00149800108477047519D020082
:1093300038B5044600208DF800006846FDF700FEB1
:109340000A4A517808290AD22170481C50700848EE
:10935000026801238B401A430260002400E00424C9
:109360009DF80000FDF710FE204638BD0C2B0020B4
:109370000805014004490120C1F8040308600349BD
:109380000220087070470000000001400C2B0020F4
:10939000084910B500204978074B084A06E000BF8D
:1093A00002EB8004C4F80036401CC0B28842F7D3F8
:1093B00010BD00000C2B00203546526E000001400D
:1093C000104A5160117809B10820704701211170CD
:1093D0000D4A0178116041684FF47A72C903B1FBFC
:1093E000F2F1094A083A1160007A0849400181F80F
:1093F00000044FF0E0224FF480310020C2F8001149
:10940000704700000C2B00200C05014010E000E02C
:109410003EB50446007800281CD10FA1D1E9000117
:10942000CDE900010820ADF80800A28A0C482169A6
:10943000FCF7B4FF207D0B4C2070094800785A28B7
:1094400008D1E38902AA694604F11800FEF798FAE8
:10945000012060713EBD0000737563636573730026
:1094600008350020A02A002010B550B103280CD1E7
:109470000220FEF73DFC002807D0BDE81040FDF7B4
:109480008DBCBDE8104000F0A1B910BD00780028E7
:1094900007D104483B21C08976DF002801D0FDF7C1
:1094A0007DBC7047A02A0020F0B58BB00026019645
:1094B0000D4604468988406901AAFDF77FFD0AA888
:1094C000CDE908600227ADF82070ADF82260218A4E
:1094D000A88808AAADDF002819D1A069002816D0F5
:1094E0000998FEF723FB002811D0019E0EB1012040
:1094F0003070182102A8FCF76AFF8DF808700394F9
:10950000A888ADF810000596A16902A888470BB09D
:10951000F0BDF0B587B00C4605468E1D89884069C0
:1095200006AAFDF74BFD18216846FCF750FF019590
:10953000A088069AADF80800039231882B8900278D
:1095400004F11200994202D17389022B0DD0AA892D
:1095500091421ED1A96900291BD08DF8007004909A
:109560007089ADF81400A96911E0002A11D0FEF746
:10957000DDFA20B1069901200870022002E0069869
:10958000077003208DF80000A969002901D0684602
:10959000884707B0F0BD0068012805D0022803D035
:1095A000042801D0002070470120704770B50126C3
:1095B00070044FF0E0210025C1F88001084C4010F4
:1095C000C4F84803C4F8080366602F20FFF7A8FE1C
:1095D000A660044C2F20A560FFF7A2FEA57070BD09
:1095E00000100140242B002038B50021012548B18E
:1095F00001280CD0032809D1FFF75EFEBDE83840F2
:10960000FFF7FABB4FF0E020C0F8805138BD8DF86D
:1096100000106846FDF794FC064C207808B9FFF767
:10962000CFFBE068401CE060A5709DF80000FDF7EE
:10963000ABFC38BD703600203EB50446094968468B
:10964000FFF712FE08E000BFD0E900212046904756
:1096500030B16846FFF71FFE02980028F4D13EBDE6
:1096600011203EBD909D02003EB504460849684663
:10967000FFF7FAFD07E000BFD0E900212046904740
:109680006846FFF708FE02980028F5D13EBD0000AD
:109690009C9D020002498969002900D00847704753
:1096A000DC3500202DE9F0410746806A14468846E3
:1096B000C8B3002531E000BFB96A05EB450001EBF6
:1096C0008006B088801CFE2802D90C20BDE8F081FD
:1096D0002288401C08F8020020881622401C80B214
:1096E000208008F800202088401C80B2208000EBF9
:1096F0000801308800F0DCF92188084480B220801D
:10970000B28842B1B16871B14044FCF747FE20888D
:10971000B188084420806D1CEDB297F82C00A84257
:10972000CAD80020D2E7FFE70720CFE70A7806284B
:1097300022F0FF020A7010D2DFE800F003050709EB
:109740000B0D002008E0112006E0212004E031206C
:1097500002E0122000E022200870704770B5164D1C
:10976000164C07E0016820788847002822D012486C
:10977000FFF791FDA8680028F4D1207803280CD0C9
:1097800002280AD0FFF74CFD00B133DF0C4901205D
:109790000860BFF34F8F20BFFDE7BFF34F8F09482D
:1097A0000168094A01F4E06111430160BFF34F8F82
:1097B00000BFFDE770BD000008380020382B0020F6
:1097C000000500400CED00E00400FA0510B5002093
:1097D000FEF78EFA08B1FDF7E1FAFEF70FFA08B1CD
:1097E000FDF7DCFA33DF002803D0BDE81040FDF7B9
:1097F000D5BA10BD002805D10349012048700020CA
:10980000FEF73ABC704700007036002010B51620F5
:10981000FDF770FAA0B1114890F80004400908283B
:1098200011D20121814011F0EC0F0CD00C4882685C
:109830004FF480016AB1016841F48001016010BDFC
:1098400042F2010001E042F20200BDE81040FDF7E3
:10985000A5BA4FF0E020C0F8001110BD16E000E0FE
:10986000FC37002070B51A4C1A4D207900EB4000EF
:1098700005EB4000FCF7BCFE2189282906D220799F
:109880002D2803D2891D2181401C20716078012878
:109890001CD12079032819D3A18900EB40000A0AC2
:1098A00005F8102005EB4000094A41702089083274
:1098B000801C2081E389074902F11000FEF760F85F
:1098C000002020812071A089401CA08170BD000073
:1098D000A02A0020083500202DE9F84F1D4C002556
:1098E0006846D4E901A6FEF7D9FC002738B3002367
:1098F000009A61681CE0D1F800C00846944503D97D
:10990000ACEB02020A6015E0A2EB0C0263440760B4
:10991000D0F80CC0C1698146BCF1000F08D006EB3D
:10992000030828F07F48C0E9018CC9F81C5005469F
:109930000029E0D128466160FEF74AFE03E0284690
:10994000FEF746FE10B15046FEF7B8FBE770BDE8E3
:10995000F88F0000242B00200D4B10B5596831B151
:1099600002680C68A24204D8A21A0A60C161586059
:1099700010BD0B4603E00B46C969121B21B10C68F0
:109980009442F8D3A41A0C600260C161D86110BD82
:10999000242B00202DE9F041144E77683D462C46DB
:1099A00003E0844204D02546E469002CF9D11BE091
:1099B000D4B1A5420BD1F869706040B90C490120BF
:1099C00088600021B160F0702F20FFF7A9FC2168AA
:1099D000E069E86110B10268114401607068874273
:1099E00002D00120BDE8F0810020FBE7242B0020FD
:1099F000001001407CB5064600240D468DF800405D
:109A00006846FDF79DFA01A800F0AAF870B105704C
:109A1000094946609DF8040048709DF80000FDF774
:109A2000B3FA1420FCF77AFF20467CBD04249DF88D
:109A30000000FDF7A9FAF7E7F03600202DE9F04124
:109A4000194D6C68002C2CD0184800270068A968B4
:109A5000B846401A20F07F462068B0420CD8214614
:109A6000361A0744E469087C20B181F810808869BF
:109A700049698847002CEFD129786878814206D15E
:109A8000401CC0B26870022801D185F801800648E8
:109A900069780C3040F82170BDE8F0411420FCF7E3
:109AA0003DBFBDE8F0810000242B002004150140DB
:109AB0000870000A4870022070470000F8B505469B
:109AC00080B2FEF735FD040013D0154E207A002732
:109AD000317B88420ED2A8B204F10A0175DF28B1A9
:109AE000112806D0BDE8F840FFF7D4BD207A401C0D
:109AF0002072F8BD2772307C38B1A8B23B2176DFE6
:109B000018B1082801D0FFF7C5FD71690029F0D010
:109B10008DF80070ADF8025068468847F8BD000027
:109B2000DC350020417939B190F8521221B990F812
:109B3000540208B1012070470020704730B4044639
:109B4000007A00280AD06088002166DF28B1112839
:109B500002D0616830BC08470120207230BC7047D9
:109B60000A494A788B78521CD2B2934200D1002223
:109B70000B78934201D1002070470270487800EBC7
:109B8000400001EBC000001D70470000F0360020CF
:109B90002DE9FC411646DDE90854CDE900541F4685
:109BA0008046022200F00CF8002807D1CDE90054CD
:109BB0003B4610223146404600F002F8BDE8FC81E9
:109BC0002DE9FC5F0026DDE90C4B994692468E4656
:109BD00080462788354630E0D8F80400002200EBA4
:109BE000850069460068019001A864DF002830D133
:109BF0009DF8000050451FD10EB1002100E0022168
:109C0000228808441118594522D846B9521C90B2EE
:109C1000208009F800E02088401C2080012621884F
:109C200001A801EB0902694664DF002811D12088F0
:109C30009DF80010084420806D1CB8F80000A84270
:109C4000CADC56B12088C01B401E80B2FF2802D952
:109C50000C20BDE8FC9F09F807000020F9E7000090
:109C600010B504281DD209B1032400E00024FDF73B
:109C700061FF202802D24FF0A04102E00A4900F023
:109C80001F0001EB8000D0F8001721F44031C0F82C
:109C90000017D0F8001741EA0441C0F8001700206F
:109CA00010BD062010BD000000030050FCF752FE5E
:109CB00001000200482B0020682B0020010000005A
:109CC000102700000600000001000000102700001F
:109CD000060000000000000000000000000000007E
:109CE0000338FDD870470D0E0F100B0C181900002B
:109CF0003C3500205C350020883500200B00030037
:109D00001D7C02000C0003001D7C020018000300F3
:109D10001D7C0200190003001D7C0200770A000070
:109D200000000000770A0000000000007ADA00005E
:109D3000000000009FCADC240EE5A9E093F3A3B560
:109D40000000406E000000500003005000000000C2
:109D50000338FDD87047000000000000000000003C
:109D600000000000000000000000000000000000F3
:109D7000589D0200709D02000400000000000000D9
:109D800000000000000000000000000000100207BA
:109D90007C9D02008C9D020008000000B49D020022
:109DA000C49D020008000000C49D0200D49D020072
:109DB00008000000A09E0200A89E02000000000013
:109DC00000000000909E0200A09E02000000000023
:109DD00000000000409E0200489E0200489E0200D3
:109DE000689E0200689E0200789E0200789E020033
:109DF000809E0200982A0020D49D0200F49D02005B
:109E000008000000809E0200889E0200889E0200DA
:109E1000909E0200049E0200149E020008000000B2
:109E2000A89E0200982A0020B0000000D46C020016
:109E3000589F0200482B0020D02C0000E46C020048
:109E40007D780200000000001D8B0200903200208F
:109E5000E3720200B032002011770200000000001F
:109E60008177020000000000BD7A0200B82A0020BD
:109E7000CB8C0200A43200206D76020000000000AE
:109E8000F5970200000000004D730200B032002080
:109E900029910200000000002D9202000000000045
:109EA000E995020000000000D42A0020010004000F
:109EB0000000000000000100000000000000FFFFA3
:109EC0001400030002000000000000000000000079
:109ED000000000000000000000000000982A0020A0
:109EE0000000000000000000000000000000000072
:109EF0000000000000000000000000000000000062
:109F00000000000000000000000000000000000051
:109F10000000000000000000000000000000000041
:109F20000000000000000000000000000000000031
:109F30000000000000000000000000000000000021
:109F40000000000000000000000000000000000011
:089F5000000000000090D003A6
:040000050002620192
:00000001FF
