:020000040002F8
:1060000010880020F96202000163020003630200AD
:10601000056302000763020009630200000000003C
:106020000000000000000000000000000B63020000
:106030000D630200000000000F6302001163020004
:106040006566020013630200C56802001363020064
:1060500013630200136302004D6402001363020025
:106060001363020013630200136302001363020050
:106070001363020013630200136302001363020040
:1060800013630200BD660200136302001363020083
:10609000E166020013630200E5660200136302007A
:1060A0001363020013630200136302001363020010
:1060B00013630200136302000000000000000000F0
:1060C00013630200136302001363020013630200F0
:1060D00013630200136302001363020013630200E0
:1060E0001363020013630200136302000000000048
:1060F00000000000136302000000000013630200B0
:10610000000000000000000000000000000000008F
:10611000000000000000000000000000000000007F
:10612000000000000000000000000000000000006F
:10613000000000000000000000000000000000005F
:10614000000000000000000000000000000000004F
:10615000000000000000000000000000000000003F
:10616000000000000000000000000000000000002F
:10617000000000000000000000000000000000001F
:10618000000000000000000000000000000000000F
:1061900000000000000000000000000000000000FF
:1061A00000000000000000000000000000000000EF
:1061B00000000000000000000000000000000000DF
:1061C00000000000000000000000000000000000CF
:1061D00000000000000000000000000000000000BF
:1061E00000000000000000000000000000000000AF
:1061F000000000000000000000000000000000009F
:10620000DFF80CD000F0E4F800480047DD8202001F
:106210001088002030B4044654E8000F0D4644E8CE
:106220000053002BF8D1156030BC704730B40446E1
:1062300054E8000F40EA010544E80053002BF7D171
:10624000156030BC704730B4044654E8000F00EAD3
:10625000010544E80053002BF7D1156030BC7047AE
:1062600030B4044654E8000F80EA010544E80053C6
:10627000002BF7D1156030BC704730B4044654E8A9
:10628000000F00EB010544E80053002BF7D1156027
:1062900030BC704730B4044654E8000FA0EB010551
:1062A00044E80053002BF7D1156030BC704770B440
:1062B00004464FF0000054E8006F0D68AE4207BF7F
:1062C00044E80023012044E800630E60002B1CBF5B
:1062D0000020F0E770BC704730B4044654E8000F6B
:1062E00088422CBF451A054644E80053002BF5D1DF
:1062F000156030BC704700000648804706480047DC
:10630000FEE7FEE7FEE7FEE7FEE7FEE7FEE7FEE765
:10631000FEE7FEE7E966020001620200202A04DBD4
:10632000203A00FA02F1002070479140C2F12003A8
:1063300020FA03F31943904070470000004870476B
:10634000A8BB020040EA01039B0703D009E008C98B
:10635000121F08C0042AFAD203E011F8013B00F82A
:10636000013B521EF9D27047D2B201E000F8012B76
:10637000491EFBD270470022F6E710B513460A46C5
:1063800004461946FFF7F0FF204610BD421C10F8E6
:10639000011B0029FBD1801A704710B5002200E0D4
:1063A000521C835C8C5CA34201D1002BF8D1D8B283
:1063B000E1B2401A10BD30B504460020034600E0AB
:1063C0005B1C934203D2E05CCD5C401BF8D030BD37
:1063D000064C074D06E0E06840F0010394E8070032
:1063E00098471034AC42F6D3FFF70EFF00C5020009
:1063F00020C5020070B58C1810F8015B15F007037A
:1064000001D110F8013B2A1106D110F8012B03E04D
:1064100010F8016B01F8016B5B1EF9D12B0705D455
:106420000023521E0DD401F8013BFAE710F8013B9E
:10643000CB1A921C03E013F8015B01F8015B521EBA
:10644000F9D5A142D8D3002070BD00002DE9F04F4E
:1064500000268DB0DFF8A081B14604964FF4807518
:10646000012437460596284602F05CFE38B1D8F87C
:106470000403204203D0284602F04AFE26432D1D85
:1064800064007F1CADB2082FEDD34FF4BE742046DC
:1064900002F048FE48B1204602F03AFE46F00046BF
:1064A00004AA0221002002F01DFE544C16F0FF0F3A
:1064B00015D00127002537420DD008EB8501D1F812
:1064C0001005D1F81015C0F3052054F82520C1F3AC
:1064D000014102B190477F006D1C082DEBD3002EC7
:1064E0007EDA0020CDF82890411E0DF1100B07AA8E
:1064F000CDF82C9042F82010401C91460228F9D388
:1065000000252E46A11911F8607F91F9000027F0AF
:10651000C008401C40D007A9404602F057F840B3DD
:106520004FEA971A404601F097F954F820701FB1CE
:10653000BAF1030F03D006E0BAF1030F2CD10AA978
:10654000404602F04BF802A8CDF8088002F06EFD3C
:10655000029900EB8100D0F8000704A9C0F30140C4
:106560000290404602F032F80028029802D0022839
:1065700002D011E003280FD1BAF1030F08D102981D
:10658000022833D00221404602F02AFD6D1CEDB2F4
:1065900017B151464046B847761C042EB2D3002DA1
:1065A00021D001AA0221002002F09CFD00205A46C1
:1065B0000DF1040152F8206051F82030B34217D099
:1065C00000200AAE4FEA090351F8207042F820700B
:1065D00056F8207043F82070401C0228F4D300E0E5
:1065E00001E0002D8CD10DB0BDE8F08F0321CAE78A
:1065F000401C0228DED3F6E7006000405060002017
:1066000000F01F02012191404009800000F1E020CC
:10661000C0F88012704700F01F020121914040092C
:10662000800000F1E020C0F80011704700F01F0268
:10663000012191404009800000F1E020C0F80012E3
:1066400070474907090E002806DA00F00F0000F134
:10665000E02080F8141D704700F1E02080F800145D
:106660007047000070B54FF48076304602F09EFA15
:10667000114CB50560B1304602F09FFA0120C5F813
:106680000803607920B901206071216800208847E3
:106690004FF48276304602F089FA00280AD030465C
:1066A00002F08BFA0220C5F808032168BDE87040AB
:1066B0000120084770BD0000045A0020074800214F
:1066C000C0F84011C0F84411C0F84811C0F84C118E
:1066D000C0F80011C0F8041104F006BE001001401B
:1066E00004F050BD03F078BA30B54FF0805000226E
:1066F0008300D0F83011C3F80C21C3F81021624B8D
:106700001A60624B1B68624C2360604B1B1D1B6848
:10671000241D23605D4B08331B68241D23605B4BE5
:106720000C331B68241D2360584B10331B68241D39
:106730002360564B14331B68241D2360534B1833BE
:106740001B68534C20342360504B1C331B68241DA2
:1067500023604E4B20331B68241D23604B4B243396
:106760001B68241D2360494B28331B68241D2360AC
:10677000464B2C331B68241D2360444B30331B686D
:10678000434C40342360414B34331B68241D236049
:106790003E4B38331B68241D23603C4B3C331B6845
:1067A000241D2360394B40331B68241D23600123C3
:1067B000082902D1D0F8344114B1082904D006E0E8
:1067C000354C3449216005E0D0F8344114B1082932
:1067D00004D006E0314CFB21216005E0D0F83441C3
:1067E00014B1082908D00EE090F858422C480168EE
:1067F00064F30301016002E0D0F834411CB9294977
:106800004FF40070086028480168C90702D06FF093
:10681000010101602548016841F470010160BFF386
:106820004F8FBFF36F8F4FF01021D1F80002002877
:1068300003DBD1F80402002822DA1D4C23601D4836
:106840000368002BFCD01223C1F800320568002D2C
:10685000FCD0C1F8043201680029FCD02260016834
:106860000029FCD0BFF34F8F10487C380168124AD2
:1068700001F4E06111430160BFF34F8F00BFFDE7FA
:106880000F490E48086030BD380500400404001070
:1068900020C50040488103008C56004018F5004098
:1068A000E40E0040409602400004004088ED00E005
:1068B00004E5014000E401400400FA050090D00323
:1068C000C85A002001480068004700000C5A002008
:1068D00002E008C8121F08C1002AFAD170477047A9
:1068E000002001E001C1121F002AFBD17047000007
:1068F0000121202803DA81400548014003E04028B7
:1069000002DA2038814009B1012070470020704729
:10691000FC06FFBD31B500252C462146684601F036
:10692000C6FD00B16D1C641C142CF6D3284638BD7E
:1069300010B501220221002000F040FE08B1072816
:1069400010D107220221012000F038FE08B10728EB
:1069500008D100210A22084600F030FE08B10728BD
:1069600000D1002010BD000070B50024084D05E0E6
:10697000686810F8340003F00BFA641C287884422D
:10698000F6D304484068BDE8704000F021B900002B
:10699000185A0020BCB8020070B50024064D06E06D
:1069A0006868012110F8340003F016FA641C287896
:1069B0008442F5D3002070BD185A0020F8B5154662
:1069C0000C460646052A01D20720F8BD03F0FAFA64
:1069D00018B903F0BFFA0028F7D1124900224E601F
:1069E0000C708D60C1E90422C1E906220E4D0DE054
:1069F00006EBC4002968009181788DF801100078B9
:106A00000A4A694603F034FA0028DED1641EE4B273
:106A1000EED2BDE8F84004480021054A001D00F010
:106A200057B80000185A0020BCB80200217E0200AE
:106A3000E57B020072B602F01FFE00BF02F058FCB8
:106A40000028FBD111481249401AC408012000EB6C
:106A5000044010A102F066FD11480068C00700D094
:106A600000BE022000EB04400EA102F05BFDBFF36C
:106A70004F8F0B48E43801680E4A01F4E06111437E
:106A80000160BFF34F8F00BFFDE7000088C5020023
:106A900030C50200466174616C206572726F7200CD
:106AA000F0ED00E053797374656D20726573657461
:106AB000000000000400FA050EB500210091CDE9A8
:106AC00001106A4644F20100FFF7B4FF0EBD00005A
:106AD000074B9B7823B12AB120B10068037C1BB11E
:106AE00008207047072070474174426100207047BA
:106AF0002C61002070B504F09DF9104800240B2192
:106B0000047044700E4D817014206C602C706C7099
:106B1000FFF776FD06211420FFF793FD1420FFF701
:106B20007AFD0848046006211120FFF78AFD054818
:106B3000001F0068A860002070BD00002C610020CC
:106B4000385A0020081501402DE9FC47DFF87890FD
:106B500099F8023073B368B3052902D20720BDE863
:106B6000FC87436933B3437C012B25D000270446BF
:106B70000025884616468DF80050684600F038F823
:106B800001A804F01DFEC8B1012101700F49446045
:106B90000968C0E90218C0E904769DF8040089F884
:106BA00001009DF8000000F047F81420FFF73EFDBB
:106BB0002846D4E70820D2E70F46D8E704259DF8F9
:106BC000000000F039F8F3E72C61002004150140C3
:106BD0000649897839B130B1416921B10021017488
:106BE000022104F05DBB0820704700002C610020EA
:106BF00030B5EFF3108172B60D4A9468012324B1C9
:106C00000370002900D162B630BD93604FF0E023DD
:106C1000D3F88051074C25401560C3F88041D3F864
:106C2000844154605A17C3F8842100220270E8E7B7
:106C300038620020FC06FFBD0B498A68002A11D08B
:106C400000280FD1EFF3108072B60B684FF0E022EE
:106C5000C2F800314B68C2F8043100228A60002873
:106C600000D162B6704700003862002070B505465A
:106C700008680C46411C04D002F00DFA206802F0AE
:106C80009BF96068411C02D0002102F083F9296859
:106C9000A069C1F82405607D227D29681043C1F8F0
:106CA0006C05D4E900122868C0F81425C0F80C154A
:106CB000207D012814D1A068411C02D0002102F0DF
:106CC00069F9E068411C04D002F0E5F9E06802F0DF
:106CD00073F9D4E902122868C0F80825C0F8101525
:106CE00070BD70B5054608680C46411C04D002F022
:106CF000DCF9206802F06AF96068411C02D00021CA
:106D000002F051F92968A069C1F82405607D217D50
:106D10002A680843C2F86C05D4E900122868C0F854
:106D20000C15C0F81425207D012814D1A068411C41
:106D300002D0002102F037F9E068411C04D002F0D3
:106D4000B4F9E06802F042F9D4E902122868C0F808
:106D50000825C0F8101570BD78210148FFF70BBB5E
:106D60000C5C0020F8B506464FF000001500ADF8A9
:106D7000000015D009236A46304600F015F8044695
:106D8000BDF80000064458B154B12846FFF7FEFA9A
:106D9000A04205D1224631462846FFF70CFB08B138
:106DA0000020F8BD0120F8BD70B588B182B1002483
:106DB000158803E0065D641C3444A4B2A54203D8E0
:106DC000061976789E4201D08C42F3D38C4201D3CF
:106DD000002070BDA11C1180005D401E80B270BDFE
:106DE000054808B5C16800918168684601F080FBDC
:106DF0000098FFF78FFD08BD0C5C0020FFF7ACBFCB
:106E000070B540B10C4D297839B1044603F0F6FF56
:106E100028B1002070BD0E2070BD082070BDE8684C
:106E2000062807D20549226801EB8001401C0A6050
:106E3000E860EEE7042070BDD8590020845C002093
:106E400040B1054900220123CA600B70C1E901026B
:106E5000104670470E207047D859002070B50400C6
:106E60002DD000292BD020480078002827D020885A
:106E70000D46112815D0302804D0322807D03328E9
:106E80001ED109E0211D284603F070FE18E0211DE7
:106E9000284603F0E7FA13E0211D284603F0E0FC42
:106EA0000EE0A088B5F8CA12884209D1002085F802
:106EB000C70285F8C8024FF6FF70A5F8CA0270BD78
:106EC00095F8C8020028FAD020883028F7D34F2838
:106ED000F5D8A088B5F8CA128842F0D12846BDE896
:106EE000704000F033BF0000D859002048B1084A74
:106EF000137843B1D26832B190F8C7222AB1112079
:106F000070470E2070470820704700F01FBF000038
:106F1000D859002038B50546041D01884D484E4A11
:106F2000801AC008042202EB00401F2972D017DC2F
:106F3000494B484D4FF00302A5EB03034FEAD3033F
:106F400002EB0345102918D011294BD01B2974D10D
:106F50002179022971D1BDE8384040A102F0E2BA9E
:106F600021295ED03B2969D0562966D143A102F080
:106F7000D9FAA888132176DF66E02288284645A141
:106F800002F0D4FA2088082802D30020FFF794FDED
:106F900021884D48002200EB011000F0A6F908B14D
:106FA000FFF78AFD2188B320484A484302EB80005E
:106FB000FFF79CFF112802D008B1FFF77DFD0120EB
:106FC00000F0EAFAFFF70CFF08284FF0000005D0A8
:106FD00000F0E2FABDE8384003F0AEBFBDE838404B
:106FE00000F0D2BA23792288284639A102F0A5FA06
:106FF000FFF7F6FE38B9FFF7B7FC08B1FFF75CFD05
:10700000012000F0C1FA03F097FFBDE838400020EE
:1070100000F0C2BA3BA102F085FA2088211D75DF7D
:1070200012E042A102F07EFA00200090A888694692
:107030008FDF002801D0FFF73FFD38BD40A102F0EF
:1070400071FAA888132176DF0028F6D0BDE8384011
:10705000FFF732BD88C5020030C50200436F6E6E77
:10706000656374696F6E20726571756573742074E1
:10707000696D6564206F75742E000000474154549B
:10708000207365727665722074696D656F75742EF4
:1070900000000000436F6E6E656374696F6E203090
:1070A0007825782065737461626C69736865642CF7
:1070B000207374617274696E67204442206469733E
:1070C000636F766572792E00185B00207043002094
:1070D0004C42532063656E7472616C206C696E6BF8
:1070E000203078257820646973636F6E6E656374F1
:1070F00065642028726561736F6E3A203078257858
:1071000029000000424C455F4741505F4556545F9F
:10711000434F4E4E5F504152414D5F555044415494
:10712000455F524551554553542E00005048592053
:1071300075706461746520726571756573742E0075
:107140004741545420636C69656E742074696D65A1
:107150006F75742E0000000010B51A4C018860682D
:1071600010290ED011292BD1401E606028D1FFF7C5
:10717000DFFB002824D02168002921D0BDE8104081
:107180000847D0B900210122084600F017FA08B1DB
:1071900007280FD107220221012000F00FFA08B1C1
:1071A000072807D104220221002000F007FA20B1AD
:1071B000072802D0216801B188476068401C6060E0
:1071C00010BD0000D05900202DE9F04F07468588FA
:1071D00002883D48012197B08346102A09D0112A20
:1071E00049D01A2A6CD1387AB1EB101F45D201224E
:1071F00044E0354C083CA068C0430B9061680BA884
:1072000001F076F90B990CA800F0C8FB2C220CA910
:107210006846FFF797F80026E946A04610E000BF51
:1072200009EB46005FF00004B0F804A008EB84000E
:107230005146001D01F030F9641C1D2CF6D3761C5C
:107240000098B042ECD8142D05D317B00420BDE847
:10725000F04FFFF731BC2946584601F033F9294673
:1072600008F1040001F02EF9F87B012828D0164817
:107270002946001D15E029461AE000220221B1EB43
:10728000101F01D2012600E000260F49083901F144
:107290001000041D294682B101F014F936B12946C7
:1072A000204617B0BDE8F04F01F00CB92946204642
:1072B00017B0BDE8F04F01F0EFB801F0EDF8F5E7D9
:1072C00017B0BDE8F08F0000145C002058B10388AF
:1072D000A3F57F41FF3904D041880122184600F010
:1072E00035BA082070470E20704740B1018022B1A6
:1072F0001168C0F802109188C180002070470E20EC
:107300007047000030B5134D040085B02DCD8DE8D9
:107310002D001DD0E1B10868D0B100206080A080B0
:10732000E0804FF6FF7020800868A06004F10C0137
:10733000684662DF002809D1207B8DF8120041F2F7
:107340002350ADF8100004A8FFF75AFD05B030BD7A
:107350000E20FBE79CB802000EB5002921D00028C2
:107360001FD00288112A25D0382A1BD0392A18D1DB
:107370000A4609888388994213D1418993889942A2
:107380000FD1C18901290CD102218DF8001011887B
:10739000ADF80210007C8DF8040093686946104631
:1073A00098470EBD098880888142FAD1BDE80E4019
:1073B00003F0D4BF0A8880888242F2D14FF6FF7072
:1073C0000880002048808880C8800EBD70B50D46BA
:1073D00004002ED02088A0F57F41FF3927D0164821
:1073E00016492A46401AC008042101EB004014A1A6
:1073F00002F09CF81849194B086800EB8002401C09
:1074000000F00700086003EB8203E0885881012048
:10741000D881191D196100219981022119721D71EC
:1074200021881980987003F099FF002070BD082012
:1074300070BD0E2070BD000048C5020030C50200BE
:1074400077726974696E67204C4544207374617467
:107450007573203078257800E85900209C5F002063
:107460003EB50446087800284AD18888A0F5A8527D
:10747000233A45D18879227B904241D101208DF871
:1074800000004888ADF80200002017E000EBC002C1
:1074900001EB420232F80E3F03F6DC23B3F5005352
:1074A00005D0012B09D11289ADF8082005E0138918
:1074B000ADF806305289ADF80420401C0A7A8242A9
:1074C000E4D810481049401AC008042101EB0040DC
:1074D0000EA102F027F82088A0F57F41FF390BD0DC
:1074E000E08848B9A08838B9608828B90198C4F8FC
:1074F0000200BDF80800E080A26869462046904777
:107500003EBD000048C5020030C502004C65642045
:10751000427574746F6E205365727669636520647A
:107520006973636F76657265642061742070656548
:10753000722E00002DE9FC410646C0074FF0000501
:107540000ED0104F00240122385D00950023114613
:10755000019501F0A9FC641C042CF4D300F024F87C
:10756000B0070DD5074E0024361D0022305D0323E1
:1075700000951146019501F097FC641C042CF4D38E
:10758000BDE8FC81FFB702000249085C012101F05F
:1075900096BD0000FFB702000249085C002101F01F
:1075A0008EBD0000FFB7020010B500242046FFF793
:1075B000EBFF641C042CF9D310BD000070B5002350
:1075C000042810D20D4D00EB4004012A02D10129FC
:1075D0000CD00022094E00EB4000304461B101297B
:1075E00006D0022906D00723184670BD0E30C2B25D
:1075F0002A55F9E74270F7E78270F5E7005C002052
:107600002DE9F8430546861C00208DF800009046C1
:107610000F464FF001096846FFF7EAFA1B4C206855
:107620003860D4E90001401AA16804F21C47081A26
:107630000EE00121384600F055FF00F001FE014642
:10764000384600F04FFFD4E90001401AA168081A3B
:10765000401C8642EDD8B8F1000F03D0052065F339
:10766000891002E0062065F39F50A268216811404E
:1076700004EB8101C8602068304420609DF8000060
:10768000FFF7DAFA4846BDE8F8830000E863002017
:1076900070B50D4604460A2902D10D21FFF7F8FF07
:1076A000A0682268411CA1601554D4E901018142FF
:1076B00004D32046BDE8704001F0FDBA70BD000063
:1076C000034803C8814201D1012070470020704760
:1076D000E86300202DE9F0410D460B2803D0BDE8FA
:1076E000F041FFF7E9B9104E002443F2020700BF52
:1076F00006EB04102946FFF769FE18B1B84201D025
:1077000008280FD1641C082CF2D3084808492A46DF
:10771000BDE8F041401AC008032101EB004005A17B
:1077200001F004BFBDE8F081185B002088C50200AD
:1077300030C502004C4253207772697465204C4575
:1077400044207374617465202564000070B50D4693
:107750000646154815491446401AC008042101EB95
:10776000004033462A4612A101F0E7FE1F49204B94
:10777000086800EB8002401C00F00700086003EB83
:10778000820202205581D081101D1061002090815D
:10779000012010721471210A51711680907003F04B
:1077A000DDFD002070BD000048C5020030C50200AC
:1077B000436F6E6669677572696E67204343434421
:1077C0002E20434343442048616E646C65203D2075
:1077D00025642C20436F6E6E656374696F6E20485C
:1077E000616E646C65203D2025640000E85900202E
:1077F0009C5F002005494FF0FF32082841F8202007
:1078000002D3084480F858207047000050600020E0
:10781000F0B54FF0FF3512B10023082601E0082330
:107820000C260C4C05E000BF54F823707F1C04D0DC
:107830005B1CB342F8D32846F0BD26185DB286F82B
:10784000305044F82310002AF5D1E11881F858008F
:10785000F1E70000506000200249084490F9300030
:10786000704700005060002008B5024690F8C6023C
:107870000B4600EB8001C1EB801002EB400092F858
:10788000C52242B1521ED2B202EBC20100EB41024C
:10789000518A491C00E0C188ADF800100089ADF89C
:1078A0000200694618469DDF08BD000070B5084C0F
:1078B000050009D010342168002907D0086820602D
:1078C000496828468847F6E70834F4E770BD0000A9
:1078D0003C600020054A012120B1012805D19170AA
:1078E000FFF7E4BF51700020FAE770473C600020CA
:1078F0002DE9F05F26484168F1B3DFF898B00E68D3
:107900008146DBF8004087688078E11B21F07F45E5
:10791000ED1CB0B9DFF880804FF48030C8F8440324
:10792000C8F804031120FEF76BFE1120FEF773FE6A
:107930004FF0010AC8F800A02F2002F021FA89F8C0
:1079400002A0B54200D23546124BE8193C3320F074
:107950007F401860DBF800105A46091B21F07F4178
:10796000001B20F07F40C91C81420FD910681860AD
:107970002F2002F005FA00E004E0BDE8F05F1120DE
:10798000FEF754BEBDE8F05F03F054BABDE8F09FC7
:10799000385A0020041501400010014073B58CB026
:1079A0000646002000900D9880B100246D462146C7
:1079B0000DA800F07CFD30B1009805EB40008480FC
:1079C0000098401C0090641C142CF0D32C226946B3
:1079D0003046FEF7B7FC0EB070BD0000F0B50C46A7
:1079E00006461E481E4987B0401AC708042000EB0F
:1079F0000740334622461BA101F09FFD0020049062
:107A00000590ADF8104001900290ADF8124001AA27
:107A100004A9304690DF05001DD002F057F9034657
:107A2000012000EB0740044632461A4901F085FD6B
:107A3000BDF8042012B9BDF8060028B1BDF8063023
:107A4000204615A101F079FDBDF808201AB12046A5
:107A5000214901F06BFD07B02846F0BD38C5020092
:107A600030C502005570646174696E67206461748A
:107A700061206C656E67746820746F202575206FB7
:107A80006E20636F6E6E656374696F6E203078254B
:107A9000782E000038BD020054686520726571754B
:107AA00065737465642054582F5258207061636B5D
:107AB0006574206C656E67746820697320746F6FDD
:107AC000206C6F6E672062792025752F2575206FD9
:107AD00063746574732E000084BD020010B5044603
:107AE00042880A480A491346401AC008042101EB9B
:107AF000004008A101F021FD6088164901EB00104B
:107B00002146BDE81040FFF7ABBC000088C502006D
:107B100030C5020063616C6C20746F20626C655F1D
:107B20006C62735F6F6E5F64625F646973635F65ED
:107B3000767420666F7220696E7374616E6365205F
:107B4000256420616E64206C696E6B203078257826
:107B500021000000185B00202DE9F843054690F84D
:107B6000C6020F4600EB8001C1EB801005EB40061A
:107B700095F8C542914604EBC40006EB400132790A
:107B8000601C0A31904226D16B460022284600F044
:107B900035FA18B310E0401EA04201D1002004E0E5
:107BA00004EBC40006EB40001C30804602466B46E6
:107BB000284600F023FA30B1002038706946484664
:107BC0009EDFBDE8F88395F8C5024146401C641C61
:107BD00085F8C502E4B23079A042DCD801203870C3
:107BE0000020EEE72DE9F0470025DFF890803DE02A
:107BF0006068002100EBC506012032789146FEF74F
:107C00008DFBD4E9062300EA020701EA030C57EAD8
:107C10000C0729D082438B434846C4E9062302F06F
:107C200091F932788246914601200021FEF776FBD9
:107C3000D4E9042300EA020401EA03074A46504655
:107C40000021FEF76BFB44404F403C430CD1707861
:107C5000012801D0012000E00020726880EA0A00BB
:107C600012B1C1B2484690476D1CEDB298F80000C1
:107C700044468542BCD3BDE8F0870000185A002076
:107C80002DE9F047894690F8C612904601EB810233
:107C9000C2EB811100EB4107384603F0AFF8060054
:107CA0002FD0194CA06806282BD2184D762205EB50
:107CB000C0103946A0F80280001DFEF743FB0027E4
:107CC000B9F1000F04D0A06805EBC010077004E004
:107CD000A168022005EBC1110870A06805EBC01176
:107CE000401CCE67A060E16888420AD1002604E00B
:107CF00005EBC610C16F8847761CE0688642F7D353
:107D0000A760BDE8F0870000D85900209C5C0020E7
:107D100070B50E4690F8C612154601EB8102C2EB13
:107D20008111A0B000EB410003F068F8040009D015
:107D30007C2205496846FEF705FBADF8025068460F
:107D40000196A04720B070BD08B8020070B50E467D
:107D500004464FF43371FEF70EFB1748A4F8CA62CD
:107D60000025856084F8C952144884F8C65284F806
:107D7000C55200682060124812492288401AC00883
:107D8000042101EB004033460F4901F0D6FB2246A7
:107D9000012130469BDF0121112806D0002809D19E
:107DA00084F8C71284F8C85203E084F8C71284F834
:107DB000C812002070BD0000D8590020845C00204B
:107DC00030C5020030C50200A8BC020010B5002179
:107DD000024800F098FB80F3100010BD04680020FA
:107DE0000E4910B50A784C780023A24212D0521CDA
:107DF000D2B20A70022A00D10B70084A0B780C32FA
:107E000052F8232002608868104420F07F40886088
:107E1000012010BD0360002010BD0000385A002072
:107E20002DE9F0418046024601200021FEF776FA56
:107E30001A4F05460E467868FEF7CAFE00280CD198
:107E4000174CD4E9062110462A4001EA06031A43DA
:107E500005D0A843B143C4E90601BDE8F08140461E
:107E600002F070F830B1D4E9040128433143C4E989
:107E7000040105E0D4E90410A943B043C4E90410A7
:107E8000D4E9060128433143C4E90601A1687868B2
:107E9000BDE8F0410022FEF757BE0000BCB802006A
:107EA000185A00202DE9FC5F0E008346DDE90C47DF
:107EB000C6F1000098469246814600D40846012546
:107EC00003E000BF90FBFAF06D1C5045FADAA845BC
:107ED00000D9454624B1002E01DB780700D5641E89
:107EE000B80702D5B8F1000F0AD0F80708D13CB1A5
:107EF000A54205D220215846641EFFF7C9FBF6E7CC
:107F0000002E02DA4E462D2102E0780703D52B2100
:107F10005846FFF7BDFB07F0030002280BD1B8F16C
:107F2000000F08D13CB1A54205D230215846641E4D
:107F3000FFF7AEFBF6E7CDE9004743465246314630
:107F4000584603F0E3FBBDE8FC9F000070B50D460A
:107F5000044600684FF4887101F0D8FE4FF4907128
:107F6000206801F0D3FE4FF49271206801F0CEFE3C
:107F70004FF4A271206801F0C9FE20681149C0F8D1
:107F800004132068690740F30730090E002806DA59
:107F900000F00F0000F1E02080F8141D03E000F174
:107FA000E02080F800142068012140F3073000F041
:107FB0001F0291404009800000F1E020C0F800114C
:107FC00070BD000010030200024600201268530733
:107FD00013D502F00300012802D002280CD105E0DD
:107FE000C2F383100B68801C184404E00223086865
:107FF00003EB9252104408600120704710B50989C4
:108000002AB1D088491C814218D1002010BD90F8B7
:10801000C62202EB8204C4EB821200EB42021289F8
:108020009142F2D0491C198090F8C61201EB8102EE
:10803000C2EB811100EB4100008902E01980D08879
:10804000401E5880012010BD90F82E00C0F3C100E2
:10805000012803D0032801D0002070470120704779
:1080600070B505461848194A0C46801A0978C008A8
:10807000032202EB004001290FD0022923D12379EA
:10808000628813A101F059FA207900284FF002000C
:1080900015D0BDE87040FFF77FBA628818A101F0E3
:1080A00045FAFEF779FC08B1FEF706FD2846FFF712
:1080B0000DF9002807D0BDE87040FEF7FDBCBDE813
:1080C0007040FFF761BA70BD88C5020030C502007C
:1080D0004C696E6B20307825782C20427574746F53
:1080E0006E207374617465206368616E67656420D7
:1080F0006F6E207065657220746F2030782578006F
:108100004C454420427574746F6E205365727669D5
:10811000636520646973636F7665726564206F6E52
:1081200020636F6E6E5F68616E646C6520307825C9
:108130007800000017210180418000210171417108
:108140001B218171C17170472DE9F047394E00271D
:1081500080463D46DFF8E090D6F804A057E003D013
:108160000446D0F81C8035E099F8002002EB42016B
:10817000521CD2B289F8002009EBC10199F80230F3
:10818000091D9A4201D189F8005048680A780446CE
:10819000012A12D0022A02D0032A3BD108E003F0C0
:1081A0004FF800B10127257434E00574C06900E080
:1081B00070680028F9D170602CE0207C50BB886882
:1081C0006060C868A0600869E0604869A061F078F4
:1081D00000B165606268B168184B501A20F07F40AA
:1081E000984202D2A168084406E0881AA16820F0EB
:1081F0007F40814202D9081A206000E02560656056
:108200000120A56020742046E56102F0FBFFB8F173
:108210000000A4D199F8001099F801008142A3D17F
:1082200017B97168514502D00120BDE8F0870020E0
:10823000FBE70000385A00202C610020FFFF7F0080
:108240002DE9FF410026234800F049F92148001F8D
:10825000074600F044F9204C60680090A56800E0F3
:1082600000986946284004EB80000C30FFF7ACFE14
:108270000028F5D101AA009901EA050304EB830364
:10828000491CDB6842F82030401C00910228F2D3E0
:10829000019800F0030001280BD0022810D10198AA
:1082A000032101EB90500099BDF80A6001EB9000AA
:1082B00005E00198BDF80A60C0F3831008440090FF
:1082C000384600F009F908B10098606004B0304603
:1082D000BDE8F08100680020E863002008B54FF495
:1082E0000041002001F092F908B1FEF7E5FB00F033
:1082F000F1FFFEF7FFFB08B1FEF7DEFB0120FFF701
:1083000019F940F2666201212A48FEF757FB08B1CD
:10831000FEF7D2FB01F090FA08B1FEF7CDFB01F0B9
:1083200021FC08B1FEF7C8FB00200090694601203F
:1083300001F0D0FA08B1FEF7BFFB684601F04CFB34
:1083400008B1FEF7B9FB00211B4800F051F908B154
:10835000FEF7B2FB1948FEF773FD08B1FEF7ACFB60
:10836000154D174800244C35CDF8000005EB0410DE
:108370006946FEF7C7FF08B1FEF79EFB641C082C98
:10838000F4D3FEF73BFD02F0ABFD0E480E49401A58
:10839000C008032101EB00400CA101F0C3F802F07A
:1083A000CBFD00BF00F0A4FF0028FBD101F058FA7C
:1083B000F8E7000068430020CC5A0020DD7A020074
:1083C0006180020088C5020030C502004D756C74E2
:1083D000696C696E6B206578616D706C6520737473
:1083E00061727465642E00002DE9F047C5881E1D7A
:1083F000B6FBF5F78946B6FBF5F1044605FB176CAD
:10840000407916686843DDF820A0F718001F8742FE
:1084100000D9C61A166001E02468491E0029FBD164
:10842000A5EB0C078846B74216D818E004EB0C0001
:10843000001D09EB0803BAF1000F3A4602D00146CD
:10844000184600E01946FDF77DFF2468F61B4FF043
:10845000000CB844B54201D9374600E02F46002E43
:10846000E4D1BDE8F087000030B5024651B101F01B
:10847000EBF80021074C08E034F821301568AB42D6
:1084800002D11160002030BD491C8142F4D3052087
:1084900030BD00000000000001F01F0301229A40DF
:1084A000D243490900EB8100114600F021B84A0986
:1084B00050F8220001F01F0201219140084000D035
:1084C0000120704701F01F0301229A40490900EB87
:1084D0008100114600F01CB8002100F00FB8012106
:1084E00000F016B808B56A46FDF7C7FE009808BD4B
:1084F00008B56A46FDF7A7FE009808BD08B56A46AC
:10850000FDF7A1FE08BD08B56A46FDF783FE08BD6C
:1085100008B56A46FDF78AFE009808BD08B56A46A8
:10852000FDF7B8FE009808BD38B5044600258DF863
:1085300000506846FEF75CFB21686268086890425C
:108540000ED9401E08600178238AE26801FB0325EA
:10855000227A2168101AC0B20A79824200D20871C8
:108560009DF80000FEF768FB284638BD38B5054683
:1085700000208DF800000C466846FEF739FBE868DD
:10858000298A201AB0FBF1F12A681068431C136095
:1085900001709DF80000FEF74FFB38BD10B530B1FB
:1085A000017A42680368891AC9B21A6006E00E208F
:1085B00010BD03681A68541C1C601170491EC9B2B2
:1085C000F7D2006800210171084610BDC20800F012
:1085D00007030120895C98400840704710B5C20825
:1085E00000F00703885C01249C402043885410BDA0
:1085F00070B5040010D01720A164208060801B207B
:108600002071002504EBC500801DFFF793FD6D1C54
:10861000082DF7D3002070BD0E2070BD2DE9F0416C
:1086200085880C46082D54D20188242921D006DCE7
:10863000102909D011290CD0232923D11EE03A2971
:108640000DD055291ED10FE00146204601F0BCFF98
:1086500018E004EBC500801DFFF76CFD12E0014639
:10866000204602F02DFA0DE00146204602F082F984
:1086700008E00146204602F02BF803E001462046C0
:1086800002F0B0F804EBC504A07A002821D0E188FC
:108690002846A5DF1049114A0127891ACE0858B18A
:1086A000112816D001F012FB024607EB0640BDE888
:1086B000F0410BA100F03ABF0020A072E772042045
:1086C000E28800EB06402B46BDE8F041114900F07E
:1086D00034BFBDE8F081000038C5020030C502009B
:1086E00073645F626C655F67617474635F65786310
:1086F00068616E67655F6D74755F726571756573CE
:108700007428292072657475726E65642025732E35
:1087100000000000F0BC02002DE9F041044600F129
:108720002E0600F1240790F82C5090F8230086B014
:1087300001F10208002825D08BDF14216846FDF7DF
:108740001AFE2B463A46314640468CDF05460F4816
:108750000F49401AC108042000EB01460DA1304624
:1087600000F0E0FE06208DF8000030462A460CA1FD
:10877000019500F0DBFE002D04D0E16B002901D053
:108780006846884706B0BDE8F081000040C5020099
:1087900030C50200436F6E6E656374696E670000DA
:1087A000436F6E6E656374696F6E20737461747568
:1087B000733A2025640000004FF4C87141850621FA
:1087C00081841821C18400210185704710F82E1F73
:1087D000A02242805022828021F018010022C28013
:1087E00041F00401017001214170704718B112B1CC
:1087F00019B1072070470E207047114600F05EB88F
:1088000020B1002180F82110084670470E207047E3
:1088100010B50B46040002D0980702D009E00E20E4
:1088200010BD580705D4D80603D4180701D4072073
:1088300010BD2046FFF7E4FFD80702D0012084F8DE
:10884000210084F82220002010BD70B50D460400E0
:1088500012D02321E263FDF78EFDEDB1287984F873
:108860002300287B84F82C00296839B10E2204F1FA
:108870002E00FDF767FD04E00E2070BD2046FFF7D7
:10888000A5FFA86820B1016861624068A0620CE0A1
:108890002046FFF791FF08E02046FFF797FF2046AC
:1088A000FFF78AFF002084F8230004F140002066CF
:1088B0001F20A4F86400002070BD00002DE9F041E5
:1088C000064600F120050F460846FDF75FFD10F053
:1088D000FF0001D0202802D90C20BDE8F0812878C3
:1088E00008B10420F9E7002406EB44103946FDF7EF
:1088F00054FD0028F1D0641C14F0FF04F4D0384675
:10890000FDF744FD02462878394606EB4013401C2B
:1089100028701846FDF716FD064807493A46401AE2
:10892000C008042101EB004004A100F0FFFD00207D
:10893000D3E7000040C5020030C50200416464690D
:108940006E672066696C746572206F6E20257320D7
:108950006E616D65000000002DE9F04F87B00F4695
:1089600004464FF0000A564614216846FDF703FD01
:1089700004F12E0004902046FFF766FB010004F18D
:108980006000059010D002208DF800000197E16B87
:1089900068468847002005998ADF39462046FFF758
:1089A000BBFE07B0BDE8F08F94F8229094F8210048
:1089B0004FF00008E8B194F820B0B88B4FF0010AEE
:1089C0000025069013E000BF04EB4512B869069934
:1089D000FEF7C8F948B19DF808004FF0010840F0D3
:1089E00001008DF80800761C03E06D1CEDB25D45BA
:1089F000EAD30197B9F1000F01D0564502D038EA09
:108A0000090007D000208DF8000039462046FFF706
:108A100083FE02E003208DF80000E16B09B1684697
:108A20008847002005998ADFBBE70000F0B50D46B6
:108A3000014601F108020C1D284609882E3585B033
:108A400010293ED01B291FD01D2917D020294BD11A
:108A5000064614216846241DFDF78DFCF06B0028A6
:108A600042D005208DF800000495206801906068D0
:108A70000290207A8DF80C00F16B33E005B01146BE
:108A8000BDE8F040FFF768BF064614216846241D84
:108A9000FDF771FC2078012826D1144814490427D9
:108AA000401AC00807EB004012A100F03BFDF06B3C
:108AB000002819D08DF80070049520788DF80400F6
:108AC000DAE7064614216846FDF755FC07208DF8C5
:108AD0000000201D01902088ADF808000495F16B7E
:108AE000002901D06846884705B0F0BD40C50200A6
:108AF00030C50200424C455F4741505F5343414EF1
:108B00005F54494D454F55540000000030B585B0C5
:108B1000040025D014216846FDF72DFC8BDF20468C
:108B2000FFF792FA012528B1E16B19B18DF80050D9
:108B30006846884704F1600104F12E008ADF04468C
:108B40000C480D49401AC108082C0BD054B105EB54
:108B50000140224609A100F0E9FC204605B030BDE5
:108B60000E20FBE7042000EB01400DA100F0DAFC31
:108B70000020F3E740C5020030C5020073645F6265
:108B80006C655F6761705F7363616E5F7374617260
:108B9000742072657475726E656420307825780073
:108BA0005363616E6E696E670000000000F18040E3
:108BB0000068002800D00120704708B500F180400F
:108BC000002101600068009008BD000070B50B4CEA
:108BD000207808B185250FE00020A060606020614A
:108BE000E060074801F0AEF8054601F007F808B963
:108BF00001F092F801202070284670BD3C600020F2
:108C0000D578020038B500258DF800506846FDF78C
:108C1000EFFF074CE068401EE060E06810B901F02B
:108C2000A1F8A5709DF80000FEF706F838BD000019
:108C30003C600020F0B505460478154889B016461A
:108C400040F82420124A08690832A2F10C0742F8C1
:108C50002400487F385520226846FDF773FB0494B2
:108C60002878385C48B10EB10A4A00E00022694613
:108C7000281D01F013FB09B0F0BD0EB1064A00E05B
:108C80000022694605F10C0001F0DCF9F3E7000071
:108C9000F4590020E9B5020035B402000FB408B55C
:108CA0000399002904D004AA00926A4600F00FF844
:108CB00001B05DF814FB10B582680446002A05D0A7
:108CC000D4E90403216898470020A06010BD2DE975
:108CD000FC4791460C00804676D014F8011B39B150
:108CE00025290ED04046FEF7D3FC20780028F4D189
:108CF00098F80C00002867D04046BDE8FC47FFF715
:108D0000DABF0020012221782B291BD02D2902D087
:108D1000302908D102E040F0010001E040F00200FB
:108D2000641C002AEFD100252A290ED02178A1F158
:108D300030020A2A11D205EB850201EB4205641CC0
:108D4000303DF1E740F00400EAE7D9F800100B1DD0
:108D5000C9F800300968641C0D44217800232E29CD
:108D60000BD114F8011FA1F130020A2A05D203EB3E
:108D7000830201EB4203303BF3E76C290DD06829F5
:108D80000BD0692921D00BDC252918D0582931D0E6
:108D900063290ED0642915D117E014F8011FECE700
:108DA000702969D0732932D075291BD0782909D14F
:108DB00020E0D9F80000011DC9F8001001784046F4
:108DC000FEF766FC641C90E76CE0D9F800100A1D01
:108DD000C9F800200968CDE900500A224046FFF793
:108DE00061F8EFE7D9F800100A1DC9F800200968FA
:108DF0000A2206E0D9F800100A1DC9F80020096807
:108E00001022CDE90050404602F080FCDAE7D9F8A4
:108E1000001000270A1DC9F800200E68C00705D100
:108E200012E04046761C7F1CFEF732FC31780029A8
:108E3000F7D104E0202140466D1EFEF729FCBD421B
:108E4000C0D9002DF6D1BDE74EB13046FDF79EFAF0
:108E5000074604E0202140466D1EFEF719FCBD4286
:108E600006D9002DF6D103E04046761CFEF710FC33
:108E700031780029F8D1A5E7D9F80000011DC9F81B
:108E80000010056830214046FEF702FC782140467C
:108E9000FEF7FEFB08200021CDE900010346102269
:108EA0002946B0E7BDE8FC872DE9FF411C46DDE916
:108EB0000A7815460E46684600F0AAF846EA4501CB
:108EC00041EA840141EA072242EA0841009A00EBA4
:108ED0008200C0F80017BDE8FF812DE9FF411C4664
:108EE000DDE90A7815460E46684600F09FF846EA26
:108EF000450141EA840141EA072242EA0841009A19
:108F000000EB8200C0F80017BDE8FF812DE9FF41AA
:108F10001C46DDE90A7815460E46684600F094F8CE
:108F200046EA450141EA840141EA072242EA084152
:108F3000009A00EB8200C0F80017BDE8FF812DE920
:108F4000FF411C46DDE90A7815460E46684600F0EA
:108F500089F846EA450141EA840141EA072242EAEA
:108F60000841009A00EB8200C0F80017BDE8FF81BD
:108F70001CB5002100910B4601220191FFF7C6FFAD
:108F80001CBD1CB5002100910B4601220191FFF789
:108F9000D6FF1CBD1CB500220B4600921146019263
:108FA000FFF7B4FF1CBD1CB500220B460092114612
:108FB0000192FFF7C4FF1CBD1CB5002100910B46B8
:108FC000012201911146FFF7A1FF1CBD1CB5002134
:108FD00000910B46012201911146FFF7B0FF1CBD25
:108FE00013B50C46684600F021F8009900EB8101AA
:108FF000D1F8002722F44032C1F80027009900EB95
:109000008100D0F8001741EA0441C0F800171CBDE8
:109010000168202902D24FF0A040704701F01F01E3
:1090200001600148704700000003005001682029DA
:1090300002D24FF0A040704701F01F0101600148CB
:1090400070470000000300500168202902D24FF051
:10905000A040704701F01F01016001487047000007
:10906000000300500168202902D24FF0A040704751
:1090700001F01F010160014870470000000300502B
:1090800001B56846FFF7D2FFD0F810050099C84037
:1090900000F0010008BD01B56846FFF7D5FF009A52
:1090A00001219140C0F8081508BD01B56846FFF7D9
:1090B000D9FF009A01219140C0F8081508BD38B5C4
:1090C00001240090684631B1FFF7A2FF00998C405F
:1090D000C0F8084538BDFFF79BFF00998C40C0F8E9
:1090E0000C4538BD1CB5094C0144D4E90034CDE928
:1090F00000346C4606E000BF54F82030D3F8103539
:10910000401C08C28142F7D81CBD0000ACB8020068
:10911000034908B50844002101600068009008BDBB
:109120000060004002494058012800D000207047EC
:109130000060004030B5154A01460020D2F81044C6
:1091400023460AE0DB681D79854205D1401C0A28C8
:10915000F6DB4FF0FF3030BD1B68002BF2D1431C13
:10916000F9D0CB681871D2F8103443B1DB68CC6801
:109170001B682360D2F81024D268116030BDC2F899
:109180001014C96800220A6030BD0000E8630020A6
:10919000F0B595B01C4615460F4608461A9E00F0DD
:1091A00025FB182109A8FDF7E6F80E96CDE909542C
:1091B0000023082203A9384600F02DFB05980690ED
:1091C000BDF81000ADF81C00BDF81200ADF81E008F
:1091D00000208DF821000398082600F003000128E4
:1091E00002D0022818D032E003983346850AC0F333
:1091F000C2008DF8200003980FA9C0F38314A200C9
:10920000384600F008FB09A8009006AB22460FA9DB
:10921000284600F047FA1AE00398840DC0F3C20014
:109220008DF82000082C01D2254600E008253346A1
:109230002A460FA9384600F0EEFA2E44641B09AB0B
:1092400006AA29460FA800F089F9002CEAD1384671
:1092500000F0D2FA15B0F0BD7047012002F008B955
:10926000084810B50178084A515C19B1001D01F099
:10927000A1F802E00C3000F0AFFFBDE81040002084
:1092800002F0F6B8585A0020F059002008B5034AF9
:1092900000924023024AFFF77BFF08BD49B002005D
:1092A000506200200A4A012902EBC00007D00229BF
:1092B00007D0032907D0042907D0002070470220D7
:1092C000704704207047007970474079704700006C
:1092D00030C5020010B5FFF7C0FF04210348FFF7B7
:1092E00029FF02490120C968487110BD20C502004C
:1092F0002DE9F04F8DB0FEF7E3F918B100200DB065
:10930000BDE8F08F7E4C4FF0000BC4F818B4BFF3EB
:109310004F8F60680290A568D846284004EB800013
:109320000CE000BFD4F8180470B92168029881429B
:1093300001D86160E2E7284004EB80000C3002A90C
:10934000FEF742FE0028EDD1002005AA029901EAAD
:10935000050304EB8303491CDB6842F82030401C02
:1093600002910228F2D3059800F00300022802D0EF
:1093700001284DD0AAE005985022810D8946B2EB14
:10938000905F00D850210E4666F39F50059008313B
:109390005C4800F0E2F9070078D000F027FA434675
:1093A000082205A9384600F03EFA029908F1080A99
:1093B0002940681A8000001D864222D9504D0C3584
:1093C00030B1C2B204EB8101301A90460C3104E096
:1093D0002946F2B2002590462846C6B25346384682
:1093E00000F021FA0AEB080325B132462946384637
:1093F00000F019FA029909F1030001EB90000290C4
:109400003BE004EB81015346324638460C31EFE72E
:109410000598C0F38310062800D30620059960F351
:109420008911C1F38310801C05918100354800F03B
:1094300094F907004AD000F0D9F94346082205A95B
:10944000384600F0F0F908F1080800260FE002980D
:10945000434600EA0501401C04EB8101029004220E
:1094600038460C3100F0DFF908F10408761C059845
:10947000C0F38310B042EAD847B1D4F81054D4F8FE
:10948000180478B1384600F0B7F934E01EE0E86817
:109490004079012804D12A68284639461268904745
:1094A000E8680568002DF2D1384600F0A5F98DF87E
:1094B00000B06846FDF79CFBD4F8180408B9029880
:1094C00060609DF80000FDF7B7FB14E0D4F810448D
:1094D00005E02168204689688847E0680468002C18
:1094E000F7D109480949401AC008022101EB0040A0
:1094F00007A100F017F8FEF7E3F880F00100FEE6A0
:10950000E8630020A8C5020088C5020030C502003B
:109510004261636B656E647320666C757368656425
:109520000000000000231A4601F0E6BD08B5012343
:1095300000926A4601F0E0FD08BD1CB5CDE90023AC
:1095400002236A4601F0D8FD1CBD3EB5069C8DE89D
:109550001C0003236A4601F0CFFD3EBD2DE9F04714
:109560000E4680461C469246082940D894F80C9036
:10957000002020731946104601F0E8FB0025B54293
:1095800006D218F805201BA12046FFF787FB03E051
:109590001AA12046FFF782FB6D1C082DEFD318A1FE
:1095A0002046FFF77BFB0025B54212D218F8057064
:1095B0007E2F08D8FCF7C2FE0068C05D10F03E0F99
:1095C00001D03A4600E02E220EA12046FFF766FBAE
:1095D00003E00DA12046FFF761FB6D1C082DE3D3CE
:1095E00001222146504601F093FB84F80C90BDE81F
:1095F000F087000020253032780000002020200075
:109600007C00000025630000200000000B4810B51E
:10961000FF218160002101604160C0F81814C0F88A
:10962000141480F82014064800F0E4F8002803D150
:10963000044800F037F9002010BD0000E863002066
:10964000A8C5020074BA020002480349401AC008C3
:1096500070470000A8C5020030C5020013B5684677
:10966000FEF702FF08B100201CBD0248009950F827
:1096700031001CBD30C5020070B509480125D0F885
:10968000104480F8205407E0E068457121682046C6
:1096900049688847E0680468002CF5D170BD000077
:1096A000E86300202DE9FF4781460C9D00200C4611
:1096B0002F7B2873984616462946184601F046FB2C
:1096C000072E42D2DFE806F004090F161F2A3600E3
:1096D00049462846FFF7E2FA37E04946284622681D
:1096E000FFF7DCFA31E0D4E9002349462846FFF7CA
:1096F000D5FA2AE0A0680090D4E90023494628461C
:10970000FFF7CCFA21E0D4E90201CDE90001D4E968
:10971000002349462846FFF7C1FA16E004F1080085
:1097200007C88DE80700D4E9002349462846FFF71B
:10973000B5FA0AE004F108000FC88DE80F00D4E97B
:10974000002349462846FFF7A9FA00222946404649
:1097500001F0DEFA2F73BDE8FF872DE9F041058A9D
:1097600080462D1F4819C01CB0FBF5F0C6B240461C
:10977000FEF7DAFE041E19D000202071012060716E
:10978000E58000272546761EC4F800800BE04046A1
:10979000FEF7CAFE60B16179491C61712860054617
:1097A0007F1CC0F80080B742F1D32046BDE8F081AD
:1097B000204600F002F80020F8E72DE9F041457955
:1097C00001466B1E002201E00968521C9A42FBD33D
:1097D0000F680146002605E038460C68FEF7C6FE15
:1097E0002146761CAE42F7D3BDE8F0810121001D71
:1097F000FEF778BEFEF7D2BE10B504460121001D6B
:10980000FEF78CFE10F0FF0F04D12046BDE810409B
:10981000FFF7D3BF10BD1CB501920122009201AA2F
:10982000FEF7E2FD1CBD1CB501920022009201AAC8
:10983000FEF7DAFD1CBD0000064910B50020487097
:10984000091D0860BFF35F8F0349044800F0FAF96F
:10985000002010BD4C5A002000B9020044620020D4
:1098600008B500208DF800006846FDF7C1F9F1EE5B
:10987000100A20F09F00E1EE100ABFF35F8F084945
:109880004020C1F880029DF80000FDF7D5F900F0F6
:10989000B5F908B141DF08BD20BF40BF20BF08BDFA
:1098A00004E000E0826800219160826811618268B2
:1098B00051618268D1608268516080680160704740
:1098C00020B1034909680160002070470E207047ED
:1098D000F8BA02002DE9FE4302460E460846FFF79D
:1098E000EFFF002868D100250095019506208DF82E
:1098F00000204FF00808ADF8040002958DF80280B2
:1099000069462020326869DF2C492D4A891AC90826
:10991000012707EB014430B100F0D8F90246204698
:109920002849FFF703FE00958DF801508DF802805D
:10993000019502958DF8037069464020326869DF11
:1099400030B100F0C3F9024620461F49FFF7EEFD93
:109950000095019502958DF80070694601203268E6
:1099600069DF30B100F0B2F9024620461749FFF72F
:10997000DDFD4FF4B0600090019502956946A1208D
:10998000326869DF30B100F0A1F902462046104983
:10999000FFF7CCFD0095019502958DF800506946C2
:1099A000A020326869DF30B100F090F9024620460D
:1099B0000849FFF7BBFD0020BDE8FE8398C5020003
:1099C00030C50200C8C3020010C4020028C3020050
:1099D00074C30200D4C202002DE9F04105460768B5
:1099E00060DF804619491A482A68081AC608BA4230
:1099F00019D9022000EB064416A12046FFF792FD7C
:109A000020463A461FA12B68FFF797FD4FF0805084
:109A1000D0F80C012968800200F10050421A20465B
:109A200025A1FFF783FDB8F100004FF001040AD033
:109A300000F04CF9024604EB06402AA1FFF776FD40
:109A40004046BDE8F0812F480470F9E798C5020050
:109A500030C50200496E73756666696369656E7428
:109A60002052414D20616C6C6F63617465642066A7
:109A70006F722074686520536F66744465766963FD
:109A8000652E00004368616E67652074686520522A
:109A9000414D207374617274206C6F636174696FDF
:109AA0006E2066726F6D203078257820746F2030BC
:109AB0007825782E000000004D6178696D756D2065
:109AC00052414D2073697A6520666F722061707013
:109AD0006C69636174696F6E2069732030782578D2
:109AE0002E00000073645F626C655F656E61626C7E
:109AF0006528292072657475726E65642025732E41
:109B000000000000C75A002030B5144891B000781A
:109B1000002820D05FF03405ADF8405010A903A80C
:109B200061DF30B1052816D011B0BDE83040FCF738
:109B3000C3BF03AC0A49684600F084F807E000BFE1
:109B4000D0E9002120469047684600F092F802983C
:109B50000028E1D0F4E711B030BD0000C75A002062
:109B6000FCBA02007CB5194C207808B108207CBDF5
:109B70000120A070002001F039FA112819D000202E
:109B800001F04CFA12480026006801908DF8006040
:109B90006846FDF72DF80F4901A810DF05000AD02F
:109BA000002020709DF80000FDF746F82DB12846F2
:109BB0007CBD00207CBD0120F3E7A670667001F03B
:109BC0006FFA012001F02AFAF3E70000C45A0020DE
:109BD00090BA0200356A02000EB50749684600F0E7
:109BE00031F805E0D0E900108847684600F041F8F8
:109BF00002980028F6D10EBDACBA020001480078E8
:109C000070470000C45A00201FB568464BDF30B1D2
:109C1000052814D004B0BDE81040FCF74DBF08493A
:109C200001A800F00FF806E0D0E900210098904765
:109C300001A800F01EF803980028E6D0F4E71FBD45
:109C400018BB0200016009684160AFF3008010B5E5
:109C5000D0E900215368994201D1002104E0D1E903
:109C60000034A34202D01946816010BD0831416022
:109C7000F0E7816800290BD0026892680A4482608C
:109C800041684B689A4203D108314160FFF7DFBF5A
:109C9000704700000C4A10B502F594730EE0991A53
:109CA000C91001EBD171491002EBC1010C6884426B
:109CB00001D90B4602E005D201F108029A42EED327
:109CC000002010BD486810BD20B9020000B5FFF7A4
:109CD000E1FF002800D1014800BD00000CB90200DE
:109CE0004058002800D00120704708B5002242509B
:109CF0004058009008BDD0F80403084000D001206F
:109D000070474058002800D00120704708B5002255
:109D100042504058009008BD08480068012110F0EA
:109D2000010F06D14FF0E020C02280F80024C0F8D7
:109D300000110349012008607047000000E100E0C5
:109D4000180500400649024600200B790BB185201A
:109D500070470A6001220A7100224A7170470000B0
:109D6000045A002004490120086004480168C1F336
:109D700000410029FAD170470C000040180400404F
:109D8000002802D00149800108477047D1B802007D
:109D900010B5044600F0A4FF28B12046BDE81040ED
:109DA0000021FFF71DB9204600F0A6FF00280FD0C4
:109DB0002046FDF751FD074A02EB8001D1F810352E
:109DC00023F00103C1F8103501218140C2F80813C6
:109DD00010BD0000006000402DE9F0410E468046B5
:109DE00000F07EFF204D0028404616D0FDF734FDE0
:109DF000284490F858008009032802D001280AD08E
:109E000003E04046FFF73CF928B103214046BDE896
:109E1000F041FFF7E5B80221F8E700F06DFF0028F8
:109E200020D04046FDF718FD0446104F4FF48070D7
:109E300007EB840100EB8400D1F8102580B242F0DA
:109E40000102C1F81025FFF763F9002E0AD0404641
:109E5000FDF702FD55F82000002803D00120A040A6
:109E6000C7F80403BDE8F0815060002000600040A6
:109E70002DE9FC41DFF8C080044608EB0400002710
:109E800090F930001346C0170E46401C01D0082739
:109E90004FE0B0781946C0F340022046FDF7B8FC09
:109EA0000546401C44D0B07841071CD4C0070DD0F3
:109EB00068460094FFF7BAF8009900EB8100D0F8EB
:109EC000001721F00201C0F8001707E000217378A5
:109ED000204600910A460191FEF7FFFF16492046F1
:109EE0006431FEF77BFBB078800718D513483178D2
:109EF00000EB8500D0F81025114B1A40C0F8102552
:109F00004FF47C524FF4403302EA042203EA014149
:109F10000A43D0F810150A43C0F8102509E008EBF1
:109F20000500327810F8581F41EA8211017000E0F4
:109F300004273846BDE8FC815060002000600040E6
:109F4000FFC0FCFF10B5FFF79BF8002800D00120F0
:109F500010BD000070B5184D95F86A0008B10820D2
:109F600070BD0020411E2A18401CC0B282F830107B
:109F70003028F8D300242046FDF73CFC641CE4B2F2
:109F80000C2CF8D30C490024C0204C66A1F8684082
:109F90000A4981F8000401264020891FC1F8000108
:109FA0004FF4BE70FFF7B4F80549F007C1F8040399
:109FB00085F86A60204670BD5060002006E000E031
:109FC00000600040034890F86A00002800D001209B
:109FD00070470000506000200121B1EB507F01D19B
:109FE000012070470020704738B50D4600F0FAFE9A
:109FF000040014D000208DF800006846FCF7F8FD3E
:10A00000207928B19DF80000FCF716FE112038BD1C
:10A010000120256020719DF80000FCF70DFE002056
:10A0200038BD10B500F0DEFE002802D0002101602E
:10A03000017110BD0149024801F042BABC60002024
:10A04000002000402DE9F0410546007916460F46F4
:10A0500000EB40012C4A01EBC00102EB810494F8B3
:10A060002A1011B10820BDE8F081284951F82010CC
:10A070002868FFF7B9FF08B11120F4E739462846F0
:10A08000FCF7F4FD66603869206030004FF001068F
:10A090002DD03F7F4FF48E712868FFF726FE4FF4D6
:10A0A000A2712868FFF721FE28681949C0F8041337
:10A0B00028684FEA471140F30730002806DA00F01D
:10A0C0000F0000F1E02080F8141D03E000F1E02013
:10A0D00080F80014286840F3073000F01F0106FAEA
:10A0E00001F14009800000F1E020C0F8001128686B
:10A0F0000421C0F800150020A061E06184F8290067
:10A1000044F8140FA675AEE7BC600020B4B8020096
:10A11000800002002DE9F047054600790B4600EB70
:10A12000400101EBC000234901EB8004284600F008
:10A1300043F810B11120BDE8F0874FF00008C4F8D3
:10A140002080A360626184F828804FF48E764746B1
:10A1500031462868FFF7C9FD28684FF00109C0F8AB
:10A1600008902146286801F047F9606800BBD5F8DF
:10A1700000A00EE094F8280008B10F2716E0314641
:10A180005046FFF7ADFD0028F4D02146504601F0BF
:10A1900033F9216A60698142F1D331462868FFF7BB
:10A1A0009FFD0028F9D02868C0F80C90C4F81480EE
:10A1B0003846C0E7BC600020007900EB400101EBAD
:10A1C000C000044901EB80004069002800D0012054
:10A1D00070470000BC6000202DE9F047044600797C
:10A1E0004FF0000900EB400101EBC000254901EBF5
:10A1F00080072068C0F80095786880B120682249FF
:10A20000C0F808132068012140F3073000F01F0256
:10A2100091404009800000F1E020C0F880112068E2
:10A22000D0F80C25D0F81485D0F80865D0F8105572
:10A230004FF0FF31C0F81415C0F80C152068C0F8B5
:10A240000815C0F81015501C02D01046FEF790FEFD
:10A25000B8F1FF3F02D04046FEF78AFE681C02D0EC
:10A260002846FEF785FE701C02D03046FEF780FEC1
:10A270002068FFF7D6FE87F82A90C7F80490BDE85B
:10A28000F0870000BC6000208402020001490248FF
:10A2900001F0C2B9E8600020002000402DE9F04143
:10A2A0000546164600790F46154A00EBC00102EB41
:10A2B000810494F8201011B10820BDE8F081114903
:10A2C00051F820102868FFF78FFE08B11120F4E73D
:10A2D00039462846FCF705FD6660386920601EB1E6
:10A2E000397F2846FDF732FE28680821C0F800159E
:10A2F0000020A061E0616061012184F82010DCE7AA
:10A30000E8600020B8B802002DE9F04704460E4688
:10A310000079204900EBC00001EB8005174630466C
:10A32000FFF75AFE30B1204600F036F820B1112078
:10A33000BDE8F0871020FBE76F61AE604FF49076C8
:10A34000002731462068FFF7E1FC4FF4AC78414626
:10A350002068FFF7DBFC2068AA686969C0F844251B
:10A36000C0F84815206801218160686878B9B14655
:10A3700049462068FFF7C5FC064641462068FFF7BE
:10A38000C0FC0643F4D000B10F27002068613846B6
:10A39000CEE70000E86000200079054900EBC0002E
:10A3A00001EB80004069002800D0012070470000C8
:10A3B000E86000202DE9F04704460079274900EBCA
:10A3C000C00001EB800720684FF00009C0F800953D
:10A3D000786880B120682249C0F8081320680121FC
:10A3E00040F3073000F01F0291404009800000F167
:10A3F000E020C0F880112068D0F80C25D0F8148532
:10A40000D0F80865D0F810554FF0FF31C0F80C15A2
:10A41000C0F814152068C0F80815C0F81015501CB5
:10A4200002D01046FEF7ADFDB8F1FF3F02D0404626
:10A43000FEF7A7FD681C02D02846FEF7A2FD701C9F
:10A4400002D03046FEF79DFD2068FFF7EAFD87F851
:10A450002090C7F80490BDE8F0870000E860002075
:10A46000100302002DE9F84F05460C460888B5F8A0
:10A47000CA1288427ED195F8C602628800EB80013C
:10A48000C1EB801005EB400649484A494FF0030BE9
:10A49000401A4FEAD008EABB3079E288A71D82460D
:10A4A000D1B250FA82F2062A02D8084430710DE087
:10A4B00006203071022101EB0840328881463E4976
:10A4C000FFF734F848463D49FFF72CF80023504683
:10A4D00099461BE000EBC00106EB410203EB830150
:10A4E00007EB4101401CD1F802C0C2F80AC0D1F804
:10A4F00006C0C2F80EC049895182A2F81490A2F891
:10A500001690A2F81890A2F81A905B1C317981423B
:10A51000E0D800E01CE095F8C61200EBC00001EBAB
:10A520008102C2EB811105EB410136F81000098967
:10A5300088420DD2307906280AD085F8C5022188D4
:10A540002846FDF791F9010019D085F8C7920BE074
:10A55000002785F8C572228869462846FDF7FCFA6F
:10A5600001000ED085F8C77222882846FDF7D0FB7F
:10A57000134800E003E080F800B021884180BDE886
:10A58000F88F9DF800000028F9D0042101EB084065
:10A59000238832880B49FEF7D0FF22880121284604
:10A5A000FDF76EFB2188284600F046FBE7E7000038
:10A5B00030C5020030C50200ACBB0200F4BB020093
:10A5C0009C5C002050BC02002DE9F0418D8802798E
:10A5D00000EBC5042273C97BA41D012902D0022906
:10A5E00004D101E0008800E0408820802288608853
:10A5F00082421BD9164817492B46401A4FEAD00809
:10A60000042101EB0840064613A1FEF796FF2188BE
:10A610002846A5DF012790B1112812D0FFF756FB7D
:10A62000024607EB08401CA1FEF780FFA179E07904
:10A6300081420BD92846BDE8F041FDF7CFB96771DB
:10A64000F4E7277130462A462049EDE7BDE8F0815E
:10A6500038C5020030C502005265717565737469B2
:10A660006E6720746F207570646174652041545466
:10A67000204D545520746F202575206279746573C0
:10A68000206F6E20636F6E6E656374696F6E20302D
:10A690007825782E0000000073645F626C655F6748
:10A6A000617474635F65786368616E67655F6D741C
:10A6B000755F72657175657374282920726574758C
:10A6C000726E65642025732E00000000DCBD020060
:10A6D000F0B58DB006462C226846091DFBF732FE08
:10A6E000BDF804001F49C2B21D48BDF80050401A11
:10A6F000C108042006EBC50700EB01447A732B4622
:10A7000019A12046FEF719FFBDF80620204622A118
:10A71000FEF70CFFBDF80420204624A1FEF706FF3B
:10A72000BDF80A20204626A1FEF700FFBDF808204C
:10A73000204627A1FEF7FAFEB06C00280DD028496C
:10A74000D1E90401CDE90B01ADF82E50787B8DF8ED
:10A750003000B26C0BA9304690470DB0F0BD000040
:10A7600038C5020030C5020044617461206C656E1A
:10A77000677468207570646174656420746F202547
:10A7800075206F6E20636F6E6E656374696F6E20E7
:10A7900030782530782E00006D61785F72785F6FB9
:10A7A00063746574733A2025750000006D61785FED
:10A7B00074785F6F63746574733A202575000000C8
:10A7C0006D61785F72785F74696D653A20257500F8
:10A7D0006D61785F74785F74696D653A20257500E6
:10A7E00084B8020070B58A880C1D00EBC2060D7A91
:10A7F00009480A492B46401AC008042101EB0040D1
:10A8000007A1FEF79AFE317BA94200D32946208892
:10A81000BDE87040FDF7E2B838C5020030C502005F
:10A8200050656572206F6E20636F6E6E656374692C
:10A830006F6E203078257820726571756573746548
:10A840006420612064617461206C656E67746820A7
:10A850006F662025752062797465732E00000000F4
:10A86000F8B505460C460888B5F8CA1288425DD18D
:10A8700095F8C602A21D00EB8001C1EB801005EB2C
:10A88000400695F8C502618800EBC00006EB400069
:10A890000A3039B329E000BF01EB410302EB430367
:10A8A0009F88B7F5245F0CD06FF4245C17EB0C077E
:10A8B0000AD0012F02D0072F0BD108E05B8843811B
:10A8C00007E05B88838104E05B88C38101E05B88EB
:10A8D000038243892BB183891BB1C3890BB1038ADE
:10A8E0001BB9491C13888B42D6D800278DF80070FD
:10A8F00095F8C5023179401C884203D101208DF8BA
:10A90000000018E085F8C502228869462846FDF750
:10A9100023F901000BD085F8C77222882846FDF77D
:10A92000F7F910480321017021884180F8BD9DF896
:10A9300000000028FAD00C480C492388401AC008AF
:10A94000042101EB004032880949FEF7F6FD228818
:10A9500001212846FDF794F92188284600F06CF97A
:10A96000F8BD00009C5C002030C5020030C502002C
:10A9700050BC02002DE9FC478E880746CD8800EBCD
:10A98000C604214821492B46401A4FEAD009042128
:10A9900001EB0940804632461DA1A41DFEF7CDFD06
:10A9A000172D00D217252088A84200D805466580BB
:10A9B00000202071009623886288404623A1FEF77C
:10A9C000C4FD21883046B5DF40B1FFF77FF902466C
:10A9D000012101EB09402DA1FEF7A8FD60790028B7
:10A9E00010D1B86C00280DD03449D1E90201CDE96D
:10A9F0000001ADF802606088ADF80400BA6C6946E9
:10AA000038469047BDE8FC8738C5020030C50200D3
:10AA100050656572206F6E20636F6E6E656374693A
:10AA20006F6E203078257820726571756573746556
:10AA30006420616E20415454204D5455206F66208F
:10AA400025752062797465732E000000557064616D
:10AA500074696E6720415454204D545520746F2002
:10AA60002575206279746573202864657369726541
:10AA7000643A20257529206F6E20636F6E6E6563C2
:10AA800074696F6E20307825782E000073645F62E1
:10AA90006C655F67617474735F65786368616E6726
:10AAA000655F6D74755F7265706C792829207265B9
:10AAB0007475726E65642025732E000084B80200E0
:10AAC0007CB58D88064600EBC5044A8934F8060F2C
:10AAD000904200D802466280172A00D217221148FD
:10AAE00011496280401AC008042101EB00402B4646
:10AAF0000EA1FEF722FDB06C78B1607968B11A49F9
:10AB0000D1E90001CDE90001ADF802506088ADF84F
:10AB10000400B26C69463046904700206071207195
:10AB20007CBD000038C5020030C5020041545420ED
:10AB30004D5455207570646174656420746F2025D0
:10AB400075206279746573206F6E20636F6E6E6519
:10AB50006374696F6E203078257820287265737071
:10AB60006F6E7365292E000084B8020070B505462B
:10AB700090F8C6020C4600EB8001C1EB801005EB9B
:10AB800040062088B5F8CA1288422FD11848194AC1
:10AB90006188801AC008042202EB0040328869B143
:10ABA00015A1FEF7C3FC228800212846FDF768F8AE
:10ABB00021882846BDE8704000F03EB816A1FEF797
:10ABC000B5FCE068C6F8060021882846FCF74CFE74
:10ABD00001000BD0002085F8C70222882846FDF727
:10ABE00097F81448032101702188418070BD00004E
:10ABF00030C5020030C50200536572766963652076
:10AC0000555549442030782578206E6F7420666F42
:10AC1000756E642E00000000466F756E64207365CB
:10AC20007276696365205555494420307825782E21
:10AC3000000000009C5C00202DE9F047044690F8DD
:10AC4000C9020D46401C2149C0B284F8C902C96836
:10AC5000DFF87C9000264FF00308884232D284F857
:10AC6000C56294F8C6022B46401CC0B200EB8001BE
:10AC7000C1EB801104EB410784F8C602A9F1180169
:10AC800001EB800014490068386012483E71401A98
:10AC9000C008042101EB00403A881049FEF74DFC42
:10ACA0003A46012128469BDF010009D084F8C7629B
:10ACB0002A462046FDF72CF889F80080A9F80250B2
:10ACC000BDE8F08784F8C762F6E70000D859002095
:10ACD0009C5C002030C5020030C50200A8BC020008
:10ACE0000449084490F93000082801DB012070472E
:10ACF00000207047506000200449084490F930005B
:10AD0000082801D2012070470020704750600020C1
:10AD100010B50C46017A052908D0407A38B10848A8
:10AD200008A102682046FDF7B9FF00E01AB106A1AC
:10AD30002046FDF7B3FF2046BDE81040FDF7BBBF3E
:10AD4000A05A0020257300000D0A000038B5C38802
:10AD50000D46044633B114A0009015A216A1284652
:10AD6000FDF79CFF217A05291CD0607A48B1A088A4
:10AD7000FEF798FA164951F8202016A12846FDF74B
:10AD80008DFFA0880021FEF769FC03461049207A58
:10AD9000143951F8202001B02846BDE830400EA1FA
:10ADA000FDF77CBF38BD00001B5B306D000000006C
:10ADB0001B5B313B33316D0025734C6F677320642F
:10ADC000726F70706564202825642925730D0A0050
:10ADD000A05A0020257300003C25733E2025733ABD
:10ADE000200000000349884201D103487047002039
:10ADF00070470000002000400C5A002070B50C4B3A
:10AE000000210A4ADC680DE002EB81058678AD7806
:10AE1000B54206D132F821500688B54201D15868B2
:10AE200070BD491CA142EFD3002070BD845C00209E
:10AE3000D859002070B5012670044FF0E02100259C
:10AE4000C1F88001084C4010C4F84803C4F8080356
:10AE500066602F20FEF794FFA660044C2F20A560AB
:10AE6000FEF78EFFA57070BD00100140385A00201B
:10AE700070B5054688690C4600284FF48471284651
:10AE80000AD0FEF732FFD5F81805626AE1688854E7
:10AE9000606A401C606270BDFEF727FFD5F8180598
:10AEA00070BD1FB501238DF80030CDE90121D0E937
:10AEB0000012684690471FBD1FB501238DF8003072
:10AEC000CDE90121D0E90012684690471FBD017805
:10AED000062904D14068002801D0FBF7EDBD70477A
:10AEE0001FB50020009001900290039001208DF882
:10AEF00004008DF80C000D4A69460D48FDF7A5FCCD
:10AF000008B1FBF7D9FD0B4A00210948FDF76EFC9B
:10AF100008B1FBF7D1FD002201210548FDF778FCBF
:10AF2000002801D0FBF7C8FD1FBD0000CFAE020016
:10AF3000985B0020F0B702000B480C4910B5401A8E
:10AF4000C008032101EB0040094A0AA1FEF7EEFA0E
:10AF50001148FDF7DBFD08B1FBF7AEFDBDE8104081
:10AF60000020FCF719BB000088C5020030C50200B4
:10AF7000F0B702005374617274207363616E6E697E
:10AF80006E6720666F7220646576696365206E6106
:10AF90006D652025732E0000985B002038B50021D8
:10AFA000012548B101280CD0032809D1FEF7B4FED1
:10AFB000BDE83840FDF726BE4FF0E020C0F88051D4
:10AFC00038BD8DF800106846FBF712FE064C20785D
:10AFD00008B9FDF7FBFDE068401CE060A5709DF836
:10AFE0000000FBF729FE38BD3C6000203EB504465A
:10AFF00009496846FEF726FE08E000BFD0E90021B7
:10B000002046904730B16846FEF733FE029800288C
:10B01000F4D13EBD11203EBD94BA02003EB50446B7
:10B0200008496846FEF70EFE07E000BFD0E90021A0
:10B03000204690476846FEF71CFE02980028F5D18E
:10B040003EBD0000A0BA020070B50D4C0020D2B287
:10B050002070201D0B4D0378EB5C1BB1001DFFF72A
:10B0600053F902E00C30FFF755F808B1FBF724FD67
:10B070006078002802D021780029FAD070BD000045
:10B08000545A0020F0590020002805D1034901201E
:10B0900048700020FCF70ABC704700003C600020AC
:10B0A00010B51620FBF724FCA0B1114890F800045D
:10B0B0004009082811D20121814011F0EC0F0CD079
:10B0C0000C4882684FF480016AB1016841F4800144
:10B0D000016010BD42F2010001E042F20200BDE851
:10B0E0001040FBF7E9BC4FF0E020C0F8001110BDA4
:10B0F00016E000E0386200202DE9F84F204D92461E
:10B10000894606469846012269461846AF68FCF70C
:10B1100077FA58B3009800210446801C09E000BF6C
:10B1200000EA07035AF8212005EB8303401C491C61
:10B13000DA604145F4D34FEA164AFCF747FE4AEA83
:10B140000041601C384005EB80003C4005EB840268
:10B15000C160D06866F3C50068F3891069F39F2069
:10B1600020F00300401C20F00400D06095F820047B
:10B1700002E000BFFEF7BCF80028FBD1BDE8F88F65
:10B18000E86300202DE9F84F1D4C00256846D4E9FE
:10B1900001A6FCF725FE002738B30023009A61685A
:10B1A0001CE0D1F800C00846944503D9ACEB02027C
:10B1B0000A6015E0A2EB0C0263440760D0F80CC0F3
:10B1C000C1698146BCF1000F08D006EB030828F0E6
:10B1D0007F48C0E9018CC9F81C5005460029E0D120
:10B1E00028466160FCF7B0FF03E02846FCF7ACFF9F
:10B1F00010B15046FCF77CFBE770BDE8F88F00000B
:10B20000385A00200D4B10B5596831B102680C68EE
:10B21000A24204D8A21A0A60C161586010BD0B4650
:10B2200003E00B46C969121B21B10C689442F8D3A4
:10B23000A41A0C600260C161D86110BD385A0020A8
:10B240002DE9F041144E77683D462C4603E08442D8
:10B2500004D02546E469002CF9D11BE0D4B1A54205
:10B260000BD1F869706040B90C4901208860002159
:10B27000B160F0702F20FEF783FD2168E069E8617E
:10B2800010B10268114401607068874202D0012049
:10B29000BDE8F0810020FBE7385A00200010014093
:10B2A0007CB5064600240D468DF800406846FBF745
:10B2B0009FFC01A800F084FA70B10570094946604E
:10B2C0009DF8040048709DF80000FBF7B5FC1420C1
:10B2D000FBF7ACF920467CBD04249DF80000FBF789
:10B2E000ABFCF7E72C6100202DE9F041194D6C68AB
:10B2F000002C2CD0184800270068A968B846401ACE
:10B3000020F07F462068B0420CD82146361A074408
:10B31000E469087C20B181F8108088694969884710
:10B32000002CEFD129786878814206D1401CC0B248
:10B330006870022801D185F80180064869780C30D0
:10B3400040F82170BDE8F0411420FBF76FB9BDE86B
:10B35000F0810000385A00200415014010B5184C47
:10B36000D4E90010884229D000EB8002154800EB98
:10B3700082018B78A3B130F822000831A3DF0100ED
:10B38000114A1248A2EB00004FEAD0004FF004022D
:10B3900002EB00400AD0BDE810400D49FEF7C2B8EC
:10B3A00030F8220089880022A1DFE8E709A1FEF732
:10B3B000B9F82079401C00F00700606010BD000063
:10B3C000E85900209C5F002048C5020030C50200FB
:10B3D00030BE0200534420526561642F5772697475
:10B3E00065204150492072657475726E73205375E3
:10B3F00063636573732E2E0070B50C4605464FF4DB
:10B400008E71FEF772FC216AA068415C206A401CC4
:10B410002062C5F81C1570BD1FB500228DF80020F4
:10B420000291816801914261D0E90012684690471B
:10B430001FBD00001FB50A4601788DF80010416855
:10B440000191017A8DF80810C0680390044850F803
:10B450002210083850F82220684690471FBD00008F
:10B46000FC5900200149012008707047545A0020FF
:10B4700010B588B0044620220E496846FAF762FFEC
:10B4800006200090C01F0190029003904FF0EB70D7
:10B4900006900CB1084A00E0002269460748FDF713
:10B4A000C9FB08B1FBF708FB0448001F447008B053
:10B4B00010BD000054BA020065B40200585A0020C2
:10B4C0002DE9FF470C4605464FF40071FEF713FCCB
:10B4D00001274FF40178002618B34FF492794946BA
:10B4E0002846FEF7FDFBE0B149462846FEF7FDFB86
:10B4F000C5F8088394F8290000B96F6002208DF820
:10B500000000D5F88004C5F880040390A06902907B
:10B51000E0680190A661E661D4E9001268469047B0
:10B5200028E004212846FEF7E6FB18B34FF48471A7
:10B530002846FEF7D5FBE8B121462846FFF798FCE0
:10B54000616AA069884215D1E06938B1E268616A30
:10B55000A0612069E6616662E06008E094F8290075
:10B5600000B96F60C5F80883A661E268616A204689
:10B57000FFF797FC4FF48E7841462846FEF7B0FB64
:10B5800078B1206A6169884202D294F8280020B319
:10B5900041462846FEF7A9FB616911B12046FFF735
:10B5A0003BFF4FF4A27841462846FEF799FB00285E
:10B5B00018D041462846FEF798FB94F8290000B1C0
:10B5C0002F60A06900280DD0A661E268616A04B00E
:10B5D0002046BDE8F047FFF764BC21462846FFF748
:10B5E0000BFFDEE7BDE8FF871FB50A4601788DF83F
:10B5F000001041680191017A8DF80810C06803902D
:10B60000044850F82210083850F822206846904725
:10B610001FBD0000FC5900202DE9FF410C464FF4EE
:10B62000927706463946FEF76CFB0025B8B13946DD
:10B630003046FEF76BFB02208DF80000D6F8800440
:10B64000C6F880040390D6F83C050290E0680190AB
:10B65000A561E561D4E900126846904723E04FF404
:10B66000887739463046FEF74CFBE0B13946304624
:10B67000FEF74CFBD6F83C15A069884213D1E0696F
:10B6800060B1E268D6F8000220F02000C6F800029F
:10B69000E069A0612069E561E06001E0A561E26820
:10B6A0002046FFF709FC4FF4A27739463046FEF7F3
:10B6B00028FB68B139463046FEF728FBA06938B14F
:10B6C000A561E561D6F83C152046E268FFF7F4FB7A
:10B6D0004FF4907739463046FEF713FB002812D01E
:10B6E00039463046FEF712FB606900280BD0D6F8C9
:10B6F0004C058DF800500290A06801906561D4E976
:10B70000001268469047BDE8FF8100002DE9F05F18
:10B710008346DDE90A4A994690460D4608460127C8
:10B7200003E000BFB0FBF8F07F1C4045FAD2B945FA
:10B7300000D94F465FEACA7012D18CB15FEA8A70B5
:10B7400002D5B9F1000F01D0202607E0302605E030
:10B7500031465846641EFBF79BFF0CB1A742F7D356
:10B760005FF00106B9F1010F02D9A9F1010903E067
:10B77000B5FBF6F0404502D306FB08F6F2E7DFF82A
:10B780003C9000BFB5FBF6F000FB165519F8001011
:10B790005846FBF77DFFB6FBF8F6002EF2D15FEAC4
:10B7A000CA7009D0002C07D0A74205D220215846E4
:10B7B000641EFBF76DFFF5E7BDE8F09FD6B8020009
:10B7C0000A494A788B78521CD2B2934200D10022A7
:10B7D0000B78934201D1002070470270487800EB4B
:10B7E000400001EBC000001D704700002C610020EC
:10B7F0005941584E6F726469635F55415254000D50
:10B800000E0F100B0C1819000100000000000000C2
:10B810000000000000000000000000000000000028
:10B820000000000000000000000000000000000018
:10B830000000000000000000000000000000000008
:10B8400000000000000000000000000000000000F8
:10B8500000000000000000000000000000000000E8
:10B8600000000000000000000000000000000000D8
:10B8700000000000000000000000000000000000C8
:10B8800000000000770A000000000000770A0000B6
:10B89000000000007ADA00000000000023D1BCEABA
:10B8A0005F782315DEEF1212000000000000005048
:10B8B0000003005035A002008DA20200030000002A
:10B8C0000C610020000000000000000000000000EB
:10B8D0000338FDD870473031323334353637383994
:10B8E00041424344454600000000000000000000C3
:10B8F0000000000000000000000000000000000048
:10B90000E8B8020000B9020004000000556E6B6E3A
:10B910006F776E206572726F7220636F64650000CE
:10B9200000000000F8C1020001000000A4C00200F5
:10B930000200000098BE02000300000018C10200CF
:10B94000040000006CC10200050000004CC00200B1
:10B9500006000000E8BF02000700000054C102001A
:10B960000800000060C0020009000000C4C002001E
:10B970000A000000E0C102000B00000080BE0200CF
:10B980000C00000078C002000D00000048C2020058
:10B990000E00000044C102000F00000080C1020040
:10B9A00010000000B4C10200110000005CC20200DF
:10B9B0001200000030C2020013000000CCC10200DF
:10B9C0008000000000C00200810000003CBF0200B7
:10B9D00082000000FCBE020083000000DCBE02000A
:10B9E0008400000018BF02008500000024C002008F
:10B9F000860000002CC1020090000000C8BF0200B9
:10BA000091000000BCBE0200920000008CC0020049
:10BA10000082000094C1020001820000E0C0020028
:10BA200002820000FCC002000084000058BF020037
:10BA30000184000004C2020002840000A0BF0200D2
:10BA4000038400007CBF02008D920200619202001C
:10BA500059920200FFFFFFFFFFFFFFFFFFFFFFFF05
:10BA6000FFFFFFFF00000000000000000000D60103
:10BA700006010000506300207F000000D06300201A
:10BA800000000000000000000000000000000000B6
:10BA90000100000780BA020090BA0200080000000E
:10BAA000B8BA0200C8BA020008000000C8BA020012
:10BAB000D8BA0200080000007CC6020084C602005A
:10BAC00000000000000000006CC602007CC60200FE
:10BAD0000000000000000000BCC50200C4C5020058
