:020000040002F8
:10600000985B0020F9620200016302000363020052
:10601000056302000763020009630200000000003C
:106020000000000000000000000000000B63020000
:106030000D630200000000000F6302001163020004
:106040009566020013630200F56802001363020004
:1060500013630200136302007D64020013630200F5
:106060001363020013630200136302001363020050
:106070001363020013630200136302001363020040
:1060800013630200ED660200136302001363020053
:106090001167020013630200156702001363020018
:1060A0001363020013630200136302001363020010
:1060B00013630200136302000000000000000000F0
:1060C00013630200136302001363020013630200F0
:1060D00013630200136302001363020013630200E0
:1060E0001363020013630200136302000000000048
:1060F00000000000136302000000000013630200B0
:10610000000000000000000000000000000000008F
:10611000000000000000000000000000000000007F
:10612000000000000000000000000000000000006F
:10613000000000000000000000000000000000005F
:10614000000000000000000000000000000000004F
:10615000000000000000000000000000000000003F
:10616000000000000000000000000000000000002F
:10617000000000000000000000000000000000001F
:10618000000000000000000000000000000000000F
:1061900000000000000000000000000000000000FF
:1061A00000000000000000000000000000000000EF
:1061B00000000000000000000000000000000000DF
:1061C00000000000000000000000000000000000CF
:1061D00000000000000000000000000000000000BF
:1061E00000000000000000000000000000000000AF
:1061F000000000000000000000000000000000009F
:10620000DFF80CD000F014F9004800475186020076
:10621000985B002030B4044654E8000F0D4644E873
:106220000053002BF8D1156030BC704730B40446E1
:1062300054E8000F40EA010544E80053002BF7D171
:10624000156030BC704730B4044654E8000F00EAD3
:10625000010544E80053002BF7D1156030BC7047AE
:1062600030B4044654E8000F80EA010544E80053C6
:10627000002BF7D1156030BC704730B4044654E8A9
:10628000000F00EB010544E80053002BF7D1156027
:1062900030BC704730B4044654E8000FA0EB010551
:1062A00044E80053002BF7D1156030BC704770B440
:1062B00004464FF0000054E8006F0D68AE4207BF7F
:1062C00044E80023012044E800630E60002B1CBF5B
:1062D0000020F0E770BC704730B4044654E8000F6B
:1062E00088422CBF451A054644E80053002BF5D1DF
:1062F000156030BC704700000648804706480047DC
:10630000FEE7FEE7FEE7FEE7FEE7FEE7FEE7FEE765
:10631000FEE7FEE719670200016202002DE9F05F67
:106320000546002092469B46884606468146402404
:106330001BE0284641464746224600F069F853468E
:106340005A46C01A914110D311461846224600F011
:1063500016F82D1A67EB01084F462246012000214E
:1063600000F00DF817EB00094E41201EA4F10104C6
:10637000DFDC484631462A464346BDE8F09F202AE6
:1063800004DB203A00FA02F1002070479140C2F18C
:10639000200320FA03F319439040704740EA0103B9
:1063A0009B0703D009E008C9121F08C0042AFAD2CB
:1063B00003E011F8013B00F8013B521EF9D270478F
:1063C000D2B201E000F8012B491EFBD27047002237
:1063D000F6E710B513460A4604461946FFF7F0FFE4
:1063E000204610BD30B50B46014600202022012476
:1063F00009E021FA02F59D4205D303FA02F5491B93
:1064000004FA02F52844151EA2F10102F1DC30BDA8
:10641000202A04DB203A21FA02F00021704721FAF9
:1064200002F3D040C2F12002914008431946704760
:10643000064C074D06E0E06840F0010394E80700D1
:1064400098471034AC42F6D3FFF7DEFEA0A6020058
:10645000C0A6020070B50024064D074E03E0305D73
:1064600000F014FD641C28788442F8D300202870C2
:1064700070BD0000A02A0020183800202DE9F04F40
:1064800000268DB0DFF8A081B14604964FF48075E8
:10649000012437460596284602F0A8FD38B1D8F801
:1064A0000403204203D0284602F096FD26432D1D0A
:1064B00064007F1CADB2082FEDD34FF4BE742046AC
:1064C00002F094FD48B1204602F086FD46F00046F9
:1064D00004AA0221002002F069FD544C16F0FF0FBF
:1064E00015D00127002537420DD008EB8501D1F8E2
:1064F0001005D1F81015C0F3052054F82520C1F37C
:10650000014102B190477F006D1C082DEBD3002E96
:106510007EDA0020CDF82890411E0DF1100B07AA5D
:10652000CDF82C9042F82010401C91460228F9D357
:1065300000252E46A11911F8607F91F9000027F07F
:10654000C008401C40D007A9404602F058FA40B3AA
:106550004FEA971A404601F019FD54F820701FB118
:10656000BAF1030F03D006E0BAF1030F2CD10AA948
:10657000404602F04CFA02A8CDF8088002F0C4FCB4
:10658000029900EB8100D0F8000704A9C0F3014094
:106590000290404602F033FA0028029802D0022806
:1065A00002D011E003280FD1BAF1030F08D10298ED
:1065B000022833D00221404602F072FC6D1CEDB27D
:1065C00017B151464046B847761C042EB2D3002D71
:1065D00021D001AA0221002002F0E8FC00205A4646
:1065E0000DF1040152F8206051F82030B34217D069
:1065F00000200AAE4FEA090351F8207042F82070DB
:1066000056F8207043F82070401C0228F4D300E0B4
:1066100001E0002D8CD10DB0BDE8F08F0321CAE759
:10662000401C0228DED3F6E70060004094390020C9
:1066300000F01F02012191404009800000F1E0209C
:10664000C0F88012704700F01F02012191404009FC
:10665000800000F1E020C0F80011704700F01F0238
:10666000012191404009800000F1E020C0F80012B3
:1066700070474907090E002806DA00F00F0000F104
:10668000E02080F8141D704700F1E02080F800142D
:106690007047000070B54FF48076304602F010FB72
:1066A000114CB50560B1304602F011FB0120C5F870
:1066B0000803607920B901206071216800208847B3
:1066C0004FF48276304602F0FBFA00280AD03046BA
:1066D00002F0FDFA0220C5F808032168BDE8704009
:1066E0000120084770BD0000002B00200748002152
:1066F000C0F84011C0F84411C0F84811C0F84C115E
:10670000C0F80011C0F8041103F0F4BB0010014000
:1067100003F03EBB02F076BD30B54FF08050002252
:106720008300D0F83011C3F80C21C3F81021624B5C
:106730001A60624B1B68624C2360604B1B1D1B6818
:10674000241D23605D4B08331B68241D23605B4BB5
:106750000C331B68241D2360584B10331B68241D09
:106760002360564B14331B68241D2360534B18338E
:106770001B68534C20342360504B1C331B68241D72
:1067800023604E4B20331B68241D23604B4B243366
:106790001B68241D2360494B28331B68241D23607C
:1067A000464B2C331B68241D2360444B30331B683D
:1067B000434C40342360414B34331B68241D236019
:1067C0003E4B38331B68241D23603C4B3C331B6815
:1067D000241D2360394B40331B68241D2360012393
:1067E000082902D1D0F8344114B1082904D006E0B8
:1067F000354C3449216005E0D0F8344114B1082902
:1068000004D006E0314CFB21216005E0D0F8344192
:1068100014B1082908D00EE090F858422C480168BD
:1068200064F30301016002E0D0F834411CB9294946
:106830004FF40070086028480168C90702D06FF063
:10684000010101602548016841F470010160BFF356
:106850004F8FBFF36F8F4FF01021D1F80002002847
:1068600003DBD1F80402002822DA1D4C23601D4806
:106870000368002BFCD01223C1F800320568002DFC
:10688000FCD0C1F8043201680029FCD02260016804
:106890000029FCD0BFF34F8F10487C380168124AA2
:1068A00001F4E06111430160BFF34F8F00BFFDE7CA
:1068B0000F490E48086030BD380500400404001040
:1068C00020C50040488103008C56004018F5004068
:1068D000E40E0040409602400004004088ED00E0D5
:1068E00004E5014000E401400400FA050090D003F3
:1068F000602B00200148006800470000082B0020A2
:106900000FB4054B10B503A9044A029800F02AF809
:1069100010BC5DF814FB0000DF830200582B002040
:1069200002E008C8121F08C1002AFAD17047704758
:10693000002001E001C1121F002AFBD170470000B6
:106940000121202803DA81400548014003E0402866
:1069500002DA2038814009B10120704700207047D9
:10696000FC06FFBD2DE9FF4F89B09B46044600257C
:1069700006E025280BD05A460B999047641C6D1CE5
:1069800020780028F5D10DB02846BDE8F08F00270B
:10699000B8460122474900E0074314F8013F203B75
:1069A00002FA03F00842F7D120782E2819D114F802
:1069B000010F47F004072A280ED06FF02F0220782D
:1069C000A0F1300109290CD808EB880102EB410144
:1069D00000EB0108641CF2E70A98641C50F8048B71
:1069E0000A9020780028CED0642808D0692806D0E4
:1069F00075281ED05A460B9990476D1C58E00A998D
:106A00004FF00A0901C90A91002802DA40422D21FB
:106A100002E0390504D52B218DF82010012103E077
:106A2000F90704D02021F7E78A4608AE0DE00021DF
:106A3000FAE70A994FF00A0901C90A91F7E74946AE
:106A4000FFF7D0FC303106F8011D0028F7D1ADEB7F
:106A5000060000F12009780701D44FF00108C8456D
:106A600002DDA8EB090000E000208046002706E0D8
:106A700008A85A46C05D0B9990476D1C7F1C57456E
:106A8000F6DB04E030205A460B9990476D1CB8F1B4
:106A90000001A8F10108F5DC05E016F8010B5A46E3
:106AA0000B9990476D1CB9F10001A9F10109F4DCC3
:106AB000641C65E70928010010B5012202210020AD
:106AC00001F04EF908B1072810D107220221012058
:106AD00001F046F908B1072808D100210A2208462A
:106AE00001F03EF908B1072800D1002010BD0000D8
:106AF00072B609480068C00700D000BEBFF34F8FD0
:106B00000548E4380168054A01F4E0611143016079
:106B1000BFF34F8F00BFFDE7F0ED00E00400FA0582
:106B20000EB500210091CDE901106A4644F2010042
:106B3000FFF7DEFF0EBD10B58268C368934203D035
:106B400001F026FC002010BD052010BD29B112B1B6
:106B5000531E134203D0092070470E207047016076
:106B6000838000218160C1600846704710B582684B
:106B7000C3689A1A83889A4203D801F013FC002054
:106B800010BD042010BD00002DE9F84F254C8146B2
:106B9000924660880E46814241D800274FF6FF7822
:106BA0008DF80070684600F09BF922786078A18823
:106BB000884201DA401C00E00020C0B2904204D1BB
:106BC0009DF8000000F0B0F927E065786078884211
:106BD00001DA401C00E0002060709DF8000000F029
:106BE000A3F9454519D0A068B9F1000F40F835A0C8
:106BF0000DD066B16188E068324605FB0100494668
:106C0000FFF7CCFBA06800EBC500868002E000EB3C
:106C1000C50087800020BDE8F88F0420FBE709202D
:106C2000F9E70000102B002010B50E4C03E0401CCB
:106C300000E00020207020786178814210D0227816
:106C40006188E068A36802FB010003EBC20153F80E
:106C50003220898890472078A1888842E9DAE6E7DF
:106C600010BD0000102B002030B5CB0008339DB2C2
:106C700093074FF0000401D0072030BD044B9A6009
:106C80002A44DA605C701C7058809980002030BD06
:106C9000102B0020074B9B7823B12AB120B100684C
:106CA000037C1BB108207047072070474174426184
:106CB00000207047503A002070B502F0E7FE1048FF
:106CC00000240B21047044700E4D817014206C6000
:106CD0002C706C70FFF7ACFC06211420FFF7C9FC88
:106CE0001420FFF7B0FC0848046006211120FFF7CC
:106CF000C0FC0548001F0068A860002070BD0000AF
:106D0000503A0020202B0020081501402DE9FC47B7
:106D1000DFF8789099F8023073B368B3052902D28E
:106D20000720BDE8FC87436933B3437C012B25D0A2
:106D3000002704460025884616468DF80050684610
:106D400000F0CEF801A803F043FBC8B101210170A7
:106D50000F4944600968C0E90218C0E904769DF84B
:106D6000040089F801009DF8000000F0DDF814200F
:106D7000FFF774FC2846D4E70820D2E70F46D8E78F
:106D800004259DF8000000F0CFF8F3E7503A00200A
:106D9000041501400649897839B130B1416921B102
:106DA00000210174022103F081B80820704700001F
:106DB000503A002070B50A4E01460A48B578FFF7F0
:106DC000BAFE04464DB10020B070711C0122C81DEE
:106DD00001F0EEFF08B1FFF7A3FE204670BD0000F2
:106DE000342B00205C3B0020F0B5244E89B01F46B8
:106DF0000D00044672603FD0A888296882B22048FE
:106E0000FFF7A4FE002835D1A889A96882B21C48E2
:106E10001030FFF79BFE00282CD12022194968462C
:106E2000FFF7BCFA60690690207C00B101208DF864
:106E300014008DF81C70607C00B10E208DF81500D8
:106E4000E0680290A068039020680190606800905C
:106E50000A480D4A6946083001F076FF002809D13A
:106E6000B0702068401C05D004490122491CC81D8F
:106E700001F09EFF09B0F0BD0720FBE7342B002096
:106E80005C3B0020B8A5020009A0020010B5014635
:106E90001048FFF76BFE040019D10F480F4A017824
:106EA000515C19B1001D02F0D9FC02E00C3002F077
:106EB000BDFB60B9084907480839FFF73CFE30B907
:106EC000054901220839044801F082FF04462046A2
:106ED00010BD00006C3B00203C2B0020EC2A002061
:106EE00030B5EFF3108172B60D4A9468012324B1D6
:106EF0000370002900D162B630BD93604FF0E023EB
:106F0000D3F88051074C25401560C3F88041D3F871
:106F1000844154605A17C3F8842100220270E8E7C4
:106F20007C3B0020FC06FFBD0B498A68002A11D07B
:106F300000280FD1EFF3108072B60B684FF0E022FB
:106F4000C2F800314B68C2F8043100228A60002880
:106F500000D162B6704700007C3B002070B505464A
:106F600008680C46411C04D001F0F8FF206801F0CD
:106F700083FF6068411C02D0002101F06BFF29688B
:106F8000A069C1F82405607D227D29681043C1F8FD
:106F90006C05D4E900122868C0F81425C0F80C1557
:106FA000207D012814D1A068411C02D0002101F0ED
:106FB00051FFE068411C04D001F0D0FFE06801F00F
:106FC0005BFFD4E902122868C0F80825C0F8101544
:106FD00070BD70B5054608680C46411C04D001F030
:106FE000C7FF206801F052FF6068411C02D00021F9
:106FF00001F039FF2968A069C1F82405607D217D71
:107000002A680843C2F86C05D4E900122868C0F861
:107010000C15C0F81425207D012814D1A068411C4E
:1070200002D0002101F01FFFE068411C04D001F0F4
:107030009FFFE06801F02AFFD4E902122868C0F837
:107040000825C0F8101570BD70B51500044609D0AC
:107050000020286034B1206820B1A079800703D0D7
:10706000072070BD0E2070BD084600F001FBC0B2C5
:10707000142804D02179814203D8042070BD052052
:1070800070BDE288216800FB02102860002070BDFE
:107090002DE9FC47002517880646158090F82D003D
:1070A0001446894630B13A462146484600F0F4FA83
:1070B000051E09D1B0784FF00C0A18B32088C846D5
:1070C000001DB84202D95046BDE8FC87684679DF0A
:1070D0000028F9D12088032108F800102088192100
:1070E000401C80B2208008F800102088401C80B22C
:1070F000208000EB0801BDF8000003F012F92188A0
:1071000008442080F0780222C8B1218896F9033023
:1071100001F1030C4846BC45D5D8425421884FF0B4
:10712000010C491C89B2218000F801C02188491C4A
:1071300089B2218009F801302088401C20807068C5
:10714000B8B1218890F9003001F1030C4846BC45E4
:10715000B9D8425421880A22491C89B2218042545C
:107160002188491C89B2218009F801302088401CFF
:107170002080308950B1CDE900474B4606220221DC
:1071800006F1080003F03CF9051E9DD1308A50B18C
:10719000CDE900474B460722032106F1100003F01A
:1071A0002FF9051E90D1308B50B1CDE900474B46E9
:1071B0001522142106F1180003F022F9051E83D1CF
:1071C000306A30B13B462246494601F046F8051E7A
:1071D000DBD1706A30B13B462246494601F05EFB86
:1071E000051ED2D196F82C0038B13B4622464946BE
:1071F000304602F007FD051EC7D1307838B13B4656
:1072000022464946304601F07BFB051EBDD128468B
:107210005AE718B504460020ADF8000013466A4648
:10722000204600F006F8002802D0BDF800002044F7
:1072300018BD70B588B182B10024158803E0065DE1
:10724000641C3444A4B2A54203D8061976789E4241
:1072500001D08C42F3D38C4201D3002070BDA11C1D
:107260001180005D401E80B270BD80F83010704704
:107270002DE9F0470D00044606D02CB195F87A00B0
:107280000026012803D006E00E20BDE8F08795F81F
:107290009800012821D04FF00109A6702C2205F199
:1072A0007801201DFFF77AF884F83060D5F8A40043
:1072B0006063D5F8A800A0634FF6FF70A4F84802F9
:1072C00004F50D70C4F84402C4F84A62A4F84E6292
:1072D00084F85062207810B104E00720D5E7FF2041
:1072E00084F8540004F15501C4F8341294F82400D1
:1072F000EE274FF01F08012833D0A4F8388200BFD2
:1073000004F50E722846FFF7C3FE0028BDD104F233
:107310004311C4F83C1294F82400012824D0A4F8A6
:10732000408200BF04F5107205F13C00FFF7B0FE8B
:107330000028AAD184F85190208BA4F8480084F842
:107340003C90266484F85060606960644D4604F1A6
:107350003C02002104F1540072DF002895D1257011
:1073600093E7A4F83872CBE7A4F84072DAE710B5D7
:107370000288102A1BD0112A20D0262A1DD1007A7B
:107380000C46012801D0022817D1A0780521401C05
:10739000B0FBF1F201FB1201204600F01EF80028BC
:1073A0000BD0A16B002908D0BDE810400847C27B74
:1073B000012A02D18088A1F8480210BD0C460021A4
:1073C00084F852128088B4F848128842F5D12079A6
:1073D0000028F2D10121DFE770472DE9F05F044674
:1073E00000780F4698B1A7700025C4F84A52A4F857
:1073F0004E5284F85052A079012608B1012F09D0CD
:10740000E07980B1012F05D0022F03D00BE00820D6
:10741000BDE8F09F616B21B184F851620820884774
:1074200001E084F8515204F24B2100200A5C0AB1B9
:10743000304603E0401C0628F8D300204FF0020835
:107440004FF0030B012F06D0022F0CD0032F0FD0CB
:10745000042F15D110E0A17929B194F8241011B9A5
:1074600008B130460DE0E17911B108B1404608E0BD
:10747000207A08B1584604E0607A08B1042000E0A0
:107480002846A070616B41B1032801D0042804D1C3
:10749000607910B194F85202A0B184F8535204F10B
:1074A0003C0018210746FEF792FF04F12C0084F8F7
:1074B0003C60814602F09DFA58B194F82C0084F8A3
:1074C000510008E084F8545284F85362072088473A
:1074D000E5E784F8516094F8240050B1484602F082
:1074E00088FA20B194F8280084F8520001E084F86A
:1074F000526084F85050A27804F24A2104F50D79C4
:107500004FF0060A052A62D2DFE802F07A030F2262
:10751000410084F83160C4F84452C4E9101584F87D
:107520003C808020A4F8480053E084F8318094F82F
:107530002420384612B10722027001E080F800B022
:10754000228A8281C4F844524160E168B96040E017
:107550006069B860208BB88194F824003D4610B172
:1075600084F83CA001E084F83C60204602F012FF61
:1075700050B185F814800421204600F01CFF30BB78
:10758000052184F8311020E084F831B01DE0E06975
:10759000B860208CB88194F824003D4610B184F87E
:1075A0003CA001E084F83C60204602F0F3FE48B1C4
:1075B00085F814800421204600F0FDFE38B984F8D7
:1075C00031A002E0042084F83100C4F84492A0788D
:1075D00078B13A4604F15400D4F8441272DF00281E
:1075E0007FF416AF94F8301094F8540073DF00283D
:1075F000F6D1616B11B194F831008847002007E79C
:1076000084F83150F5E7000070B5040012D001464F
:107610001C221448FEF7C2FE1248134D0560206874
:1076200050B17ADF002806D12068016829604068DF
:10763000686005E00E2070BD0B487BDF0028FAD1A2
:1076400008484FF6FF711438084A20F8041B054912
:10765000343901600021FFF71DFB0028EBD0032027
:1076600070BD0000EC380020E42A00202DA30200A9
:1076700010B5044600F006F808B1204610BD1420ED
:1076800010BD0000142801D30020704701460148B6
:1076900001F094B90C3900207CB5054608880C46E9
:1076A0000930904201D90C207CBD68466DDF00286E
:1076B000FAD121880820685420881B21401C80B200
:1076C000208029542088401C80B220802844DDF886
:1076D00001100160BDF8051081802088801D80B2F6
:1076E00020809DF80010490800D0012129542088ED
:1076F000401C208000207CBDF8B50546008800268F
:107700002D4C21283FD00CDC2C4F102813D01128F1
:107710002ED013282BD100231A468521A0887FDF85
:107720003FE03B2843D0522836D056281FD1A888A6
:10773000132176DF35E0072000F034FB08B1FFF7B6
:10774000EFF9A988A1801E4801F042FA08B1FFF7BD
:10775000E7F900221146A08888DF00224FF480411B
:107760007868FFF7D3FA08B1FFF7DAF9A670F8BD29
:10777000A08889DF7868FFF70DFB6670A6704FF66A
:10778000FF70A080F8BD0096A88869468FDF0028AA
:10779000F8D0FFF7C5F9F8BD00231A461946A088AE
:1077A000B1DF0028F7D0BDE8F840FFF7B9B9A888E5
:1077B000132176DFF5E70000A02A00201CA50200B7
:1077C000B435002010B51A4C0188606810290ED01D
:1077D00011292BD1401E606028D1FFF76DF90028D8
:1077E00024D02168002921D0BDE810400847D0B935
:1077F00000210122084600F0B3FA08B107280FD192
:1078000007220221012000F0ABFA08B1072807D1B6
:1078100004220221002000F0A3FA20B1072802D0A0
:10782000216801B188476068401C606010BD00009D
:10783000DC2A00202DE9F04701883B4E40F2F31985
:107840004FF6FF7510291BD011293ED0122954D0B4
:10785000502946D1C188F289841D914241D1618964
:1078600002293ED18688304600F0E8FD050038D078
:1078700004F10C0000F0B4F9A8B3294630464EE0FC
:10788000C17B8788044601292BD1A846284600F0F1
:10789000D5FD050017D02F800020287223484346CD
:1078A0004A460168C5F80A104068C5F80E0004F1A0
:1078B000100105F10A0000F009FE6872F089002845
:1078C0000FD129462AE0042013E0808800F0B6FD9D
:1078D000040006D06068FFF75DFA08B102F08AF98B
:1078E0002580BDE8F087FFE76868FFF753FA0028B6
:1078F000F7D0BDE8F04702F07DB9878806463846E4
:1079000000F09CFD0400ECD02B464A4606F108012D
:1079100004F10A0000F0DAFD607221463846BDE845
:10792000F04700F0E1BC0000EC380020E42A002021
:107930002DE9F04F0746858802883D48012197B020
:107940008346102A09D0112A49D01A2A6CD1387AD4
:10795000B1EB101F45D2012244E0354C083CA06831
:10796000C0430B9061680BA801F03DF80B990CA87F
:1079700000F054FC2C220CA96846FEF70FFD0026EF
:10798000E946A04610E000BF09EB46005FF00004A6
:10799000B0F804A008EB84005146001D01F003F884
:1079A000641C1D2CF6D3761C0098B042ECD8142D24
:1079B00005D317B00420BDE8F04FFFF7B1B8294652
:1079C000584601F006F8294608F1040001F001F8D4
:1079D000F87B012828D016482946001D15E02946C5
:1079E0001AE000220221B1EB101F01D2012600E0B3
:1079F00000260F49083901F11000041D294682B103
:107A000000F0E7FF36B12946204617B0BDE8F04F39
:107A100000F0DFBF2946204617B0BDE8F04F00F068
:107A2000C2BF00F0C0FFF5E717B0BDE8F08F00005F
:107A300010390020F0B585B016460F4604001D46EB
:107A400014D004AA19466069FFF7FEFA00280BD18A
:107A5000A5F57F40FF380BD0049848B1007848B1B5
:107A60003088F42808D9072005B0F0BD0E20FBE7C8
:107A70000520F9E70820F7E7002000900190029028
:107A80000390A088ADF8000001208DF80200CDE938
:107A9000026769462846AEDFE6E7000070B5334D61
:107AA00004008EB02DCD08AE86E82D005BD0E9B382
:107AB0000868A061214608A862DF002851D120781B
:107AC00001258DF83200ADF83050A21C0CA92846D3
:107AD000A8DF002845D120216846FEF778FC022067
:107AE000ADF8000020788DF802008DF80C509DF85C
:107AF0000D00F426ADF8046040F00C008DF8115034
:107B0000ADF806508DF80D008DF81250608804F124
:107B10000C02694600F042FA002822D12021684672
:107B2000FEF755FC0320ADF8000000E01BE02078D4
:107B30008DF802008DF80C509DF80D008DF8115055
:107B4000ADF8046040F010008DF81250ADF806500A
:107B50008DF80D008DF813506088221D694600F0E5
:107B60001DFA0EB070BD0E20FBE7000088A50200D4
:107B700070B588B00446002924D0002C22D00846D5
:107B80002188102920D0502924D057291AD1054600
:107B9000A188406906AAFFF757FA002812D1069E6D
:107BA000307800280ED018216846FEF710FC01201E
:107BB0008DF800000195A088ADF808000396A9692A
:107BC0006846884708B070BD08B02146BDE87040DF
:107BD00001F098BE08B02146BDE8704001F0C7BE74
:107BE000007800F0010070470149085C7047000010
:107BF00040A50200094908B5085C0090684601F0FC
:107C000075F9D0F80425009B0121994021EA02036F
:107C1000C0F808351140C0F80C1508BD3CA502009D
:107C20000249085C012101F0ADB900003CA5020049
:107C30000249085C002101F0A5B900003CA5020042
:107C4000084908B5085C0090684601F04FF9D0F883
:107C500004050099C84010F0010000D0012080F018
:107C6000010008BD3CA5020010B500242046FFF726
:107C7000D7FF641C042CF9D310BD10B50024204696
:107C8000FFF7D6FF641C042CF9D310BD10B50246D3
:107C9000064B4FF0FF3000215C5C944201D1084656
:107CA00010BD491C0429F7D310BD000040A50200F7
:107CB00010B5002000F066F908B1062806D10120B1
:107CC00000F060F908B1062800D1002010BD0000C6
:107CD0002DE9F0470D468146FFF7D8FF04460428FA
:107CE00036D2DFF874801B481C4EA8F10C0725B370
:107CF000012D0ED0022D2BD104EB440030444578E9
:107D0000002D25D0B968002922D02846BDE8F047CB
:107D1000084704EB4401755C0E44717849B10E4A82
:107D20004FF40041093A8068FEF7F0FF08B987F880
:107D30000390B17808F80410E2E78068FFF72AF8AA
:107D400004EB4401314418F804008D78A842D7D0E0
:107D5000BDE8F08744A50200D82A00208C38002016
:107D600070B50023042810D20D4D00EB4004012A09
:107D700002D101290CD00022094E00EB4000304412
:107D800061B1012906D0022906D00723184670BD2B
:107D90000E30C2B22A55F9E74270F7E78270F5E774
:107DA0008C380020044A014600201279D20702D004
:107DB000084600F003B87047CC2A00202DE9F05F98
:107DC0006E4C054600266078B34618B184F801B0C1
:107DD00000F09EFB6A4F4FF47A694FF4C87A4FF077
:107DE0000108182D69D2DFE805F00C131338475449
:107DF000696E727B727BC58484848484B3B6B9BC9B
:107E0000C5C500F085FB3868FEF7C4FF06465CE098
:107E10000020FFF715FF00284FF0000008D0FFF703
:107E2000FFFE022D02D14FF4E16008E0484606E073
:107E3000FFF7FEFE022D01D1C82000E05046410CA4
:107E4000C0034FF4FA72801841F10001257052000E
:107E50000023FEF763FA01462AE00020FFF7F0FE58
:107E600000284FF0000004D0FFF7DAFE4FF448700E
:107E7000E5E7FFF7DDFEDFE70020FFF7E1FE002882
:107E80004FF0000002D0FFF7CBFECFE7FFF7D0FEA8
:107E9000D4E70020FFF7D4FE00284FF0000002D006
:107EA000FFF7BEFE01E0FFF7C3FE257041F69A1111
:107EB00000223868FEF72AFF064646E00020FFF75A
:107EC00099FE257008E0002051E025703DE084F81F
:107ED00001800120FFF78EFE002240F6CD41E8E749
:107EE00084F801800120FFF785FE00224FF48041D5
:107EF000DFE77868FEF74EFF0646D5F1110000D0A7
:107F00002EB10220FFF78CFE84F802B01DE001289C
:107F100016D980B2C8214843C117C90341EA50416C
:107F2000C0034FF4FA72801841F10001520000239F
:107F3000FEF7F4F9014600227868FEF7E7FE0646F0
:107F40000220FFF775FE84F802803046BDE8F09FFE
:107F500000F0DEFAB9E700F0DBFAB4E700F0D8FA97
:107F600004E000F0D5FA0020FFF762FE0120FFF7E1
:107F70005FFEAAE7FFF781FEA7E70000CC2A0020FA
:107F800044A50200012102F0A3BA000002490844FE
:107F900090F9300070470000943900202DE9F0433B
:107FA0008146887891B090460C4600B901208DF842
:107FB0003E002088ADF83C0000250095607C6946B5
:107FC00001F064FE6E46A07C711C01F05FFEE07B58
:107FD00000289DF8020002D040F0080001E020F0E7
:107FE00008008DF80200217C11B140F0100001E082
:107FF00020F010008DF80200217B11B140F001004B
:1080000001E020F001008DF80200217D09B102217C
:1080100000E0012161F342008DF802001C2102A85A
:10802000FEF7D5F9607BC10601D4800617D50E9501
:108030000EAFE07C791C01F029FE9DF8380007970F
:1080400020F00F00401C20F0F00010308DF83800B8
:108050009DF83A0020F00600801C8DF83A00607B05
:108060008DF80800A07B8DF80900142109A8FEF7FF
:10807000AEF90FA8CDE90906A088ADF83000A068D8
:1080800020B1E088ADF82C00A0680D90A06998B3ED
:1080900001950088ADF81000A06901AD01A94088E4
:1080A000ADF81200A069406806950390A069007BB6
:1080B00001F0ECFDA069691C407B01F0E7FDA069BF
:1080C000807A00289DF8060002D040F0080001E008
:1080D00020F008008DF80600A169C97A11B140F0BE
:1080E000100001E020F010008DF80600A169097A67
:1080F00019B140F0010002E00DE020F001008DF820
:108100000600A169897B09B1022100E0012161F328
:1081100042008DF80600E06900B10590434609AAC7
:1081200002A94846AADF11B0BDE8F08370B5084C3B
:10813000050009D010342168002907D008682060A4
:10814000496828468847F6E70834F4E770BD000020
:1081500080390020054A012120B1012805D1917004
:10816000FFF7E4BF51700020FAE770478039002024
:108170002DE9F05F26484168F1B3DFF898B00E684A
:108180008146DBF8004087688078E11B21F07F455D
:10819000ED1CB0B9DFF880804FF48030C8F844039C
:1081A000C8F804031120FEF743FA1120FEF74BFA3A
:1081B0004FF0010AC8F800A02F2001F0D1F889F88B
:1081C00002A0B54200D23546124BE8193C3320F0EC
:1081D0007F401860DBF800105A46091B21F07F41F0
:1081E000001B20F07F40C91C81420FD91068186025
:1081F0002F2001F0B5F800E004E0BDE8F05F1120A9
:10820000FEF72CBABDE8F05F01F040BCBDE8F09F7E
:10821000202B0020041501400010014073B58CB0E4
:108220000646002000900D9880B100246D4621463E
:108230000DA800F0C3FB30B1009805EB400084802E
:108240000098401C0090641C142CF0D32C2269462A
:108250003046FEF7A3F80EB070BD2DE9F041178847
:108260000646B81D14460D46984202D90C20BDE8BA
:10827000F0813188072206290AD34FF4486C4FF663
:10828000FF73614501D9994202D17088062801D255
:108290001046ECE7604501D99842F9D1994203D0E4
:1082A000984201D08142F3D80520E8552088122158
:1082B000401C80B2208029542088401C80B220803D
:1082C0004119308802F02DF82188084480B22080BE
:1082D0004119708802F025F8218808442080002088
:1082E000C5E7FEF71DBC000038B54A7A0F4B62B1F6
:1082F00000220A725969002906D001228DF8002057
:10830000ADF802006846884738BD0A7A62B19B68BA
:108310004C68024619462046FEF7F8FC0028F3D0C8
:10832000BDE8384001F066BC5B68F1E7EC3800203E
:108330001FB500220092ADF800100192ADF80210B6
:108340000292039202AA694690DF04B010BD0000B9
:108350000E4910B50A784C780023A24212D0521C64
:10836000D2B20A70022A00D10B70084A0B780C3284
:1083700052F8232002608868104420F07F40886013
:10838000012010BD0360002010BD0000202B002044
:10839000826883881A4003689A5C0A708168491C65
:1083A00081607047C26883881A4003689954C16825
:1083B000491CC160704770B50D460446B0F83812CC
:1083C000D0F834020122FEF724FF00B1057004F159
:1083D0003C0204F50D7104F1540072DF70BD10B55C
:1083E0000446C0B2FEF752FD204610BD06484A883A
:1083F00083889A4207D10A88A2F52063773B02D18D
:108400008988C91EC1807047A02A002010B509497B
:10841000094800F012FB08B1FEF782FBF72106487D
:1084200000F0FFFA002803D0BDE81040FEF778BB4B
:1084300010BD0000ED830200A03500200146034876
:1084400002888A4200D0002070470000D8380020FF
:1084500070B50D46044600684FF4887100F045FF82
:108460004FF49071206800F040FF4FF49271206843
:1084700000F03BFF4FF4A271206800F036FF206847
:108480001149C0F804132068690740F30730090E4A
:10849000002806DA00F00F0000F1E02080F8141D3B
:1084A00003E000F1E02080F800142068012140F38F
:1084B000073000F01F0291404009800000F1E020E9
:1084C000C0F8001170BD000010030200F0B58488F0
:1084D000A518944200D82246A41AC288D6189A42F7
:1084E00000D81346D21A4B880788BB420CD3408869
:1084F000834209D88888A04206D3A84204D8C888F5
:10850000904201D3B04201D90020F0BD0120F0BD5E
:108510000A4810B5807860B1002401E0022C06D032
:108520002046FFF77DFB641C042CF7D310BD032409
:10853000F6E7BDE81040FFF797BB0000CC2A00200B
:10854000F721018017214180002101714171FB2138
:1085500081711B21C17170472DE9F047394E002709
:1085600080463D46DFF8E090D6F804A057E003D0FF
:108570000446D0F81C8035E099F8002002EB420157
:10858000521CD2B289F8002009EBC10199F80230DF
:10859000091D9A4201D189F8005048680A780446BA
:1085A000012A12D0022A02D0032A3BD108E001F0AE
:1085B0004DFC00B10127257434E00574C06900E06A
:1085C00070680028F9D170602CE0207C50BB88686E
:1085D0006060C868A0600869E0604869A061F078E0
:1085E00000B165606268B168184B501A20F07F4096
:1085F000984202D2A168084406E0881AA16820F0D7
:108600007F40814202D9081A206000E02560656041
:108610000120A56020742046E56101F0F9FBB8F166
:108620000000A4D199F8001099F801008142A3D16B
:1086300017B97168514502D00120BDE8F0870020CC
:10864000FBE70000202B0020503A0020FFFF7F00B6
:10865000ACB018227A496846FDF7A0FE794806902A
:1086600079494FF48070CDE9070109900723774AD3
:1086700006A96846FEF7B8FB08B1FEF751FAFEF707
:108680001BFB08B1FEF74CFA6D48714A012108380E
:10869000FEF700FB08B1FEF743FA69486D4A012175
:1086A000001FFEF7F7FA08B1FEF73AFA0D20009026
:1086B000684600F00DFC0099032500EB8100C0F82E
:1086C0000057654A1E213220FEF7CEFA08B1FEF7A8
:1086D00027FA00F093FC08B1FEF722FA00F058FDEB
:1086E00008B1FEF71DFA002469460120009400F04D
:1086F000C7FC08B1FEF714FA684600F00FFD08B198
:10870000FEF70EFA9DF8080054A120F00F00401C5F
:1087100020F0F00010308DF808000E2202A87CDF57
:1087200008B1FEF7FDF900941020ADF800003C20E0
:108730000194ADF80200ADF804404FF4C870ADF8F4
:10874000060068467ADF08B1FEF7EAF9FFF75EFE39
:108750004648019001A9464800F045FA08B1FEF7E5
:10876000DFF94448009069464348FFF797F908B19C
:10877000FEF7D6F9AC216846FDF729FE02208DF8F8
:1087800000008DF8024006208DF8030001203A49D0
:10879000ADF84C00091F8DF87C0014914020CDE904
:1087A000220436482990324869460C30FEF760FDB5
:1087B00008B1FEF7B5F92E4801210C30FEF755FD42
:1087C0001C216846FDF703FE4FF42030CDE9004040
:1087D0004FF4702002902A4805902A488DF80C50DA
:1087E0000690ADF80E408DF810406846FEF70CFF7D
:1087F00008B1FEF795F924A0FEF782F81C48002284
:108800000C3090F85410012077DF08B1FEF788F99A
:10881000174803210C30FEF7E0FD08B1FEF780F9A0
:108820000748002208384FF480410068FEF76EFACE
:1088300008B1FEF775F9FEF7F7F900F0F3FBFAE778
:1088400024A50200982C0020982D0020A59F02004E
:10885000559D0200219A0200982E00205941584E41
:108860006F726469635F5541525400006990020061
:10887000B435002079980200AC2A0020C598020087
:10888000E9980200E38202000D0A55415254207318
:108890007461727465642E0D0A00000070B5144690
:1088A00082880E4605462088111D0144921C99427B
:1088B00001D8FE2A01D90C2070BD521C32542088E8
:1088C000FF21401C80B2208031542088401C80B29F
:1088D00020808119288801F024FD2188084480B275
:1088E0002080AA8842B1A96841B13044FDF756FD05
:1088F0002088A98808442080002070BD072070BD12
:10890000F8B50F46017814460546012901D168786B
:1089100030B12088821C9A4232D8012902D006E068
:108920000720F8BD69780144891C994228D8181A93
:10893000801E86B2ADF800602188B81C08446946E4
:108940007DDF0028EDD12978022904D06878BDF8B0
:108950000020904205D3BDF80000B04201D80920A4
:108960000AE00820012905D16978B14202D8ADF8A2
:10897000001001E0ADF80060BDF80010FE2901D93B
:108980000C20F8BD2288491CB9542188491C89B2A1
:10899000218078542088401C2080BDF800100844B5
:1089A00020800020F8BD01F01F0301229A40D2432D
:1089B000490900EB8100114600F015B84A0950F84A
:1089C000220001F01F0201219140084000D0012047
:1089D000704701F01F0301229A40490900EB810012
:1089E000114600F006B808B56A46FDF72CFC009861
:1089F00008BD08B56A46FDF719FC009808BDC20815
:108A000000F007030120895C98400840704710B5CA
:108A1000C20800F00703885C01249C40204388546E
:108A200010BD28B1A1F11702E12A03D30720704736
:108A30000E20704701800020704710B560B10161C1
:108A4000F72120F8021B20F8021BFB2100F8021B73
:108A5000FFF776FD002010BD0E2010BD2DE9F04778
:108A6000B0F804A08EB00C465FEA0A0957D101881D
:108A7000564E0127002524297BD006DC102909D079
:108A8000112929D0232926D199E03A2928D055291E
:108A900021D147E021792173C07BA61D012802D096
:108AA000022804D101E0208800E06088308031880D
:108AB0007088814208D94846A5DF10B1112802D03C
:108AC00002E0777100E03771B179F07981426BD9BA
:108AD0004846FFF72DFC67E0A01DFFF731FD63E07E
:108AE0002246408934F8061F814200D8084660803B
:108AF000172800D217206080106970B1607960B1CA
:108B0000D6E90001CDE90001ADF802906088ADF82A
:108B100004001369694610469847657125710EB0C7
:108B2000BDE8F087C08804F10608172800D2172096
:108B3000B8F80010814200D80846A8F8020088F86A
:108B400004502846B8F80010B5DF98F8050058BB67
:108B5000206948B3D6E90201CDE90001ADF80290E1
:108B6000B8F80200ADF804002046694622691AE010
:108B7000FFE7011D2C226846FDF710FCBDF8000040
:108B8000BDF8042004EBC0014A73226962B1D6E942
:108B90000423CDE90B23ADF82E00487B8DF830007F
:108BA000226920460BA99047A07A0028B7D0E18817
:108BB0005046A5DF0028B2D1A572E772AFE7017A6F
:108BC000207B884284D2014682E7000070A5020023
:108BD00020B10278DE2A03D0082070470E207047AB
:108BE00041800020704760B159B10278DE2A0AD076
:108BF00009684160DE2101704FF6FF71418000205D
:108C000070470E207047082070477FB50546002941
:108C10004DD0002D4BD008780C46DE2847D1A888CF
:108C20006188884202D1204601F0C0FB28880128D3
:108C300025D002283BD011283AD0512837D135F819
:108C4000040F6188884232D1A978A81C02292ED14C
:108C5000017A042903D0062901D0052927D1002152
:108C6000009102228DF8002001914FF4C072029110
:108C70000391ADF80420007A05280FD010E0297A7E
:108C80002046012913D1A988428891420FD10121A0
:108C9000017204B0BDE8704001F088BBADF804106B
:108CA00028886946B0DF002801D0616888477FBD09
:108CB000A88861888842FAD14FF6FF7060807FBD36
:108CC00000F180400068002800D00120704708B5FE
:108CD00000F18040002101600068009008BD0000A4
:108CE00070B50B4C207808B185250FE00020A060FE
:108CF00060602061E060074800F014FB054600F06A
:108D000093FA08B900F0F8FA01202070284670BDE7
:108D1000803900205581020038B500258DF80050BB
:108D20006846FEF7DDF8074CE068401EE060E0684A
:108D300010B900F007FBA5709DF80000FEF7F4F8ED
:108D400038BD000080390020F0B50546047815488C
:108D500089B0164640F82420124A08690832A2F168
:108D60000C0742F82400487F385520226846FDF75A
:108D700015FB04942878385C48B10EB10A4A00E02B
:108D800000226946281D00F069FC09B0F0BD0EB153
:108D9000064A00E00022694605F10C0000F016FBCF
:108DA000F3E70000F02A002001A20200A9A00200BF
:108DB00030B40378054CE35C1BB130BC001D00F0FF
:108DC00083BC30BC0C3000F069BB0000EC2A0020F2
:108DD00030B40378054CE35C1BB130BC001D00F0DF
:108DE000F5BC30BC0C3000F0CFBB0000EC2A0020FA
:108DF0002DE9FF411C46DDE90A7815460E46684616
:108E000000F090F846EA450141EA840141EA072270
:108E100042EA0841009A00EB8200C0F80017BDE862
:108E2000FF812DE9FF411C46DDE90A7815460E4613
:108E3000684600F085F846EA450141EA840141EAC6
:108E4000072242EA0841009A00EB8200C0F80017AE
:108E5000BDE8FF811CB500220B460092114601922D
:108E6000FFF7C6FF1CBD1CB500220B460092114641
:108E70000192FFF7D6FF1CBD1CB5002100910B46E7
:108E8000012201911146FFF7B3FF1CBD1CB5002163
:108E900000910B46012201911146FFF7C2FF1CBD54
:108EA00013B50C46684600F02FF8009900EB8101DD
:108EB000D1F8002722F44032C1F80027009900EBD6
:108EC0008100D0F8001741EA0441C0F800171CBD2A
:108ED0000168202902D24FF0A040704701F01F0125
:108EE000016001487047000000030050016820291C
:108EF00002D24FF0A040704701F01F01016001480D
:108F000070470000000300500168202902D24FF092
:108F1000A040704701F01F01016001487047000048
:108F2000000300500168202902D24FF0A040704792
:108F300001F01F010160014870470000000300506C
:108F40000168202902D24FF0A040704701F01F01B4
:108F500001600148704700000003005001B56846F9
:108F6000FFF7E0FF009A01219140C0F8081508BD05
:108F700001B56846FFF7E4FF009A01219140C0F86F
:108F8000081508BD38B501240090684631B1FFF7D7
:108F9000ADFF00998C40C0F8084538BDFFF7A6FF2B
:108FA00000998C40C0F80C4538BD00001CB5094C38
:108FB0000144D4E90034CDE900346C4606E000BF3A
:108FC00054F82030D3F81035401C08C28142F7D83D
:108FD0001CBD000098A50200034908B50844002103
:108FE00001600068009008BD0060004002494058E0
:108FF000012800D00020704700600040064910B5ED
:1090000000204870091D0860BFF35F8F03490448C2
:1090100000F02EF9002010BD502B0020F0A502001A
:10902000883B002008B500208DF800006846FDF759
:1090300057FFF1EE100A20F09F00E1EE100ABFF397
:109040005F8F08494020C1F880029DF80000FDF7BD
:109050006BFF00F0E9F808B141DF08BD20BF40BF59
:1090600020BF08BD04E000E0FDF75ABD20B1034970
:1090700009680160002070470E20704774A6020046
:10908000FEB506460D460846FFF7F0FF002844D11E
:10909000002400940194012706208DF80060ADF8AB
:1090A000040002948DF80270694620202A6869DF66
:1090B00000948DF801708DF80240019402948DF8AF
:1090C0000340694640202A6869DF00948DF80060FB
:1090D000F720ADF8020001940294694623202A6823
:1090E00069DF0094019402948DF8007069460120B4
:1090F0002A6869DF4FF4B0600090019402946946D9
:10910000A1202A6869DF0094019402948DF8004040
:109110006946A0202A6869DF0020FEBD60DF0028C4
:1091200002D1024A01211170704700005F2B00201C
:1091300030B51548ADF5017D0078002821D04FF4F9
:10914000FA7500BFADF8005280A9684661DF38B1FA
:10915000052816D00DF5017DBDE83040FDF7E0BCD7
:109160006C460A497DA800F083F806E0D0E90021AA
:10917000204690477DA800F092F87F980028E1D023
:10918000F4E70DF5017D30BD5F2B002078A60200CD
:109190007CB5194C207808B108207CBD0120A07056
:1091A000002000F0F9FC112819D0002000F00CFD7F
:1091B00012480026006801908DF800606846FDF7AF
:1091C0008FFE0F4901A810DF05000AD00020207093
:1091D0009DF80000FDF7A8FE2DB128467CBD0020BB
:1091E0007CBD0120F3E7A670667000F087FD0120CA
:1091F00000F0EAFCF3E700005C2B00200CA6020064
:10920000F16A02000EB50749684600F031F805E042
:10921000D0E900108847684600F041F8029800281D
:10922000F6D10EBD28A60200014800787047000064
:109230005C2B00201FB568464BDF30B1052814D0E9
:1092400004B0BDE81040FDF76BBC084901A800F070
:109250000FF806E0D0E900210098904701A800F03F
:109260001EF803980028E6D0F4E71FBD94A602007C
:10927000016009684160AFF3008010B5D0E90021BA
:109280005368994201D1002104E0D1E90034A3429E
:1092900002D01946816010BD08314160F0E7816855
:1092A00000290BD0026892680A44826041684B68CA
:1092B0009A4203D108314160FFF7DFBF7047405841
:1092C000002800D00120704708B5002242504058C5
:1092D000009008BDD0F80403084000D0012070477A
:1092E0004058002800D00120704708B500224250A5
:1092F0004058009008BD000008480068012110F0A7
:10930000010F06D14FF0E020C02280F80024C0F801
:1093100000110349012008607047000000E100E0EF
:10932000180500400649024600200B790BB1852044
:1093300070470A6001220A7100224A7170470000DA
:10934000002B002004490120086004480168C1F393
:1093500000410029FAD170470C0000401804004079
:10936000002802D00149800108477047B1A50200DA
:109370000121B1EB507F01D10120704700207047DF
:1093800038B50D4600F040FB040014D000208DF8E5
:1093900000006846FDF7A4FD207928B19DF8000083
:1093A000FDF7C2FD112038BD0120256020719DF818
:1093B0000000FDF7B9FD002038BD0000014902485A
:1093C00000F08ABE003A0020002000402DE9F04164
:1093D0000546007916460F4600EB40012C4A01EB8A
:1093E000C00102EB810494F82A1011B10820BDE8F5
:1093F000F081284951F820102868FFF7C1FF08B113
:109400001120F4E739462846FDF7A8FD6660386963
:10941000206030004FF001062DD03F7F4FF48E7159
:109420002868FFF751FF4FF4A2712868FFF74CFF3F
:1094300028681949C0F8041328684FEA471140F317
:109440000730002806DA00F00F0000F1E02080F875
:10945000141D03E000F1E02080F80014286840F3B8
:10946000073000F01F0106FA01F14009800000F109
:10947000E020C0F8001128680421C0F80015002081
:10948000A061E06184F8290044F8140FA675AEE7E6
:10949000003A0020A0A50200800002002DE9F05F44
:1094A000054600794FF4017600EB400303EBC00062
:1094B000344B03EB80040020636813B12B68C3F8BE
:1094C0000863A3694FF000096BB1E06938B16068C7
:1094D00010B12868C0F804631120BDE8F09FE26174
:1094E0000120216105E0C4F82490A261E160C4F884
:1094F0001C9094F82910014302D1284600F013FB78
:1095000060680028286803D0C0F804630020E4E7FE
:109510004FF4A2763146FFF7D7FEB2464FF4927B66
:1095200059462868FFF7CBFE06464FF48471286839
:10953000FFF7C5FE804651462868FFF7C0FE074684
:1095400048EA07003043EBD056EA070007D121462E
:10955000286800F0B9FAA169606A8142E0D8C4F8CD
:1095600018900EB10320B8E70FB10F20B5E794F8BB
:10957000291001200029296801D00860C6E7486049
:10958000C4E70000003A00202DE9F04705460079C5
:109590000B4600EB400101EBC000234901EB8004C6
:1095A000284600F043F810B11120BDE8F0874FF0D5
:1095B0000008C4F82080A360626184F828804FF41A
:1095C0008E76474631462868FFF77EFE28684FF0C2
:1095D0000109C0F808902146286800F0C5FC6068C1
:1095E00000BBD5F800A00EE094F8280008B10F27C2
:1095F00016E031465046FFF762FE0028F4D02146BF
:10960000504600F0B1FC216A60698142F1D33146D5
:109610002868FFF754FE0028F9D02868C0F80C909D
:10962000C4F814803846C0E7003A0020007900EB07
:10963000400101EBC000044901EB800040690028B3
:1096400000D0012070470000003A00200149024884
:1096500000F0EEBD2C3A0020002000402DE9F04142
:109660000546164600790F46154A00EBC00102EB8D
:10967000810494F8201011B10820BDE8F08111494F
:1096800051F820102868FFF77BFE08B11120F4E79D
:1096900039462846FDF79DFC6660386920601EB19A
:1096A000397F2846FEF7D4FE28680821C0F8001547
:1096B0000020A061E0616061012184F82010DCE7F6
:1096C0002C3A0020A4A502002DE9F05F04460079A1
:1096D0000E4600EBC001DFF8F0A017460AEB81054B
:1096E0003046FFF745FEB0B168684FF000084FF410
:1096F000047910B12168C1F80893A8694FF0000BF4
:1097000080B1E86948B1686810B12068C0F8049376
:109710001120BDE8F09F1020FBE7EF614FF001083A
:109720002E6102E0EE60C5E9067B00254FF48871EA
:109730002068FFF7DAFD4FF4A2712068FFF7D5FD2E
:109740002068C0F83465C0F838752068B8F1000F9B
:1097500012D0D0F8001241F02001C0F80012207998
:10976000D04600EBC0010AEB8100406838B12068A8
:10977000C0F804932846CCE701210160EFE74FF4DD
:10978000887A4FF4A27951462068FFF7A9FD074671
:1097900049462068FFF7A4FD06464FF49271206801
:1097A000FFF79EFD014647EA06000843EBD0227909
:1097B00002EBC20308EB8302C2F818B001B1032523
:1097C000002ED7D00F25D5E72C3A00202DE9F04701
:1097D00004460E460079204900EBC00001EB8005ED
:1097E00017463046FFF7C4FD30B1204600F036F88A
:1097F00020B11120BDE8F0871020FBE76F61AE605B
:109800004FF49076002731462068FFF76EFD4FF445
:10981000AC7841462068FFF768FD2068AA6869694E
:10982000C0F84425C0F848152068012181606868A7
:1098300078B9B14649462068FFF752FD06464146D1
:109840002068FFF74DFD0643F4D000B10F2700203C
:1098500068613846CEE700002C3A002000790549BF
:1098600000EBC00001EB80004069002800D001201F
:10987000704700002C3A002010B5044600780028FC
:1098800018D1A28A0C482169FCF788FD0B49207D7C
:109890000B4A087000210846FDF776F9A18A206975
:1098A000084410F8010C0D2804D10A20FDF7EEFA47
:1098B0001128FAD010BD000018380020A02A00207E
:1098C0005564020010B550B103280CD10220FEF7F8
:1098D00069FA002807D0BDE81040FDF721B9BDE8BE
:1098E000104000F0EBB910BD0078002807D1044803
:1098F0003B21808876DF002801D0FDF711B9704741
:10990000A02A0020F0B58BB0002601960D46044633
:109910008988406901AAFDF797FB0AA8CDE908608C
:109920000227ADF82070ADF82260218AA88808AA25
:10993000ADDF002819D1A069002816D00998FEF7DC
:109940004FF9002811D0019E0EB10120307018216E
:1099500002A8FCF73CFD8DF808700394A888ADF8C8
:1099600010000596A16902A888470BB0F0BDF0B5BC
:1099700087B00C4605468E1D8988406906AAFDF70A
:1099800063FB18216846FCF722FD0195A088069A22
:10999000ADF80800039231882B89002704F11200EA
:1099A000994202D17389022B0DD0AA8991421ED10E
:1099B000A96900291BD08DF8007004907089ADF85A
:1099C0001400A96911E0002A11D0FEF709F920B1AD
:1099D000069901200870022002E006980770032013
:1099E0008DF80000A969002901D06846884707B0B2
:1099F000F0BD0068012805D0022803D0042801D05A
:109A000000207047012070470349884201D1034874
:109A1000704700207047000000200040082B002005
:109A20001CB5134C01AA6946A0888EDF9DF804106E
:109A300010A0FCF765FF9DF80000404241B28DF890
:109A400000100FA0FCF75CFF9DF9000000213228F8
:109A500009DDA078052801D2401CA070C0B20428FE
:109A600002D961701CBDA170012060701CBD000096
:109A7000A02A002043485F69643A2025640D0A004B
:109A8000727373693A2025640D0A000070B50126CF
:109A900070044FF0E0210025C1F88001084C40100F
:109AA000C4F84803C4F8080366602F20FFF758FC89
:109AB000A660044C2F20A560FFF752FCA57070BD76
:109AC00000100140202B002070B5054688690C4627
:109AD00000284FF4847128460AD0FFF7F5FBD5F82B
:109AE0001805626AE1688854606A401C606270BD53
:109AF000FFF7EAFBD5F8180570BD1FB501238DF8F7
:109B00000030CDE90121D0E90012684690471FBD21
:109B10001FB501238DF80030CDE90121D0E90012F5
:109B2000684690471FBD10B5044600684FF4927117
:109B3000FFF7CAFB4FF484712068FFF7C5FB20686C
:109B40000121016010BD000038B50021012548B198
:109B500001280CD0032809D1FFF7CEFBBDE838401F
:109B6000FFF7DAB84FF0E020C0F8805138BD8DF82B
:109B700000106846FDF7B4F9064C207808B9FFF7E5
:109B8000AFF8E068401CE060A5709DF80000FDF7AC
:109B9000CBF938BD803900203EB5044609496846F6
:109BA000FFF766FB08E000BFD0E9002120469047A0
:109BB00030B16846FFF773FB02980028F4D13EBD30
:109BC00011203EBD10A602003EB504460849684675
:109BD000FFF74EFB07E000BFD0E900212046904789
:109BE0006846FFF75CFB02980028F5D13EBD0000F7
:109BF0001CA6020002498969002900D00847704765
:109C0000EC3800202DE9F0410746806A144688466A
:109C1000C8B3002531E000BFB96A05EB450001EB90
:109C20008006B088801CFE2802D90C20BDE8F08197
:109C30002288401C08F8020020881622401C80B2AE
:109C4000208008F800202088401C80B2208000EB93
:109C50000801308800F065FB2188084480B220802C
:109C6000B28842B1B16871B14044FCF797FB2088DB
:109C7000B188084420806D1CEDB297F82C00A842F2
:109C8000CAD80020D2E7FFE70720CFE70A780628E6
:109C900022F0FF020A7010D2DFE800F00305070986
:109CA0000B0D002008E0112006E0212004E0312007
:109CB00002E0122000E022200870704710B500205A
:109CC000FEF770F808B1FCF72BFFFDF7F1FF08B1C4
:109CD000FCF726FF33DF002803D0BDE81040FCF777
:109CE0001FBF10BD002805D1034901204870002086
:109CF000FEF71CBA704700008039002010B516200E
:109D0000FCF71EFEA0B1114890F800044009082895
:109D100011D20121814011F0EC0F0CD00C48826867
:109D20004FF480016AB1016841F48001016010BD07
:109D300042F2010001E042F20200BDE81040FCF7EF
:109D4000EFBE4FF0E020C0F8001110BD16E000E0BB
:109D50007C3B002038B50D4841780D20009001244F
:109D6000684631B1FFF7B4F800998C40C0F80C4553
:109D700038BDFFF7ADF8D0F80415009A944024EAF6
:109D80000102C0F808250C40F0E70000A02A0020DE
:109D90002DE9F84F1D4C00256846D4E901A6FEF7D1
:109DA000D7FA002738B30023009A61681CE0D1F885
:109DB00000C00846944503D9ACEB02020A6015E0E6
:109DC000A2EB0C0263440760D0F80CC0C169814665
:109DD000BCF1000F08D006EB030828F07F48C0E96B
:109DE000018CC9F81C5005460029E0D12846616065
:109DF000FEF7B2FB03E02846FEF7AEFB10B150467B
:109E0000FEF7B6F9E770BDE8F88F0000202B0020C0
:109E10000D4B10B5596831B102680C68A24204D8E4
:109E2000A21A0A60C161586010BD0B4603E00B46E0
:109E3000C969121B21B10C689442F8D3A41A0C60B2
:109E40000260C161D86110BD202B00202DE9F041D6
:109E5000144E77683D462C4603E0844204D02546E4
:109E6000E469002CF9D11BE0D4B1A5420BD1F8690B
:109E7000706040B90C49012088600021B160F07029
:109E80002F20FFF76DFA2168E069E86110B10268E0
:109E9000114401607068874202D00120BDE8F08162
:109EA0000020FBE7202B0020001001407CB5064677
:109EB00000240D468DF800406846FDF711F801A812
:109EC00000F086FA70B10570094946609DF80400FB
:109ED00048709DF80000FDF727F81420FCF7BEFB42
:109EE00020467CBD04249DF80000FDF71DF8F7E72F
:109EF000503A00202DE9F041194D6C68002C2CD00F
:109F0000184800270068A968B846401A20F07F4624
:109F10002068B0420CD82146361A0744E469087C10
:109F200020B181F81080886949698847002CEFD1F9
:109F300029786878814206D1401CC0B26870022836
:109F400001D185F80180064869780C3040F821700D
:109F5000BDE8F0411420FCF781BBBDE8F0810000B2
:109F6000202B00200415014070B50C4605464FF427
:109F70008E71FFF7A9F9216AA068415C206A401C34
:109F80002062C5F81C1570BD1FB500228DF8002099
:109F90000291816801914261D0E9001268469047C0
:109FA0001FBD000038B5017841B1012901D0022957
:109FB00025D14068BDE83840FCF7B2BD114C1048CF
:109FC000E1780844FCF7F6FEE078401CC0B2E0708F
:109FD000072814D3E078ADF800000A48A3886A4641
:109FE00007490C30FDF726FD082806D01328F1D0CC
:109FF000052802D008B1FCF793FD0020E07038BDC1
:10A00000A42B0020A02A00207CB50178244D81B328
:10A0100001290BD002292BD18DF80010C068691CD2
:10A0200001900122C81DFEF7C3FE2EE040680178B2
:10A030001C48FCF79BFD1B4C012618B18DF80060F5
:10A04000019006E0A068E168814205D000208DF80B
:10A050000000696868468847A068E168081AA18816
:10A06000884207D80E490122491CC81DFEF7A0FEF0
:10A070007CBD01E0AE70FBE70A4809491030FCF7EF
:10A080005AFD30B103208DF80000696868468847A2
:10A09000EEE70349012201F10800FEF799FEE7E728
:10A0A000342B00205C3B00201FB50A4601788DF858
:10A0B000001041680191017A8DF80810C068039082
:10A0C000044850F82210083850F82220684690477B
:10A0D0001FBD0000F82A00202DE9FF470C46054669
:10A0E0004FF40071FFF7F6F801274FF401780026CE
:10A0F00018B34FF4927949462846FFF7E0F8E0B1EB
:10A1000049462846FFF7E0F8C5F8088394F8290087
:10A1100000B96F6002208DF80000D5F88004C5F802
:10A1200080040390A0690290E0680190A661E66156
:10A13000D4E900126846904728E004212846FFF73A
:10A14000C9F818B34FF484712846FFF7B8F8E8B19E
:10A1500021462846FFF7B8FC616AA069884215D1FC
:10A16000E06938B1E268616AA0612069E66166620F
:10A17000E06008E094F8290000B96F60C5F8088332
:10A18000A661E268616A2046FFF7B7FC4FF48E785B
:10A1900041462846FFF793F878B1206A6169884202
:10A1A00002D294F8280020B341462846FFF78CF8E5
:10A1B000616911B12046FFF7E7FE4FF4A2784146EE
:10A1C0002846FFF77CF8002818D041462846FFF7BC
:10A1D0007BF894F8290000B12F60A06900280DD009
:10A1E000A661E268616A04B02046BDE8F047FFF767
:10A1F00084BC21462846FFF7B7FEDEE7BDE8FF87AF
:10A200001FB50A4601788DF8001041680191017A66
:10A210008DF80810C0680390044850F822100838E0
:10A2200050F82220684690471FBD0000F82A002001
:10A230002DE9FF410C464FF4927706463946FFF769
:10A240004FF80025B8B139463046FFF74EF80220E6
:10A250008DF80000D6F88004C6F880040390D6F884
:10A260003C050290E0680190A561E561D4E9001227
:10A270006846904723E04FF4887739463046FFF729
:10A280002FF8E0B139463046FFF72FF8D6F83C15E5
:10A29000A069884213D1E06960B1E268D6F8000293
:10A2A00020F02000C6F80002E069A0612069E561A5
:10A2B000E06001E0A561E2682046FFF729FC4FF469
:10A2C000A27739463046FFF70BF868B13946304679
:10A2D000FFF70BF8A06938B1A561E561D6F83C1528
:10A2E0002046E268FFF714FC4FF490773946304679
:10A2F000FEF7F6FF002812D039463046FEF7F5FF8C
:10A30000606900280BD0D6F84C058DF800500290FB
:10A31000A06801906561D4E9001268469047BDE8E5
:10A32000FF810870000A487002207047F8B50546A2
:10A3300080B2FEF783F8040013D0154E207A002770
:10A34000317B88420ED2A8B204F10A0175DF28B130
:10A35000112806D0BDE8F840FFF74CBC207A401C1D
:10A360002072F8BD2772307C38B1A8B23B2176DF6D
:10A3700018B1082801D0FFF73DFC71690029F0D021
:10A380008DF80070ADF8025068468847F8BD0000AF
:10A39000EC380020417939B190F8521221B990F887
:10A3A000540208B1012070470020704730B40446C1
:10A3B000007A00280AD06088002166DF28B11128C1
:10A3C00002D0616830BC08470120207230BC704761
:10A3D0000A494A788B78521CD2B2934200D10022AB
:10A3E0000B78934201D1002070470270487800EB4F
:10A3F000400001EBC000001D70470000503A0020F3
:10A400002DE9FC411646DDE90854CDE900541F460C
:10A410008046022200F00CF8002807D1CDE9005454
:10A420003B4610223146404600F002F8BDE8FC8170
:10A430002DE9FC5F0026DDE90C4B994692468E46DD
:10A4400080462788354630E0D8F80400002200EB2B
:10A45000850069460068019001A864DF002830D1BA
:10A460009DF8000050451FD10EB1002100E00221EF
:10A47000228808441118594522D846B9521C90B276
:10A48000208009F800E02088401C208001262188D7
:10A4900001A801EB0902694664DF002811D1208878
:10A4A0009DF80010084420806D1CB8F80000A842F8
:10A4B000CADC56B12088C01B401E80B2FF2802D9DA
:10A4C0000C20BDE8FC9F09F807000020F9E7000018
:10A4D00010B504281DD209B1032400E00024FDF7C3
:10A4E00083FB202802D24FF0A04102E00A4900F08D
:10A4F0001F0001EB8000D0F8001721F44031C0F8B4
:10A500000017D0F8001741EA0441C0F800170020F6
:10A5100010BD062010BD000000030050642B002079
:10A52000842B002008000000060000000500000049
:10A53000070000000000000000E0D7010D0E0F1022
:10A540000B0C18194C3800206C380020983800206B
:10A550000B000300D17C02000C000300D17C020040
:10A5600018000300D17C020019000300D17C020016
:10A57000770A000000000000770A000000000000D9
:10A580007ADA0000000000009ECADC240EE5A9E093
:10A5900093F3A3B50000406E00000050000300508C
:10A5A000BD9302004D960200000000000000000074
:10A5B0000338FDD870470000FFFFFFFFFFFFFFFFDC
:10A5C000FFFFFFFFFFFFFFFF000000000000000093
:10A5D0000000D6010601000000000000000000009D
:10A5E000000000000000000000000000000000006B
:10A5F000D8A50200F0A50200040000000000000041
:10A600000000000000000000000000000100000742
:10A61000FCA502000CA602000800000034A60200FF
:10A6200044A602000800000044A6020054A602004E
:10A630000800000020A7020028A702000000000078
:10A640000000000010A7020020A702000000000088
:10A6500000000000C0A60200C8A60200C8A60200B2
:10A66000E8A60200E8A60200F8A60200F8A602008A
:10A6700000A70200982A002054A6020074A6020037
:10A680000800000000A7020008A7020008A70200B7
:10A6900010A7020084A6020094A602000800000091
:10A6A00028A70200982A0020CC00000020690200A0
:10A6B000F4A70200642B002034300000306902004F
:10A6C00031790200000000005D8A0200A035002000
:10A6D0006F730200C0350020C57702000000000043
:10A6E0003578020000000000717B0200AC2A0020D7
:10A6F0000B8C0200B4350020F97602000000000047
:10A70000E59C020000000000D9730200C035002063
:10A7100031910200000000003592020000000000AC
:10A72000499B020000000000C82A0020010004002C
:10A7300000000000FFFF1400010002000000000004
:10A740000000000000000000000000000000000009
:10A75000982A002000000000000000000000000017
:10A7600000000000000000000000000000000000E9
:10A7700000000000000000000000000000000000D9
:10A7800000000000000000000000000000000000C9
:10A7900000000000000000000000000000000000B9
:10A7A00000000000000000000000000000000000A9
:10A7B0000000000000000000000000000000000099
:10A7C0000000000000000000000000000000000089
:10A7D00000200040000000000020004000000000B9
:10A7E0000000000000000000000000000000000069
:04A7F0000090D00302
:040000050002620192
:00000001FF
