:020000040002F8
:1060000000530020F96202000163020003630200F2
:10601000056302000763020009630200000000003C
:106020000000000000000000000000000B63020000
:106030000D630200000000000F6302001163020004
:10604000E966020013630200DD69020013630200C7
:106050001363020013630200D164020013630200A1
:106060001363020013630200136302001363020050
:106070001363020013630200136302001363020040
:10608000136302008D6702001363020013630200B2
:10609000F767020013630200FB670200136302004C
:1060A0001363020013630200136302001363020010
:1060B00013630200136302000000000000000000F0
:1060C00013630200136302001363020013630200F0
:1060D00013630200136302001363020013630200E0
:1060E0001363020013630200136302000000000048
:1060F00000000000136302000000000013630200B0
:10610000000000000000000000000000000000008F
:10611000000000000000000000000000000000007F
:10612000000000000000000000000000000000006F
:10613000000000000000000000000000000000005F
:10614000000000000000000000000000000000004F
:10615000000000000000000000000000000000003F
:10616000000000000000000000000000000000002F
:10617000000000000000000000000000000000001F
:10618000000000000000000000000000000000000F
:1061900000000000000000000000000000000000FF
:1061A00000000000000000000000000000000000EF
:1061B00000000000000000000000000000000000DF
:1061C00000000000000000000000000000000000CF
:1061D00000000000000000000000000000000000BF
:1061E00000000000000000000000000000000000AF
:1061F000000000000000000000000000000000009F
:10620000DFF80CD000F0FEF800480047D586020009
:106210000053002030B4044654E8000F0D4644E813
:106220000053002BF8D1156030BC704730B40446E1
:1062300054E8000F40EA010544E80053002BF7D171
:10624000156030BC704730B4044654E8000F00EAD3
:10625000010544E80053002BF7D1156030BC7047AE
:1062600030B4044654E8000F80EA010544E80053C6
:10627000002BF7D1156030BC704730B4044654E8A9
:10628000000F00EB010544E80053002BF7D1156027
:1062900030BC704730B4044654E8000FA0EB010551
:1062A00044E80053002BF7D1156030BC704770B440
:1062B00004464FF0000054E8006F0D68AE4207BF7F
:1062C00044E80023012044E800630E60002B1CBF5B
:1062D0000020F0E770BC704730B4044654E8000F6B
:1062E00088422CBF451A054644E80053002BF5D1DF
:1062F000156030BC704700000648804706480047DC
:10630000FEE7FEE7FEE7FEE7FEE7FEE7FEE7FEE765
:10631000FEE7FEE701680200016202002DE9F05F7E
:106320000546002092469B46884606468146402404
:106330001BE0284641464746224600F053F85346A4
:106340005A46C01A914110D311461846224600F011
:1063500016F82D1A67EB01084F462246012000214E
:1063600000F00DF817EB00094E41201EA4F10104C6
:10637000DFDC484631462A464346BDE8F09F202AE6
:1063800004DB203A00FA02F1002070479140C2F18C
:10639000200320FA03F319439040704740EA0103B9
:1063A0009B0703D009E008C9121F08C0042AFAD2CB
:1063B00003E011F8013B00F8013B521EF9D270478F
:1063C000D2B201E000F8012B491EFBD27047002237
:1063D000F6E710B513460A4604461946FFF7F0FFE4
:1063E000204610BD202A04DB203A21FA02F00021C9
:1063F000704721FA02F3D040C2F1200291400843D5
:1064000019467047064C074D06E0E06840F001036E
:1064100094E8070098471034AC42F6D3FFF7F4FE37
:10642000909D0200B09D020070B50D460646052401
:1064300001232A463146182001F04EFF002804D0DF
:10644000641E14F0FF04F3D1012070BD38B5054679
:1064500005248DF8001001236A462946182002F011
:1064600003F8002804D0641E14F0FF04F3D10120C7
:1064700038BD08B569460920FFF7D6FF9DF8000032
:1064800000F00400800808BD70B5064D0024A01C73
:106490002919C0B2FFF7C8FF641CE4B2062CF6D37A
:1064A00070BD0000DC2A002070B50024064D074EA8
:1064B00003E0305D00F036FC641C28788442F8D399
:1064C0000020287070BD0000A02A0020642F00204A
:1064D0002DE9F04F00268DB0DFF8A081B14604967B
:1064E0004FF48075012437460596284602F00AFDD0
:1064F00038B1D8F80403204203D0284602F0F8FC53
:1065000026432D1D64007F1CADB2082FEDD34FF440
:10651000BE74204602F0F6FC48B1204602F0E8FCCA
:1065200046F0004604AA0221002002F0CBFC544CA5
:1065300016F0FF0F15D00127002537420DD008EBCC
:106540008501D1F81005D1F81015C0F3052054F8D5
:106550002520C1F3014102B190477F006D1C082D39
:10656000EBD3002E7EDA0020CDF82890411E0DF1ED
:10657000100B07AACDF82C9042F82010401C914631
:106580000228F9D300252E46A11911F8607F91F950
:10659000000027F0C008401C40D007A9404602F088
:1065A0003CFA40B34FEA971A404601F043FC54F8D6
:1065B00020701FB1BAF1030F03D006E0BAF1030F48
:1065C0002CD10AA9404602F030FA02A8CDF8088082
:1065D00002F042FC029900EB8100D0F8000704A908
:1065E000C0F301400290404602F017FA00280298DA
:1065F00002D0022802D011E003280FD1BAF1030F14
:1066000008D10298022833D00221404602F0E6FB6E
:106610006D1CEDB217B151464046B847761C042EAA
:10662000B2D3002D21D001AA0221002002F04AFCA1
:1066300000205A460DF1040152F8206051F8203034
:10664000B34217D000200AAE4FEA090351F8207078
:1066500042F8207056F8207043F82070401C022841
:10666000F4D300E001E0002D8CD10DB0BDE8F08F37
:106670000321CAE7401C0228DED3F6E70060004091
:10668000FC30002000F01F020121914040098000F1
:1066900000F1E020C0F88012704700F01F020121D5
:1066A00091404009800000F1E020C0F800117047DF
:1066B00000F01F02012191404009800000F1E0201C
:1066C000C0F8001270474907090E002806DA00F0EA
:1066D0000F0000F1E02080F8141D704700F1E02069
:1066E00080F80014704700002DE9F0414FF48076E7
:1066F000304602F0F3FA234CB50560B1304602F0A3
:10670000F4FA0120C5F80803607920B9012060710E
:106710002168002088474FF48276304602F0DEFA86
:1067200040B1304602F0E1FA0220C5F808032168C2
:10673000012088474FF48876304602F0CFFA40B106
:10674000304602F0D2FA1020C5F808032168022072
:1067500088474FF48677384602F0C0FA00280ED0FA
:10676000094800260660384602F0BFFA0820C5F83E
:106770000803A6712168BDE8F04103200847BDE881
:10678000F0810000182B0020340C00400748002145
:10679000C0F84011C0F84411C0F84811C0F84C11BD
:1067A000C0F80011C0F8041103F004B90010014052
:1067B000F8B54FF4FA750D2002F006FB0C2002F03C
:1067C00003FB0C2002F061FB0D27012668460097B1
:1067D00002F026FBD0F80415009A06FA02F424EA27
:1067E0000102C0F808250C40C0F80C456D1E2D04B0
:1067F0002D0CEBD1F8BD03F02BB802F08FBC0000DC
:1068000030B54FF0805000228300D0F83011C3F82B
:106810000C21C3F81021624B1A60624B1B68624C5A
:106820002360604B1B1D1B68241D23605D4B0833D8
:106830001B68241D23605B4B0C331B68241D2360E5
:10684000584B10331B68241D2360564B14331B68B0
:10685000241D2360534B18331B68534C2034236092
:10686000504B1C331B68241D23604E4B20331B6888
:10687000241D23604B4B24331B68241D2360494B8C
:1068800028331B68241D2360464B2C331B68241DB2
:106890002360444B30331B68434C40342360414BEE
:1068A00034331B68241D23603E4B38331B68241D82
:1068B00023603C4B3C331B68241D2360394B403321
:1068C0001B68241D23600123082902D1D0F834411C
:1068D00014B1082904D006E0354C3449216005E0A4
:1068E000D0F8344114B1082904D006E0314CFB2122
:1068F000216005E0D0F8344114B1082908D00EE039
:1069000090F858422C48016864F30301016002E0EA
:10691000D0F834411CB929494FF400700860284868
:106920000168C90702D06FF00101016025480168C4
:1069300041F470010160BFF34F8FBFF36F8F4FF0D1
:106940001021D1F80002002803DBD1F8040200284E
:1069500022DA1D4C23601D480368002BFCD0122353
:10696000C1F800320568002DFCD0C1F8043201687E
:106970000029FCD0226001680029FCD0BFF34F8FB2
:1069800010487C380168124A01F4E061114301604B
:10699000BFF34F8F00BFFDE70F490E48086030BDC1
:1069A000380500400404001020C500404881030061
:1069B0008C56004018F50040E40E0040409602401E
:1069C0000004004088ED00E004E5014000E40140DF
:1069D0000400FA050090D003742B002001480068E1
:1069E00000470000202B002002E008C8121F08C149
:1069F000002AFAD170477047002001E001C1121F40
:106A0000002AFBD1704700000121202803DA8140D1
:106A10000548014003E0402802DA2038814009B1EE
:106A20000120704700207047FC06FFBD10B5012211
:106A30000221002001F0E8F808B1072810D1072250
:106A40000221012001F0E0F808B1072808D1002157
:106A50000A22084601F0D8F808B1072800D1002022
:106A600010BD000010B50321044800F08CFB002885
:106A700003D0BDE8104000F01BB810BD0C2D002065
:106A800072B609480068C00700D000BEBFF34F8F40
:106A90000548E4380168054A01F4E06111430160EA
:106AA000BFF34F8F00BFFDE7F0ED00E00400FA05F3
:106AB0000EB500210091CDE901106A4644F20100B3
:106AC000FFF7DEFF0EBD10B58268C368934203D0A6
:106AD00001F0B2FB002010BD052010BD10B582688A
:106AE000C3689A1A83889A4203D801F0AFFB00204A
:106AF00010BD042010BD00002DE9F84F254C814643
:106B0000924660880E46814241D800274FF6FF78B2
:106B10008DF80070684600F02FF922786078A1881F
:106B2000884201DA401C00E00020C0B2904204D14B
:106B30009DF8000000F044F927E06578607888420D
:106B400001DA401C00E0002060709DF8000000F0B9
:106B500037F9454519D0A068B9F1000F40F835A0C4
:106B60000DD066B16188E068324605FB01004946F8
:106B7000FFF714FCA06800EBC500868002E000EB84
:106B8000C50087800020BDE8F88F0420FBE70920BE
:106B9000F9E70000282B002010B50E4C03E0401C44
:106BA00000E00020207020786178814210D02278A7
:106BB0006188E068A36802FB010003EBC20153F89F
:106BC0003220898890472078A1888842E9DAE6E770
:106BD00010BD0000282B002030B5CB0008339DB23B
:106BE00093074FF0000401D0072030BD044B9A609A
:106BF0002A44DA605C701C7058809980002030BD97
:106C0000282B0020074B9B7823B12AB120B10068C4
:106C1000037C1BB108207047072070474174426114
:106C200000207047B831002070B502F0AFFC10486A
:106C300000240B21047044700E4D817014206C6090
:106C40002C706C70FFF71EFD06211420FFF73BFD32
:106C50001420FFF722FD0848046006211120FFF7E9
:106C600032FD0548001F0068A860002070BD0000CC
:106C7000B8310020382B0020081501402DE9FC47D1
:106C8000DFF8789099F8023073B368B3052902D21F
:106C90000720BDE8FC87436933B3437C012B25D033
:106CA000002704460025884616468DF800506846A1
:106CB00000F062F801A802F01FFFC8B101210170C5
:106CC0000F4944600968C0E90218C0E904769DF8DC
:106CD000040089F801009DF8000000F071F814200C
:106CE000FFF7E6FC2846D4E70820D2E70F46D8E7AE
:106CF00004259DF8000000F063F8F3E7B8310020A8
:106D0000041501400649897839B130B1416921B192
:106D100000210174022102F029BE08207047000002
:106D2000B831002010B501461048FFF7D7FE040027
:106D300019D10F480F4A0178515C19B1001D02F0BA
:106D40004FFB02E00C3002F0F3FA60B90849074843
:106D50000839FFF7B8FE30B905490122083904485F
:106D600002F000F80446204610BD0000D432002096
:106D7000542B0020042B002030B5EFF3108172B6A5
:106D80000D4A9468012324B10370002900D162B632
:106D900030BD93604FF0E023D3F88051074C25407D
:106DA0001560C3F88041D3F8844154605A17C3F882
:106DB000842100220270E8E7E4320020FC06FFBDD7
:106DC0000B498A68002A11D000280FD1EFF31080F8
:106DD00072B60B684FF0E022C2F800314B68C2F87F
:106DE000043100228A60002800D162B6704700009A
:106DF000E432002070B51500044609D00020286058
:106E000034B1206820B1A079800703D0072070BD7D
:106E10000E2070BD084600F001FBC0B2142804D05B
:106E20002179814203D8042070BD052070BDE2881D
:106E3000216800FB02102860002070BD2DE9FC478E
:106E4000002517880646158090F82D0014468946BF
:106E500030B13A462146484600F0F4FA051E09D101
:106E6000B0784FF00C0A18B32088C846001DB8420D
:106E700002D95046BDE8FC87684679DF0028F9D181
:106E80002088032108F8001020881921401C80B2B6
:106E9000208008F800102088401C80B2208000EB81
:106EA0000801BDF8000002F0CFFD218808442080D1
:106EB000F0780222C8B1218896F9033001F1030C61
:106EC0004846BC45D5D8425421884FF0010C491C96
:106ED00089B2218000F801C02188491C89B2218033
:106EE00009F801302088401C20807068B8B12188E2
:106EF00090F9003001F1030C4846BC45B9D8425422
:106F000021880A22491C89B2218042542188491CC7
:106F100089B2218009F801302088401C2080308906
:106F200050B1CDE900474B460622022106F1080088
:106F300002F0FAFD051E9DD1308A50B1CDE900471F
:106F40004B460722032106F1100002F0EDFD051E5D
:106F500090D1308B50B1CDE900474B46152214211A
:106F600006F1180002F0E0FD051E83D1306A30B151
:106F70003B462246494601F0C4F8051EDBD1706A43
:106F800030B13B462246494601F096FC051ED2D15F
:106F900096F82C0038B13B4622464946304602F06E
:106FA00071FB051EC7D1307838B13B4622464946B1
:106FB000304601F0B3FC051EBDD128465AE718B58E
:106FC00004460020ADF8000013466A46204600F053
:106FD00006F8002802D0BDF80000204418BD70B5A6
:106FE00088B182B10024158803E0065D641C344436
:106FF000A4B2A54203D8061976789E4201D08C42ED
:10700000F3D38C4201D3002070BDA11C1180005D20
:10701000401E80B270BD80F8301070472DE9F047F7
:107020000D00044606D02CB195F87A000026012800
:1070300003D006E00E20BDE8F08795F898000128FF
:1070400021D04FF00109A6702C2205F17801201DF6
:10705000FFF7A4F984F83060D5F8A4006063D5F890
:10706000A800A0634FF6FF70A4F8480204F50D7065
:10707000C4F84402C4F84A62A4F84E6284F850622C
:10708000207810B104E00720D5E7FF2084F85400F1
:1070900004F15501C4F8341294F82400EE274FF09F
:1070A0001F08012833D0A4F8388200BF04F50E72FF
:1070B0002846FFF7C3FE0028BDD104F24311C4F8EF
:1070C0003C1294F82400012824D0A4F8408200BF88
:1070D00004F5107205F13C00FFF7B0FE0028AAD1BC
:1070E00084F85190208BA4F8480084F83C902664E2
:1070F00084F85060606960644D4604F13C020021F0
:1071000004F1540072DF002895D1257093E7A4F8AC
:107110003872CBE7A4F84072DAE710B50288102A7B
:107120001BD0112A20D0262A1DD1007A0C46012816
:1071300001D0022817D1A0780521401CB0FBF1F244
:1071400001FB1201204600F01EF800280BD0A16BB5
:10715000002908D0BDE810400847C27B012A02D1AF
:107160008088A1F8480210BD0C46002184F8521214
:107170008088B4F848128842F5D120790028F2D1ED
:107180000121DFE770472DE9F05F044600780F46E4
:1071900098B1A7700025C4F84A52A4F84E5284F85A
:1071A0005052A079012608B1012F09D0E07980B1B1
:1071B000012F05D0022F03D00BE00820BDE8F09F7F
:1071C000616B21B184F851620820884701E084F89E
:1071D000515204F24B2100200A5C0AB1304603E010
:1071E000401C0628F8D300204FF002084FF0030B94
:1071F000012F06D0022F0CD0032F0FD0042F15D152
:1072000010E0A17929B194F8241011B908B13046E1
:107210000DE0E17911B108B1404608E0207A08B1EB
:10722000584604E0607A08B1042000E02846A070C7
:10723000616B41B1032801D0042804D1607910B1F9
:1072400094F85202A0B184F8535204F13C00182182
:107250000746FFF7BCF804F12C0084F83C60814637
:1072600002F089F958B194F82C0084F8510008E034
:1072700084F8545284F8536207208847E5E784F87D
:10728000516094F8240050B1484602F074F920B1DE
:1072900094F8280084F8520001E084F8526084F8E1
:1072A0005050A27804F24A2104F50D794FF0060AF5
:1072B000052A62D2DFE802F07A030F22410084F847
:1072C0003160C4F84452C4E9101584F83C80802031
:1072D000A4F8480053E084F8318094F8242038461C
:1072E00012B10722027001E080F800B0228A828188
:1072F000C4F844524160E168B96040E06069B86038
:10730000208BB88194F824003D4610B184F83CA04D
:1073100001E084F83C60204602F0D0FB50B185F8D3
:1073200014800421204600F09AFF30BB052184F828
:10733000311020E084F831B01DE0E069B860208CA5
:10734000B88194F824003D4610B184F83CA001E0D7
:1073500084F83C60204602F0B1FB48B185F8148007
:107360000421204600F07BFF38B984F831A002E008
:10737000042084F83100C4F84492A07878B13A46E9
:1073800004F15400D4F8441272DF00287FF416AFE1
:1073900094F8301094F8540073DF0028F6D1616B34
:1073A00011B194F831008847002007E784F8315084
:1073B000F5E7000070B5040012D001461C22144805
:1073C000FEF7ECFF1248134D0560206850B17ADFDC
:1073D000002806D12068016829604068686005E0DF
:1073E0000E2070BD0B487BDF0028FAD108484FF60D
:1073F000FF711438084A20F8041B0549343901602C
:107400000021FFF7FFFB0028EBD0032070BD000038
:1074100054300020FC2A0020559A020010B5044682
:1074200000F006F808B1204610BD142010BD000081
:10743000142801D3002070470146014801F0CCBA5E
:10744000743000207CB5054608880C46093090420F
:1074500001D90C207CBD68466DDF0028FAD1218857
:107460000820685420881B21401C80B220802954A9
:107470002088401C80B220802844DDF80110016083
:10748000BDF8051081802088801D80B220809DF885
:107490000010490800D0012129542088401C208078
:1074A00000207CBDF8B50546008800262B4C21281D
:1074B0003BD00CDC2A4F102813D011282CD01328D5
:1074C00029D100231A46852160897FDF3BE03B28D4
:1074D0003FD0522832D056281DD1A888132176DFFC
:1074E00031E0072000F0B2FB08B1FFF7E1FAA9880C
:1074F00061811C4801F07AFB08B1FFF7D9FA01203D
:107500006070002240F28F217868FFF7B7FB08B166
:10751000FFF7CEFA2681F8BD4FF6FF7060816670E6
:107520007868BDE8F840FFF7EDBB0096A88869468B
:107530008FDF0028EFD0FFF7BBFAF8BD00231A4613
:1075400019466089B1DF0028F7D0BDE8F840FFF7A1
:10755000AFBAA888132176DFF5E70000A02A002043
:10756000449C0200002D002010B51A4C0188606870
:1075700010290ED011292BD1401E606028D1FFF7B1
:1075800055FA002824D02168002921D0BDE81040F8
:107590000847D0B900210122084600F035FB08B1A8
:1075A00007280FD107220221012000F02DFB08B18E
:1075B000072807D104220221002000F025FB20B17A
:1075C000072802D0216801B188476068401C6060CC
:1075D00010BD0000F42A00202DE9F04701883B4E41
:1075E00040F2F3194FF6FF7510291BD011293ED038
:1075F000122954D0502946D1C188F289841D914264
:1076000041D1618902293ED18688304600F052FF7F
:10761000050038D004F10C0000F0B4F9A8B32946F5
:1076200030464EE0C17B8788044601292BD1A8460D
:10763000284600F03FFF050017D02F800020287259
:10764000234843464A460168C5F80A104068C5F811
:107650000E0004F1100105F10A0000F035FF687218
:10766000F08900280FD129462AE0042013E0808801
:1076700000F020FF040006D06068FFF743FB08B16C
:1076800001F0F8FF2580BDE8F087FFE76868FFF7A5
:1076900039FB0028F7D0BDE8F04701F0EBBF878841
:1076A0000646384600F006FF0400ECD02B464A465A
:1076B00006F1080104F10A0000F006FF607221469D
:1076C0003846BDE8F04700F063BD000054300020AC
:1076D000FC2A00202DE9F04F0746858802883D48A6
:1076E000012197B08346102A09D0112A49D01A2ABD
:1076F0006CD1387AB1EB101F45D2012244E0354CF1
:10770000083CA068C0430B9061680BA801F079F9B0
:107710000B990CA800F0D6FC2C220CA96846FEF7A9
:107720003DFE0026E946A04610E000BF09EB4600FA
:107730005FF00004B0F804A008EB84005146001D7F
:1077400001F03FF9641C1D2CF6D3761C0098B04262
:10775000ECD8142D05D317B00420BDE8F04FFFF787
:10776000A7B92946584601F042F9294608F1040014
:1077700001F03DF9F87B012828D016482946001D64
:1077800015E029461AE000220221B1EB101F01D2B8
:10779000012600E000260F49083901F11000041D00
:1077A000294682B101F023F936B12946204617B0A7
:1077B000BDE8F04F01F01BB92946204617B0BDE8DF
:1077C000F04F01F0FEB801F0FCF8F5E717B0BDE8A6
:1077D000F08F000078300020F0B585B016460F46D7
:1077E00004001D4614D004AA19466069FFF702FB85
:1077F00000280BD1A5F57F40FF380BD0049848B185
:10780000007848B13088F42808D9072005B0F0BDC9
:107810000E20FBE70520F9E70820F7E7002000909D
:10782000019002900390A088ADF8000001208DF82F
:107830000200CDE9026769462846AEDFE6E70000B0
:1078400070B5334D04008EB02DCD08AE86E82D0006
:107850005BD0E9B30868A061214608A862DF002870
:1078600051D1207801258DF83200ADF83050A21C9E
:107870000CA92846A8DF002845D120216846FEF73C
:10788000A6FD0220ADF8000020788DF802008DF8EA
:107890000C509DF80D00F426ADF8046040F00C008B
:1078A0008DF81150ADF806508DF80D008DF812507E
:1078B000608804F10C02694600F0C4FA002822D165
:1078C00020216846FEF783FD0320ADF8000000E0AC
:1078D0001BE020788DF802008DF80C509DF80D000B
:1078E0008DF81150ADF8046040F010008DF8125082
:1078F000ADF806508DF80D008DF813506088221DEC
:10790000694600F09FFA0EB070BD0E20FBE7000044
:107910009C9C020070B588B00446002924D0002C3D
:1079200022D008462188102920D0502924D0572958
:107930001AD10546A188406906AAFFF75BFA00281C
:1079400012D1069E307800280ED018216846FEF726
:107950003EFD01208DF800000195A088ADF80800DB
:107960000396A9696846884708B070BD08B02146EB
:10797000BDE8704001F088BD08B02146BDE8704008
:1079800001F0B7BD007800F001007047B621142067
:10799000FEF75CBD38B504461F48006848B1032CAB
:1079A00009D0052C07D0082C05D00C2C03D0FE20C4
:1079B00038BD812038BD69460F20FEF735FD0546EC
:1079C000032C06D0052C0AD0082C16D00C2C0DD177
:1079D0001AE09DF8000020F00F00C01C04E09DF8A4
:1079E000000020F00F00401D8DF800009DF80010F1
:1079F0000F20FEF72BFD284438BD9DF8000020F035
:107A00000F0040F00800EFE79DF8000020F00F00A5
:107A100040F00C00E8E70000D82A0020124910B519
:107A200010480860FEF7C4FEFFF7B0FF0820FFF71C
:107A3000B1FF03212120FEF709FD0F212820FEF7C9
:107A400005FD00212720FEF701FD04211920FEF786
:107A5000FDFC07211620FEF7F9FC044901200870FF
:107A600010BD0000982F0020D82A0020A32A002053
:107A700010B556211120FEF7E9FC00211220FEF777
:107A8000E5FC02490020087010BD0000A32A002078
:107A90000149085C70470000549C0200094908B580
:107AA000085C0090684601F0C9F9D0F80425009BF5
:107AB0000121994021EA0203C0F808351140C0F8BD
:107AC0000C1508BD509C02000249085C012101F020
:107AD000E6B90000509C02000249085C002101F058
:107AE000DEB90000509C0200084908B5085C00900F
:107AF000684601F0A3F9D0F804050099C84010F0D9
:107B0000010000D0012080F0010008BD509C02005F
:107B100010B500242046FFF7D7FF641C042CF9D3CE
:107B200010BD10B500242046FFF7D6FF641C042CBE
:107B3000F9D310BD10B50246064B4FF0FF300021BF
:107B40005C5C944201D1084610BD491C0429F7D35E
:107B500010BD0000549C020010B5002000F066F932
:107B600008B1062806D1012000F060F908B1062806
:107B700000D1002010BD00002DE9F0470D468146E0
:107B8000FFF7D8FF0446042836D2DFF874801B487C
:107B90001C4EA8F10C0725B3012D0ED0022D2BD1C0
:107BA00004EB440030444578002D25D0B968002905
:107BB00022D02846BDE8F047084704EB4401755C35
:107BC0000E44717849B10E4A4FF40041093A806879
:107BD000FFF754F808B987F80390B17808F8041053
:107BE000E2E78068FFF78EF804EB4401314418F8AF
:107BF00004008D78A842D7D0BDE8F087589C0200D9
:107C0000F02A0020F42F002070B50023042810D2A1
:107C10000D4D00EB4004012A02D101290CD00022B5
:107C2000094E00EB4000304461B1012906D0022921
:107C300006D00723184670BD0E30C2B22A55F9E7A8
:107C40004270F7E78270F5E7F42F0020044A0146FE
:107C500000201279D20702D0084600F003B870471E
:107C6000E42A00202DE9F05F6E4C0546002660787E
:107C7000B34618B184F801B000F048FC6A4F4FF4E5
:107C80007A694FF4C87A4FF00108182D69D2DFE8FD
:107C900005F00C1313384754696E727B727BC584F0
:107CA00084848484B3B6B9BCC5C500F02FFC3868A1
:107CB000FFF728F806465CE00020FFF715FF0028D4
:107CC0004FF0000008D0FFF7FFFE022D02D14FF465
:107CD000E16008E0484606E0FFF7FEFE022D01D114
:107CE000C82000E05046410CC0034FF4FA728018DF
:107CF00041F10001257052000023FEF70FFB014601
:107D00002AE00020FFF7F0FE00284FF0000004D02A
:107D1000FFF7DAFE4FF44870E5E7FFF7DDFEDFE737
:107D20000020FFF7E1FE00284FF0000002D0FFF72F
:107D3000CBFECFE7FFF7D0FED4E70020FFF7D4FE5D
:107D400000284FF0000002D0FFF7BEFE01E0FFF771
:107D5000C3FE257041F69A1100223868FEF78EFFA7
:107D6000064646E00020FFF799FE257008E0002057
:107D700051E025703DE084F801800120FFF78EFE80
:107D8000002240F6CD41E8E784F801800120FFF7AA
:107D900085FE00224FF48041DFE77868FEF7B2FFEE
:107DA0000646D5F1110000D02EB10220FFF78CFE5F
:107DB00084F802B01DE0012816D980B2C8214843DA
:107DC000C117C90341EA5041C0034FF4FA72801849
:107DD00041F1000152000023FEF7A0FA0146002203
:107DE0007868FEF74BFF06460220FFF775FE84F821
:107DF00002803046BDE8F09F00F088FBB9E700F054
:107E000085FBB4E700F082FB04E000F07FFB00207C
:107E1000FFF762FE0120FFF75FFEAAE7FFF781FE92
:107E2000A7E70000E42A0020589C0200012101F08D
:107E3000E3BE00000249084490F93000704700009A
:107E4000FC3000202DE9F0438146887891B09046BF
:107E50000C4600B901208DF83E002088ADF83C00AA
:107E600000250095607C694601F050FC6E46A07CC0
:107E7000711C01F04BFCE07B00289DF8020002D051
:107E800040F0080001E020F008008DF80200217C9D
:107E900011B140F0100001E020F010008DF8020058
:107EA000217B11B140F0010001E020F001008DF8CC
:107EB0000200217D09B1022100E0012161F34200AD
:107EC0008DF802001C2102A8FEF781FA607BC10632
:107ED00001D4800617D50E950EAFE07C791C01F019
:107EE00015FC9DF83800079720F00F00401C20F08B
:107EF000F00010308DF838009DF83A0020F00600B0
:107F0000801C8DF83A00607B8DF80800A07B8DF80E
:107F10000900142109A8FEF75AFA0FA8CDE90906AD
:107F2000A088ADF83000A06820B1E088ADF82C0042
:107F3000A0680D90A06998B301950088ADF8100075
:107F4000A06901AD01A94088ADF81200A0694068A0
:107F500006950390A069007B01F0D8FBA069691C1D
:107F6000407B01F0D3FBA069807A00289DF80600D1
:107F700002D040F0080001E020F008008DF8060073
:107F8000A169C97A11B140F0100001E020F01000A1
:107F90008DF80600A169097A19B140F0010002E0EC
:107FA0000DE020F001008DF80600A169897B09B180
:107FB000022100E0012161F342008DF80600E06932
:107FC00000B10590434609AA02A94846AADF11B0AC
:107FD000BDE8F08370B5084C050009D01034216865
:107FE000002907D008682060496828468847F6E7D6
:107FF0000834F4E770BD0000E8300020054A012194
:1080000020B1012805D19170FFF7E4BF5170002025
:10801000FAE77047E83000202DE9F05F2648416814
:10802000F1B3DFF898B00E688146DBF8004087684E
:108030008078E11B21F07F45ED1CB0B9DFF880802E
:108040004FF48030C8F84403C8F804031120FEF749
:1080500019FB1120FEF721FB4FF0010AC8F800A020
:108060002F2001F003F989F802A0B54200D235466D
:10807000124BE8193C3320F07F401860DBF8001009
:108080005A46091B21F07F41001B20F07F40C91C8C
:1080900081420FD9106818602F2001F0E7F800E046
:1080A00004E0BDE8F05F1120FEF702BBBDE8F05F21
:1080B00001F06CBABDE8F09F382B00200415014098
:1080C0000010014073B58CB00646002000900D985A
:1080D00080B100246D4621460DA800F07DFC30B132
:1080E000009805EB400084800098401C0090641CC0
:1080F000142CF0D32C2269463046FEF74FF90EB00F
:1081000070BD2DE9F04117880646B81D14460D468E
:10811000984202D90C20BDE8F08131880722062957
:108120000AD34FF4486C4FF6FF73614501D9994269
:1081300002D17088062801D21046ECE7604501D9CB
:108140009842F9D1994203D0984201D08142F3D8A4
:108150000520E85520881221401C80B22080295437
:108160002088401C80B220804119308801F06CFCCE
:108170002188084480B220804119708801F064FC95
:108180002188084420800020C5E7FEF791BC00004C
:1081900038B54A7A0F4B62B100220A725969002938
:1081A00006D001228DF80020ADF80200684688470D
:1081B00038BD0A7A62B19B684C680246194620466F
:1081C000FEF75CFD0028F3D0BDE8384001F052BA5C
:1081D0005B68F1E7543000201FB500220092ADF833
:1081E00000100192ADF802100292039202AA6946B1
:1081F00090DF04B010BD00000E4910B50A784C782D
:108200000023A24212D0521CD2B20A70022A00D11C
:108210000B70084A0B780C3252F8232002608868F1
:10822000104420F07F408860012010BD03600020D2
:1082300010BD0000382B0020826883881A40036834
:108240009A5C0A708168491C81607047C2688388A3
:108250001A4003689954C168491CC160704770B5E1
:108260000D460446B0F83812D0F834020122FEF769
:10827000A6FE00B1057004F13C0204F50D7104F195
:10828000540072DF70BD000006484A8843899A4254
:1082900007D10A88A2F52063773B02D18988C91EDD
:1082A00081817047A02A002010B50949094800F0D3
:1082B000D2FB08B1FEF7FCFBF721064800F0BFFB3C
:1082C000002803D0BDE81040FEF7F2BB10BD00004F
:1082D00089820200EC2C00202DE9F0411E46174651
:1082E0008846044600F09CF8124D6000687000F06B
:1082F00075F885F8018000F071F800F091F8012020
:1083000000EB4400687000F069F8002409E0301BBD
:1083100001280DD0002138467F1C00F00DF8641CA8
:10832000E4B2B442F3D300F090F82878BDE8F081CD
:108330000121F0E7D42A00202DE9F0410F4606463E
:108340000024082521460C2000F035FD0D2000F00A
:108350009CFD0C2000F08EFD4FEA446110F0FF0FF1
:108360004FEA116401D044F001040D2000F04EFDED
:108370006D1E15F0FF05E9D1384600F019F834708C
:10838000BDE8F08110B5002421460C2000F013FD5B
:108390000D2000F07AFD0C2000F06CFD00B10124EE
:1083A0000D2000F033FD0C2000F00EFD204610BD26
:1083B00010B504460C2000F007FD4FF00C0014B17E
:1083C00000F063FD01E000F021FD0D2000F05DFDF7
:1083D000BDE810400D2000F019BD000070B58024EC
:1083E0000E4E0825707820424FF00C0002D000F0AD
:1083F0004CFD01E000F00AFD0D2000F046FD0D20CF
:1084000000F004FD64086D1E15F0FF05EAD10C2094
:1084100000F03BFDBDE87040FFF7B4BFD42A002058
:1084200010B50D2000F0D0FC0C2000F0CDFC0C208D
:1084300000F02BFD0D2000F028FD0C2000F0E6FCE4
:10844000BDE810400D2000F0E1BC10B50D2000F09B
:10845000DDFC0C2000F0DAFC0D2000F016FDBDE87C
:1084600010400C2000F011BD2DE9F0411F461646CA
:108470000C4605464FF00008FFF7D2FF68000C4D90
:108480006870FFF7ABFF6C70FFF7A8FF57B10024CF
:1084900006E030786870FFF7A1FF641CE4B2761C38
:1084A000BC42F6D3FFF7D1FF4046BDE8F0810000A3
:1084B000D42A00200146034802888A4200D00020C6
:1084C0007047000040300020F0B58488A518944221
:1084D00000D82246A41AC288D6189A4200D8134659
:1084E000D21A4B880788BB420CD34088834209D8F4
:1084F0008888A04206D3A84204D8C888904201D3F5
:10850000B04201D90020F0BD0120F0BD0A4810B5ED
:10851000807860B1002401E0022C06D02046FFF7ED
:10852000D3FA641C042CF7D310BD0324F6E7BDE88E
:108530001040FFF7EDBA0000E42A0020F721018087
:1085400017214180002101714171FB2181711B21A3
:10855000C17170472DE9F047394E002780463D46EE
:10856000DFF8E090D6F804A057E003D00446D0F836
:108570001C8035E099F8002002EB4201521CD2B277
:1085800089F8002009EBC10199F80230091D9A42CF
:1085900001D189F8005048680A780446012A12D0AF
:1085A000022A02D0032A3BD108E001F0AFF900B162
:1085B0000127257434E00574C06900E07068002864
:1085C000F9D170602CE0207C50BB88686060C8687E
:1085D000A0600869E0604869A061F07800B165605A
:1085E0006268B168184B501A20F07F40984202D25E
:1085F000A168084406E0881AA16820F07F40814203
:1086000002D9081A206000E0256065600120A5609D
:1086100020742046E56101F05BF9B8F10000A4D1B7
:1086200099F8001099F801008142A3D117B9716837
:10863000514502D00120BDE8F0870020FBE7000093
:10864000382B0020B8310020FFFF7F002DE9F041DA
:108650001D4C1E4E0127E0880025062802D2401C32
:10866000E0800BE0A07828B1607878B17068FEF700
:1086700049FB2771E07808B1FFF7FAF9FDF7F9FE39
:1086800000281ED0E580A07830B108E0104890F8AE
:10869000540074DFA570EDE7FEF7E4F9A7702079C8
:1086A000012807D1002240F28F217068FEF7E6FA18
:1086B00025712581E078002803D1BDE8F041FFF75E
:1086C000ADB9BDE8F0810000A02A0020449C020062
:1086D0000C2D0020ACB0FEF7A7FA08B1FEF7E8F9C0
:1086E000664A01216648FEF78DFA08B1FEF7E0F907
:1086F0006348644A0121001DFEF784FA08B1FEF7C1
:10870000D7F9614A0A211420FEF766FA08B1FEF78C
:10871000CFF900F0FFFB08B1FEF7CAF900F0C4FC86
:1087200008B1FEF7C5F9002469460120009400F065
:1087300033FC08B1FEF7BCF9684600F07BFC08B1D9
:10874000FEF7B6F99DF8080050A120F00F00401C7C
:1087500020F0F00010308DF808000E2202A87CDF17
:1087600008B1FEF7A5F900941020ADF800003C20F8
:108770000194ADF80200ADF804404FF4C870ADF8B4
:10878000060068467ADF08B1FEF792F9FFF78CFD24
:108790004248019001A9424800F033FA08B1FEF7BF
:1087A00087F94048009069463F48FFF749F808B10B
:1087B000FEF77EF9AC216846FDF709FE02208DF830
:1087C00000008DF8024006208DF803003648012590
:1087D000001F1490ADF84C508020CDE922048DF894
:1087E0007C50324829902E4869460C30FEF716FC22
:1087F00008B1FEF75DF92A4801210C30FEF70BFCA9
:108800001C216846FDF7E3FD4FF42030CDE9004020
:108810004FF47020029003208DF80C00244805903E
:1088200024480690ADF80E408DF810406846FEF7DB
:10883000C1FD08B1FEF73CF9194808220C3090F848
:108840005410012077DF08B1FEF732F9FEF70AF97C
:10885000154814388570FFF7E1F809480022001F19
:108860004FF400418068FEF709FA08B1FEF720F9DD
:10887000FEF792F900F062FBFAE70000D5970200DC
:10888000489C02004D860200B82B00205941584EEA
:108890006F726469635F554152540000818F02001A
:1088A000002D0020FD930200B42A0020499402000C
:1088B0006D9402008B81020070B5144682880E46CA
:1088C00005462088111D0144921C994201D8FE2AB8
:1088D00001D90C2070BD521C32542088FF21401C4D
:1088E00080B2208031542088401C80B220808119C1
:1088F000288801F0A9F82188084480B22080AA883D
:1089000042B1A96841B13044FDF748FD2088A988EB
:1089100008442080002070BD072070BDF8B50F46C8
:10892000017814460546012901D1687830B12088C4
:10893000821C9A4232D8012902D006E00720F8BDF5
:1089400069780144891C994228D8181A801E86B279
:10895000ADF800602188B81C084469467DDF002816
:10896000EDD12978022904D06878BDF80020904222
:1089700005D3BDF80000B04201D809200AE0082064
:10898000012905D16978B14202D8ADF8001001E0A3
:10899000ADF80060BDF80010FE2901D90C20F8BD2B
:1089A0002288491CB9542188491C89B221807854F5
:1089B0002088401C2080BDF8001008442080002042
:1089C000F8BD01F01F0301229A40D243490900EB90
:1089D0008100114600F015B84A0950F8220001F054
:1089E0001F0201219140084000D00120704701F092
:1089F0001F0301229A40490900EB8100114600F053
:108A000006B808B56A46FDF71EFC009808BD08B513
:108A10006A46FDF70BFC009808BDC20800F007038A
:108A20000120895C98400840704710B5C20800F0EA
:108A30000703885C01249C402043885410BD28B162
:108A4000A1F11702E12A03D3072070470E207047D7
:108A500001800020704710B560B10161F72120F856
:108A6000021B20F8021BFB2100F8021BFFF766FD2A
:108A7000002010BD0E2010BD2DE9F047B0F804A075
:108A80008EB00C465FEA0A0957D10188564E01277D
:108A9000002524297BD006DC102909D0112929D0F2
:108AA000232926D199E03A2928D0552921D147E018
:108AB00021792173C07BA61D012802D0022804D190
:108AC00001E0208800E06088308031887088814231
:108AD00008D94846A5DF10B1112802D002E077710D
:108AE00000E03771B179F07981426BD94846FFF7E0
:108AF00073FB67E0A01DFFF721FD63E0224640897C
:108B000034F8061F814200D808466080172800D23A
:108B100017206080106970B1607960B1D6E90001FA
:108B2000CDE90001ADF802906088ADF8040013694A
:108B3000694610469847657125710EB0BDE8F0870B
:108B4000C08804F10608172800D21720B8F80010D2
:108B5000814200D80846A8F8020088F80450284648
:108B6000B8F80010B5DF98F8050058BB206948B385
:108B7000D6E90201CDE90001ADF80290B8F8020093
:108B8000ADF804002046694622691AE0FFE7011D9E
:108B90002C226846FDF702FCBDF80000BDF8042059
:108BA00004EBC0014A73226962B1D6E90423CDE91E
:108BB0000B23ADF82E00487B8DF83000226920464B
:108BC0000BA99047A07A0028B7D0E1885046A5DFCE
:108BD0000028B2D1A572E772AFE7017A207B884204
:108BE00084D2014682E70000849C020020B1027812
:108BF000DE2A03D0082070470E20704741800020F5
:108C0000704760B159B10278DE2A0AD00968416024
:108C1000DE2101704FF6FF714180002070470E2069
:108C20007047082070477FB5054600294DD0002DBC
:108C30004BD008780C46DE2847D1A8886188884246
:108C400002D1204600F046FF2888012825D00228BE
:108C50003BD011283AD0512837D135F8040F61881C
:108C6000884232D1A978A81C02292ED1017A042980
:108C700003D0062901D0052927D100210091022225
:108C80008DF8002001914FF4C07202910391ADF86C
:108C90000420007A05280FD010E0297A2046012907
:108CA00013D1A988428891420FD10121017204B0E9
:108CB000BDE8704000F00EBFADF80410288869468A
:108CC000B0DF002801D0616888477FBDA88861882F
:108CD0008842FAD14FF6FF7060807FBD00F180407E
:108CE0000068002800D00120704708B500F18040DE
:108CF000002101600068009008BD000070B50B4CB9
:108D0000207808B185250FE00020A0606060206118
:108D1000E060074800F08CFA054600F011FA08B947
:108D200000F070FA01202070284670BDE830002065
:108D3000FD7F020038B500258DF800506846FEF72B
:108D40001BF8074CE068401EE060E06810B900F0D6
:108D50007FFAA5709DF80000FEF732F838BD0000DC
:108D6000E830002030B40378054CE35C1BB130BC24
:108D7000001D00F0EDBA30BC0C3000F087BA0000E6
:108D8000042B00202DE9FF411C46DDE90A78154639
:108D90000E46684600F044F846EA450141EA84017F
:108DA00041EA072242EA0841009A00EB8200C0F83B
:108DB0000017BDE8FF811CB500220B46009211464A
:108DC0000192FFF7DFFF1CBD1CB5002100910B468F
:108DD000012201911146FFF7D5FF1CBD13B50C46CA
:108DE000684600F039F8009900EB8101D1F80027BE
:108DF00022F44032C1F80027009900EB8100D0F83E
:108E0000001741EA0441C0F800171CBD01B56846CF
:108E100000F006F8009A01219140C0F80C1508BD39
:108E20000168202902D24FF0A040704701F01F01D5
:108E300001600148704700000003005001682029CC
:108E400002D24FF0A040704701F01F0101600148BD
:108E500070470000000300500168202902D24FF043
:108E6000A040704701F01F010160014870470000F9
:108E70000003005001B56846FFF7D2FFD0F8100597
:108E80000099C84000F0010008BD01B56846FFF731
:108E9000C7FF009A01219140C0F8081508BD38B5F8
:108EA00001240090684631B1FFF7C8FF00998C405B
:108EB000C0F8084538BDFFF7C1FF00998C40C0F8E5
:108EC0000C4538BD1CB5094C0144D4E90034CDE94A
:108ED00000346C4606E000BF54F82030D3F810355B
:108EE000401C08C28142F7D81CBD0000AC9C0200A7
:108EF000034908B50844002101600068009008BDDE
:108F00000060004002494058012800D0002070470E
:108F100000600040064910B500204870091D086037
:108F2000BFF35F8F0349044800F02EF9002010BD05
:108F3000682B0020E09C0200F032002008B50020E1
:108F40008DF800006846FDF717FFF1EE100A20F0DB
:108F50009F00E1EE100ABFF35F8F08494020C1F87F
:108F600080029DF80000FDF72BFF00F0E9F808B142
:108F700041DF08BD20BF40BF20BF08BD04E000E0C6
:108F8000FDF796BD20B103490968016000207047D4
:108F90000E207047649D0200FEB506460D46084649
:108FA000FFF7F0FF002844D100240094019401272A
:108FB00006208DF80060ADF8040002948DF8027070
:108FC000694620202A6869DF00948DF801708DF8C9
:108FD0000240019402948DF80340694640202A68BB
:108FE00069DF00948DF80060F720ADF8020001946D
:108FF0000294694623202A6869DF00940194029450
:109000008DF80070694601202A6869DF4FF4B0606E
:109010000090019402946946A1202A6869DF0094B7
:10902000019402948DF800406946A0202A6869DF07
:109030000020FEBD60DF002802D1024A012111702C
:1090400070470000732B002030B51548ADF5017D49
:109050000078002821D04FF4FA7500BFADF8005217
:1090600080A9684661DF38B1052816D00DF5017D6D
:10907000BDE83040FDF71CBD6C460A497DA800F0F4
:1090800083F806E0D0E90021204690477DA800F053
:1090900092F87F980028E1D0F4E70DF5017D30BD0E
:1090A000732B0020689D02007CB5194C207808B114
:1090B00008207CBD0120A070002000F0ADFA11282E
:1090C00019D0002000F0C0FA124800260068019074
:1090D0008DF800606846FDF74FFE0F4901A810DFCC
:1090E00005000AD0002020709DF80000FDF768FE02
:1090F0002DB128467CBD00207CBD0120F3E7A67081
:10910000667000F03BFB012000F09EFAF3E70000E0
:10911000702B0020FC9C0200816A02000EB50749FA
:10912000684600F031F805E0D0E90010884768464D
:1091300000F041F802980028F6D10EBD189D0200FB
:109140000148007870470000702B00201FB568466A
:109150004BDF30B1052814D004B0BDE81040FDF756
:10916000A7BC084901A800F00FF806E0D0E90021EB
:109170000098904701A800F01EF803980028E6D058
:10918000F4E71FBD849D0200016009684160AFF3F0
:10919000008010B5D0E900215368994201D1002127
:1091A00004E0D1E90034A34202D01946816010BD29
:1091B00008314160F0E7816800290BD002689268AD
:1091C0000A44826041684B689A4203D10831416089
:1091D000FFF7DFBF70474058002800D001207047DC
:1091E00008B5002242504058009008BD4058002861
:1091F00000D00120704708B500224250405800902E
:1092000008BD000008480068012110F0010F06D1D8
:109210004FF0E020C02280F80024C0F8001103497C
:10922000002008607047000000E100E018050040E1
:109230000649024600200B790BB1852070470023B8
:109240008B710A6001220A714B717047182B002044
:1092500004490120086004480168C1F30041002965
:10926000FAD170470C00004018040040002802D0DA
:109270000149800108477047C19C02000121B1EB00
:10928000507F01D101207047002070472DE9F04741
:10929000054600790B4600EB400101EBC000234975
:1092A00001EB8004284600F043F810B11120BDE81E
:1092B000F0874FF00008C4F82080A360626184F852
:1092C00028804FF48E76474631462868FFF788FF9E
:1092D00028684FF00109C0F808902146286800F07E
:1092E000A3FB606800BBD5F800A00EE094F828004E
:1092F00008B10F2716E031465046FFF76CFF0028F3
:10930000F4D02146504600F08FFB216A606981420B
:10931000F1D331462868FFF75EFF0028F9D02868AE
:10932000C0F80C90C4F814803846C0E768310020BB
:10933000007900EB400101EBC000044901EB800023
:109340004069002800D001207047000068310020EB
:109350002DE9F04704460E460079204900EBC00095
:1093600001EB800517463046FFF788FF30B12046F5
:1093700000F036F820B11120BDE8F0871020FBE79F
:109380006F61AE604FF49076002731462068FFF79A
:1093900032FF4FF4AC7841462068FFF72CFF20687D
:1093A000AA686969C0F84425C0F8481520680121F9
:1093B0008160686878B9B14649462068FFF716FFB2
:1093C000064641462068FFF711FF0643F4D000B17E
:1093D0000F27002068613846CEE700009431002056
:1093E0000079054900EBC00001EB800040690028CE
:1093F00000D00120704700009431002010B50446D1
:109400000078002818D1A28A0C482169FCF7C6FF11
:109410000B49207D0B4A087000210846FDF76CFBC4
:10942000A18A2069084410F8010C0D2804D10A20F3
:10943000FDF778FC1128FAD010BD0000642F002041
:10944000A02A0020A964020010B550B103280CD155
:109450000220FEF7FBFB002807D0BDE81040FDF717
:1094600027BBBDE8104000F069B910BD00780028A6
:1094700007D104483B21408976DF002801D0FDF761
:1094800017BB7047A02A0020F0B58BB000260196CC
:109490000D4604468988406901AAFDF7ABFC0AA87D
:1094A000CDE908600227ADF82070ADF82260218A6E
:1094B000A88808AAADDF002819D1A069002816D015
:1094C0000998FEF75FFA002811D0019E0EB1012025
:1094D0003070182102A8FCF77AFF8DF80870039409
:1094E000A888ADF810000596A16902A888470BB0BE
:1094F000F0BDF0B587B00C4605468E1D89884069E1
:1095000006AAFDF777FC18216846FCF760FF019575
:10951000A088069AADF80800039231882B890027AD
:1095200004F11200994202D17389022B0DD0AA894D
:1095300091421ED1A96900291BD08DF800700490BA
:109540007089ADF81400A96911E0002A11D0FEF766
:1095500019FA20B1069901200870022002E006984D
:10956000077003208DF80000A969002901D0684622
:10957000884707B0F0BD0068012805D0022803D055
:10958000042801D0002070470120704770B50126E3
:1095900070044FF0E0210025C1F88001084C401014
:1095A000C4F84803C4F8080366602F20FFF75EFE86
:1095B000A660044C2F20A560FFF758FEA57070BD73
:1095C00000100140382B002038B50021012548B19A
:1095D00001280CD0032809D1FFF714FEBDE838405C
:1095E000FFF7A8BB4FF0E020C0F8805138BD8DF8E0
:1095F00000106846FDF7C0FB064C207808B9FFF75D
:109600007DFBE068401CE060A5709DF80000FDF760
:10961000D7FB38BDE83000203EB50446094968460E
:10962000FFF7B2FD08E000BFD0E9002120469047D7
:1096300030B16846FFF7BFFD02980028F4D13EBD67
:1096400011203EBD009D02003EB504460849684613
:10965000FFF79AFD07E000BFD0E9002120469047C0
:109660006846FFF7A8FD02980028F5D13EBD00002E
:109670000C9D020002498969002900D00847704703
:10968000543000202DE9F0410746806A1446884690
:10969000C8B3002531E000BFB96A05EB450001EB16
:1096A0008006B088801CFE2802D90C20BDE8F0811D
:1096B0002288401C08F8020020881622401C80B234
:1096C000208008F800202088401C80B2208000EB19
:1096D0000801308800F0B8F92188084480B2208061
:1096E000B28842B1B16871B14044FCF757FE20889E
:1096F000B188084420806D1CEDB297F82C00A84278
:10970000CAD80020D2E7FFE70720CFE70A7806286B
:1097100022F0FF020A7010D2DFE800F0030507090B
:109720000B0D002008E0112006E0212004E031208C
:1097300002E0122000E022200870704710B50020DF
:10974000FEF784FA08B1FDF7B3F9FEF705FA08B1A0
:10975000FDF7AEF933DF002803D0BDE81040FDF778
:10976000A7B910BD002805D1034901204870002089
:10977000FEF730BC70470000E830002010B516201E
:10978000FDF742F9A0B1114890F8000440090828FB
:1097900011D20121814011F0EC0F0CD00C488268ED
:1097A0004FF480016AB1016841F48001016010BD8D
:1097B00042F2010001E042F20200BDE81040FDF774
:1097C00077B94FF0E020C0F8001110BD16E000E0BE
:1097D000E432002070B5FCF757FE1B4C19481B4AB9
:1097E0006379457803EB43015B1C02F8115002EBEF
:1097F000410105784D70C5788D708578CD704579BB
:109800000D7100794871E089D9B2801D80B2E08184
:1098100061716378012B14D1032912D12189801C35
:109820000B0A9374D174E08104F10E026389074935
:10983000901DFDF7D1FF0020E08160712089401C60
:10984000208170BDDC2A0020A02A0020642F002087
:109850002DE9F84F1D4C00256846D4E901A6FEF716
:10986000CBFC002738B30023009A61681CE0D1F8D4
:1098700000C00846944503D9ACEB02020A6015E02B
:10988000A2EB0C0263440760D0F80CC0C1698146AA
:10989000BCF1000F08D006EB030828F07F48C0E9B0
:1098A000018CC9F81C5005460029E0D128466160AA
:1098B000FEF750FE03E02846FEF74CFE10B150467E
:1098C000FEF7AAFBE770BDE8F88F0000382B0020F8
:1098D0000D4B10B5596831B102680C68A24204D82A
:1098E000A21A0A60C161586010BD0B4603E00B4626
:1098F000C969121B21B10C689442F8D3A41A0C60F8
:109900000260C161D86110BD382B00202DE9F04103
:10991000144E77683D462C4603E0844204D0254629
:10992000E469002CF9D11BE0D4B1A5420BD1F86950
:10993000706040B90C49012088600021B160F0706E
:109940002F20FFF793FC2168E069E86110B10268FD
:10995000114401607068874202D00120BDE8F081A7
:109960000020FBE7382B0020001001407CB50646A4
:1099700000240D468DF800406846FDF7FDF901A86A
:1099800000F0BAF870B10570094946609DF804000E
:1099900048709DF80000FDF713FA1420FCF788FECC
:1099A00020467CBD04249DF80000FDF709FAF7E786
:1099B000B83100202DE9F041194D6C68002C2CD0F5
:1099C000184800270068A968B846401A20F07F466A
:1099D0002068B0420CD82146361A0744E469087C56
:1099E00020B181F81080886949698847002CEFD13F
:1099F00029786878814206D1401CC0B2687002287C
:109A000001D185F80180064869780C3040F8217052
:109A1000BDE8F0411420FCF74BBEBDE8F08100002A
:109A2000382B00200415014070B50C4605464FF454
:109A30008E71FFF7D5FB216AA068415C206A401C4B
:109A40002062C5F81C1570BD0870000A487002201D
:109A500070470000F8B5054680B2FEF72BFD040004
:109A600013D0154E207A0027317B88420ED2A8B23F
:109A700004F10A0175DF28B1112806D0BDE8F840CD
:109A8000FFF7F8BD207A401C2072F8BD2772307CA9
:109A900038B1A8B23B2176DF18B1082801D0FFF712
:109AA000E9FD71690029F0D08DF80070ADF8025021
:109AB00068468847F8BD000054300020417939B12C
:109AC00090F8521221B990F8540208B10120704761
:109AD0000020704730B40446007A00280AD060881D
:109AE000002166DF28B1112802D0616830BC084728
:109AF0000120207230BC70470A494A788B78521C8A
:109B0000D2B2934200D100220B78934201D10020BF
:109B100070470270487800EB400001EBC000001D68
:109B200070470000B83100202DE9FC411646DDE900
:109B30000854CDE900541F468046022200F00CF87C
:109B4000002807D1CDE900543B461022314640465B
:109B500000F002F8BDE8FC812DE9FC5F0026DDE99C
:109B60000C4B994692468E4680462788354630E013
:109B7000D8F80400002200EB8500694600680190D7
:109B800001A864DF002830D19DF8000050451FD1A6
:109B90000EB1002100E00221228808441118594525
:109BA00022D846B9521C90B2208009F800E02088E3
:109BB000401C20800126218801A801EB090269468A
:109BC00064DF002811D120889DF80010084420800F
:109BD0006D1CB8F80000A842CADC56B12088C01B32
:109BE000401E80B2FF2802D90C20BDE8FC9F09F876
:109BF00007000020F9E7000010B504281DD209B1C4
:109C0000032400E00024FDF743FF202802D24FF098
:109C1000A04102E00A4900F01F0001EB8000D0F8EB
:109C2000001721F44031C0F80017D0F8001741EABE
:109C30000441C0F80017002010BD062010BD000030
:109C40000003005001000200782B0020982B002018
:109C50000D0E0F100B0C1819B42F0020D42F00205C
:109C6000003000200B000300797B02000C00030091
:109C7000797B020018000300797B020019000300C1
:109C8000797B0200770A000000000000770A0000DC
:109C9000000000007ADA0000000000009ECADC2408
:109CA0000EE5A9E093F3A3B50000406E000000505C
:109CB0000003005000000000000000000000000051
:109CC0000338FDD8704700000000000000000000CD
:109CD0000000000000000000000000000000000084
:109CE000C89C0200E09C020004000000000000008C
:109CF000000000000000000000000000001002074B
:109D0000EC9C0200FC9C020008000000249D020064
:109D1000349D020008000000349D0200449D0200B2
:109D200008000000109E0200189E020000000000C3
:109D300000000000009E0200109E020000000000D3
:109D400000000000B09D0200B89D0200B89D020016
:109D5000D89D0200D89D0200E89D0200E89D020007
:109D6000F09D0200982A0020449D0200649D02009C
:109D700008000000F09D0200F89D0200F89D02001E
:109D8000009E0200749D0200849D020008000000F5
:109D9000189E0200982A0020E0000000E8690200F6
:109DA000F89E0200782B002088270000F869020046
:109DB000D576020000000000798A0200EC2C002019
:109DC0001B7102000C2D00206975020000000000CC
:109DD000D97502000000000015790200B42A0020A5
:109DE000278C0200002D0020A57402000000000056
:109DF0006597020000000000857102000C2D002014
:109E000049900200000000004D9102000000000097
:109E1000C995020000000000D02A002001000400C3
:109E200000000000000000000000FFFF1400000020
:109E3000010002000000000000000000000000001F
:109E40000000000000000000982A00200000000030
:109E50000000000000000000000000000000000002
:109E600000000000000000000000000000000000F2
:109E700000000000000000000000000000000000E2
:109E800000000000000000000000000000000000D2
:109E900000000000000000000000000000000000C2
:109EA00000000000000000000000000000000000B2
:109EB00000000000000000000000000000000000A2
:109EC0000000000000000000000000000000000092
:109ED0000000000000000000002000400000000022
:109EE0000020004000000000000000000000000012
:089EF000000000000090D00307
:040000050002620192
:00000001FF
