:020000040002F8
:10600000A05B0020F962020001630200036302004A
:10601000056302000763020009630200000000003C
:106020000000000000000000000000000B63020000
:106030000D630200000000000F6302001163020004
:10604000D566020013630200816902001363020037
:106050001363020013630200BD64020013630200B5
:106060001363020013630200136302001363020050
:106070001363020013630200136302001363020040
:10608000136302002D670200136302001363020012
:106090009B670200136302009F6702001363020004
:1060A0001363020013630200136302001363020010
:1060B00013630200136302000000000000000000F0
:1060C00013630200136302001363020013630200F0
:1060D00013630200136302001363020013630200E0
:1060E0001363020013630200136302000000000048
:1060F00000000000136302000000000013630200B0
:10610000000000000000000000000000000000008F
:10611000000000000000000000000000000000007F
:10612000000000000000000000000000000000006F
:10613000000000000000000000000000000000005F
:10614000000000000000000000000000000000004F
:10615000000000000000000000000000000000003F
:10616000000000000000000000000000000000002F
:10617000000000000000000000000000000000001F
:10618000000000000000000000000000000000000F
:1061900000000000000000000000000000000000FF
:1061A00000000000000000000000000000000000EF
:1061B00000000000000000000000000000000000DF
:1061C00000000000000000000000000000000000CF
:1061D00000000000000000000000000000000000BF
:1061E00000000000000000000000000000000000AF
:1061F000000000000000000000000000000000009F
:10620000DFF80CD000F0FEF8004800474D8802008F
:10621000A05B002030B4044654E8000F0D4644E86B
:106220000053002BF8D1156030BC704730B40446E1
:1062300054E8000F40EA010544E80053002BF7D171
:10624000156030BC704730B4044654E8000F00EAD3
:10625000010544E80053002BF7D1156030BC7047AE
:1062600030B4044654E8000F80EA010544E80053C6
:10627000002BF7D1156030BC704730B4044654E8A9
:10628000000F00EB010544E80053002BF7D1156027
:1062900030BC704730B4044654E8000FA0EB010551
:1062A00044E80053002BF7D1156030BC704770B440
:1062B00004464FF0000054E8006F0D68AE4207BF7F
:1062C00044E80023012044E800630E60002B1CBF5B
:1062D0000020F0E770BC704730B4044654E8000F6B
:1062E00088422CBF451A054644E80053002BF5D1DF
:1062F000156030BC704700000648804706480047DC
:10630000FEE7FEE7FEE7FEE7FEE7FEE7FEE7FEE765
:10631000FEE7FEE7A5670200016202002DE9F05FDB
:106320000546002092469B46884606468146402404
:106330001BE0284641464746224600F053F85346A4
:106340005A46C01A914110D311461846224600F011
:1063500016F82D1A67EB01084F462246012000214E
:1063600000F00DF817EB00094E41201EA4F10104C6
:10637000DFDC484631462A464346BDE8F09F202AE6
:1063800004DB203A00FA02F1002070479140C2F18C
:10639000200320FA03F319439040704740EA0103B9
:1063A0009B0703D009E008C9121F08C0042AFAD2CB
:1063B00003E011F8013B00F8013B521EF9D270478F
:1063C000D2B201E000F8012B491EFBD27047002237
:1063D000F6E710B513460A4604461946FFF7F0FFE4
:1063E000204610BD202A04DB203A21FA02F00021C9
:1063F000704721FA02F3D040C2F1200291400843D5
:1064000019467047064C074D06E0E06840F001036E
:1064100094E8070098471034AC42F6D3FFF7F4FE37
:10642000B0A80200D0A8020070B50D4606460524AB
:1064300001232A463146182001F0DCFF002804D051
:10644000641E14F0FF04F3D1012070BD38B5054679
:1064500005248DF8001001236A462946182002F011
:10646000C5F8002804D0641E14F0FF04F3D1012005
:1064700038BD000070B5064D0024A01C2919C0B21B
:10648000FFF7D2FF641CE4B2062CF6D370BD000007
:10649000D42A002070B50024064D074E03E0305D7D
:1064A00000F098FC641C28788442F8D300202870FF
:1064B00070BD0000A02A0020083800202DE9F04F10
:1064C00000268DB0DFF8A081B14604964FF48075A8
:1064D000012437460596284602F0BEFE38B1D8F8AA
:1064E0000403204203D0284602F0ACFE26432D1DB3
:1064F00064007F1CADB2082FEDD34FF4BE7420466C
:1065000002F0AAFE48B1204602F09CFE46F000468A
:1065100004AA0221002002F07FFE544C16F0FF0F67
:1065200015D00127002537420DD008EB8501D1F8A1
:106530001005D1F81015C0F3052054F82520C1F33B
:10654000014102B190477F006D1C082DEBD3002E56
:106550007EDA0020CDF82890411E0DF1100B07AA1D
:10656000CDF82C9042F82010401C91460228F9D317
:1065700000252E46A11911F8607F91F9000027F03F
:10658000C008401C40D007A9404602F024FB40B39D
:106590004FEA971A404601F0D5FC54F820701FB11D
:1065A000BAF1030F03D006E0BAF1030F2CD10AA908
:1065B000404602F018FB02A8CDF8088002F0C6FDA4
:1065C000029900EB8100D0F8000704A9C0F3014054
:1065D0000290404602F0FFFA0028029802D00228FA
:1065E00002D011E003280FD1BAF1030F08D10298AD
:1065F000022833D00221404602F06AFD6D1CEDB244
:1066000017B151464046B847761C042EB2D3002D30
:1066100021D001AA0221002002F0FEFD00205A46EE
:106620000DF1040152F8206051F82030B34217D028
:1066300000200AAE4FEA090351F8207042F820709A
:1066400056F8207043F82070401C0228F4D300E074
:1066500001E0002D8CD10DB0BDE8F08F0321CAE719
:10666000401C0228DED3F6E700600040A03900207D
:1066700000F01F02012191404009800000F1E0205C
:10668000C0F88012704700F01F02012191404009BC
:10669000800000F1E020C0F80011704700F01F02F8
:1066A000012191404009800000F1E020C0F8001273
:1066B00070474907090E002806DA00F00F0000F1C4
:1066C000E02080F8141D704700F1E02080F80014ED
:1066D0007047000070B54FF48076304602F0DCFB66
:1066E000114CB50560B1304602F0DDFB0120C5F864
:1066F0000803607920B90120607121680020884773
:106700004FF48276304602F0C7FB00280AD03046AC
:1067100002F0C9FB0220C5F808032168BDE87040FB
:106720000120084770BD0000102B00200748002101
:10673000C0F84011C0F84411C0F84811C0F84C111D
:10674000C0F80011C0F8041103F0D4BC00100140DF
:10675000F8B5C8250D2002F09DFC0C2002F09AFC33
:106760000C2002F028FD0D2701266846009702F054
:10677000D1FCD0F80415009A06FA02F424EA0102CA
:10678000C0F808250C40C0F80C450A2002F01EFF96
:106790006D1E15F0FF05E8D1F8BD03F0F9BB02F05E
:1067A00067BE000030B54FF0805000228300D0F863
:1067B0003011C3F80C21C3F81021624B1A60624BF0
:1067C0001B68624C2360604B1B1D1B68241D2360EB
:1067D0005D4B08331B68241D23605B4B0C331B6827
:1067E000241D2360584B10331B68241D2360564B17
:1067F00014331B68241D2360534B18331B68534C00
:1068000020342360504B1C331B68241D23604E4BE7
:1068100020331B68241D23604B4B24331B68241D2D
:106820002360494B28331B68241D2360464B2C33BF
:106830001B68241D2360444B30331B68434C403499
:106840002360414B34331B68241D23603E4B383397
:106850001B68241D23603C4B3C331B68241D2360B4
:10686000394B40331B68241D23600123082902D1C2
:10687000D0F8344114B1082904D006E0354C34492D
:10688000216005E0D0F8344114B1082904D006E0B5
:10689000314CFB21216005E0D0F8344114B10829C6
:1068A00008D00EE090F858422C48016864F30301C8
:1068B000016002E0D0F834411CB929494FF400705E
:1068C000086028480168C90702D06FF00101016023
:1068D0002548016841F470010160BFF34F8FBFF399
:1068E0006F8F4FF01021D1F80002002803DBD1F8A0
:1068F0000402002822DA1D4C23601D480368002B87
:10690000FCD01223C1F800320568002DFCD0C1F87C
:10691000043201680029FCD0226001680029FCD003
:10692000BFF34F8F10487C380168124A01F4E061D0
:1069300011430160BFF34F8F00BFFDE70F490E48C1
:10694000086030BD380500400404001020C5004038
:10695000488103008C56004018F50040E40E0040CA
:10696000409602400004004088ED00E004E501404C
:1069700000E401400400FA050090D003702B0020D1
:106980000148006800470000182B0020014A024916
:1069900000F026B897830200682B002002E008C8A8
:1069A000121F08C1002AFAD170477047002001E089
:1069B00001C1121F002AFBD17047000001212028CD
:1069C00003DA81400548014003E0402802DA20381C
:1069D000814009B10120704700207047FC06FFBDCF
:1069E0002DE9F04116460F460446002503E03946DE
:1069F000B047641C6D1C20780028F8D12846BDE8FB
:106A0000F08110B501220221002001F085F908B1C2
:106A1000072810D107220221012001F07DF908B1D9
:106A2000072808D100210A22084601F075F908B1AB
:106A3000072800D1002010BD72B609480068C007C1
:106A400000D000BEBFF34F8F0548E4380168054A07
:106A500001F4E06111430160BFF34F8F00BFFDE718
:106A6000F0ED00E00400FA050EB500210091CDE93B
:106A700001106A4644F20100FFF7DEFF0EBD10B5BB
:106A80008268C368934203D001F05EFC002010BD11
:106A9000052010BD29B112B1531E134203D00920A5
:106AA00070470E2070470160838000218160C160C3
:106AB0000846704710B58268C3689A1A83889A425C
:106AC00003D801F04BFC002010BD042010BD0000D5
:106AD0002DE9F84F254C8146924660880E4681424A
:106AE00041D800274FF6FF788DF80070684600F017
:106AF0009BF922786078A188884201DA401C00E086
:106B00000020C0B2904204D19DF8000000F0B0F91E
:106B100027E065786078884201DA401C00E00020B8
:106B200060709DF8000000F0A3F9454519D0A068F9
:106B3000B9F1000F40F835A00DD066B16188E0686A
:106B4000324605FB01004946FFF728FCA06800EB30
:106B5000C500868002E000EBC50087800020BDE80C
:106B6000F88F0420FBE70920F9E70000202B002024
:106B700010B50E4C03E0401C00E00020207020788F
:106B80006178814210D022786188E068A36802FBB6
:106B9000010003EBC20153F8322089889047207826
:106BA000A1888842E9DAE6E710BD0000202B00202A
:106BB00030B5CB0008339DB293074FF0000401D0ED
:106BC000072030BD044B9A602A44DA605C701C7068
:106BD00058809980002030BD202B0020074B9B78E7
:106BE00023B12AB120B10068037C1BB10820704793
:106BF0000720704741744261002070475C3A0020D2
:106C000070B503F04BF8104800240B210470447059
:106C10000E4D817014206C602C706C70FFF728FD95
:106C200006211420FFF745FD1420FFF72CFD08482E
:106C3000046006211120FFF73CFD0548001F006895
:106C4000A860002070BD00005C3A0020302B0020BE
:106C5000081501402DE9FC47DFF8789099F80230DB
:106C600073B368B3052902D20720BDE8FC874369E6
:106C700033B3437C012B25D00027044600258846EA
:106C800016468DF80050684600F0CEF801A803F0D3
:106C90009FFCC8B1012101700F4944600968C0E937
:106CA0000218C0E904769DF8040089F801009DF8F7
:106CB000000000F0DDF81420FFF7F0FC2846D4E7D0
:106CC0000820D2E70F46D8E704259DF8000000F021
:106CD000CFF8F3E75C3A00200415014006498978B3
:106CE00039B130B1416921B100210174022103F0B1
:106CF000DDB90820704700005C3A002070B50A4EEC
:106D000001460A48B578FFF7BAFE04464DB10020A7
:106D1000B070711C0122C81D02F036F908B1FFF7EE
:106D2000A3FE204670BD0000442B0020683B0020DD
:106D3000F0B5244E89B01F460D00044672603FD066
:106D4000A888296882B22048FFF7A4FE002835D120
:106D5000A889A96882B21C481030FFF79BFE002862
:106D60002CD1202219496846FFF718FB606906906C
:106D7000207C00B101208DF814008DF81C70607C1F
:106D800000B10E208DF81500E0680290A068039015
:106D900020680190606800900A480D4A69460830F2
:106DA00002F0BEF8002809D1B0702068401C05D060
:106DB00004490122491CC81D02F0E6F809B0F0BDE3
:106DC0000720FBE7442B0020683B0020C8A70200F7
:106DD00009A2020010B501461048FFF76BFE04003F
:106DE00019D10F480F4A0178515C19B1001D02F00A
:106DF00073FE02E00C3002F057FD60B90849074805
:106E00000839FFF73CFE30B905490122083904482A
:106E100002F0CAF80446204610BD0000783B00206E
:106E20004C2B0020FC2A002030B5EFF3108172B605
:106E30000D4A9468012324B10370002900D162B681
:106E400030BD93604FF0E023D3F88051074C2540CC
:106E50001560C3F88041D3F8844154605A17C3F8D1
:106E6000842100220270E8E7883B0020FC06FFBD79
:106E70000B498A68002A11D000280FD1EFF3108047
:106E800072B60B684FF0E022C2F800314B68C2F8CE
:106E9000043100228A60002800D162B670470000E9
:106EA000883B002070B5054608680C46411C04D09C
:106EB00002F08BF9206802F0F7F86068411C02D0FC
:106EC000002102F0D5F82968A069C1F82405607D89
:106ED000227D29681043C1F86C05D4E900122868A6
:106EE000C0F81425C0F80C15207D012814D1A06825
:106EF000411C02D0002102F0BBF8E068411C04D024
:106F000002F063F9E06802F0CFF8D4E902122868D1
:106F1000C0F80825C0F8101570BD70B505460868A2
:106F20000C46411C04D002F05AF9206802F0C6F861
:106F30006068411C02D0002102F0A3F82968A06912
:106F4000C1F82405607D217D2A680843C2F86C05DC
:106F5000D4E900122868C0F80C15C0F81425207D6B
:106F6000012814D1A068411C02D0002102F089F848
:106F7000E068411C04D002F032F9E06802F09EF8AB
:106F8000D4E902122868C0F80825C0F8101570BDB1
:106F900070B51500044609D00020286034B120687F
:106FA00020B1A079800703D0072070BD0E2070BDEE
:106FB000084600F001FBC0B2142804D021798142B8
:106FC00003D8042070BD052070BDE288216800FB55
:106FD00002102860002070BD2DE9FC4700251788AD
:106FE0000646158090F82D001446894630B13A4681
:106FF0002146484600F0F4FA051E09D1B0784FF05A
:107000000C0A18B32088C846001DB84202D9504661
:10701000BDE8FC87684679DF0028F9D12088032184
:1070200008F8001020881921401C80B2208008F840
:1070300000102088401C80B2208000EB0801BDF8C1
:10704000000003F06EFA218808442080F0780222C4
:10705000C8B1218896F9033001F1030C4846BC45BC
:10706000D5D8425421884FF0010C491C89B22180A7
:1070700000F801C02188491C89B2218009F801303B
:107080002088401C20807068B8B1218890F90030B9
:1070900001F1030C4846BC45B9D8425421880A2264
:1070A000491C89B2218042542188491C89B221801F
:1070B00009F801302088401C2080308950B1CDE98A
:1070C00000474B460622022106F1080003F098FA19
:1070D000051E9DD1308A50B1CDE900474B460722AD
:1070E000032106F1100003F08BFA051E90D1308BBE
:1070F00050B1CDE900474B461522142106F1180086
:1071000003F07EFA051E83D1306A30B13B46224639
:10711000494601F07EF8051EDBD1706A30B13B466E
:107120002246494601F0A6FC051ED2D196F82C0055
:1071300038B13B4622464946304602F06BFE051EFA
:10714000C7D1307838B13B4622464946304601F037
:10715000C3FC051EBDD128465AE718B504460020D9
:10716000ADF8000013466A46204600F006F80028F5
:1071700002D0BDF80000204418BD70B588B182B1BE
:107180000024158803E0065D641C3444A4B2A542C3
:1071900003D8061976789E4201D08C42F3D38C42F4
:1071A00001D3002070BDA11C1180005D401E80B283
:1071B00070BD80F8301070472DE9F0470D0004468F
:1071C00006D02CB195F87A000026012803D006E0FD
:1071D0000E20BDE8F08795F89800012821D04FF0E7
:1071E0000109A6702C2205F17801201DFFF7D6F8C1
:1071F00084F83060D5F8A4006063D5F8A800A063D7
:107200004FF6FF70A4F8480204F50D70C4F844026C
:10721000C4F84A62A4F84E6284F85062207810B133
:1072200004E00720D5E7FF2084F8540004F155015D
:10723000C4F8341294F82400EE274FF01F080128F8
:1072400033D0A4F8388200BF04F50E722846FFF749
:10725000C3FE0028BDD104F24311C4F83C1294F8D7
:107260002400012824D0A4F8408200BF04F5107245
:1072700005F13C00FFF7B0FE0028AAD184F8519038
:10728000208BA4F8480084F83C90266484F8506071
:10729000606960644D4604F13C02002104F1540031
:1072A00072DF002895D1257093E7A4F83872CBE7F8
:1072B000A4F84072DAE710B50288102A1BD0112A10
:1072C00020D0262A1DD1007A0C46012801D00228A0
:1072D00017D1A0780521401CB0FBF1F201FB12018F
:1072E000204600F01EF800280BD0A16B002908D022
:1072F000BDE810400847C27B012A02D18088A1F86E
:10730000480210BD0C46002184F852128088B4F85F
:1073100048128842F5D120790028F2D10121DFE717
:1073200070472DE9F05F044600780F4698B1A770CA
:107330000025C4F84A52A4F84E5284F85052A0795D
:10734000012608B1012F09D0E07980B1012F05D0C5
:10735000022F03D00BE00820BDE8F09F616B21B144
:1073600084F851620820884701E084F8515204F201
:107370004B2100200A5C0AB1304603E0401C06287D
:10738000F8D300204FF002084FF0030B012F06D076
:10739000022F0CD0032F0FD0042F15D110E0A179AC
:1073A00029B194F8241011B908B130460DE0E17903
:1073B00011B108B1404608E0207A08B1584604E00F
:1073C000607A08B1042000E02846A070616B41B1EA
:1073D000032801D0042804D1607910B194F8520236
:1073E000A0B184F8535204F13C0018210746FEF77F
:1073F000EEFF04F12C0084F83C60814602F037FC7B
:1074000058B194F82C0084F8510008E084F85452E4
:1074100084F8536207208847E5E784F8516094F8C0
:10742000240050B1484602F022FC20B194F8280014
:1074300084F8520001E084F8526084F85050A27839
:1074400004F24A2104F50D794FF0060A052A62D2AA
:10745000DFE802F07A030F22410084F83160C4F8BB
:107460004452C4E9101584F83C808020A4F84800F8
:1074700053E084F8318094F82420384612B1072272
:10748000027001E080F800B0228A8281C4F8445280
:107490004160E168B96040E06069B860208BB88104
:1074A00094F824003D4610B184F83CA001E084F833
:1074B0003C60204603F06EF850B185F8148004213A
:1074C000204600F054FF30BB052184F8311020E045
:1074D00084F831B01DE0E069B860208CB88194F880
:1074E00024003D4610B184F83CA001E084F83C60E3
:1074F000204603F04FF848B185F814800421204657
:1075000000F035FF38B984F831A002E0042084F897
:107510003100C4F84492A07878B13A4604F154009E
:10752000D4F8441272DF00287FF416AF94F83010BC
:1075300094F8540073DF0028F6D1616B11B194F810
:1075400031008847002007E784F83150F5E7000054
:1075500070B5040012D001461C221448FEF71EFF2D
:107560001248134D0560206850B17ADF002806D11B
:107570002068016829604068686005E00E2070BDE1
:107580000B487BDF0028FAD108484FF6FF7114380A
:10759000084A20F8041B0549343901600021FFF72F
:1075A0001DFB0028EBD0032070BD0000F838002040
:1075B000F42A00202DA5020010B5044600F006F8BC
:1075C00008B1204610BD142010BD0000142801D3BE
:1075D000002070470146014801F0DCBA183900204C
:1075E0007CB5054608880C460930904201D90C202C
:1075F0007CBD68466DDF0028FAD1218808206854D8
:1076000020881B21401C80B2208029542088401CE7
:1076100080B220802844DDF801100160BDF805101B
:1076200081802088801D80B220809DF8001049084C
:1076300000D0012129542088401C208000207CBDDE
:1076400038B504460088214D21282BD00BDC1028AA
:1076500013D0112822D0132823D100231A468521C4
:10766000A8887FDF14E03B282CD0522824D056284D
:1076700017D1A088132176DF0AE0072000F06EFB07
:1076800008B1FFF7F1F9A188A980114801F08CFB3E
:10769000002806D0BDE83840FFF7E6B94FF6FF7086
:1076A000A88038BD00200090A08869468FDF0028A0
:1076B000F7D0FFF7D9F938BD00231A461946A88834
:1076C000B1DFE5E7A088132176DFE1E7A02A0020FB
:1076D000A435002010B51A4C0188606810290ED01E
:1076E00011292BD1401E606028D1FFF78AF90028AC
:1076F00024D02168002921D0BDE810400847D0B926
:1077000000210122084600F007FB08B107280FD12D
:1077100007220221012000F0FFFA08B1072807D153
:1077200004220221002000F0F7FA20B1072802D03D
:10773000216801B188476068401C606010BD00008E
:10774000EC2A00202DE9F04701883B4E40F2F31966
:107750004FF6FF7510291BD011293ED0122954D0A5
:10776000502946D1C188F289841D914241D1618955
:1077700002293ED18688304600F05EFF050038D0F1
:1077800004F10C0000F0B4F9A8B3294630464EE0ED
:10779000C17B8788044601292BD1A846284600F0E2
:1077A0004BFF050017D02F80002028722348434646
:1077B0004A460168C5F80A104068C5F80E0004F191
:1077C000100105F10A0000F07FFF6872F0890028BF
:1077D0000FD129462AE0042013E0808800F02CFF16
:1077E000040006D06068FFF779FA08B102F00AFBDE
:1077F0002580BDE8F087FFE76868FFF76FFA00288B
:10780000F7D0BDE8F04702F0FDBA87880646384653
:1078100000F012FF0400ECD02B464A4606F10801A6
:1078200004F10A0000F050FF607221463846BDE8BE
:10783000F04700F035BD0000F8380020F42A0020A1
:107840002DE9F04F0746858802883D48012197B011
:107850008346102A09D0112A49D01A2A6CD1387AC5
:10786000B1EB101F45D2012244E0354C083CA06822
:10787000C0430B9061680BA801F0A1F90B990CA80B
:1078800000F0A8FC2C220CA96846FEF787FD002614
:10789000E946A04610E000BF09EB46005FF0000497
:1078A000B0F804A008EB84005146001D01F067F910
:1078B000641C1D2CF6D3761C0098B042ECD8142D15
:1078C00005D317B00420BDE8F04FFFF7CDB8294627
:1078D000584601F06AF9294608F1040001F065F9FB
:1078E000F87B012828D016482946001D15E02946B6
:1078F0001AE000220221B1EB101F01D2012600E0A4
:1079000000260F49083901F11000041D294682B1F3
:1079100001F04BF936B12946204617B0BDE8F04FCB
:1079200001F043B92946204617B0BDE8F04F01F0F9
:1079300026B901F024F9F5E717B0BDE8F08F000093
:107940001C390020F0B585B016460F4604001D46D0
:1079500014D004AA19466069FFF71AFB00280BD15E
:10796000A5F57F40FF380BD0049848B1007848B1A6
:107970003088F42808D9072005B0F0BD0E20FBE7B9
:107980000520F9E70820F7E7002000900190029019
:107990000390A088ADF8000001208DF80200CDE929
:1079A000026769462846AEDFE6E7000070B5334D52
:1079B00004008EB02DCD08AE86E82D005BD0E9B373
:1079C0000868A061214608A862DF002851D120780C
:1079D00001258DF83200ADF83050A21C0CA92846C4
:1079E000A8DF002845D120216846FEF7F0FC0220E0
:1079F000ADF8000020788DF802008DF80C509DF84D
:107A00000D00F426ADF8046040F00C008DF8115024
:107A1000ADF806508DF80D008DF81250608804F115
:107A20000C02694600F096FA002822D1202168460F
:107A3000FEF7CDFC0320ADF8000000E01BE020784D
:107A40008DF802008DF80C509DF80D008DF8115046
:107A5000ADF8046040F010008DF81250ADF80650FB
:107A60008DF80D008DF813506088221D694600F0D6
:107A700071FA0EB070BD0E20FBE7000094A7020063
:107A800070B588B00446002924D0002C22D00846C6
:107A90002188102920D0502924D057291AD10546F1
:107AA000A188406906AAFFF773FA002812D1069E42
:107AB000307800280ED018216846FEF788FC012097
:107AC0008DF800000195A088ADF808000396A9691B
:107AD0006846884708B070BD08B02146BDE87040D0
:107AE00002F04EB808B02146BDE8704002F07DB803
:107AF000007800F00100704738B504461F48006860
:107B000048B1032C09D0052C07D0082C05D00C2C2B
:107B100003D0FE2038BD812038BD69460F20FEF716
:107B200083FC0546032C06D0052C0AD0082C16D061
:107B30000C2C0DD11AE09DF8000020F00F00C01CA5
:107B400004E09DF8000020F00F00401D8DF80000BB
:107B50009DF800100F20FEF779FC284438BD9DF8F1
:107B6000000020F00F0040F00800EFE79DF8000053
:107B700020F00F0040F00C00E8E70000D02A0020C1
:107B8000064910B504480860FEF7E2FDBDE8104064
:107B90000320FFF7B1BF00003C380020D02A0020AE
:107BA0000149085C704700004AA70200094908B56E
:107BB000085C0090684601F0BBFAD0F80425009BF1
:107BC0000121994021EA0203C0F808351140C0F8AC
:107BD0000C1508BD46A702000249085C012101F00E
:107BE00008BB000046A702000249085C002101F022
:107BF00000BB000046A70200084908B5085C0090D9
:107C0000684601F095FAD0F804050099C84010F0D4
:107C1000010000D0012080F0010008BD46A702004D
:107C200010B500242046FFF7D7FF641C042CF9D3BD
:107C300010BD10B500242046FFF7D6FF641C042CAD
:107C4000F9D310BD10B50246064B4FF0FF300021AE
:107C50005C5C944201D1084610BD491C0429F7D34D
:107C600010BD00004AA7020010B5002000F066F920
:107C700008B1062806D1012000F060F908B10628F5
:107C800000D1002010BD00002DE9F0470D468146CF
:107C9000FFF7D8FF0446042836D2DFF874801B486B
:107CA0001C4EA8F10C0725B3012D0ED0022D2BD1AF
:107CB00004EB440030444578002D25D0B9680029F4
:107CC00022D02846BDE8F047084704EB4401755C24
:107CD0000E44717849B10E4A4FF40041093A806868
:107CE000FEF7B8FF08B987F80390B17808F80410D8
:107CF000E2E78068FEF7F2FF04EB4401314418F834
:107D000004008D78A842D7D0BDE8F08750A70200C4
:107D1000E82A00209838002070B50023042810D2EB
:107D20000D4D00EB4004012A02D101290CD00022A4
:107D3000094E00EB4000304461B1012906D0022910
:107D400006D00723184670BD0E30C2B22A55F9E797
:107D50004270F7E78270F5E798380020044A014640
:107D600000201279D20702D0084600F003B870470D
:107D7000DC2A00202DE9F05F6E4C05460026607875
:107D8000B34618B184F801B000F0C0FC6A4F4FF45C
:107D90007A694FF4C87A4FF00108182D69D2DFE8EC
:107DA00005F00C1313384754696E727B727BC584DF
:107DB00084848484B3B6B9BCC5C500F0A7FC386818
:107DC000FEF78CFF06465CE00020FFF715FF002859
:107DD0004FF0000008D0FFF7FFFE022D02D14FF454
:107DE000E16008E0484606E0FFF7FEFE022D01D103
:107DF000C82000E05046410CC0034FF4FA728018CE
:107E000041F10001257052000023FEF787FA014678
:107E10002AE00020FFF7F0FE00284FF0000004D019
:107E2000FFF7DAFE4FF44870E5E7FFF7DDFEDFE726
:107E30000020FFF7E1FE00284FF0000002D0FFF71E
:107E4000CBFECFE7FFF7D0FED4E70020FFF7D4FE4C
:107E500000284FF0000002D0FFF7BEFE01E0FFF760
:107E6000C3FE257041F69A1100223868FEF7F2FE33
:107E7000064646E00020FFF799FE257008E0002046
:107E800051E025703DE084F801800120FFF78EFE6F
:107E9000002240F6CD41E8E784F801800120FFF799
:107EA00085FE00224FF48041DFE77868FEF716FF79
:107EB0000646D5F1110000D02EB10220FFF78CFE4E
:107EC00084F802B01DE0012816D980B2C8214843C9
:107ED000C117C90341EA5041C0034FF4FA72801838
:107EE00041F1000152000023FEF718FA014600227A
:107EF0007868FEF7AFFE06460220FFF775FE84F8AD
:107F000002803046BDE8F09F00F000FCB9E700F0C9
:107F1000FDFBB4E700F0FAFB04E000F0F7FB002003
:107F2000FFF762FE0120FFF75FFEAAE7FFF781FE81
:107F3000A7E70000DC2A002050A70200012102F080
:107F4000C7BB00000249084490F9300070470000A8
:107F5000A03900202DE9F0438146887891B0904601
:107F60000C4600B901208DF83E002088ADF83C0099
:107F700000250095607C694601F090FF6E46A07C6C
:107F8000711C01F08BFFE07B00289DF8020002D0FD
:107F900040F0080001E020F008008DF80200217C8C
:107FA00011B140F0100001E020F010008DF8020047
:107FB000217B11B140F0010001E020F001008DF8BB
:107FC0000200217D09B1022100E0012161F342009C
:107FD0008DF802001C2102A8FEF7F9F9607BC106AA
:107FE00001D4800617D50E950EAFE07C791C01F008
:107FF00055FF9DF83800079720F00F00401C20F037
:10800000F00010308DF838009DF83A0020F006009E
:10801000801C8DF83A00607B8DF80800A07B8DF8FD
:108020000900142109A8FEF7D2F90FA8CDE9090625
:10803000A088ADF83000A06820B1E088ADF82C0031
:10804000A0680D90A06998B301950088ADF8100064
:10805000A06901AD01A94088ADF81200A06940688F
:1080600006950390A069007B01F018FFA069691CC8
:10807000407B01F013FFA069807A00289DF806007C
:1080800002D040F0080001E020F008008DF8060062
:10809000A169C97A11B140F0100001E020F0100090
:1080A0008DF80600A169097A19B140F0010002E0DB
:1080B0000DE020F001008DF80600A169897B09B16F
:1080C000022100E0012161F342008DF80600E06921
:1080D00000B10590434609AA02A94846AADF11B09B
:1080E000BDE8F08370B5084C050009D01034216854
:1080F000002907D008682060496828468847F6E7C5
:108100000834F4E770BD00008C390020054A0121D5
:1081100020B1012805D19170FFF7E4BF5170002014
:10812000FAE770478C3900202DE9F05F2648416856
:10813000F1B3DFF898B00E688146DBF8004087683D
:108140008078E11B21F07F45ED1CB0B9DFF880801D
:108150004FF48030C8F84403C8F804031120FEF738
:1081600087FA1120FEF78FFA4FF0010AC8F800A035
:108170002F2001F033FA89F802A0B54200D235462B
:10818000124BE8193C3320F07F401860DBF80010F8
:108190005A46091B21F07F41001B20F07F40C91C7B
:1081A00081420FD9106818602F2001F017FA00E003
:1081B00004E0BDE8F05F1120FEF770BABDE8F05FA3
:1081C00001F06CBDBDE8F09F302B0020041501408C
:1081D0000010014073B58CB00646002000900D9849
:1081E00080B100246D4621460DA800F0D3FC30B1CB
:1081F000009805EB400084800098401C0090641CAF
:10820000142CF0D32C2269463046FEF7C7F80EB086
:1082100070BD2DE9F04117880646B81D14460D467D
:10822000984202D90C20BDE8F08131880722062946
:108230000AD34FF4486C4FF6FF73614501D9994258
:1082400002D17088062801D21046ECE7604501D9BA
:108250009842F9D1994203D0984201D08142F3D893
:108260000520E85520881221401C80B22080295426
:108270002088401C80B220804119308802F051F9DA
:108280002188084480B220804119708802F049F9A1
:108290002188084420800020C5E7FEF7E5BB0000E8
:1082A00038B54A7A0F4B62B100220A725969002927
:1082B00006D001228DF80020ADF8020068468847FC
:1082C00038BD0A7A62B19B684C680246194620465E
:1082D000FEF7C0FC0028F3D0BDE8384001F092BDA5
:1082E0005B68F1E7F83800201FB500220092ADF876
:1082F00000100192ADF802100292039202AA6946A0
:1083000090DF04B010BD00000E4910B50A784C781B
:108310000023A24212D0521CD2B20A70022A00D10B
:108320000B70084A0B780C3252F8232002608868E0
:10833000104420F07F408860012010BD03600020C1
:1083400010BD0000302B0020826883881A4003682B
:108350009A5C0A708168491C81607047C268838892
:108360001A4003689954C168491CC160704770B5D0
:108370000D460446B0F83812D0F834020122FEF758
:10838000ECFE00B1057004F13C0204F50D7104F13E
:10839000540072DF70BD10B50446C0B2FEF71AFD7E
:1083A000204610BD06484A8883889A4207D10A8829
:1083B000A2F52063773B02D18988C91EC18070472E
:1083C000A02A002010B50949094800F022FC08B194
:1083D000FEF74AFBF721064800F00FFC002803D007
:1083E000BDE81040FEF740BB10BD0000A5830200B1
:1083F000903500202DE9F0411E4617468846044678
:1084000000F0BEF8144D6000687000F08BF80A2090
:1084100001F0DCF885F8018000F084F800F0B0F895
:10842000012000EB4400687000F07CF8002409E0B3
:10843000301B01280DD0002138467F1C00F00EF8BB
:10844000641CE4B2B442F3D300F0B8F82878BDE875
:10845000F0810121F0E70000CC2A00202DE9F04155
:108460000F4606460024082521460C2000F0F7FDA3
:108470000D2000F0A0FE0A2001F0A8F80C2000F06A
:108480008FFE4FEA446110F0FF0F4FEA116401D0F4
:1084900044F001040D2000F033FE0A2001F096F8AC
:1084A0006D1E15F0FF05E3D1384600F01CF834705E
:1084B000BDE8F08110B5002421460C2000F0CFFD6E
:1084C0000D2000F078FE0A2001F080F80C2000F06A
:1084D00067FE00B101240D2000F012FE0C2000F018
:1084E000D9FD204610BD10B504460C2000F0D2FD89
:1084F0004FF00C0014B100F05EFE01E000F000FE51
:108500000A2001F063F80D2000F055FE0A2001F06A
:108510005DF80D2000F0F4FDBDE810400A2001F0E8
:1085200055B8000070B58024144E0825707820429C
:108530004FF00C0002D000F03EFE01E000F0E0FD44
:10854000052001F043F80D2000F035FE0A2001F06F
:108550003DF80D2000F0D4FD052001F037F8640847
:108560006D1E15F0FF05E1D10C2000F024FE052062
:1085700001F02CF8BDE87040FFF79CBFCC2A00202A
:1085800010B50D2000F086FD0C2000F083FD0C20BE
:1085900000F011FE0D2000F00EFE0A2001F016F88A
:1085A0000C2000F0ADFD0A2001F010F80D2000F0C5
:1085B000A7FDBDE810400A2001F008B810B50D2055
:1085C00000F09EFD0C2000F09BFD0A2000F0FEFF55
:1085D0000D2000F0F0FD0A2000F0F8FF0C2000F064
:1085E000EAFDBDE810400A2000F0F0BF2DE9F0419F
:1085F0001F4616460C4605464FF00008FFF7C0FF21
:1086000068000C4D6870FFF78DFF6C70FFF78AFFF4
:1086100057B1002406E030786870FFF783FF641CD0
:10862000E4B2761CBC42F6D3FFF7C8FF4046BDE873
:10863000F0810000CC2A00200146034802888A42CB
:1086400000D0002070470000E438002070B50D46CF
:10865000044600684FF4887100F07DFF4FF490717C
:10866000206800F078FF4FF49271206800F073FFEB
:108670004FF4A271206800F06EFF20681149C0F825
:1086800004132068690740F30730090E002806DA52
:1086900000F00F0000F1E02080F8141D03E000F16D
:1086A000E02080F800142068012140F3073000F03A
:1086B0001F0291404009800000F1E020C0F8001145
:1086C00070BD000010030200F0B58488A518944224
:1086D00000D82246A41AC288D6189A4200D8134657
:1086E000D21A4B880788BB420CD34088834209D8F2
:1086F0008888A04206D3A84204D8C888904201D3F3
:10870000B04201D90020F0BD0120F0BD0A4810B5EB
:10871000807860B1002401E0022C06D02046FFF7EB
:108720005BFA641C042CF7D310BD0324F6E7BDE804
:108730001040FFF775BA0000DC2A0020F721018005
:1087400017214180002101714171FB2181711B21A1
:10875000C17170472DE9F047394E002780463D46EC
:10876000DFF8E090D6F804A057E003D00446D0F834
:108770001C8035E099F8002002EB4201521CD2B275
:1087800089F8002009EBC10199F80230091D9A42CD
:1087900001D189F8005048680A780446012A12D0AD
:1087A000022A02D0032A3BD108E001F04FFC00B1BD
:1087B0000127257434E00574C06900E07068002862
:1087C000F9D170602CE0207C50BB88686060C8687C
:1087D000A0600869E0604869A061F07800B1656058
:1087E0006268B168184B501A20F07F40984202D25C
:1087F000A168084406E0881AA16820F07F40814201
:1088000002D9081A206000E0256065600120A5609B
:1088100020742046E56101F0FBFBB8F10000A4D113
:1088200099F8001099F801008142A3D117B9716835
:10883000514502D00120BDE8F0870020FBE7000091
:10884000302B00205C3A0020FFFF7F00ACB01822E4
:1088500072496846FDF7A2FD7148069071494FF4D0
:108860008070CDE90701099007236F4A06A9684681
:10887000FEF75EFA08B1FEF7F7F8FEF7C1F908B1A6
:10888000FEF7F2F86548694A0121001FFEF7A6F9D4
:1088900008B1FEF7E9F8664A1E213220FEF788F992
:1088A00008B1FEF7E1F800F0DFFC08B1FEF7DCF8F4
:1088B00000F0A4FD08B1FEF7D7F8002401A90120BB
:1088C000019400F013FD08B1FEF7CEF801A800F006
:1088D0005BFD08B1FEF7C8F89DF80C0055A120F02B
:1088E0000F00401C20F0F00010308DF80C000E221C
:1088F00003A87CDF08B1FEF7B7F800941020ADF8AC
:1089000000003C200194ADF80200ADF804404FF4A3
:10891000C870ADF8060068467ADF08B1FEF7A4F823
:10892000FFF750FD474800906946474800F047FA76
:1089300008B1FEF799F84548029002A94448FFF7AC
:1089400035F808B1FEF790F8AC216846FDF73FFD19
:1089500002208DF800008DF8024006208DF80300FB
:1089600001203B49ADF84C00091F8DF87C001491A3
:108970004020CDE9220437482990334869460C301D
:10898000FEF71AFC08B1FEF76FF82F4801210C30F2
:10899000FEF70FFC1C216846FDF719FD4FF420304F
:1089A000CDE900404FF47020029003208DF80C00B8
:1089B0002948059029480690ADF80E408DF81040E2
:1089C0006846FEF7C5FD08B1FEF74EF824A0FDF796
:1089D000DDFF1D4808220C3090F85410012077DF8D
:1089E00008B1FEF741F8184803210C30FEF799FC56
:1089F00008B1FEF739F8FFF7C3F808480022001F56
:108A00004FF400410068FEF725F908B1FEF72CF895
:108A1000FEF7AEF800F03CFCFAE7000020A70200E9
:108A2000882C0020882D0020A5A10200659F02004F
:108A3000882E00205941584E6F726469635F55411A
:108A400052540000D5920200A4350020F59A02008D
:108A5000AC2A0020419B0200659B02009B82020021
:108A60000D0A5541525420737461727465642E0D61
:108A70000A00000070B5144682880E46054620881C
:108A8000111D0144921C994201D8FE2A01D90C20E3
:108A900070BD521C32542088FF21401C80B22080BF
:108AA00031542088401C80B220808119288801F030
:108AB00038FD2188084480B22080AA8842B1A96884
:108AC00041B13044FDF76AFC2088A9880844208021
:108AD000002070BD072070BDF8B50F460178144620
:108AE0000546012901D1687830B12088821C9A425C
:108AF00032D8012902D006E00720F8BD6978014488
:108B0000891C994228D8181A801E86B2ADF80060D8
:108B10002188B81C084469467DDF0028EDD12978FA
:108B2000022904D06878BDF80020904205D3BDF832
:108B30000000B04201D809200AE00820012905D12F
:108B40006978B14202D8ADF8001001E0ADF80060DC
:108B5000BDF80010FE2901D90C20F8BD2288491C5F
:108B6000B9542188491C89B2218078542088401C3E
:108B70002080BDF80010084420800020F8BD01F0DE
:108B80001F0301229A40D243490900EB810011469C
:108B900000F015B84A0950F8220001F01F02012127
:108BA0009140084000D00120704701F01F030122CE
:108BB0009A40490900EB8100114600F006B808B55B
:108BC0006A46FDF740FB009808BD08B56A46FDF708
:108BD0002DFB009808BDC20800F007030120895C46
:108BE00098400840704710B5C20800F00703885C41
:108BF00001249C402043885410BD28B1A1F11702E4
:108C0000E12A03D3072070470E207047018000201F
:108C1000704710B560B10161F72120F8021B20F800
:108C2000021BFB2100F8021BFFF788FD002010BD8E
:108C30000E2010BD2DE9F047B0F804A08EB00C4610
:108C40005FEA0A0957D10188564E012700252429D9
:108C50007BD006DC102909D0112929D0232926D15F
:108C600099E03A2928D0552921D147E0217921736B
:108C7000C07BA61D012802D0022804D101E0208873
:108C800000E06088308031887088814208D9484689
:108C9000A5DF10B1112802D002E0777100E0377132
:108CA000B179F07981426BD94846FFF71DFB67E047
:108CB000A01DFFF743FD63E02246408934F8061FFC
:108CC000814200D808466080172800D217206080B3
:108CD000106970B1607960B1D6E90001CDE9000199
:108CE000ADF802906088ADF804001369694610463B
:108CF0009847657125710EB0BDE8F087C08804F112
:108D00000608172800D21720B8F80010814200D8B2
:108D10000846A8F8020088F804502846B8F8001061
:108D2000B5DF98F8050058BB206948B3D6E90201C1
:108D3000CDE90001ADF80290B8F80200ADF80400EA
:108D40002046694622691AE0FFE7011D2C22684689
:108D5000FDF724FBBDF80000BDF8042004EBC001C2
:108D60004A73226962B1D6E90423CDE90B23ADF839
:108D70002E00487B8DF83000226920460BA99047D1
:108D8000A07A0028B7D0E1885046A5DF0028B2D1EC
:108D9000A572E772AFE7017A207B884284D2014650
:108DA00082E700007CA7020020B10278DE2A03D00F
:108DB000082070470E20704741800020704760B146
:108DC00059B10278DE2A0AD009684160DE210170BB
:108DD0004FF6FF714180002070470E207047082039
:108DE00070477FB5054600294DD0002D4BD008783F
:108DF0000C46DE2847D1A8886188884202D12046E7
:108E000001F0D4FB2888012825D002283BD0112866
:108E10003AD0512837D135F8040F6188884232D1D1
:108E2000A978A81C02292ED1017A042903D0062989
:108E300001D0052927D10021009102228DF80020C0
:108E400001914FF4C07202910391ADF80420007AB1
:108E500005280FD010E0297A2046012913D1A988CE
:108E6000428891420FD10121017204B0BDE87040E7
:108E700001F09CBBADF8041028886946B0DF0028DB
:108E800001D0616888477FBDA88861888842FAD18F
:108E90004FF6FF7060807FBD00F1804000680028C1
:108EA00000D00120704708B500F18040002101602A
:108EB0000068009008BD000070B50B4C207808B128
:108EC00085250FE00020A06060602061E060074819
:108ED00000F05EFB054600F0DDFA08B900F042FB49
:108EE00001202070284670BD8C3900200D810200C1
:108EF00038B500258DF800506846FDF795FF074C02
:108F0000E068401EE060E06810B900F051FBA57019
:108F10009DF80000FDF7ACFF38BD00008C39002043
:108F2000F0B505460478154889B0164640F8242067
:108F3000124A08690832A2F10C0742F82400487F5F
:108F4000385520226846FDF729FA04942878385CC1
:108F500048B10EB10A4A00E000226946281D00F01F
:108F6000BBFC09B0F0BD0EB1064A00E00022694624
:108F700005F10C0000F068FBF3E70000002B002077
:108F800001A40200A9A2020030B40378054CE35CFE
:108F90001BB130BC001D00F0D5BC30BC0C3000F063
:108FA000BBBB0000FC2A002030B40378054CE35C16
:108FB0001BB130BC001D00F047BD30BC0C3000F0D0
:108FC00021BC0000FC2A00202DE9FF411C46DDE900
:108FD0000A7815460E46684600F09CF846EA4501B8
:108FE00041EA840141EA072242EA0841009A00EB83
:108FF0008200C0F80017BDE8FF812DE9FF411C4643
:10900000DDE90A7815460E46684600F0ADF846EAF6
:10901000450141EA840141EA072242EA0841009AF7
:1090200000EB8200C0F80017BDE8FF812DE9FF4189
:109030001C46DDE90A7815460E46684600F0A2F89F
:1090400046EA450141EA840141EA072242EA084131
:10905000009A00EB8200C0F80017BDE8FF811CB544
:1090600000220B46009211460192FFF7ADFF1CBD96
:109070001CB500220B46009211460192FFF7BDFF7E
:109080001CBD1CB500220B46009211460192FFF751
:10909000CDFF1CBD1CB5002100910B4601220191A2
:1090A0001146FFF791FF1CBD1CB5002100910B4636
:1090B000012201911146FFF7A0FF1CBD1CB5002144
:1090C00000910B46012201911146FFF7AFFF1CBD35
:1090D00013B50C46684600F039F8009900EB8101A1
:1090E000D1F8002722F44032C1F80027009900EBA4
:1090F0008100D0F8001741EA0441C0F800171CBDF8
:1091000001B5684600F006F8009A01219140C0F8C8
:109110000C1508BD0168202902D24FF0A04070470D
:1091200001F01F010160014870470000000300507A
:109130000168202902D24FF0A040704701F01F01C2
:1091400001600148704700000003005001682029B9
:1091500002D24FF0A040704701F01F0101600148AA
:1091600070470000000300500168202902D24FF030
:10917000A040704701F01F010160014870470000E6
:10918000000300500168202902D24FF0A040704730
:1091900001F01F010160014870470000000300500A
:1091A00001B56846FFF7B6FFD0F810050099C84032
:1091B00000F0010008BD01B56846FFF7ABFF009A5B
:1091C00001219140C0F8081508BD01B56846FFF7B8
:1091D000CBFF009A01219140C0F8081508BD01B5E8
:1091E0006846FFF7CFFF009A01219140C0F80815AB
:1091F00008BD38B501240090684631B1FFF798FFEB
:1092000000998C40C0F8084538BDFFF791FF0099E0
:109210008C40C0F80C4538BD1CB5094C0144D4E95C
:109220000034CDE900346C4606E000BF54F820302D
:10923000D3F81035401C08C28142F7D81CBD00008D
:10924000A4A70200034908B5084400210160006892
:10925000009008BD0060004002494058012800D03D
:109260000020704700600040064910B5002048709B
:10927000091D0860BFF35F8F0349044800F02EF911
:10928000002010BD602B002000A80200943B0020AD
:1092900008B500208DF800006846FDF7C5FDF1EE29
:1092A000100A20F09F00E1EE100ABFF35F8F08491B
:1092B0004020C1F880029DF80000FDF7D9FD00F0C4
:1092C000E9F808B141DF08BD20BF40BF20BF08BD9D
:1092D00004E000E0FDF7C8BB20B103490968016064
:1092E000002070470E20704784A80200FEB5064695
:1092F0000D460846FFF7F0FF002844D100240094F3
:109300000194012706208DF80060ADF80400029456
:109310008DF80270694620202A6869DF00948DF874
:1093200001708DF80240019402948DF80340694663
:1093300040202A6869DF00948DF80060F720ADF8BE
:10934000020001940294694623202A6869DF009490
:10935000019402948DF80070694601202A6869DF43
:109360004FF4B0600090019402946946A1202A68ED
:1093700069DF0094019402948DF800406946A020B2
:109380002A6869DF0020FEBD60DF002802D1024AA2
:1093900001211170704700006F2B002030B5154877
:1093A000ADF5017D0078002821D04FF4FA7500BF9B
:1093B000ADF8005280A9684661DF38B1052816D0A3
:1093C0000DF5017DBDE83040FDF74EBB6C460A4906
:1093D0007DA800F083F806E0D0E900212046904700
:1093E0007DA800F092F87F980028E1D0F4E70DF511
:1093F000017D30BD6F2B002088A802007CB5194C80
:10940000207808B108207CBD0120A070002000F069
:10941000CBFC112819D0002000F0DEFC12480026F9
:10942000006801908DF800606846FDF7FDFC0F496B
:1094300001A810DF05000AD0002020709DF8000070
:10944000FDF716FD2DB128467CBD00207CBD012016
:10945000F3E7A670667000F059FD012000F0BCFC37
:10946000F3E700006C2B00201CA80200396A020000
:109470000EB50749684600F031F805E0D0E9001064
:109480008847684600F041F802980028F6D10EBDE2
:1094900038A8020001480078704700006C2B0020BB
:1094A0001FB568464BDF30B1052814D004B0BDE8C5
:1094B0001040FDF7D9BA084901A800F00FF806E0FE
:1094C000D0E900210098904701A800F01EF8039809
:1094D0000028E6D0F4E71FBDA4A8020001600968D7
:1094E0004160AFF3008010B5D0E900215368994284
:1094F00001D1002104E0D1E90034A34202D0194691
:10950000816010BD08314160F0E7816800290BD00F
:10951000026892680A44826041684B689A4203D1AB
:1095200008314160FFF7DFBF70474058002800D086
:109530000120704708B5002242504058009008BDF5
:10954000D0F80403084000D001207047405800289C
:1095500000D00120704708B50022425040580090CA
:1095600008BD000008480068012110F0010F06D175
:109570004FF0E020C02280F80024C0F80011034919
:10958000012008607047000000E100E0180500407D
:109590000649024600200B790BB1852070470A600E
:1095A00001220A7100224A7170470000102B00202E
:1095B00004490120086004480168C1F30041002902
:1095C000FAD170470C00004018040040002802D077
:1095D000014980010847704741A70200002802D0D6
:1095E0000149800108477047C1A702000121B1EB82
:1095F000507F01D1012070470020704738B50D46DB
:1096000000F040FB040014D000208DF800006846F4
:10961000FDF70AFC207928B19DF80000FDF728FC31
:10962000112038BD0120256020719DF80000FDF754
:109630001FFC002038BD00000149024800F04CBE6C
:109640000C3A0020002000402DE9F0410546007949
:1096500016460F4600EB40012C4A01EBC00102EB1D
:10966000810494F82A1011B10820BDE8F08128493E
:1096700051F820102868FFF7C1FF08B11120F4E766
:1096800039462846FDF70EFC6660386920603000D8
:109690004FF001062DD03F7F4FF48E712868FFF701
:1096A00049FF4FF4A2712868FFF744FF2868194961
:1096B000C0F8041328684FEA471140F30730002828
:1096C00006DA00F00F0000F1E02080F8141D03E03E
:1096D00000F1E02080F80014286840F3073000F023
:1096E0001F0106FA01F14009800000F1E020C0F8F6
:1096F000001128680421C0F800150020A061E06175
:1097000084F8290044F8140FA675AEE70C3A00203F
:10971000ACA70200800002002DE9F05F0546007949
:109720004FF4017600EB400303EBC000344B03EB36
:1097300080040020636813B12B68C3F80863A36931
:109740004FF000096BB1E06938B1606810B128686A
:10975000C0F804631120BDE8F09FE261012021619F
:1097600005E0C4F82490A261E160C4F81C9094F86C
:109770002910014302D1284600F0DDFA6068002874
:10978000286803D0C0F804630020E4E74FF4A27611
:109790003146FFF7CFFEB2464FF4927B5946286818
:1097A000FFF7C3FE06464FF484712868FFF7BDFE3D
:1097B000804651462868FFF7B8FE074648EA07008A
:1097C0003043EBD056EA070007D12146286800F065
:1097D00083FAA169606A8142E0D8C4F818900EB19A
:1097E0000320B8E70FB10F20B5E794F82910012046
:1097F0000029296801D00860C6E74860C4E7000076
:109800000C3A00202DE9F047054600790B4600EBA5
:10981000400101EBC000234901EB8004284600F021
:1098200043F810B11120BDE8F0874FF00008C4F8EC
:109830002080A360626184F828804FF48E764746CA
:1098400031462868FFF776FE28684FF00109C0F816
:1098500008902146286800F087FC606800BBD5F8B6
:1098600000A00EE094F8280008B10F2716E031465A
:109870005046FFF75AFE0028F4D02146504600F02B
:1098800073FC216A60698142F1D331462868FFF791
:109890004CFE0028F9D02868C0F80C90C4F8148059
:1098A0003846C0E70C3A0020007900EB400101EB9C
:1098B000C000044901EB80004069002800D001206D
:1098C000704700000C3A00200149024800F0B0BD8A
:1098D000383A0020002000402DE9F04105461646A8
:1098E00000790F46154A00EBC00102EB810494F8A1
:1098F000201011B10820BDE8F081114951F8201065
:109900002868FFF77BFE08B11120F4E739462846A6
:10991000FDF703FB6660386920601EB1397F284679
:10992000FEF794FE28680821C0F800150020A06109
:10993000E0616061012184F82010DCE7383A002002
:10994000B0A702002DE9F05F044600790E4600EB57
:10995000C001DFF8F0A017460AEB81053046FFF79B
:1099600045FEB0B168684FF000084FF4047910B1BB
:109970002168C1F80893A8694FF0000B80B1E8692D
:1099800048B1686810B12068C0F804931120BDE8A0
:10999000F09F1020FBE7EF614FF001082E6102E01D
:1099A000EE60C5E9067B00254FF488712068FFF75B
:1099B000D2FD4FF4A2712068FFF7CDFD2068C0F8FA
:1099C0003465C0F838752068B8F1000F12D0D0F8AF
:1099D000001241F02001C0F800122079D04600EBBF
:1099E000C0010AEB8100406838B12068C0F80493D8
:1099F0002846CCE701210160EFE74FF4887A4FF465
:109A0000A27951462068FFF7A1FD07464946206824
:109A1000FFF79CFD06464FF492712068FFF796FD14
:109A2000014647EA06000843EBD0227902EBC20365
:109A300008EB8302C2F818B001B10325002ED7D07D
:109A40000F25D5E7383A00202DE9F04704460E46A9
:109A50000079204900EBC00001EB80051746304635
:109A6000FFF7C4FD30B1204600F036F820B11120D8
:109A7000BDE8F0871020FBE76F61AE604FF4907691
:109A8000002731462068FFF766FD4FF4AC78414669
:109A90002068FFF760FD2068AA686969C0F844255E
:109AA000C0F84815206801218160686878B9B1461E
:109AB00049462068FFF74AFD064641462068FFF701
:109AC00045FD0643F4D000B10F27002068613846F9
:109AD000CEE70000383A00200079054900EBC000CD
:109AE00001EB80004069002800D001207047000091
:109AF000383A002010B504460078002818D1A28A10
:109B00000C482169FCF74AFC0B49207D0B4A087080
:109B100000210846FCF7DCFFA18A2069084410F800
:109B2000010C0D2804D10A20FDF754F91128FAD0B0
:109B300010BD000008380020A02A00209564020013
:109B400010B550B103280CD10220FEF707F9002808
:109B500007D0BDE81040FCF787BFBDE8104000F01B
:109B6000B5B910BD0078002807D104483B21808892
:109B700076DF002801D0FCF777BF7047A02A0020CD
:109B8000F0B58BB0002601960D46044689884069E1
:109B900001AAFDF7FDF90AA8CDE908600227ADF892
:109BA0002070ADF82260218AA88808AAADDF0028BD
:109BB00019D1A069002816D00998FDF799FF00284F
:109BC00011D0019E0EB101203070182102A8FCF7BF
:109BD000FEFB8DF808700394A888ADF81000059678
:109BE000A16902A888470BB0F0BDF0B587B00C465C
:109BF00005468E1D8988406906AAFDF7C9F9182116
:109C00006846FCF7E4FB0195A088069AADF80800C9
:109C1000039231882B89002704F11200994202D166
:109C20007389022B0DD0AA8991421ED1A9690029FE
:109C30001BD08DF8007004907089ADF81400A969EC
:109C400011E0002A11D0FDF753FF20B10699012041
:109C50000870022002E00698077003208DF80000CB
:109C6000A969002901D06846884707B0F0BD00689F
:109C7000012805D0022803D0042801D00020704715
:109C8000012070470349884201D1034870470020F2
:109C90007047000000200040182B002070B50126FE
:109CA00070044FF0E0210025C1F88001084C4010FD
:109CB000C4F84803C4F8080366602F20FFF78EFC41
:109CC000A660044C2F20A560FFF788FCA57070BD2E
:109CD00000100140302B002070B5054688690C4605
:109CE00000284FF4847128460AD0FFF723FCD5F8EA
:109CF0001805626AE1688854606A401C606270BD41
:109D0000FFF718FCD5F8180570BD1FB501238DF8B5
:109D10000030CDE90121D0E90012684690471FBD0F
:109D20001FB501238DF80030CDE90121D0E90012E3
:109D3000684690471FBD10B5044600684FF4927105
:109D4000FFF7F8FB4FF484712068FFF7F3FB2068FE
:109D50000121016010BD000038B50021012548B186
:109D600001280CD0032809D1FFF7FCFBBDE83840DF
:109D7000FFF7BEB84FF0E020C0F8805138BD8DF835
:109D800000106846FDF750F8064C207808B9FFF738
:109D900093F8E068401CE060A5709DF80000FDF7B6
:109DA00067F838BD8C3900203EB50446094968463D
:109DB000FFF794FB08E000BFD0E900212046904760
:109DC00030B16846FFF7A1FB02980028F4D13EBDF0
:109DD00011203EBD20A802003EB504460849684651
:109DE000FFF77CFB07E000BFD0E900212046904749
:109DF0006846FFF78AFB02980028F5D13EBD0000B7
:109E00002CA8020002498969002900D00847704740
:109E1000F83800202DE9F0410746806A144688464C
:109E2000C8B3002531E000BFB96A05EB450001EB7E
:109E30008006B088801CFE2802D90C20BDE8F08185
:109E40002288401C08F8020020881622401C80B29C
:109E5000208008F800202088401C80B2208000EB81
:109E60000801308800F05DFB2188084480B2208022
:109E7000B28842B1B16871B14044FCF78FFA2088D2
:109E8000B188084420806D1CEDB297F82C00A842E0
:109E9000CAD80020D2E7FFE70720CFE70A780628D4
:109EA00022F0FF020A7010D2DFE800F00305070974
:109EB0000B0D002008E0112006E0212004E03120F5
:109EC00002E0122000E022200870704710B5002048
:109ED000FDF744FF08B1FCF7C7FDFDF7C5FE08B16B
:109EE000FCF7C2FD33DF002803D0BDE81040FCF7CB
:109EF000BBBD10BD002805D10349012048700020DA
:109F0000FEF7F0B8704700008C39002010B516201D
:109F1000FCF754FDA0B1114890F80004400908284E
:109F200011D20121814011F0EC0F0CD00C48826855
:109F30004FF480016AB1016841F48001016010BDF5
:109F400042F2010001E042F20200BDE81040FCF7DD
:109F50008BBD4FF0E020C0F8001110BD16E000E00E
:109F6000883B002070B5FCF785FA074C0020074DB0
:109F70006070C0B2285CFCF72DFF6078401CC0B256
:109F800060700628F5D370BDA02A0020D42A0020D6
:109F90002DE9F84F1D4C00256846D4E901A6FEF7CF
:109FA000B3F9002738B30023009A61681CE0D1F8A8
:109FB00000C00846944503D9ACEB02020A6015E0E4
:109FC000A2EB0C0263440760D0F80CC0C169814663
:109FD000BCF1000F08D006EB030828F07F48C0E969
:109FE000018CC9F81C5005460029E0D12846616063
:109FF000FEF7B0FB03E02846FEF7ACFB10B150467D
:10A00000FEF792F8E770BDE8F88F0000302B0020D3
:10A010000D4B10B5596831B102680C68A24204D8E2
:10A02000A21A0A60C161586010BD0B4603E00B46DE
:10A03000C969121B21B10C689442F8D3A41A0C60B0
:10A040000260C161D86110BD302B00202DE9F041C4
:10A05000144E77683D462C4603E0844204D02546E2
:10A06000E469002CF9D11BE0D4B1A5420BD1F86909
:10A07000706040B90C49012088600021B160F07027
:10A080002F20FFF7ABFA2168E069E86110B10268A0
:10A09000114401607068874202D00120BDE8F08160
:10A0A0000020FBE7302B0020001001407CB5064665
:10A0B00000240D468DF800406846FCF7B5FE01A867
:10A0C00000F086FA70B10570094946609DF80400F9
:10A0D00048709DF80000FCF7CBFE1420FCF7DEFA78
:10A0E00020467CBD04249DF80000FCF7C1FEF7E784
:10A0F0005C3A00202DE9F041194D6C68002C2CD001
:10A10000184800270068A968B846401A20F07F4622
:10A110002068B0420CD82146361A0744E469087C0E
:10A1200020B181F81080886949698847002CEFD1F7
:10A1300029786878814206D1401CC0B26870022834
:10A1400001D185F80180064869780C3040F821700B
:10A15000BDE8F0411420FCF7A1BABDE8F081000091
:10A16000302B00200415014070B50C4605464FF415
:10A170008E71FFF7DFF9216AA068415C206A401CFC
:10A180002062C5F81C1570BD1FB500228DF8002097
:10A190000291816801914261D0E9001268469047BE
:10A1A0001FBD000038B5017841B1012901D0022955
:10A1B00025D14068BDE83840FCF756BC114C10482A
:10A1C000A1780844FCF79AFDA078401CC0B2A070AA
:10A1D000072814D3A078ADF800000A48A3886A467F
:10A1E00007490C30FDF7AEFB082806D01328F1D044
:10A1F000052802D008B1FCF737FC0020A07038BD5C
:10A20000942B0020A02A00207CB50178244D81B336
:10A2100001290BD002292BD18DF80010C068691CD0
:10A2200001900122C81DFEF7AFFE2EE040680178C4
:10A230001C48FCF73FFC1B4C012618B18DF8006050
:10A24000019006E0A068E168814205D000208DF809
:10A250000000696868468847A068E168081AA18814
:10A26000884207D80E490122491CC81DFEF78CFE02
:10A270007CBD01E0AE70FBE70A4809491030FCF7ED
:10A28000FEFB30B103208DF80000696868468847FE
:10A29000EEE70349012201F10800FEF785FEE7E73A
:10A2A000442B0020683B00201FB50A4601788DF83A
:10A2B000001041680191017A8DF80810C068039080
:10A2C000044850F82210083850F822206846904779
:10A2D0001FBD0000082B00202DE9FF470C46054656
:10A2E0004FF40071FFF72CF901274FF40178002695
:10A2F00018B34FF4927949462846FFF716F9E0B1B2
:10A3000049462846FFF716F9C5F8088394F829004E
:10A3100000B96F6002208DF80000D5F88004C5F800
:10A3200080040390A0690290E0680190A661E66154
:10A33000D4E900126846904728E004212846FFF738
:10A34000FFF818B34FF484712846FFF7EEF8E8B130
:10A3500021462846FFF7C0FC616AA069884215D1F2
:10A36000E06938B1E268616AA0612069E66166620D
:10A37000E06008E094F8290000B96F60C5F8088330
:10A38000A661E268616A2046FFF7BFFC4FF48E7851
:10A3900041462846FFF7C9F878B1206A61698842CA
:10A3A00002D294F8280020B341462846FFF7C2F8AD
:10A3B000616911B12046FFF7E7FE4FF4A2784146EC
:10A3C0002846FFF7B2F8002818D041462846FFF784
:10A3D000B1F894F8290000B12F60A06900280DD0D1
:10A3E000A661E268616A04B02046BDE8F047FFF765
:10A3F0008CBC21462846FFF7B7FEDEE7BDE8FF87A5
:10A400001FB50A4601788DF8001041680191017A64
:10A410008DF80810C0680390044850F822100838DE
:10A4200050F82220684690471FBD0000082B0020EE
:10A430002DE9FF410C464FF4927706463946FFF767
:10A4400085F80025B8B139463046FFF784F8022078
:10A450008DF80000D6F88004C6F880040390D6F882
:10A460003C050290E0680190A561E561D4E9001225
:10A470006846904723E04FF4887739463046FFF727
:10A4800065F8E0B139463046FFF765F8D6F83C1577
:10A49000A069884213D1E06960B1E268D6F8000291
:10A4A00020F02000C6F80002E069A0612069E561A3
:10A4B000E06001E0A561E2682046FFF731FC4FF45F
:10A4C000A27739463046FFF741F868B13946304641
:10A4D000FFF741F8A06938B1A561E561D6F83C15F0
:10A4E0002046E268FFF71CFC4FF49077394630466F
:10A4F000FFF72CF8002812D039463046FFF72BF82A
:10A50000606900280BD0D6F84C058DF800500290F9
:10A51000A06801906561D4E9001268469047BDE8E3
:10A52000FF810870000A487002207047F8B50546A0
:10A5300080B2FEF781F8040013D0154E207A002770
:10A54000317B88420ED2A8B204F10A0175DF28B12E
:10A55000112806D0BDE8F840FFF754BC207A401C13
:10A560002072F8BD2772307C38B1A8B23B2176DF6B
:10A5700018B1082801D0FFF745FC71690029F0D017
:10A580008DF80070ADF8025068468847F8BD0000AD
:10A59000F8380020417939B190F8521221B990F879
:10A5A000540208B1012070470020704730B40446BF
:10A5B000007A00280AD06088002166DF28B11128BF
:10A5C00002D0616830BC08470120207230BC70475F
:10A5D0000A494A788B78521CD2B2934200D10022A9
:10A5E0000B78934201D1002070470270487800EB4D
:10A5F000400001EBC000001D704700005C3A0020E5
:10A600002DE9FC411646DDE90854CDE900541F460A
:10A610008046022200F00CF8002807D1CDE9005452
:10A620003B4610223146404600F002F8BDE8FC816E
:10A630002DE9FC5F0026DDE90C4B994692468E46DB
:10A6400080462788354630E0D8F80400002200EB29
:10A65000850069460068019001A864DF002830D1B8
:10A660009DF8000050451FD10EB1002100E00221ED
:10A67000228808441118594522D846B9521C90B274
:10A68000208009F800E02088401C208001262188D5
:10A6900001A801EB0902694664DF002811D1208876
:10A6A0009DF80010084420806D1CB8F80000A842F6
:10A6B000CADC56B12088C01B401E80B2FF2802D9D8
:10A6C0000C20BDE8FC9F09F807000020F9E7000016
:10A6D00010B504281DD209B1032400E00024FDF7C1
:10A6E0005FFA202802D24FF0A04102E00A4900F0B0
:10A6F0001F0001EB8000D0F8001721F44031C0F8B2
:10A700000017D0F8001741EA0441C0F800170020F4
:10A7100010BD062010BD000000030050742B002067
:10A72000080000000600000005000000070000000F
:10A730000000000000E0D701000000000000000061
:10A740000338FDD870470D0E0F100B0C18190000C0
:10A750005838002078380020A43800200B0003006F
:10A76000897C02000C000300897C020018000300B1
:10A77000897C020019000300897C0200770A00002E
:10A7800000000000770A0000000000007ADA0000F4
:10A79000000000009ECADC240EE5A9E093F3A3B5F7
:10A7A0000000406E00000050000300503996020087
:10A7B000C998020000000000000000000000000036
:10A7C0000338FDD870470000FFFFFFFFFFFFFFFFCA
:10A7D000FFFFFFFFFFFFFFFF000000000000000081
:10A7E0000000D6010601000000000000000000008B
:10A7F0000000000000000000000000000000000059
:10A80000E8A7020000A80200040000000000000009
:10A810000000000000000000000000000100000730
:10A820000CA802001CA802000800000044A80200B6
:10A8300054A802000800000054A8020064A8020006
:10A840000800000030A9020038A902000000000042
:10A850000000000020A9020030A902000000000052
:10A8600000000000D0A80200D8A80200D8A802006A
:10A87000F8A80200F8A8020008A9020008A902002E
:10A8800010A90200982A002064A8020084A80200EF
:10A890000800000010A9020018A9020018A902006F
:10A8A00020A9020094A80200A4A802000800000049
:10A8B00038A90200982A0020DC0000009C690200F0
:10A8C00014AA0200742B00202C300000AC69020096
:10A8D0004178020000000000358C02009035002015
:10A8E000B7720200B0350020D576020000000000EB
:10A8F0004577020000000000817A0200AC2A0020A7
:10A90000E38D0200A4350020417602000000000023
:10A91000F59E02000000000021730200B035002007
:10A920009D93020000000000A194020000000000BE
:10A93000599D020000000000C82A00200100040008
:10A9400000000000FFFF14000100020000000000F2
:10A9500000000000000000000000000000000000F7
:10A96000982A002000000000000000000000000005
:10A9700000000000000000000000000000000000D7
:10A9800000000000000000000000000000000000C7
:10A9900000000000000000000000000000000000B7
:10A9A00000000000000000000000000000000000A7
:10A9B0000000000000000000000000000000000097
:10A9C0000000000000000000000000000000000087
:10A9D0000000000000000000000000000000000077
:10A9E0000000000000000000000000000000000067
:10A9F0000020004000000000002000400000000097
:10AA00000000000000000000000000000000000046
:04AA10000090D003DF
:040000050002620192
:00000001FF
