:020000040002F8
:10600000E0580020F962020001630200036302000D
:10601000056302000763020009630200000000003C
:106020000000000000000000000000000B63020000
:106030000D630200000000000F6302001163020004
:10604000E966020013630200DD69020013630200C7
:106050001363020013630200D164020013630200A1
:106060001363020013630200136302001363020050
:106070001363020013630200136302001363020040
:10608000E96902008D6702001363020013630200D6
:10609000F767020013630200FB670200136302004C
:1060A0001363020013630200136302001363020010
:1060B00013630200136302000000000000000000F0
:1060C00013630200136302001363020013630200F0
:1060D00013630200136302001363020013630200E0
:1060E0001363020013630200136302000000000048
:1060F00000000000136302000000000013630200B0
:10610000000000000000000000000000000000008F
:10611000000000000000000000000000000000007F
:10612000000000000000000000000000000000006F
:10613000000000000000000000000000000000005F
:10614000000000000000000000000000000000004F
:10615000000000000000000000000000000000003F
:10616000000000000000000000000000000000002F
:10617000000000000000000000000000000000001F
:10618000000000000000000000000000000000000F
:1061900000000000000000000000000000000000FF
:1061A00000000000000000000000000000000000EF
:1061B00000000000000000000000000000000000DF
:1061C00000000000000000000000000000000000CF
:1061D00000000000000000000000000000000000BF
:1061E00000000000000000000000000000000000AF
:1061F000000000000000000000000000000000009F
:10620000DFF80CD000F0FEF800480047C587020018
:10621000E058002030B4044654E8000F0D4644E82E
:106220000053002BF8D1156030BC704730B40446E1
:1062300054E8000F40EA010544E80053002BF7D171
:10624000156030BC704730B4044654E8000F00EAD3
:10625000010544E80053002BF7D1156030BC7047AE
:1062600030B4044654E8000F80EA010544E80053C6
:10627000002BF7D1156030BC704730B4044654E8A9
:10628000000F00EB010544E80053002BF7D1156027
:1062900030BC704730B4044654E8000FA0EB010551
:1062A00044E80053002BF7D1156030BC704770B440
:1062B00004464FF0000054E8006F0D68AE4207BF7F
:1062C00044E80023012044E800630E60002B1CBF5B
:1062D0000020F0E770BC704730B4044654E8000F6B
:1062E00088422CBF451A054644E80053002BF5D1DF
:1062F000156030BC704700000648804706480047DC
:10630000FEE7FEE7FEE7FEE7FEE7FEE7FEE7FEE765
:10631000FEE7FEE701680200016202002DE9F05F7E
:106320000546002092469B46884606468146402404
:106330001BE0284641464746224600F053F85346A4
:106340005A46C01A914110D311461846224600F011
:1063500016F82D1A67EB01084F462246012000214E
:1063600000F00DF817EB00094E41201EA4F10104C6
:10637000DFDC484631462A464346BDE8F09F202AE6
:1063800004DB203A00FA02F1002070479140C2F18C
:10639000200320FA03F319439040704740EA0103B9
:1063A0009B0703D009E008C9121F08C0042AFAD2CB
:1063B00003E011F8013B00F8013B521EF9D270478F
:1063C000D2B201E000F8012B491EFBD27047002237
:1063D000F6E710B513460A4604461946FFF7F0FFE4
:1063E000204610BD202A04DB203A21FA02F00021C9
:1063F000704721FA02F3D040C2F1200291400843D5
:1064000019467047064C074D06E0E06840F001036E
:1064100094E8070098471034AC42F6D3FFF7F4FE37
:10642000B09E0200D09E020070B50D4606460524BF
:1064300001232A463146182001F0C6FF002804D067
:10644000641E14F0FF04F3D1012070BD38B5054679
:1064500005248DF8001001236A462946182002F011
:106460007BF8002804D0641E14F0FF04F3D101204F
:1064700038BD08B569460920FFF7D6FF9DF8000032
:1064800000F00400800808BD70B5064D0024A01C73
:106490002919C0B2FFF7C8FF641CE4B2062CF6D37A
:1064A00070BD0000E42A002070B50024064D074EA0
:1064B00003E0305D00F048FC641C28788442F8D387
:1064C0000020287070BD0000A02A00204835002060
:1064D0002DE9F04F00268DB0DFF8A081B14604967B
:1064E0004FF48075012437460596284602F084FD56
:1064F00038B1D8F80403204203D0284602F072FDD8
:1065000026432D1D64007F1CADB2082FEDD34FF440
:10651000BE74204602F070FD48B1204602F062FDD4
:1065200046F0004604AA0221002002F045FD544C2A
:1065300016F0FF0F15D00127002537420DD008EBCC
:106540008501D1F81005D1F81015C0F3052054F8D5
:106550002520C1F3014102B190477F006D1C082D39
:10656000EBD3002E7EDA0020CDF82890411E0DF1ED
:10657000100B07AACDF82C9042F82010401C914631
:106580000228F9D300252E46A11911F8607F91F950
:10659000000027F0C008401C40D007A9404602F088
:1065A000B6FA40B34FEA971A404601F0BBFC54F8E4
:1065B00020701FB1BAF1030F03D006E0BAF1030F48
:1065C0002CD10AA9404602F0AAFA02A8CDF8088008
:1065D00002F0BCFC029900EB8100D0F8000704A98E
:1065E000C0F301400290404602F091FA0028029860
:1065F00002D0022802D011E003280FD1BAF1030F14
:1066000008D10298022833D00221404602F060FCF3
:106610006D1CEDB217B151464046B847761C042EAA
:10662000B2D3002D21D001AA0221002002F0C4FC27
:1066300000205A460DF1040152F8206051F8203034
:10664000B34217D000200AAE4FEA090351F8207078
:1066500042F8207056F8207043F82070401C022841
:10666000F4D300E001E0002D8CD10DB0BDE8F08F37
:106670000321CAE7401C0228DED3F6E70060004091
:10668000E036002000F01F02012191404009800007
:1066900000F1E020C0F88012704700F01F020121D5
:1066A00091404009800000F1E020C0F800117047DF
:1066B00000F01F02012191404009800000F1E0201C
:1066C000C0F8001270474907090E002806DA00F0EA
:1066D0000F0000F1E02080F8141D704700F1E02069
:1066E00080F80014704700002DE9F0414FF48076E7
:1066F000304602F06DFB234CB50560B1304602F028
:106700006EFB0120C5F80803607920B90120607193
:106710002168002088474FF48276304602F058FB0B
:1067200040B1304602F05BFB0220C5F80803216847
:10673000012088474FF48876304602F049FB40B18B
:10674000304602F04CFB1020C5F8080321680220F7
:1067500088474FF48677384602F03AFB00280ED07F
:10676000094800260660384602F039FB0820C5F8C3
:106770000803A6712168BDE8F04103200847BDE881
:10678000F0810000202B0020340C0040074800213D
:10679000C0F84011C0F84411C0F84811C0F84C11BD
:1067A000C0F80011C0F8041103F088B900100140CE
:1067B000F8B54FF4FA750D2002F080FB0C2002F0C2
:1067C0007DFB0C2002F0DBFB0D27012668460097BD
:1067D00002F0A0FBD0F80415009A06FA02F424EAAD
:1067E0000102C0F808250C40C0F80C456D1E2D04B0
:1067F0002D0CEBD1F8BD03F0AFB802F009BD0000DD
:1068000030B54FF0805000228300D0F83011C3F82B
:106810000C21C3F81021624B1A60624B1B68624C5A
:106820002360604B1B1D1B68241D23605D4B0833D8
:106830001B68241D23605B4B0C331B68241D2360E5
:10684000584B10331B68241D2360564B14331B68B0
:10685000241D2360534B18331B68534C2034236092
:10686000504B1C331B68241D23604E4B20331B6888
:10687000241D23604B4B24331B68241D2360494B8C
:1068800028331B68241D2360464B2C331B68241DB2
:106890002360444B30331B68434C40342360414BEE
:1068A00034331B68241D23603E4B38331B68241D82
:1068B00023603C4B3C331B68241D2360394B403321
:1068C0001B68241D23600123082902D1D0F834411C
:1068D00014B1082904D006E0354C3449216005E0A4
:1068E000D0F8344114B1082904D006E0314CFB2122
:1068F000216005E0D0F8344114B1082908D00EE039
:1069000090F858422C48016864F30301016002E0EA
:10691000D0F834411CB929494FF400700860284868
:106920000168C90702D06FF00101016025480168C4
:1069300041F470010160BFF34F8FBFF36F8F4FF0D1
:106940001021D1F80002002803DBD1F8040200284E
:1069500022DA1D4C23601D480368002BFCD0122353
:10696000C1F800320568002DFCD0C1F8043201687E
:106970000029FCD0226001680029FCD0BFF34F8FB2
:1069800010487C380168124A01F4E061114301604B
:10699000BFF34F8F00BFFDE70F490E48086030BDC1
:1069A000380500400404001020C500404881030061
:1069B0008C56004018F50040E40E0040409602401E
:1069C0000004004088ED00E004E5014000E40140DF
:1069D0000400FA050090D003842B002001480068D1
:1069E00000470000282B002038B5064C2068002501
:1069F000002805D004484068804725602068009042
:106A000038BD000000010140302B002002E008C822
:106A1000121F08C1002AFAD170477047002001E018
:106A200001C1121F002AFBD170470000012120285C
:106A300003DA81400548014003E0402802DA2038AB
:106A4000814009B10120704700207047FC06FFBD5E
:106A500010B501220221002001F04EF908B10728EB
:106A600010D107220221012001F046F908B10728C0
:106A700008D100210A22084601F03EF908B1072892
:106A800000D1002010BD000010B50321044800F023
:106A90008CFB002803D0BDE8104000F01BB810BDEF
:106AA000F032002072B609480068C00700D000BE6E
:106AB000BFF34F8F0548E4380168054A01F4E061EF
:106AC00011430160BFF34F8F00BFFDE7F0ED00E021
:106AD0000400FA050EB500210091CDE901106A46C7
:106AE00044F20100FFF7DEFF0EBD10B58268C368F7
:106AF000934203D001F018FC002010BD052010BD0A
:106B000010B58268C3689A1A83889A4203D801F044
:106B100015FC002010BD042010BD00002DE9F84F29
:106B2000254C8146924660880E46814241D8002716
:106B30004FF6FF788DF80070684600F02FF9227844
:106B40006078A188884201DA401C00E00020C0B2D1
:106B5000904204D19DF8000000F044F927E06578E8
:106B60006078884201DA401C00E0002060709DF8E7
:106B7000000000F037F9454519D0A068B9F1000FC1
:106B800040F835A00DD066B16188E068324605FB5B
:106B900001004946FFF702FCA06800EBC5008680B3
:106BA00002E000EBC50087800020BDE8F88F0420DC
:106BB000FBE70920F9E70000382B002010B50E4C48
:106BC00003E0401C00E000202070207861788142C2
:106BD00010D022786188E068A36802FB010003EB13
:106BE000C20153F83220898890472078A1888842D2
:106BF000E9DAE6E710BD0000382B002030B5CB0005
:106C000008339DB293074FF0000401D0072030BD38
:106C1000044B9A602A44DA605C701C70588099803A
:106C2000002030BD382B0020074B9B7823B12AB1C0
:106C300020B10068037C1BB1082070470720704713
:106C400041744261002070479C37002070B502F00B
:106C500017FD104800240B21047044700E4D817004
:106C600014206C602C706C70FFF70CFD0621142052
:106C7000FFF729FD1420FFF710FD084804600621E6
:106C80001120FFF720FD0548001F0068A8600020C4
:106C900070BD00009C370020482B002008150140E3
:106CA0002DE9FC47DFF8789099F8023073B368B3A8
:106CB000052902D20720BDE8FC87436933B3437C32
:106CC000012B25D0002704460025884616468DF85E
:106CD0000050684600F062F801A802F091FFC8B1C8
:106CE000012101700F4944600968C0E90218C0E938
:106CF00004769DF8040089F801009DF8000000F07A
:106D000071F81420FFF7D4FC2846D4E70820D2E716
:106D10000F46D8E704259DF8000000F063F8F3E77C
:106D20009C370020041501400649897839B130B1FB
:106D3000416921B100210174022102F09BBE0820AB
:106D4000704700009C37002010B501461048FFF73F
:106D5000D7FE040019D10F480F4A0178515C19B1D0
:106D6000001D02F0B7FB02E00C3002F05BFB60B9E3
:106D7000084907480839FFF7B8FE30B9054901222C
:106D80000839044802F068F80446204610BD0000A7
:106D9000B8380020642B00200C2B002030B5EFF316
:106DA000108172B60D4A9468012324B10370002942
:106DB00000D162B630BD93604FF0E023D3F880512C
:106DC000074C25401560C3F88041D3F884415460D6
:106DD0005A17C3F8842100220270E8E7C83800205F
:106DE000FC06FFBD0B498A68002A11D000280FD18C
:106DF000EFF3108072B60B684FF0E022C2F800315A
:106E00004B68C2F8043100228A60002800D162B6C3
:106E100070470000C838002070B51500044609D03E
:106E20000020286034B1206820B1A079800703D009
:106E3000072070BD0E2070BD084600F001FBC0B2F7
:106E4000142804D02179814203D8042070BD052084
:106E500070BDE288216800FB02102860002070BD30
:106E60002DE9FC47002517880646158090F82D006F
:106E70001446894630B13A462146484600F0F4FAB5
:106E8000051E09D1B0784FF00C0A18B32088C84607
:106E9000001DB84202D95046BDE8FC87684679DF3C
:106EA0000028F9D12088032108F800102088192132
:106EB000401C80B2208008F800102088401C80B25E
:106EC000208000EB0801BDF8000002F041FE21889F
:106ED00008442080F0780222C8B1218896F9033056
:106EE00001F1030C4846BC45D5D8425421884FF0E7
:106EF000010C491C89B2218000F801C02188491C7D
:106F000089B2218009F801302088401C20807068F7
:106F1000B8B1218890F9003001F1030C4846BC4516
:106F2000B9D8425421880A22491C89B2218042548E
:106F30002188491C89B2218009F801302088401C31
:106F40002080308950B1CDE900474B46062202210E
:106F500006F1080002F06CFE051E9DD1308A50B18A
:106F6000CDE900474B460722032106F1100002F04D
:106F70005FFE051E90D1308B50B1CDE900474B46E6
:106F80001522142106F1180002F052FE051E83D1CD
:106F9000306A30B13B462246494601F02AF9051EC7
:106FA000DBD1706A30B13B462246494601F0FEFC17
:106FB000051ED2D196F82C0038B13B4622464946F0
:106FC000304602F0D9FB051EC7D1307838B13B46B8
:106FD00022464946304601F01BFD051EBDD128461C
:106FE0005AE718B504460020ADF8000013466A467B
:106FF000204600F006F8002802D0BDF8000020442A
:1070000018BD70B588B182B10024158803E0065D13
:10701000641C3444A4B2A54203D8061976789E4273
:1070200001D08C42F3D38C4201D3002070BDA11C4F
:107030001180005D401E80B270BD80F83010704736
:107040002DE9F0470D00044606D02CB195F87A00E2
:107050000026012803D006E00E20BDE8F08795F851
:107060009800012821D04FF00109A6702C2205F1CB
:107070007801201DFFF792F984F83060D5F8A4005C
:107080006063D5F8A800A0634FF6FF70A4F848022B
:1070900004F50D70C4F84402C4F84A62A4F84E62C4
:1070A00084F85062207810B104E00720D5E7FF2073
:1070B00084F8540004F15501C4F8341294F8240003
:1070C000EE274FF01F08012833D0A4F8388200BF04
:1070D00004F50E722846FFF7C3FE0028BDD104F266
:1070E0004311C4F83C1294F82400012824D0A4F8D9
:1070F000408200BF04F5107205F13C00FFF7B0FEBE
:107100000028AAD184F85190208BA4F8480084F874
:107110003C90266484F85060606960644D4604F1D8
:107120003C02002104F1540072DF002895D1257043
:1071300093E7A4F83872CBE7A4F84072DAE710B509
:107140000288102A1BD0112A20D0262A1DD1007AAD
:107150000C46012801D0022817D1A0780521401C37
:10716000B0FBF1F201FB1201204600F01EF80028EE
:107170000BD0A16B002908D0BDE810400847C27BA6
:10718000012A02D18088A1F8480210BD0C460021D6
:1071900084F852128088B4F848128842F5D12079D8
:1071A0000028F2D10121DFE770472DE9F05F0446A6
:1071B00000780F4698B1A7700025C4F84A52A4F889
:1071C0004E5284F85052A079012608B1012F09D0FF
:1071D000E07980B1012F05D0022F03D00BE0082009
:1071E000BDE8F09F616B21B184F8516208208847A7
:1071F00001E084F8515204F24B2100200A5C0AB1EC
:10720000304603E0401C0628F8D300204FF0020867
:107210004FF0030B012F06D0022F0CD0032F0FD0FD
:10722000042F15D110E0A17929B194F8241011B9D7
:1072300008B130460DE0E17911B108B1404608E0EF
:10724000207A08B1584604E0607A08B1042000E0D2
:107250002846A070616B41B1032801D0042804D1F5
:10726000607910B194F85202A0B184F8535204F13D
:107270003C0018210746FFF7AAF804F12C0084F817
:107280003C60814602F0F1F958B194F82C0084F882
:10729000510008E084F8545284F85362072088476C
:1072A000E5E784F8516094F8240050B1484602F0B4
:1072B000DCF920B194F8280084F8520001E084F849
:1072C000526084F85050A27804F24A2104F50D79F6
:1072D0004FF0060A052A62D2DFE802F07A030F2295
:1072E000410084F83160C4F84452C4E9101584F8B0
:1072F0003C808020A4F8480053E084F8318094F862
:107300002420384612B10722027001E080F800B054
:10731000228A8281C4F844524160E168B96040E049
:107320006069B860208BB88194F824003D4610B1A4
:1073300084F83CA001E084F83C60204602F042FC66
:1073400050B185F814800421204601F000F830BBCC
:10735000052184F8311020E084F831B01DE0E069A7
:10736000B860208CB88194F824003D4610B184F8B0
:107370003CA001E084F83C60204602F023FC48B1C8
:1073800085F814800421204600F0E1FF38B984F824
:1073900031A002E0042084F83100C4F84492A078BF
:1073A00078B13A4604F15400D4F8441272DF002850
:1073B0007FF416AF94F8301094F8540073DF00286F
:1073C000F6D1616B11B194F831008847002007E7CE
:1073D00084F83150F5E7000070B5040012D0014682
:1073E0001C221448FEF7DAFF1248134D056020688E
:1073F00050B17ADF002806D1206801682960406812
:10740000686005E00E2070BD0B487BDF0028FAD1D4
:1074100008484FF6FF711438084A20F8041B054944
:10742000343901600021FFF7FFFB0028EBD0032077
:1074300070BD000038360020042B00205D9B020048
:1074400010B5044600F006F808B1204610BD14201F
:1074500010BD0000142801D30020704701460148E8
:1074600001F034BB583600207CB5054608880C4630
:107470000930904201D90C207CBD68466DDF0028A0
:10748000FAD121880820685420881B21401C80B232
:10749000208029542088401C80B220802844DDF8B8
:1074A00001100160BDF8051081802088801D80B228
:1074B00020809DF80010490800D00121295420881F
:1074C000401C208000207CBD38B505460188002086
:1074D000254C212935D00BDC102913D0112929D0B6
:1074E00013292DD100231A468521E0897FDF1BE077
:1074F0003B2935D052292DD0562921D1A8881321D6
:1075000076DF11E0072000F019FC08B1FFF7E2FA7E
:10751000A988E181154801F0E3FB051E01D0FFF7C2
:10752000D9FA012060702846002809D0BDE838400B
:10753000FFF7D0BA4FF6FF71E181607020712081B2
:1075400038BD0090A88869468FDF0028F8D0FFF783
:10755000C1FA38BD00231A461946E089B1DFE3E7D6
:10756000A888132176DFDFE7A02A0020E43200207C
:1075700010B51A4C0188606810290ED011292BD142
:10758000401E606028D1FFF763FA002824D02168EC
:10759000002921D0BDE810400847D0B900210122C0
:1075A000084600F0A9FB08B107280FD107220221E5
:1075B000012000F0A1FB08B1072807D10422022115
:1075C000002000F099FB20B1072802D0216801B10A
:1075D00088476068401C606010BD0000FC2A0020E5
:1075E0002DE9F04701883B4E40F2F3194FF6FF7545
:1075F00010291BD011293ED0122954D0502946D130
:10760000C188F289841D914241D1618902293ED10C
:107610008688304600F0C6FF050038D004F10C0023
:1076200000F0B4F9A8B3294630464EE0C17B878804
:10763000044601292BD1A846284600F0B3FF0500D7
:1076400017D02F8000202872234843464A460168FD
:10765000C5F80A104068C5F80E0004F1100105F1E4
:107660000A0000F0A9FF6872F08900280FD12946AE
:107670002AE0042013E0808800F094FF040006D084
:107680006068FFF751FB08B102F06EF82580BDE895
:10769000F087FFE76868FFF747FB0028F7D0BDE8F1
:1076A000F04702F061B887880646384600F07AFF56
:1076B0000400ECD02B464A4606F1080104F10A000A
:1076C00000F07AFF607221463846BDE8F04700F0CE
:1076D000D7BD000038360020042B00202DE9F04FE4
:1076E0000746858802883D48012197B08346102AC5
:1076F00009D0112A49D01A2A6CD1387AB1EB101F5F
:1077000045D2012244E0354C083CA068C0430B90B0
:1077100061680BA801F0EFF90B990CA800F04AFD85
:107720002C220CA96846FEF739FE0026E946A04641
:1077300010E000BF09EB46005FF00004B0F804A0C1
:1077400008EB84005146001D01F0B5F9641C1D2CA6
:10775000F6D3761C0098B042ECD8142D05D317B0A0
:107760000420BDE8F04FFFF7B5B92946584601F0AF
:10777000B8F9294608F1040001F0B3F9F87B0128B3
:1077800028D016482946001D15E029461AE0002297
:107790000221B1EB101F01D2012600E000260F49A3
:1077A000083901F11000041D294682B101F099F950
:1077B00036B12946204617B0BDE8F04F01F091B927
:1077C0002946204617B0BDE8F04F01F074B901F02A
:1077D00072F9F5E717B0BDE8F08F00005C360020C5
:1077E000F0B585B016460F4604001D4614D004AA15
:1077F00019466069FFF710FB00280BD1A5F57F4003
:10780000FF380BD0049848B1007848B13088F4288C
:1078100008D9072005B0F0BD0E20FBE70520F9E7E9
:107820000820F7E700200090019002900390A088C4
:10783000ADF8000001208DF80200CDE9026769462D
:107840002846AEDFE6E7000070B5334D04008EB089
:107850002DCD08AE86E82D005BD0E9B30868A061A5
:10786000214608A862DF002851D1207801258DF833
:107870003200ADF83050A21C0CA92846A8DF002821
:1078800045D120216846FEF7A2FD0220ADF8000098
:1078900020788DF802008DF80C509DF80D00F4262C
:1078A000ADF8046040F00C008DF81150ADF80650B2
:1078B0008DF80D008DF81250608804F10C026946B5
:1078C00000F038FB002822D120216846FEF77FFD1A
:1078D0000320ADF8000000E01BE020788DF80200E6
:1078E0008DF80C509DF80D008DF81150ADF8046026
:1078F00040F010008DF81250ADF806508DF80D00D4
:107900008DF813506088221D694600F013FB0EB0FD
:1079100070BD0E20FBE70000BC9D020070B588B072
:107920000446002924D0002C22D0084621881029A2
:1079300020D0502924D057291AD10546A188406962
:1079400006AAFFF769FA002812D1069E30780028AF
:107950000ED018216846FEF73AFD01208DF8000090
:107960000195A088ADF808000396A9696846884784
:1079700008B070BD08B02146BDE8704001F0FEBD02
:1079800008B02146BDE8704001F02DBE007800F03F
:1079900001007047B6211420FEF758BD38B51F49C5
:1079A000496831B149790838FB2904D008281DD32A
:1079B0001AE0812038BD072816D205D2DFE800F092
:1079C0001E20222426282A0069461020FEF72CFDBE
:1079D0009DF80010054664F304018DF80010102096
:1079E000FEF734FD284438BDFE2038BD0828EBD210
:1079F000DFE800F00406080A0C0E10120824E3E782
:107A00000924E1E70A24DFE70B24DDE70C24DBE7A8
:107A10000D24D9E70E24D7E70F24D5E7DC2A002070
:107A200038B504461F48406848B1032C09D0052CDE
:107A300007D0082C05D00C2C03D0FE2038BD8120A7
:107A400038BD69460F20FEF7EFFC0546032C06D033
:107A5000052C0AD0082C16D00C2C0DD11AE09DF85C
:107A6000000020F00F00C01C04E09DF8000020F092
:107A70000F00401D8DF800009DF800100F20FEF74C
:107A8000E5FC284438BD9DF8000020F00F0040F0D0
:107A90000800EFE79DF8000020F00F0040F00C0018
:107AA000E8E70000DC2A0020134910B511484860BF
:107AB000FEF77EFEFFF76EFF0820FFF7B1FF0C20F8
:107AC000FFF76CFF03212120FEF7C0FC01212820D5
:107AD000FEF7BCFC00212720FEF7B8FC042119208A
:107AE000FEF7B4FC07211620FEF7B0FC0349012085
:107AF000087010BD7C350020DC2A0020A32A00205D
:107B000070B5FEF755FEFFF745FF03212120FEF774
:107B10009DFC14212820FEF799FC00212720FEF768
:107B200095FC04211920FEF791FC07211620FEF791
:107B30008DFC114C00255621257065701120FEF733
:107B400085FC21461120FEF76FFC0AE0562111202A
:107B5000FEF77CFC08491120FEF766FC6078401CAB
:107B600060702078562803D060780328EED970BD65
:107B70000248057070BD0000DC2A0020A32A002006
:107B80000149085C70470000749D0200094908B56E
:107B9000085C0090684601F0CBF9D0F80425009B02
:107BA0000121994021EA0203C0F808351140C0F8CC
:107BB0000C1508BD709D02000249085C012101F00E
:107BC000E8B90000709D02000249085C002101F044
:107BD000E0B90000709D0200084908B5085C0090FB
:107BE000684601F0A5F9D0F804050099C84010F0E6
:107BF000010000D0012080F0010008BD709D02004E
:107C000010B500242046FFF7D7FF641C042CF9D3DD
:107C100010BD10B500242046FFF7D6FF641C042CCD
:107C2000F9D310BD10B50246064B4FF0FF300021CE
:107C30005C5C944201D1084610BD491C0429F7D36D
:107C400010BD0000749D020010B5002000F066F920
:107C500008B1062806D1012000F060F908B1062815
:107C600000D1002010BD00002DE9F0470D468146EF
:107C7000FFF7D8FF0446042836D2DFF874801B488B
:107C80001C4EA8F10C0725B3012D0ED0022D2BD1CF
:107C900004EB440030444578002D25D0B968002914
:107CA00022D02846BDE8F047084704EB4401755C44
:107CB0000E44717849B10E4A4FF40041093A806888
:107CC000FEF7EEFF08B987F80390B17808F80410C2
:107CD000E2E78068FFF728F804EB4401314418F824
:107CE00004008D78A842D7D0BDE8F087789D0200C7
:107CF000F82A0020D835002070B50023042810D2BF
:107D00000D4D00EB4004012A02D101290CD00022C4
:107D1000094E00EB4000304461B1012906D0022930
:107D200006D00723184670BD0E30C2B22A55F9E7B7
:107D30004270F7E78270F5E7D8350020044A014623
:107D400000201279D20702D0084600F003B870472D
:107D5000EC2A00202DE9F05F6E4C05460026607885
:107D6000B34618B184F801B000F048FC6A4F4FF4F4
:107D70007A694FF4C87A4FF00108182D69D2DFE80C
:107D800005F00C1313384754696E727B727BC584FF
:107D900084848484B3B6B9BCC5C500F02FFC3868B0
:107DA000FEF7C2FF06465CE00020FFF715FF002843
:107DB0004FF0000008D0FFF7FFFE022D02D14FF474
:107DC000E16008E0484606E0FFF7FEFE022D01D123
:107DD000C82000E05046410CC0034FF4FA728018EE
:107DE00041F10001257052000023FEF797FA014689
:107DF0002AE00020FFF7F0FE00284FF0000004D03A
:107E0000FFF7DAFE4FF44870E5E7FFF7DDFEDFE746
:107E10000020FFF7E1FE00284FF0000002D0FFF73E
:107E2000CBFECFE7FFF7D0FED4E70020FFF7D4FE6C
:107E300000284FF0000002D0FFF7BEFE01E0FFF780
:107E4000C3FE257041F69A1100223868FEF728FF1C
:107E5000064646E00020FFF799FE257008E0002066
:107E600051E025703DE084F801800120FFF78EFE8F
:107E7000002240F6CD41E8E784F801800120FFF7B9
:107E800085FE00224FF48041DFE77868FEF74CFF63
:107E90000646D5F1110000D02EB10220FFF78CFE6E
:107EA00084F802B01DE0012816D980B2C8214843E9
:107EB000C117C90341EA5041C0034FF4FA72801858
:107EC00041F1000152000023FEF728FA014600228A
:107ED0007868FEF7E5FE06460220FFF775FE84F897
:107EE00002803046BDE8F09F00F088FBB9E700F063
:107EF00085FBB4E700F082FB04E000F07FFB00208C
:107F0000FFF762FE0120FFF75FFEAAE7FFF781FEA1
:107F1000A7E70000EC2A0020789D0200012101F073
:107F2000EFBE00000249084490F93000704700009D
:107F3000E03600202DE9F0438146887891B09046E4
:107F40000C4600B901208DF83E002088ADF83C00B9
:107F500000250095607C694601F052FC6E46A07CCD
:107F6000711C01F04DFCE07B00289DF8020002D05E
:107F700040F0080001E020F008008DF80200217CAC
:107F800011B140F0100001E020F010008DF8020067
:107F9000217B11B140F0010001E020F001008DF8DB
:107FA0000200217D09B1022100E0012161F34200BC
:107FB0008DF802001C2102A8FEF709FA607BC106B9
:107FC00001D4800617D50E950EAFE07C791C01F028
:107FD00017FC9DF83800079720F00F00401C20F098
:107FE000F00010308DF838009DF83A0020F00600BF
:107FF000801C8DF83A00607B8DF80800A07B8DF81E
:108000000900142109A8FEF7E2F90FA8CDE9090635
:10801000A088ADF83000A06820B1E088ADF82C0051
:10802000A0680D90A06998B301950088ADF8100084
:10803000A06901AD01A94088ADF81200A0694068AF
:1080400006950390A069007B01F0DAFBA069691C2A
:10805000407B01F0D5FBA069807A00289DF80600DE
:1080600002D040F0080001E020F008008DF8060082
:10807000A169C97A11B140F0100001E020F01000B0
:108080008DF80600A169097A19B140F0010002E0FB
:108090000DE020F001008DF80600A169897B09B18F
:1080A000022100E0012161F342008DF80600E06941
:1080B00000B10590434609AA02A94846AADF11B0BB
:1080C000BDE8F08370B5084C050009D01034216874
:1080D000002907D008682060496828468847F6E7E5
:1080E0000834F4E770BD0000CC360020054A0121B9
:1080F00020B1012805D19170FFF7E4BF5170002035
:10810000FAE77047CC3600202DE9F05F2648416839
:10811000F1B3DFF898B00E688146DBF8004087685D
:108120008078E11B21F07F45ED1CB0B9DFF880803D
:108130004FF48030C8F84403C8F804031120FEF758
:10814000A1FA1120FEF7A9FA4FF0010AC8F800A021
:108150002F2001F005F989F802A0B54200D235467A
:10816000124BE8193C3320F07F401860DBF8001018
:108170005A46091B21F07F41001B20F07F40C91C9B
:1081800081420FD9106818602F2001F0E9F800E053
:1081900004E0BDE8F05F1120FEF78ABABDE8F05FA9
:1081A00001F06EBABDE8F09F482B00200415014095
:1081B0000010014073B58CB00646002000900D9869
:1081C00080B100246D4621460DA800F07FFC30B13F
:1081D000009805EB400084800098401C0090641CCF
:1081E000142CF0D32C2269463046FEF7D7F80EB097
:1081F00070BD2DE9F04117880646B81D14460D469E
:10820000984202D90C20BDE8F08131880722062966
:108210000AD34FF4486C4FF6FF73614501D9994278
:1082200002D17088062801D21046ECE7604501D9DA
:108230009842F9D1994203D0984201D08142F3D8B3
:108240000520E85520881221401C80B22080295446
:108250002088401C80B220804119308801F078FCD1
:108260002188084480B220804119708801F070FC98
:108270002188084420800020C5E7FEF72BBC0000C1
:1082800038B54A7A0F4B62B100220A725969002947
:1082900006D001228DF80020ADF80200684688471C
:1082A00038BD0A7A62B19B684C680246194620467E
:1082B000FEF7F6FC0028F3D0BDE8384001F054BAD0
:1082C0005B68F1E7383600201FB500220092ADF858
:1082D00000100192ADF802100292039202AA6946C0
:1082E00090DF04B010BD00000E4910B50A784C783C
:1082F0000023A24212D0521CD2B20A70022A00D12C
:108300000B70084A0B780C3252F823200260886800
:10831000104420F07F408860012010BD03600020E1
:1083200010BD0000482B0020826883881A40036833
:108330009A5C0A708168491C81607047C2688388B2
:108340001A4003689954C168491CC160704770B5F0
:108350000D460446B0F83812D0F834020122FEF778
:1083600040FE00B1057004F13C0204F50D7104F10A
:10837000540072DF70BD000006484A88C3899A42E3
:1083800007D10A88A2F52063773B02D18988C91EEC
:1083900001827047A02A002010B50949094800F061
:1083A000D4FB08B1FEF796FBF721064800F0C1FBAD
:1083B000002803D0BDE81040FEF78CBB10BD0000C4
:1083C00079830200D03200202DE9F0411E46174685
:1083D0008846044600F09CF8124D6000687000F07A
:1083E00075F885F8018000F071F800F091F801202F
:1083F00000EB4400687000F069F8002409E0301BCD
:1084000001280DD0002138467F1C00F00DF8641CB7
:10841000E4B2B442F3D300F090F82878BDE8F081DC
:108420000121F0E7D82A00202DE9F0410F46064649
:108430000024082521460C2000F037FD0D2000F017
:108440009EFD0C2000F090FD4FEA446110F0FF0FFC
:108450004FEA116401D044F001040D2000F050FDFA
:108460006D1E15F0FF05E9D1384600F019F834709B
:10847000BDE8F08110B5002421460C2000F015FD68
:108480000D2000F07CFD0C2000F06EFD00B10124F9
:108490000D2000F035FD0C2000F010FD204610BD31
:1084A00010B504460C2000F009FD4FF00C0014B18B
:1084B00000F065FD01E000F023FD0D2000F05FFD00
:1084C000BDE810400D2000F01BBD000070B58024F9
:1084D0000E4E0825707820424FF00C0002D000F0BC
:1084E0004EFD01E000F00CFD0D2000F048FD0D20D8
:1084F00000F006FD64086D1E15F0FF05EAD10C20A2
:1085000000F03DFDBDE87040FFF7B4BFD82A002061
:1085100010B50D2000F0D2FC0C2000F0CFFC0C2098
:1085200000F02DFD0D2000F02AFD0C2000F0E8FCED
:10853000BDE810400D2000F0E3BC10B50D2000F0A8
:10854000DFFC0C2000F0DCFC0D2000F018FDBDE885
:1085500010400C2000F013BD2DE9F0411F461646D7
:108560000C4605464FF00008FFF7D2FF68000C4D9F
:108570006870FFF7ABFF6C70FFF7A8FF57B10024DE
:1085800006E030786870FFF7A1FF641CE4B2761C47
:10859000BC42F6D3FFF7D1FF4046BDE8F0810000B2
:1085A000D82A00200146034802888A4200D00020D1
:1085B0007047000024360020F0B58488A518944246
:1085C00000D82246A41AC288D6189A4200D8134668
:1085D000D21A4B880788BB420CD34088834209D803
:1085E0008888A04206D3A84204D8C888904201D304
:1085F000B04201D90020F0BD0120F0BD0A4810B5FD
:10860000807860B1002401E0022C06D02046FFF7FC
:10861000D3FA641C042CF7D310BD0324F6E7BDE89D
:108620001040FFF7EDBA0000EC2A0020F72101808E
:1086300017214180002101714171FB2181711B21B2
:10864000C17170472DE9F047394E002780463D46FD
:10865000DFF8E090D6F804A057E003D00446D0F845
:108660001C8035E099F8002002EB4201521CD2B286
:1086700089F8002009EBC10199F80230091D9A42DE
:1086800001D189F8005048680A780446012A12D0BE
:10869000022A02D0032A3BD108E001F0BBF900B165
:1086A0000127257434E00574C06900E07068002873
:1086B000F9D170602CE0207C50BB88686060C8688D
:1086C000A0600869E0604869A061F07800B1656069
:1086D0006268B168184B501A20F07F40984202D26D
:1086E000A168084406E0881AA16820F07F40814212
:1086F00002D9081A206000E0256065600120A560AD
:1087000020742046E56101F067F9B8F10000A4D1BA
:1087100099F8001099F801008142A3D117B9716846
:10872000514502D00120BDE8F0870020FBE70000A2
:10873000482B00209C370020FFFF7F002DE9F041EF
:108740001D4C01261D4F60890025032802D2401CC4
:10875000608115E0A07830B1607820B9184890F8B1
:10876000540074DFA5706079012805D07868FEF7A1
:10877000DBFA667125712581E07808B1FFF7C0F951
:10878000FDF777FE002814D06581A07810B9FEF7B8
:108790007BF9A670E07808B9FFF786F960790128BF
:1087A00007D1002240F28F217868FEF779FA6571CF
:1087B000A581BDE8F0810000A02A00204C9D0200A8
:1087C000F0320020ACB0FEF741FA08B1FEF782F9B2
:1087D000664A01216648FEF727FA08B1FEF77AF9E2
:1087E0006348644A0121001DFEF71EFA08B1FEF736
:1087F00071F9614A1E213220FEF700FA08B1FEF736
:1088000069F900F001FC08B1FEF764F900F0C6FC5C
:1088100008B1FEF75FF9002469460120009400F0DA
:1088200035FC08B1FEF756F9684600F07DFC08B14A
:10883000FEF750F99DF8080050A120F00F00401CF1
:1088400020F0F00010308DF80800102202A87CDF24
:1088500008B1FEF73FF900941020ADF800003C206D
:108860000194ADF80200ADF804404FF4C870ADF8C3
:10887000060068467ADF08B1FEF72CF9FFF78CFD99
:108880004348019001A9434800F035FA08B1FEF7CA
:1088900021F94148009069464048FEF7D5FF08B1EC
:1088A000FEF718F9AC216846FDF791FD02208DF81E
:1088B00000008DF8024006208DF80300374801259E
:1088C000801F1490ADF84C508020CDE922048DF823
:1088D0007C50334829902F4869460C30FEF7B0FB96
:1088E00008B1FEF7F7F82B4801210C30FEF7A5FB85
:1088F0001C216846FDF76BFD4FF42030CDE90040A8
:108900004FF47020029003208DF80C00254805904C
:1089100025480690ADF80E408DF810406846FEF7E9
:108920005BFD08B1FEF7D6F81A4808220C3090F823
:108930005410012077DF08B1FEF7CCF8FEF7A4F859
:10894000164818388570FFF7AFF809480022001F55
:108950004FF400418068FEF7A3F908B1FEF7BAF8BA
:10896000FEF72CF900F064FBFAE70000C99802005A
:10897000509D02003D870200C82B00205941584EEF
:108980006F726469635F55415254776E0000000056
:1089900075900200E4320020F1940200B82A002011
:1089A0003D950200619502007B82020070B514467D
:1089B00082880E4605462088111D0144921C99426A
:1089C00001D8FE2A01D90C2070BD521C32542088D7
:1089D000FF21401C80B2208031542088401C80B28E
:1089E00020808119288801F0B3F82188084480B2DA
:1089F0002080AA8842B1A96841B13044FDF7CEFC7D
:108A00002088A98808442080002070BD072070BD00
:108A1000F8B50F46017814460546012901D168785A
:108A200030B12088821C9A4232D8012902D006E057
:108A30000720F8BD69780144891C994228D8181A82
:108A4000801E86B2ADF800602188B81C08446946D3
:108A50007DDF0028EDD12978022904D06878BDF89F
:108A60000020904205D3BDF80000B04201D8092093
:108A70000AE00820012905D16978B14202D8ADF891
:108A8000001001E0ADF80060BDF80010FE2901D92A
:108A90000C20F8BD2288491CB9542188491C89B290
:108AA000218078542088401C2080BDF800100844A4
:108AB00020800020F8BD01F01F0301229A40D2431C
:108AC000490900EB8100114600F015B84A0950F839
:108AD000220001F01F0201219140084000D0012036
:108AE000704701F01F0301229A40490900EB810001
:108AF000114600F006B808B56A46FDF7A4FB0098D9
:108B000008BD08B56A46FDF791FB009808BDC2088C
:108B100000F007030120895C98400840704710B5B9
:108B2000C20800F00703885C01249C40204388545D
:108B300010BD28B1A1F11702E12A03D30720704725
:108B40000E20704701800020704710B560B10161B0
:108B5000F72120F8021B20F8021BFB2100F8021B62
:108B6000FFF764FD002010BD0E2010BD2DE9F04779
:108B7000B0F804A08EB00C465FEA0A0957D101880C
:108B8000564E0127002524297BD006DC102909D068
:108B9000112929D0232926D199E03A2928D055290D
:108BA00021D147E021792173C07BA61D012802D085
:108BB000022804D101E0208800E0608830803188FC
:108BC0007088814208D94846A5DF10B1112802D02B
:108BD00002E0777100E03771B179F07981426BD9A9
:108BE0004846FFF771FB67E0A01DFFF71FFD63E03C
:108BF0002246408934F8061F814200D8084660802A
:108C0000172800D217206080106970B1607960B1B8
:108C1000D6E90001CDE90001ADF802906088ADF819
:108C200004001369694610469847657125710EB0B6
:108C3000BDE8F087C08804F10608172800D2172085
:108C4000B8F80010814200D80846A8F8020088F859
:108C500004502846B8F80010B5DF98F8050058BB56
:108C6000206948B3D6E90201CDE90001ADF80290D0
:108C7000B8F80200ADF804002046694622691AE0FF
:108C8000FFE7011D2C226846FDF788FBBDF80000B8
:108C9000BDF8042004EBC0014A73226962B1D6E931
:108CA0000423CDE90B23ADF82E00487B8DF830006E
:108CB000226920460BA99047A07A0028B7D0E18806
:108CC0005046A5DF0028B2D1A572E772AFE7017A5E
:108CD000207B884284D2014682E70000A49D0200E6
:108CE00020B10278DE2A03D0082070470E2070479A
:108CF00041800020704760B159B10278DE2A0AD065
:108D000009684160DE2101704FF6FF71418000204B
:108D100070470E207047082070477FB50546002930
:108D20004DD0002D4BD008780C46DE2847D1A888BE
:108D30006188884202D1204600F050FF288801282F
:108D400025D002283BD011283AD0512837D135F808
:108D5000040F6188884232D1A978A81C02292ED13B
:108D6000017A042903D0062901D0052927D1002141
:108D7000009102228DF8002001914FF4C0720291FF
:108D80000391ADF80420007A05280FD010E0297A6D
:108D90002046012913D1A988428891420FD101218F
:108DA000017204B0BDE8704000F018BFADF80410C7
:108DB00028886946B0DF002801D0616888477FBDF8
:108DC000A88861888842FAD14FF6FF7060807FBD25
:108DD00000F180400068002800D00120704708B5ED
:108DE00000F18040002101600068009008BD000093
:108DF00070B50B4C207808B185250FE00020A060ED
:108E000060602061E060074800F08CFA054600F0E1
:108E100011FA08B900F070FA01202070284670BDE0
:108E2000CC360020ED80020038B500258DF80050CA
:108E30006846FDF7B3FF074CE068401EE060E0685D
:108E400010B900F07FFAA5709DF80000FDF7CAFF89
:108E500038BD0000CC36002030B40378054CE35C0C
:108E60001BB130BC001D00F0EDBA30BC0C3000F07E
:108E700087BA00000C2B00202DE9FF411C46DDE9DC
:108E80000A7815460E46684600F044F846EA450161
:108E900041EA840141EA072242EA0841009A00EBD4
:108EA0008200C0F80017BDE8FF811CB500220B4608
:108EB000009211460192FFF7DFFF1CBD1CB5002197
:108EC00000910B46012201911146FFF7D5FF1CBD11
:108ED00013B50C46684600F039F8009900EB8101A3
:108EE000D1F8002722F44032C1F80027009900EBA6
:108EF0008100D0F8001741EA0441C0F800171CBDFA
:108F000001B5684600F006F8009A01219140C0F8CA
:108F10000C1508BD0168202902D24FF0A04070470F
:108F200001F01F010160014870470000000300507C
:108F30000168202902D24FF0A040704701F01F01C4
:108F400001600148704700000003005001682029BB
:108F500002D24FF0A040704701F01F0101600148AC
:108F6000704700000003005001B56846FFF7D2FFCC
:108F7000D0F810050099C84000F0010008BD01B507
:108F80006846FFF7C7FF009A01219140C0F8081515
:108F900008BD38B501240090684631B1FFF7C8FF1D
:108FA00000998C40C0F8084538BDFFF7C1FF009913
:108FB0008C40C0F80C4538BD1CB5094C0144D4E9BF
:108FC0000034CDE900346C4606E000BF54F8203090
:108FD000D3F81035401C08C28142F7D81CBD0000F0
:108FE000CC9D0200034908B50844002101600068D7
:108FF000009008BD0060004002494058012800D0A0
:109000000020704700600040064910B500204870FD
:10901000091D0860BFF35F8F0349044800F02EF973
:10902000002010BD782B0020009E0200D4380020C4
:1090300008B500208DF800006846FDF7AFFEF1EEA0
:10904000100A20F09F00E1EE100ABFF35F8F08497D
:109050004020C1F880029DF80000FDF7C3FE00F03B
:10906000E9F808B141DF08BD20BF40BF20BF08BDFF
:1090700004E000E0FDF72EBD20B10349096801605E
:10908000002070470E207047849E0200FEB5064601
:109090000D460846FFF7F0FF002844D10024009455
:1090A0000194012706208DF80060ADF804000294B9
:1090B0008DF80270694620202A6869DF00948DF8D7
:1090C00001708DF80240019402948DF803406946C6
:1090D00040202A6869DF00948DF80060F720ADF821
:1090E000020001940294694623202A6869DF0094F3
:1090F000019402948DF80070694601202A6869DFA6
:109100004FF4B0600090019402946946A1202A684F
:1091100069DF0094019402948DF800406946A02014
:109120002A6869DF0020FEBD60DF002802D1024A04
:109130000121117070470000832B002030B51548C5
:10914000ADF5017D0078002821D04FF4FA7500BFFD
:10915000ADF8005280A9684661DF38B1052816D005
:109160000DF5017DBDE83040FDF7B4BC6C460A4901
:109170007DA800F083F806E0D0E900212046904762
:109180007DA800F092F87F980028E1D0F4E70DF573
:10919000017D30BD832B0020889E02007CB5194CD8
:1091A000207808B108207CBD0120A070002000F0CC
:1091B000ADFA112819D0002000F0C0FA124800269C
:1091C000006801908DF800606846FDF7E7FD0F49E3
:1091D00001A810DF05000AD0002020709DF80000D3
:1091E000FDF700FE2DB128467CBD00207CBD01208E
:1091F000F3E7A670667000F03BFB012000F09EFADA
:10920000F3E70000802B00201C9E0200A56A0200EC
:109210000EB50749684600F031F805E0D0E90010C6
:109220008847684600F041F802980028F6D10EBD44
:10923000389E02000148007870470000802B002013
:109240001FB568464BDF30B1052814D004B0BDE827
:109250001040FDF73FBC084901A800F00FF806E0F8
:10926000D0E900210098904701A800F01EF803986B
:109270000028E6D0F4E71FBDA49E02000160096843
:109280004160AFF3008010B5D0E9002153689942E6
:1092900001D1002104E0D1E90034A34202D01946F3
:1092A000816010BD08314160F0E7816800290BD072
:1092B000026892680A44826041684B689A4203D10E
:1092C00008314160FFF7DFBF70474058002800D0E9
:1092D0000120704708B5002242504058009008BD58
:1092E0004058002800D00120704708B500224250A5
:1092F0004058009008BD000008480068012110F0A7
:10930000010F06D14FF0E020C02280F80024C0F801
:1093100000110349002008607047000000E100E0F0
:10932000180500400649024600200B790BB1852044
:10933000704700238B710A6001220A714B717047DC
:10934000202B002004490120086004480168C1F373
:1093500000410029FAD170470C0000401804004079
:10936000002802D00149800108477047E19D0200B2
:109370000121B1EB507F01D10120704700207047DF
:109380002DE9F047054600790B4600EB400101EB63
:10939000C000234901EB8004284600F043F810B1D7
:1093A0001120BDE8F0874FF00008C4F82080A360CA
:1093B000626184F828804FF48E76474631462868EB
:1093C000FFF788FF28684FF00109C0F80890214690
:1093D000286800F0ADFB606800BBD5F800A00EE087
:1093E00094F8280008B10F2716E031465046FFF7E1
:1093F0006CFF0028F4D02146504600F099FB216A0A
:1094000060698142F1D331462868FFF75EFF00288A
:10941000F9D02868C0F80C90C4F814803846C0E72A
:109420004C370020007900EB400101EBC0000449FB
:1094300001EB80004069002800D001207047000047
:109440004C3700202DE9F04704460E4600792049AC
:1094500000EBC00001EB800517463046FFF788FFA0
:1094600030B1204600F036F820B11120BDE8F08779
:109470001020FBE76F61AE604FF490760027314615
:109480002068FFF732FF4FF4AC7841462068FFF7C1
:109490002CFF2068AA686969C0F84425C0F84815FF
:1094A000206801218160686878B9B1464946206822
:1094B000FFF716FF064641462068FFF711FF0643F7
:1094C000F4D000B10F27002068613846CEE70000D5
:1094D000783700200079054900EBC00001EB8000DF
:1094E0004069002800D00120704700007837002034
:1094F00010B504460078002818D1A28A0C482169CA
:10950000FCF74CFF0B49207D0B4A087000210846F0
:10951000FDF704FBA18A2069084410F8010C0D280E
:1095200004D10A20FDF710FC1128FAD010BD00006C
:1095300048350020A02A0020A964020010B550B1CF
:1095400003280CD10220FEF7F9FB002807D0BDE864
:109550001040FDF7BFBABDE8104000F069B910BD7A
:109560000078002807D104483B21C08976DF002815
:1095700001D0FDF7AFBA7047A02A0020F0B58BB03C
:10958000002601960D4604468988406901AAFDF728
:1095900043FC0AA8CDE908600227ADF82070ADF8B9
:1095A0002260218AA88808AAADDF002819D1A06905
:1095B000002816D00998FEF7E9F9002811D0019E7D
:1095C0000EB101203070182102A8FCF700FF8DF8C1
:1095D00008700394A888ADF810000596A16902A848
:1095E00088470BB0F0BDF0B587B00C4605468E1D20
:1095F0008988406906AAFDF70FFC18216846FCF728
:10960000E6FE0195A088069AADF80800039231881D
:109610002B89002704F11200994202D17389022B91
:109620000DD0AA8991421ED1A96900291BD08DF8BD
:10963000007004907089ADF81400A96911E0002A47
:1096400011D0FEF7A3F920B106990120087002207D
:1096500002E00698077003208DF80000A969002930
:1096600001D06846884707B0F0BD0068012805D0E2
:10967000022803D0042801D0002070470120704741
:1096800070B5012670044FF0E0210025C1F880017B
:10969000084C4010C4F84803C4F8080366602F2043
:1096A000FFF75EFEA660044C2F20A560FFF758FE72
:1096B000A57070BD00100140482B002038B5002176
:1096C000012548B101280CD0032809D1FFF714FE69
:1096D000BDE83840FFF7A8BB4FF0E020C0F880514C
:1096E00038BD8DF800106846FDF758FB064C207811
:1096F00008B9FFF77DFBE068401CE060A5709DF8AD
:109700000000FDF76FFB38BDCC3600203EB50446A7
:1097100009496846FFF7B2FD08E000BFD0E9002123
:109720002046904730B16846FFF7BFFD02980028F9
:10973000F4D13EBD11203EBD209E02003EB5044640
:1097400008496846FFF79AFD07E000BFD0E900210D
:10975000204690476846FFF7A8FD02980028F5D1FB
:109760003EBD00002C9E020002498969002900D0FC
:1097700008477047383600202DE9F0410746806AD7
:1097800014468846C8B3002531E000BFB96A05EB2E
:10979000450001EB8006B088801CFE2802D90C2011
:1097A000BDE8F0812288401C08F8020020881622BB
:1097B000401C80B2208008F800202088401C80B225
:1097C000208000EB0801308800F0C2F921880844AD
:1097D00080B22080B28842B1B16871B14044FCF7D8
:1097E000DDFD2088B188084420806D1CEDB297F81B
:1097F0002C00A842CAD80020D2E7FFE70720CFE715
:109800000A78062822F0FF020A7010D2DFE800F082
:10981000030507090B0D002008E0112006E02120B8
:1098200004E0312002E0122000E02220087070479E
:1098300010B50020FEF782FA08B1FDF74BF9FEF7EC
:1098400003FA08B1FDF746F933DF002803D0BDE87D
:109850001040FDF73FB910BD002805D10349012094
:1098600048700020FEF72EBC70470000CC36002068
:1098700010B51620FDF7DAF8A0B1114890F80004F1
:109880004009082811D20121814011F0EC0F0CD0C1
:109890000C4882684FF480016AB1016841F480018C
:1098A000016010BD42F2010001E042F20200BDE899
:1098B0001040FDF70FB94FF0E020C0F8001110BDC7
:1098C00016E000E0C838002070B5FCF7DDFD204C44
:1098D0001E49204822794D7802EB420300F81350CC
:1098E00000EB43030D785D70CD789D708D78DD7051
:1098F0004D791D71097959712189282905D22D2A9F
:1099000003D2891D2181521C2271617801291CD149
:109910002279032A19D3A18902EB42020B0A00F82B
:10992000123000EB42000A4A417020890832801C44
:109930002081E389074902F11000FDF751FF002063
:1099400020812071A089401CA08170BDE42A0020E4
:10995000A02A0020483500202DE9F84F1D4C002595
:109960006846D4E901A6FEF7BFFC002738B3002300
:10997000009A61681CE0D1F800C00846944503D9FC
:10998000ACEB02020A6015E0A2EB0C026344076034
:10999000D0F80CC0C1698146BCF1000F08D006EBBD
:1099A000030828F07F48C0E9018CC9F81C5005461F
:1099B0000029E0D128466160FEF744FE03E0284616
:1099C000FEF740FE10B15046FEF79EFBE770BDE883
:1099D000F88F0000482B00200D4B10B5596831B1AD
:1099E00002680C68A24204D8A21A0A60C1615860D9
:1099F00010BD0B4603E00B46C969121B21B10C6870
:109A00009442F8D3A41A0C600260C161D86110BD01
:109A1000482B00202DE9F041144E77683D462C4636
:109A200003E0844204D02546E469002CF9D11BE010
:109A3000D4B1A5420BD1F869706040B90C4901203E
:109A400088600021B160F0702F20FFF789FC216849
:109A5000E069E86110B102681144016070688742F2
:109A600002D00120BDE8F0810020FBE7482B002058
:109A7000001001407CB5064600240D468DF80040DC
:109A80006846FDF78BF901A800F0BAF870B10570CF
:109A9000094946609DF8040048709DF80000FDF7F4
:109AA000A1F91420FCF704FE20467CBD04249DF897
:109AB0000000FDF797F9F7E79C3700202DE9F0410A
:109AC000194D6C68002C2CD0184800270068A96834
:109AD000B846401A20F07F462068B0420CD8214694
:109AE000361A0744E469087C20B181F8108088693F
:109AF00049698847002CEFD129786878814206D1DE
:109B0000401CC0B26870022801D185F80180064867
:109B100069780C3040F82170BDE8F0411420FCF762
:109B2000C7BDBDE8F0810000482B002004150140AE
:109B300070B50C4605464FF48E71FFF7CBFB216ADA
:109B4000A068415C206A401C2062C5F81C1570BDED
:109B50000870000A4870022070470000F8B50546FA
:109B600080B2FEF71FFD040013D0154E207A0027A7
:109B7000317B88420ED2A8B204F10A0175DF28B108
:109B8000112806D0BDE8F840FFF7EEBD207A401C52
:109B90002072F8BD2772307C38B1A8B23B2176DF45
:109BA00018B1082801D0FFF7DFFD71690029F0D056
:109BB0008DF80070ADF8025068468847F8BD000087
:109BC00038360020417939B190F8521221B990F815
:109BD000540208B1012070470020704730B4044699
:109BE000007A00280AD06088002166DF28B1112899
:109BF00002D0616830BC08470120207230BC704739
:109C00000A494A788B78521CD2B2934200D1002282
:109C10000B78934201D1002070470270487800EB26
:109C2000400001EBC000001D704700009C37002081
:109C30002DE9FC411646DDE90854CDE900541F46E4
:109C40008046022200F00CF8002807D1CDE900542C
:109C50003B4610223146404600F002F8BDE8FC8148
:109C60002DE9FC5F0026DDE90C4B994692468E46B5
:109C700080462788354630E0D8F80400002200EB03
:109C8000850069460068019001A864DF002830D192
:109C90009DF8000050451FD10EB1002100E00221C7
:109CA000228808441118594522D846B9521C90B24E
:109CB000208009F800E02088401C208001262188AF
:109CC00001A801EB0902694664DF002811D1208850
:109CD0009DF80010084420806D1CB8F80000A842D0
:109CE000CADC56B12088C01B401E80B2FF2802D9B2
:109CF0000C20BDE8FC9F09F807000020F9E70000F0
:109D000010B504281DD209B1032400E00024FDF79A
:109D100037FF202802D24FF0A04102E00A4900F0AC
:109D20001F0001EB8000D0F8001721F44031C0F88B
:109D30000017D0F8001741EA0441C0F800170020CE
:109D400010BD062010BD00000003005001000200FD
:109D5000882B0020A82B002001000000D007000065
:109D60000600000001000000D0070000060000000F
:109D70000D0E0F100B0C181998350020B835002067
:109D8000E43500200B000300697C02000C00030096
:109D9000697C020018000300697C020019000300BE
:109DA000697C0200770A000000000000770A0000CA
:109DB000000000007ADA0000000000009ECADC24E7
:109DC0000EE5A9E093F3A3B50000406E000000503B
:109DD0000003005000000000000000000000000030
:109DE0000338FDD8704700000000000000000000AC
:109DF0000000000000000000000000000000000063
:109E0000E89D0200009E0200040000000000000027
:109E10000000000000000000000000000010020729
:109E20000C9E02001C9E020008000000449E0200DE
:109E3000549E020008000000549E0200649E02002E
:109E400008000000309F0200389F02000000000060
:109E500000000000209F0200309F02000000000070
:109E600000000000D09E0200D89E0200D89E020092
:109E7000F89E0200F89E0200089F0200089F020060
:109E8000109F0200982A0020649E0200849E020017
:109E900008000000109F0200189F0200189F020097
:109EA000209F0200949E0200A49E02000800000071
:109EB000389F0200982A0020F00000000C6A02007F
:109EC00028A00200882B0020582D00001C6A0200E8
:109ED000DD760200000000006D8B0200D032002011
:109EE0003F710200F0320020717502000000000096
:109EF000E1750200000000001D790200B82A002070
:109F00001B8D0200E4320020C97402000000000032
:109F10005998020000000000A9710200F0320020F0
:109F20003D9102000000000041920200000000008C
:109F3000BD96020000000000D42A002001000400A9
:109F40000000000000000000000000000000FFFF13
:109F500014000100020000000000000000000000EA
:109F6000000000000000000000000000982A00200F
:109F700000000000000000000000000000000000E1
:109F800000000000000000000000000000000000D1
:109F900000000000000000000000000000000000C1
:109FA00000000000000000000000000000000000B1
:109FB00000000000000000000000000000000000A1
:109FC0000000000000000000000000000000000091
:109FD0000000000000000000000000000000000081
:109FE0000000000000000000000000000000000071
:109FF0000000000000000000000000000000000061
:10A0000000000000000000000020004000000000F0
:10A0100000200040000000000000000000000000E0
:08A02000000000000090D003D5
:040000050002620192
:00000001FF
