:020000040002F8
:1060000040580020F96202000163020003630200AD
:10601000056302000763020009630200000000003C
:106020000000000000000000000000000B63020000
:106030000D630200000000000F6302001163020004
:10604000F966020013630200ED69020013630200A7
:106050001363020013630200BD64020013630200B5
:106060001363020013630200136302001363020050
:106070001363020013630200136302001363020040
:10608000F96902009D6702001363020013630200B6
:1060900007680200136302000B680200136302002A
:1060A0001363020013630200136302001363020010
:1060B00013630200136302000000000000000000F0
:1060C00013630200136302001363020013630200F0
:1060D00013630200136302001363020013630200E0
:1060E0001363020013630200136302000000000048
:1060F00000000000136302000000000013630200B0
:10610000000000000000000000000000000000008F
:10611000000000000000000000000000000000007F
:10612000000000000000000000000000000000006F
:10613000000000000000000000000000000000005F
:10614000000000000000000000000000000000004F
:10615000000000000000000000000000000000003F
:10616000000000000000000000000000000000002F
:10617000000000000000000000000000000000001F
:10618000000000000000000000000000000000000F
:1061900000000000000000000000000000000000FF
:1061A00000000000000000000000000000000000EF
:1061B00000000000000000000000000000000000DF
:1061C00000000000000000000000000000000000CF
:1061D00000000000000000000000000000000000BF
:1061E00000000000000000000000000000000000AF
:1061F000000000000000000000000000000000009F
:10620000DFF80CD000F0FEF800480047D18602000D
:106210004058002030B4044654E8000F0D4644E8CE
:106220000053002BF8D1156030BC704730B40446E1
:1062300054E8000F40EA010544E80053002BF7D171
:10624000156030BC704730B4044654E8000F00EAD3
:10625000010544E80053002BF7D1156030BC7047AE
:1062600030B4044654E8000F80EA010544E80053C6
:10627000002BF7D1156030BC704730B4044654E8A9
:10628000000F00EB010544E80053002BF7D1156027
:1062900030BC704730B4044654E8000FA0EB010551
:1062A00044E80053002BF7D1156030BC704770B440
:1062B00004464FF0000054E8006F0D68AE4207BF7F
:1062C00044E80023012044E800630E60002B1CBF5B
:1062D0000020F0E770BC704730B4044654E8000F6B
:1062E00088422CBF451A054644E80053002BF5D1DF
:1062F000156030BC704700000648804706480047DC
:10630000FEE7FEE7FEE7FEE7FEE7FEE7FEE7FEE765
:10631000FEE7FEE711680200016202002DE9F05F6E
:106320000546002092469B46884606468146402404
:106330001BE0284641464746224600F053F85346A4
:106340005A46C01A914110D311461846224600F011
:1063500016F82D1A67EB01084F462246012000214E
:1063600000F00DF817EB00094E41201EA4F10104C6
:10637000DFDC484631462A464346BDE8F09F202AE6
:1063800004DB203A00FA02F1002070479140C2F18C
:10639000200320FA03F319439040704740EA0103B9
:1063A0009B0703D009E008C9121F08C0042AFAD2CB
:1063B00003E011F8013B00F8013B521EF9D270478F
:1063C000D2B201E000F8012B491EFBD27047002237
:1063D000F6E710B513460A4604461946FFF7F0FFE4
:1063E000204610BD202A04DB203A21FA02F00021C9
:1063F000704721FA02F3D040C2F1200291400843D5
:1064000019467047064C074D06E0E06840F001036E
:1064100094E8070098471034AC42F6D3FFF7F4FE37
:10642000709D0200909D020070B50D460646052441
:1064300001232A463146182001F044FF002804D0E9
:10644000641E14F0FF04F3D1012070BD38B5054679
:1064500005248DF8001001236A462946182001F012
:10646000F9FF002804D0641E14F0FF04F3D10120CA
:1064700038BD08B569460920FFF7D6FF9DF8000032
:1064800000F00400800808BD70B5064D0024A01C73
:106490002919C0B2FFF7C8FF641CE4B2062CF6D37A
:1064A00070BD0000E42A00204FF0FF3100203DDFE6
:1064B000B12100203CDF022002F05CBD2DE9F04F4D
:1064C00000268DB0DFF8A081B14604964FF48075A8
:1064D000012437460596284602F00EFD38B1D8F85B
:1064E0000403204203D0284602F0FCFC26432D1D65
:1064F00064007F1CADB2082FEDD34FF4BE7420466C
:1065000002F0FAFC48B1204602F0ECFC46F00046EE
:1065100004AA0221002002F0CFFC544C16F0FF0F19
:1065200015D00127002537420DD008EB8501D1F8A1
:106530001005D1F81015C0F3052054F82520C1F33B
:10654000014102B190477F006D1C082DEBD3002E56
:106550007EDA0020CDF82890411E0DF1100B07AA1D
:10656000CDF82C9042F82010401C91460228F9D317
:1065700000252E46A11911F8607F91F9000027F03F
:10658000C008401C40D007A9404602F04FFA40B373
:106590004FEA971A404601F057FC54F820701FB19B
:1065A000BAF1030F03D006E0BAF1030F2CD10AA908
:1065B000404602F043FA02A8CDF8088002F046FCFB
:1065C000029900EB8100D0F8000704A9C0F3014054
:1065D0000290404602F02AFA0028029802D00228CF
:1065E00002D011E003280FD1BAF1030F08D10298AD
:1065F000022833D00221404602F0EAFB6D1CEDB2C6
:1066000017B151464046B847761C042EB2D3002D30
:1066100021D001AA0221002002F04EFC00205A469F
:106620000DF1040152F8206051F82030B34217D028
:1066300000200AAE4FEA090351F8207042F820709A
:1066400056F8207043F82070401C0228F4D300E074
:1066500001E0002D8CD10DB0BDE8F08F0321CAE719
:10666000401C0228DED3F6E700600040B036002070
:1066700000F01F02012191404009800000F1E0205C
:10668000C0F88012704700F01F02012191404009BC
:10669000800000F1E020C0F80011704700F01F02F8
:1066A000012191404009800000F1E020C0F8001273
:1066B00070474907090E002806DA00F00F0000F1C4
:1066C000E02080F8141D704700F1E02080F80014ED
:1066D00070470000BFF34F8F05480168054A01F479
:1066E000E06111430160BFF34F8F00BFFDE7000081
:1066F0000CED00E00400FA052DE9F0414FF480763E
:10670000304602F0F5FA234CB50560B1304602F090
:10671000F6FA0120C5F80803607920B901206071FC
:106720002168002088474FF48276304602F0E0FA74
:1067300040B1304602F0E3FA0220C5F808032168B0
:10674000012088474FF48876304602F0D1FA40B1F4
:10675000304602F0D4FA1020C5F808032168022060
:1067600088474FF48677384602F0C2FA00280ED0E8
:10677000094800260660384602F0C1FA0820C5F82C
:106780000803A6712168BDE8F04103200847BDE871
:10679000F08100000C2B0020340C00400748002141
:1067A000C0F84011C0F84411C0F84811C0F84C11AD
:1067B000C0F80011C0F8041103F0F2B80010014055
:1067C000F8B54FF4FA750D2002F0F8FA0C2002F03B
:1067D000F5FA0C2002F053FB0D27012668460097BE
:1067E00002F018FBD0F80415009A06FA02F424EA25
:1067F0000102C0F808250C40C0F80C456D1E2D04A0
:106800002D0CEBD1F8BD03F019B802F09FBC0000CD
:1068100030B54FF0805000228300D0F83011C3F81B
:106820000C21C3F81021624B1A60624B1B68624C4A
:106830002360604B1B1D1B68241D23605D4B0833C8
:106840001B68241D23605B4B0C331B68241D2360D5
:10685000584B10331B68241D2360564B14331B68A0
:10686000241D2360534B18331B68534C2034236082
:10687000504B1C331B68241D23604E4B20331B6878
:10688000241D23604B4B24331B68241D2360494B7C
:1068900028331B68241D2360464B2C331B68241DA2
:1068A0002360444B30331B68434C40342360414BDE
:1068B00034331B68241D23603E4B38331B68241D72
:1068C00023603C4B3C331B68241D2360394B403311
:1068D0001B68241D23600123082902D1D0F834410C
:1068E00014B1082904D006E0354C3449216005E094
:1068F000D0F8344114B1082904D006E0314CFB2112
:10690000216005E0D0F8344114B1082908D00EE028
:1069100090F858422C48016864F30301016002E0DA
:10692000D0F834411CB929494FF400700860284858
:106930000168C90702D06FF00101016025480168B4
:1069400041F470010160BFF34F8FBFF36F8F4FF0C1
:106950001021D1F80002002803DBD1F8040200283E
:1069600022DA1D4C23601D480368002BFCD0122343
:10697000C1F800320568002DFCD0C1F8043201686E
:106980000029FCD0226001680029FCD0BFF34F8FA2
:1069900010487C380168124A01F4E061114301603B
:1069A000BFF34F8F00BFFDE70F490E48086030BDB1
:1069B000380500400404001020C500404881030051
:1069C0008C56004018F50040E40E0040409602400E
:1069D0000004004088ED00E004E5014000E40140CF
:1069E0000400FA050090D003542B002001480068F1
:1069F00000470000142B002038B5064C2068002505
:106A0000002805D004484068804725602068009031
:106A100038BD0000000101401C2B00200EB50A4AC1
:106A200007CA8DE807006846084902F071FC08B102
:106A300000F074F8064802F023FC08B100F06EF88C
:106A400002F040FC0EBD00002C9C0200119C0200D4
:106A5000A72A002002E008C8121F08C1002AFAD1A4
:106A600070477047002001E001C1121F002AFBD1CE
:106A7000704700000121202803DA814005480140C9
:106A800003E0402802DA2038814009B10120704734
:106A900000207047FC06FFBD10B501220221002036
:106AA00001F0BCF808B1072810D10722022101200B
:106AB00001F0B4F808B1072808D100210A220846DD
:106AC00001F0ACF808B1072800D1002010BD00008B
:106AD00010B50321044800F0FAFA002803D0BDE8FD
:106AE000104000F01BB810BDC032002072B609483B
:106AF0000068C00700D000BEBFF34F8F0548E438E0
:106B00000168054A01F4E06111430160BFF34F8F52
:106B100000BFFDE7F0ED00E00400FA050EB500212E
:106B20000091CDE901106A4644F20100FFF7DEFF53
:106B30000EBD000010B50E4C03E0401C00E000202C
:106B4000207020786178814210D022786188E068D6
:106B5000A36802FB010003EBC20153F832208988CD
:106B600090472078A1888842E9DAE6E710BD000066
:106B7000242B002030B5CB0008339DB293074FF093
:106B8000000401D0072030BD044B9A602A44DA602B
:106B90005C701C7058809980002030BD242B002030
:106BA000074B9B7823B12AB120B10068037C1BB14D
:106BB00008207047072070474174426100207047E9
:106BC0001C37002070B502F095FC104800240B2102
:106BD000047044700E4D817014206C602C706C70C9
:106BE000FFF746FD06211420FFF763FD1420FFF791
:106BF0004AFD0848046006211120FFF75AFD0548A8
:106C0000001F0068A860002070BD00001C37002035
:106C1000342B0020081501402DE9FC47DFF878905F
:106C200099F8023073B368B3052902D20720BDE892
:106C3000FC87436933B3437C012B25D000270446EE
:106C40000025884616468DF80050684600F038F852
:106C500001A802F037FFC8B1012101700F4944605B
:106C60000968C0E90218C0E904769DF8040089F8B3
:106C700001009DF8000000F047F81420FFF70EFD1A
:106C80002846D4E70820D2E70F46D8E704259DF828
:106C9000000000F039F8F3E71C370020041501402C
:106CA0000649897839B130B1416921B100210174B7
:106CB000022102F051BE0820704700001C3700205E
:106CC00030B5EFF3108172B60D4A9468012324B1F8
:106CD0000370002900D162B630BD93604FF0E0230D
:106CE000D3F88051074C25401560C3F88041D3F894
:106CF000844154605A17C3F8842100220270E8E7E7
:106D000028380020FC06FFBD0B498A68002A11D0F4
:106D100000280FD1EFF3108072B60B684FF0E0221D
:106D2000C2F800314B68C2F8043100228A600028A2
:106D300000D162B6704700002838002070B51500F9
:106D4000044609D00020286034B1206820B1A07921
:106D5000800703D0072070BD0E2070BD084600F0EC
:106D600001FBC0B2142804D02179814203D8042049
:106D700070BD052070BDE288216800FB021028600C
:106D8000002070BD2DE9FC470025178806461580B8
:106D900090F82D001446894630B13A4621464846BF
:106DA00000F0F4FA051E09D1B0784FF00C0A18B3C0
:106DB0002088C846001DB84202D95046BDE8FC876D
:106DC000684679DF0028F9D12088032108F80010EF
:106DD00020881921401C80B2208008F800102088EB
:106DE000401C80B2208000EB0801BDF8000002F0DA
:106DF00011FE218808442080F0780222C8B1218841
:106E000096F9033001F1030C4846BC45D5D84254ED
:106E100021884FF0010C491C89B2218000F801C083
:106E20002188491C89B2218009F801302088401C42
:106E300020807068B8B1218890F9003001F1030C0E
:106E40004846BC45B9D8425421880A22491C89B217
:106E5000218042542188491C89B2218009F80130DF
:106E60002088401C2080308950B1CDE900474B4636
:106E70000622022106F1080002F03CFE051E9DD10B
:106E8000308A50B1CDE900474B460722032106F175
:106E9000100002F02FFE051E90D1308B50B1CDE9CD
:106EA00000474B461522142106F1180002F022FE7D
:106EB000051E83D1306A30B13B462246494601F077
:106EC0002AF9051EDBD1706A30B13B46224649469D
:106ED00001F0F6FC051ED2D196F82C0038B13B46E5
:106EE00022464946304602F081FB051EC7D1307864
:106EF00038B13B4622464946304601F013FD051E97
:106F0000BDD128465AE718B504460020ADF8000068
:106F100013466A46204600F006F8002802D0BDF865
:106F20000000204418BD70B588B182B100241588D6
:106F300003E0065D641C3444A4B2A54203D80619DC
:106F400076789E4201D08C42F3D38C4201D300204C
:106F500070BDA11C1180005D401E80B270BD80F824
:106F6000301070472DE9F0470D00044606D02CB1D3
:106F700095F87A000026012803D006E00E20BDE82F
:106F8000F08795F89800012821D04FF00109A670EC
:106F90002C2205F17801201DFFF700FA84F83060FB
:106FA000D5F8A4006063D5F8A800A0634FF6FF7081
:106FB000A4F8480204F50D70C4F84402C4F84A620B
:106FC000A4F84E6284F85062207810B104E00720E3
:106FD000D5E7FF2084F8540004F15501C4F83412B9
:106FE00094F82400EE274FF01F08012833D0A4F8AE
:106FF000388200BF04F50E722846FFF7C3FE002852
:10700000BDD104F24311C4F83C1294F824000128C5
:1070100024D0A4F8408200BF04F5107205F13C00B2
:10702000FFF7B0FE0028AAD184F85190208BA4F875
:10703000480084F83C90266484F85060606960647D
:107040004D4604F13C02002104F1540072DF002897
:1070500095D1257093E7A4F83872CBE7A4F8407275
:10706000DAE710B50288102A1BD0112A20D0262A70
:107070001DD1007A0C46012801D0022817D1A07832
:107080000521401CB0FBF1F201FB1201204600F08B
:107090001EF800280BD0A16B002908D0BDE81040D5
:1070A0000847C27B012A02D18088A1F8480210BD9E
:1070B0000C46002184F852128088B4F848128842A5
:1070C000F5D120790028F2D10121DFE770472DE9C1
:1070D000F05F044600780F4698B1A7700025C4F809
:1070E0004A52A4F84E5284F85052A079012608B1B1
:1070F000012F09D0E07980B1012F05D0022F03D0F4
:107100000BE00820BDE8F09F616B21B184F851626B
:107110000820884701E084F8515204F24B210020F6
:107120000A5C0AB1304603E0401C0628F8D3002070
:107130004FF002084FF0030B012F06D0022F0CD0A6
:10714000032F0FD0042F15D110E0A17929B194F8A5
:10715000241011B908B130460DE0E17911B108B140
:10716000404608E0207A08B1584604E0607A08B149
:10717000042000E02846A070616B41B1032801D0D3
:10718000042804D1607910B194F85202A0B184F8B7
:10719000535204F13C0018210746FFF718F904F197
:1071A0002C0084F83C60814602F099F958B194F8BB
:1071B0002C0084F8510008E084F8545284F853629B
:1071C00007208847E5E784F8516094F8240050B11F
:1071D000484602F084F920B194F8280084F852005F
:1071E00001E084F8526084F85050A27804F24A21F9
:1071F00004F50D794FF0060A052A62D2DFE802F0A5
:107200007A030F22410084F83160C4F84452C4E983
:10721000101584F83C808020A4F8480053E084F8DE
:10722000318094F82420384612B10722027001E020
:1072300080F800B0228A8281C4F844524160E1683B
:10724000B96040E06069B860208BB88194F8240090
:107250003D4610B184F83CA001E084F83C60204633
:1072600002F012FC50B185F814800421204600F091
:10727000EDFF30BB052184F8311020E084F831B0F7
:107280001DE0E069B860208CB88194F824003D4688
:1072900010B184F83CA001E084F83C60204602F084
:1072A000F3FB48B185F814800421204600F0CEFF9E
:1072B00038B984F831A002E0042084F83100C4F821
:1072C0004492A07878B13A4604F15400D4F84412BC
:1072D00072DF00287FF416AF94F8301094F8540051
:1072E00073DF0028F6D1616B11B194F83100884743
:1072F000002007E784F83150F5E7000070B504007E
:1073000012D001461C221448FFF748F81248134DCA
:107310000560206850B17ADF002806D12068016836
:1073200029604068686005E00E2070BD0B487BDF77
:107330000028FAD108484FF6FF711438084A20F89F
:10734000041B0549343901600021FFF729FC00289E
:10735000EBD0032070BD000008360020042B002075
:10736000219A020010B5044600F006F808B1204644
:1073700010BD142010BD0000142801D30020704758
:107380000146014801F02CBB283600207CB505469B
:1073900008880C460930904201D90C207CBD684613
:1073A0006DDF0028FAD121880820685420881B212D
:1073B000401C80B2208029542088401C80B220804C
:1073C0002844DDF801100160BDF805108180208897
:1073D000801D80B220809DF80010490800D0012156
:1073E00029542088401C208000207CBD38B50546EB
:1073F00001880020254C212935D00BDC102913D021
:10740000112929D013292DD100231A468521E0897D
:107410007FDF1BE03B2935D052292DD0562921D1C1
:10742000A888132176DF11E0072000F019FC08B1CD
:10743000FFF774FBA988E181154801F0E1FB051E07
:1074400001D0FFF76BFB012060702846002809D0AF
:10745000BDE83840FFF762BB4FF6FF71E181607015
:107460002071208138BD0090A88869468FDF0028F0
:10747000F8D0FFF753FB38BD00231A461946E089C0
:10748000B1DFE3E7A888132176DFDFE7A02A002039
:10749000B432002010B51A4C0188606810290ED053
:1074A00011292BD1401E606028D1FFF7F5FA002882
:1074B00024D02168002921D0BDE810400847D0B968
:1074C00000210122084600F0A9FB08B107280FD1CE
:1074D00007220221012000F0A1FB08B1072807D1F3
:1074E00004220221002000F099FB20B1072802D0DD
:1074F000216801B188476068401C606010BD0000D1
:10750000FC2A00202DE9F04701883B4E40F2F31998
:107510004FF6FF7510291BD011293ED0122954D0E7
:10752000502946D1C188F289841D914241D1618997
:1075300002293ED18688304600F0B2FF050038D0DF
:1075400004F10C0000F0B4F9A8B3294630464EE02F
:10755000C17B8788044601292BD1A846284600F024
:107560009FFF050017D02F80002028722348434634
:107570004A460168C5F80A104068C5F80E0004F1D3
:10758000100105F10A0000F095FF6872F0890028EB
:107590000FD129462AE0042013E0808800F080FF04
:1075A000040006D06068FFF77BFB08B102F016F814
:1075B0002580BDE8F087FFE76868FFF771FB0028CA
:1075C000F7D0BDE8F04702F009B88788064638468C
:1075D00000F066FF0400ECD02B464A4606F1080195
:1075E00004F10A0000F066FF607221463846BDE8EB
:1075F000F04700F0D7BD000008360020042B002023
:107600002DE9F04F0746858802883D48012197B053
:107610008346102A09D0112A49D01A2A6CD1387A07
:10762000B1EB101F45D2012244E0354C083CA06864
:10763000C0430B9061680BA801F0E7F90B990CA807
:1076400000F04AFD2C220CA96846FEF7A7FE002692
:10765000E946A04610E000BF09EB46005FF00004D9
:10766000B0F804A008EB84005146001D01F0ADF90C
:10767000641C1D2CF6D3761C0098B042ECD8142D57
:1076800005D317B00420BDE8F04FFFF747BA2946ED
:10769000584601F0B0F9294608F1040001F0ABF9B1
:1076A000F87B012828D016482946001D15E02946F8
:1076B0001AE000220221B1EB101F01D2012600E0E6
:1076C00000260F49083901F11000041D294682B136
:1076D00001F091F936B12946204617B0BDE8F04FC8
:1076E00001F089B92946204617B0BDE8F04F01F0F6
:1076F0006CB901F06AF9F5E717B0BDE8F08F00004A
:107700002C360020F0B585B016460F4604001D4605
:1077100014D004AA19466069FFF710FB00280BD1AA
:10772000A5F57F40FF380BD0049848B1007848B1E8
:107730003088F42808D9072005B0F0BD0E20FBE7FB
:107740000520F9E70820F7E700200090019002905B
:107750000390A088ADF8000001208DF80200CDE96B
:10776000026769462846AEDFE6E7000070B5334D94
:1077700004008EB02DCD08AE86E82D005BD0E9B3B5
:107780000868A061214608A862DF002851D120784E
:1077900001258DF83200ADF83050A21C0CA9284606
:1077A000A8DF002845D120216846FEF710FE022000
:1077B000ADF8000020788DF802008DF80C509DF88F
:1077C0000D00F426ADF8046040F00C008DF8115067
:1077D000ADF806508DF80D008DF81250608804F158
:1077E0000C02694600F038FB002822D120216846AF
:1077F000FEF7EDFD0320ADF8000000E01BE020786F
:107800008DF802008DF80C509DF80D008DF8115088
:10781000ADF8046040F010008DF81250ADF806503D
:107820008DF80D008DF813506088221D694600F018
:1078300013FB0EB070BD0E20FBE70000849C02001D
:1078400070B588B00446002924D0002C22D0084608
:107850002188102920D0502924D057291AD1054633
:10786000A188406906AAFFF769FA002812D1069E8E
:10787000307800280ED018216846FEF7A8FD0120B8
:107880008DF800000195A088ADF808000396A9695D
:107890006846884708B070BD08B02146BDE8704012
:1078A00001F0A6BD08B02146BDE8704001F0D5BD8D
:1078B000007800F001007047B6211420FEF7C6BD25
:1078C00038B51F49496831B149790838FB2904D0D6
:1078D00008281DD31AE0812038BD072816D205D20A
:1078E000DFE800F01E20222426282A006946102006
:1078F000FEF79AFD9DF80010054664F304018DF82B
:1079000000101020FEF7A2FD284438BDFE2038BD2F
:107910000828EBD2DFE800F00406080A0C0E10126B
:107920000824E3E70924E1E70A24DFE70B24DDE785
:107930000C24DBE70D24D9E70E24D7E70F24D5E785
:10794000DC2A002038B504461F48406848B1032CA3
:1079500009D0052C07D0082C05D00C2C03D0FE2014
:1079600038BD812038BD69460F20FEF75DFD054614
:10797000032C06D0052C0AD0082C16D00C2C0DD1C7
:107980001AE09DF8000020F00F00C01C04E09DF8F4
:10799000000020F00F00401D8DF800009DF8001041
:1079A0000F20FEF753FD284438BD9DF8000020F05D
:1079B0000F0040F00800EFE79DF8000020F00F00F6
:1079C00040F00C00E8E70000DC2A0020134910B565
:1079D00011484860FEF7F4FEFFF76EFF0820FFF73E
:1079E000B1FF0C20FFF76CFF03212120FEF72EFDD5
:1079F00001212820FEF72AFD00212720FEF726FD81
:107A000004211920FEF722FD07211620FEF71EFD96
:107A100003490120087010BD4C350020DC2A0020ED
:107A2000A32A002070B5FEF7CBFEFFF745FF032128
:107A30002120FEF70BFD14212820FEF707FD002171
:107A40002720FEF703FD04211920FEF7FFFC072184
:107A50001620FEF7FBFC114C0025562125706570A1
:107A60001120FEF7F3FC21461120FEF7DDFC0AE0B1
:107A700056211120FEF7EAFC08491120FEF7D4FC3C
:107A80006078401C60702078562803D06078032806
:107A9000EED970BD0248057070BD0000DC2A0020E0
:107AA000A32A00200149085C704700003C9C0200AA
:107AB000094908B5085C0090684601F0B9F9D0F8AA
:107AC0000425009B0121994021EA0203C0F80835F2
:107AD0001140C0F80C1508BD389C02000249085C32
:107AE000012101F0D6B90000389C02000249085C6F
:107AF000002101F0CEB90000389C0200084908B509
:107B0000085C0090684601F093F9D0F804050099EC
:107B1000C84010F0010000D0012080F0010008BD35
:107B2000389C020010B500242046FFF7D7FF641CE4
:107B3000042CF9D310BD10B500242046FFF7D6FF62
:107B4000641C042CF9D310BD10B50246064B4FF04F
:107B5000FF3000215C5C944201D1084610BD491CF5
:107B60000429F7D310BD00003C9C020010B5002092
:107B700000F066F908B1062806D1012000F060F98E
:107B800008B1062800D1002010BD00002DE9F04703
:107B90000D468146FFF7D8FF0446042836D2DFF8A9
:107BA00074801B481C4EA8F10C0725B3012D0ED084
:107BB000022D2BD104EB440030444578002D25D014
:107BC000B968002922D02846BDE8F047084704EBF1
:107BD0004401755C0E44717849B10E4A4FF400417E
:107BE000093A8068FFF718F808B987F80390B17868
:107BF00008F80410E2E78068FFF752F804EB44014C
:107C0000314418F804008D78A842D7D0BDE8F08739
:107C1000409C0200F82A0020A835002070B50023FF
:107C2000042810D20D4D00EB4004012A02D1012995
:107C30000CD00022094E00EB4000304461B1012914
:107C400006D0022906D00723184670BD0E30C2B2F6
:107C50002A55F9E74270F7E78270F5E7A83500206A
:107C6000044A014600201279D20702D0084600F0EB
:107C700003B87047EC2A00202DE9F05F6E4C0546F2
:107C800000266078B34618B184F801B000F034FCE7
:107C90006A4F4FF47A694FF4C87A4FF00108182DF3
:107CA00069D2DFE805F00C1313384754696E727B14
:107CB000727BC58484848484B3B6B9BCC5C500F026
:107CC0001BFC3868FEF7ECFF06465CE00020FFF77F
:107CD00015FF00284FF0000008D0FFF7FFFE022D2F
:107CE00002D14FF4E16008E0484606E0FFF7FEFEEF
:107CF000022D01D1C82000E05046410CC0034FF4D2
:107D0000FA72801841F10001257052000023FEF73D
:107D100005FB01462AE00020FFF7F0FE00284FF0A7
:107D2000000004D0FFF7DAFE4FF44870E5E7FFF7F4
:107D3000DDFEDFE70020FFF7E1FE00284FF0000046
:107D400002D0FFF7CBFECFE7FFF7D0FED4E700204D
:107D5000FFF7D4FE00284FF0000002D0FFF7BEFE70
:107D600001E0FFF7C3FE257041F69A110022386842
:107D7000FEF752FF064646E00020FFF799FE257009
:107D800008E0002051E025703DE084F801800120EA
:107D9000FFF78EFE002240F6CD41E8E784F801802F
:107DA0000120FFF785FE00224FF48041DFE778686D
:107DB000FEF776FF0646D5F1110000D02EB1022065
:107DC000FFF78CFE84F802B01DE0012816D980B2BE
:107DD000C8214843C117C90341EA5041C0034FF4C9
:107DE000FA72801841F1000152000023FEF796FA62
:107DF000014600227868FEF70FFF06460220FFF7D3
:107E000075FE84F802803046BDE8F09F00F074FBF8
:107E1000B9E700F071FBB4E700F06EFB04E000F09E
:107E20006BFB0020FFF762FE0120FFF75FFEAAE771
:107E3000FFF781FEA7E70000EC2A0020409C02002B
:107E4000012101F0BFBE00000249084490F9300052
:107E500070470000B03600202DE9F0438146887855
:107E600091B090460C4600B901208DF83E00208864
:107E7000ADF83C0000250095607C694601F0FAFBF6
:107E80006E46A07C711C01F0F5FBE07B00289DF89C
:107E9000020002D040F0080001E020F008008DF858
:107EA0000200217C11B140F0100001E020F0100030
:107EB0008DF80200217B11B140F0010001E020F0BB
:107EC00001008DF80200217D09B1022100E00121AD
:107ED00061F342008DF802001C2102A8FEF777FA38
:107EE000607BC10601D4800617D50E950EAFE07CED
:107EF000791C01F0BFFB9DF83800079720F00F00B8
:107F0000401C20F0F00010308DF838009DF83A0049
:107F100020F00600801C8DF83A00607B8DF8080088
:107F2000A07B8DF80900142109A8FEF750FA0FA8CC
:107F3000CDE90906A088ADF83000A06820B1E0883E
:107F4000ADF82C00A0680D90A06998B30195008849
:107F5000ADF81000A06901AD01A94088ADF812008C
:107F6000A069406806950390A069007B01F082FB40
:107F7000A069691C407B01F07DFBA069807A002824
:107F80009DF8060002D040F0080001E020F0080053
:107F90008DF80600A169C97A11B140F0100001E026
:107FA00020F010008DF80600A169097A19B140F09F
:107FB000010002E00DE020F001008DF80600A1694B
:107FC000897B09B1022100E0012161F342008DF8B3
:107FD0000600E06900B10590434609AA02A9484697
:107FE000AADF11B0BDE8F08370B5084C050009D0D8
:107FF00010342168002907D00868206049682846A5
:108000008847F6E70834F4E770BD00009C3600208E
:10801000054A012120B1012805D19170FFF7E4BF85
:1080200051700020FAE770479C3600202DE9F05F80
:1080300026484168F1B3DFF898B00E688146DBF856
:10804000004087688078E11B21F07F45ED1CB0B9C6
:10805000DFF880804FF48030C8F84403C8F8040388
:108060001120FEF705FB1120FEF70DFB4FF0010A72
:10807000C8F800A02F2001F0FBF889F802A0B54253
:1080800000D23546124BE8193C3320F07F4018608F
:10809000DBF800105A46091B21F07F41001B20F03D
:1080A0007F40C91C81420FD9106818602F2001F051
:1080B000DFF800E004E0BDE8F05F1120FEF7EEBA63
:1080C000BDE8F05F01F016BABDE8F09F342B002048
:1080D000041501400010014073B58CB00646002025
:1080E00000900D9880B100246D4621460DA800F047
:1080F00077FC30B1009805EB400084800098401C6C
:108100000090641C142CF0D32C2269463046FEF7F4
:1081100045F90EB070BD2DE9F04117880646B81D2F
:1081200014460D46984202D90C20BDE8F0813188F2
:10813000072206290AD34FF4486C4FF6FF736145B6
:1081400001D9994202D17088062801D21046ECE785
:10815000604501D99842F9D1994203D0984201D0A3
:108160008142F3D80520E85520881221401C80B2B6
:10817000208029542088401C80B2208041193088FA
:1081800001F048FC2188084480B2208041197088A1
:1081900001F040FC2188084420800020C5E7FEF75C
:1081A000BDBC000038B54A7A0F4B62B100220A729A
:1081B0005969002906D001228DF80020ADF802008F
:1081C0006846884738BD0A7A62B19B684C680246A7
:1081D00019462046FEF720FD0028F3D0BDE83840C0
:1081E00001F0FCB95B68F1E7083600201FB50022FA
:1081F0000092ADF800100192ADF8021002920392C5
:1082000002AA694690DF04B010BD00000E4910B507
:108210000A784C780023A24212D0521CD2B20A70C3
:10822000022A00D10B70084A0B780C3252F8232036
:1082300002608868104420F07F408860012010BDF3
:108240000360002010BD0000342B002070B50D46E7
:108250000446B0F83812D0F834020122FEF753FE7B
:1082600000B1057004F13C0204F50D7104F15400F5
:1082700072DF70BD06484A88C3899A4207D10A88CE
:10828000A2F52063773B02D18988C91E018270471D
:10829000A02A002010B50949094800F0E5FB08B103
:1082A000FEF73CFCF721064800F0D2FB002803D083
:1082B000BDE81040FEF732BC10BD00007582020020
:1082C000A03200202DE9F0411E461746884604469C
:1082D00000F09CF8124D6000687000F075F885F8A9
:1082E000018000F071F800F091F8012000EB4400EB
:1082F000687000F069F8002409E0301B01280DD0F7
:10830000002138467F1C00F00DF8641CE4B2B44232
:10831000F3D300F090F82878BDE8F0810121F0E770
:10832000D82A00202DE9F0410F46064600240825F2
:1083300021460C2000F039FD0D2000F0A0FD0C209E
:1083400000F092FD4FEA446110F0FF0F4FEA116414
:1083500001D044F001040D2000F052FD6D1E15F017
:10836000FF05E9D1384600F019F83470BDE8F08116
:1083700010B5002421460C2000F017FD0D2000F060
:108380007EFD0C2000F070FD00B101240D2000F0F6
:1083900037FD0C2000F012FD204610BD10B504463C
:1083A0000C2000F00BFD4FF00C0014B100F067FD45
:1083B00001E000F025FD0D2000F061FDBDE810405A
:1083C0000D2000F01DBD000070B580240E4E082564
:1083D000707820424FF00C0002D000F050FD01E018
:1083E00000F00EFD0D2000F04AFD0D2000F008FD0C
:1083F00064086D1E15F0FF05EAD10C2000F03FFD6A
:10840000BDE87040FFF7B4BFD82A002010B50D209A
:1084100000F0D4FC0C2000F0D1FC0C2000F02FFD6B
:108420000D2000F02CFD0C2000F0EAFCBDE810400F
:108430000D2000F0E5BC10B50D2000F0E1FC0C2093
:1084400000F0DEFC0D2000F01AFDBDE810400C200D
:1084500000F015BD2DE9F0411F4616460C460546B5
:108460004FF00008FFF7D2FF68000C4D6870FFF76F
:10847000ABFF6C70FFF7A8FF57B1002406E030781F
:108480006870FFF7A1FF641CE4B2761CBC42F6D30F
:10849000FFF7D1FF4046BDE8F0810000D82A002058
:1084A0000146034802888A4200D00020704700003D
:1084B000F4350020F0B58488A518944200D82246EF
:1084C000A41AC288D6189A4200D81346D21A4B88EA
:1084D0000788BB420CD34088834209D88888A042D1
:1084E00006D3A84204D8C888904201D3B04201D92B
:1084F0000020F0BD0120F0BD0A4810B5807860B1C1
:10850000002401E0022C06D02046FFF7E7FA641CA5
:10851000042CF7D310BD0324F6E7BDE81040FFF7A5
:1085200001BB0000EC2A0020F721018017214180C7
:10853000002101714171FB2181711B21C1717047C3
:108540002DE9F047394E002780463D46DFF8E090A0
:10855000D6F804A057E003D00446D0F81C8035E0DC
:1085600099F8002002EB4201521CD2B289F8002097
:1085700009EBC10199F80230091D9A4201D189F82D
:10858000005048680A780446012A12D0022A02D014
:10859000032A3BD108E001F0AFF900B101272574AF
:1085A00034E00574C06900E070680028F9D170609B
:1085B0002CE0207C50BB88686060C868A0600869B7
:1085C000E0604869A061F07800B165606268B168F8
:1085D000184B501A20F07F40984202D2A1680844FC
:1085E00006E0881AA16820F07F40814202D9081A6B
:1085F000206000E0256065600120A56020742046B1
:10860000E56101F05BF9B8F10000A4D199F8001020
:1086100099F801008142A3D117B97168514502D080
:108620000120BDE8F0870020FBE70000342B00208C
:108630001C370020FFFF7F002DE9F04100F050FEC5
:10864000204C6079012808D0608901261E4F002542
:108650000A2806D2401C608119E0FDF725FFFEF7CD
:1086600039F8A07830B1607820B9184890F85400F3
:1086700074DFA570A079012805D07868FEF710FB9B
:10868000A67125712581E07808B1FFF7CBF9FDF7D8
:10869000F0FE002814D06581A07810B9FEF718FA12
:1086A000A670E07808B9FFF791F9A079012807D101
:1086B000002240F28F217868FEF7AEFAA571A581FD
:1086C000BDE8F081A02A0020149C0200C0320020E6
:1086D000ACB0FEF777FA08B1FEF720FA684A01213C
:1086E0006848FEF75DFA08B1FEF718FA6548664A71
:1086F0000121001DFEF754FA08B1FEF70FFA634A94
:108700001E213220FEF736FA08B1FEF707FA00F014
:10871000FBFB08B1FEF702FA00F0DEFC08B1FEF741
:10872000FDF9002469460120009400F04DFC08B1D9
:10873000FEF7F4F9684600F095FC08B1FEF7EEF993
:108740009DF8080052A120F00F00401C20F0F0001E
:1087500010308DF80800102202A87CDF08B1FEF767
:10876000DDF900941020ADF800003C200194ADF834
:108770000200ADF804404FF4C870ADF8060068463A
:108780007ADF08B1FEF7CAF9FFF784FD454801908A
:1087900001A9454800F03FFA08B1FEF7BFF9434888
:1087A000009069464248FEF7E1FF08B1FEF7B6F9CE
:1087B000AC216846FDF70BFE02208DF800008DF815
:1087C000024006208DF8030039480125801F1490CF
:1087D000ADF84C508020CDE922048DF87C5035480E
:1087E0002990314869460C30FEF7BCFB08B1FEF712
:1087F00095F92D4801210C30FEF7B1FB1C2168468C
:10880000FDF7E5FD4FF42030CDE900404FF4702036
:10881000029003208DF80C00274805902748069009
:10882000ADF80E408DF810406846FEF767FD08B1C0
:10883000FEF774F91C4808220C3090F854100120FF
:1088400077DF08B1FEF76AF9FEF742F9184E183ED5
:10885000B570FFF7BBF80B480022001F4FF4004132
:108860008068FEF7D9F908B1FEF758F97471FEF780
:10887000D5F800BFFEF75EF900F05AFBFAE70000FA
:10888000AD970200189C020039860200982B002048
:108890005941584E6F726469635F55415254776E07
:1088A00000000000B18F0200B4320020619302008A
:1088B000B82A0020B1930200D59302009F810200E4
:1088C00070B5144682880E4605462088111D014465
:1088D000921C994201D8FE2A01D90C2070BD521C6D
:1088E00032542088FF21401C80B2208031542088DF
:1088F000401C80B220808119288801F08BF82188E3
:10890000084480B22080AA8842B1A96841B13044AD
:10891000FDF744FD2088A98808442080002070BD10
:10892000072070BDF8B50F460178144605460129A9
:1089300001D1687830B12088821C9A4232D801294E
:1089400002D006E00720F8BD69780144891C9942ED
:1089500028D8181A801E86B2ADF800602188B81C8D
:10896000084469467DDF0028EDD12978022904D02A
:108970006878BDF80020904205D3BDF80000B042F1
:1089800001D809200AE00820012905D16978B142FF
:1089900002D8ADF8001001E0ADF80060BDF800109D
:1089A000FE2901D90C20F8BD2288491CB954218820
:1089B000491C89B2218078542088401C2080BDF851
:1089C0000010084420800020F8BD01F01F030122A0
:1089D0009A40D243490900EB8100114600F015B8D6
:1089E0004A0950F8220001F01F020121914008407D
:1089F00000D00120704701F01F0301229A4049096D
:108A000000EB8100114600F00BB808B56A46FDF78F
:108A10001AFC009808BD08B56A46FDF7FBFB08BDC7
:108A200008B56A46FDF702FC009808BDC20800F0D0
:108A300007030120895C98400840704710B5C208C0
:108A400000F00703885C01249C402043885410BD3B
:108A500028B1A1F11702E12A03D3072070470E20A5
:108A6000704701800020704710B560B10161F721A7
:108A700020F8021B20F8021BFB2100F8021BFFF765
:108A800053FD002010BD0E2010BD00002DE9F04761
:108A9000B0F804A08EB00C465FEA0A0957D10188ED
:108AA000564E0127002524297BD006DC102909D049
:108AB000112929D0232926D199E03A2928D05529EE
:108AC00021D147E021792173C07BA61D012802D066
:108AD000022804D101E0208800E0608830803188DD
:108AE0007088814208D94846A5DF10B1112802D00C
:108AF00002E0777100E03771B179F07981426BD98A
:108B00004846FFF773FB67E0A01DFFF70DFD63E02C
:108B10002246408934F8061F814200D8084660800A
:108B2000172800D217206080106970B1607960B199
:108B3000D6E90001CDE90001ADF802906088ADF8FA
:108B400004001369694610469847657125710EB097
:108B5000BDE8F087C08804F10608172800D2172066
:108B6000B8F80010814200D80846A8F8020088F83A
:108B700004502846B8F80010B5DF98F8050058BB37
:108B8000206948B3D6E90201CDE90001ADF80290B1
:108B9000B8F80200ADF804002046694622691AE0E0
:108BA000FFE7011D2C226846FDF7F8FBBDF8000029
:108BB000BDF8042004EBC0014A73226962B1D6E912
:108BC0000423CDE90B23ADF82E00487B8DF830004F
:108BD000226920460BA99047A07A0028B7D0E188E7
:108BE0005046A5DF0028B2D1A572E772AFE7017A3F
:108BF000207B884284D2014682E700006C9C020000
:108C000020B10278DE2A03D0082070470E2070477A
:108C100041800020704760B159B10278DE2A0AD045
:108C200009684160DE2101704FF6FF71418000202C
:108C300070470E207047082070477FB50546002911
:108C40004DD0002D4BD008780C46DE2847D1A8889F
:108C50006188884202D1204600F022FF288801283E
:108C600025D002283BD011283AD0512837D135F8E9
:108C7000040F6188884232D1A978A81C02292ED11C
:108C8000017A042903D0062901D0052927D1002122
:108C9000009102228DF8002001914FF4C0720291E0
:108CA0000391ADF80420007A05280FD010E0297A4E
:108CB0002046012913D1A988428891420FD1012170
:108CC000017204B0BDE8704000F0EABEADF80410D7
:108CD00028886946B0DF002801D0616888477FBDD9
:108CE000A88861888842FAD14FF6FF7060807FBD06
:108CF00000F180400068002800D00120704708B5CE
:108D000000F18040002101600068009008BD000073
:108D100070B50B4C207808B185250FE00020A060CD
:108D200060602061E060074800F084FA054600F0CA
:108D30001FFA08B900F068FA01202070284670BDBB
:108D40009C3600201180020038B500258DF80050B7
:108D50006846FDF7B5FF074CE068401EE060E0683C
:108D600010B900F077FAA5709DF80000FDF7CCFF70
:108D700038BD00009C3600202DE9FF411C46DDE98E
:108D80000A7815460E46684600F044F846EA450162
:108D900041EA840141EA072242EA0841009A00EBD5
:108DA0008200C0F80017BDE8FF811CB500220B4609
:108DB000009211460192FFF7DFFF1CBD1CB5002198
:108DC00000910B46012201911146FFF7D5FF1CBD12
:108DD00013B50C46684600F039F8009900EB8101A4
:108DE000D1F8002722F44032C1F80027009900EBA7
:108DF0008100D0F8001741EA0441C0F800171CBDFB
:108E000001B5684600F006F8009A01219140C0F8CB
:108E10000C1508BD0168202902D24FF0A040704710
:108E200001F01F010160014870470000000300507D
:108E30000168202902D24FF0A040704701F01F01C5
:108E400001600148704700000003005001682029BC
:108E500002D24FF0A040704701F01F0101600148AD
:108E6000704700000003005001B56846FFF7D2FFCD
:108E7000D0F810050099C84000F0010008BD01B508
:108E80006846FFF7C7FF009A01219140C0F8081516
:108E900008BD38B501240090684631B1FFF7C8FF1E
:108EA00000998C40C0F8084538BDFFF7C1FF009914
:108EB0008C40C0F80C4538BD1CB5094C0144D4E9C0
:108EC0000034CDE900346C4606E000BF54F8203091
:108ED000D3F81035401C08C28142F7D81CBD0000F1
:108EE000949C0200034908B5084400210160006811
:108EF000009008BD0060004002494058012800D0A1
:108F00000020704700600040064910B500204870FE
:108F1000091D0860BFF35F8F0349044800F04CF956
:108F2000002010BD482B0020C09C020034380020D7
:108F300008B500208DF800006846FDF7C1FEF1EE8F
:108F4000100A20F09F00E1EE100ABFF35F8F08497E
:108F50004020C1F880029DF80000FDF7D5FE00F02A
:108F600007F908B141DF08BD20BF40BF20BF08BDE1
:108F700004E000E070B504460C480121FFF74BFD0A
:108F8000BFF35F8F0025002809D10120074E042C74
:108F900008D0311F4A781AB1BFF35F8F356070BDBA
:108FA0000C70487000F07EFBF6E700004C2B0020B0
:108FB000FDF7B4BD20B10349096801600020704786
:108FC0000E207047449D0200FEB506460D46084639
:108FD000FFF7F0FF002844D10024009401940127FA
:108FE00006208DF80060ADF8040002948DF8027040
:108FF000694620202A6869DF00948DF801708DF899
:109000000240019402948DF80340694640202A688A
:1090100069DF00948DF80060F720ADF8020001943C
:109020000294694623202A6869DF0094019402941F
:109030008DF80070694601202A6869DF4FF4B0603E
:109040000090019402946946A1202A6869DF009487
:10905000019402948DF800406946A0202A6869DFD7
:109060000020FEBD60DF002802D1024A01211170FC
:1090700070470000532B002030B51548ADF5017D39
:109080000078002821D04FF4FA7500BFADF80052E7
:1090900080A9684661DF38B1052816D00DF5017D3D
:1090A000BDE83040FDF73ABD6C460A497DA800F0A6
:1090B00083F806E0D0E90021204690477DA800F023
:1090C00092F87F980028E1D0F4E70DF5017D30BDDE
:1090D000532B0020489D02007CB5194C207808B124
:1090E00008207CBD0120A070002000F049FA112862
:1090F00019D0002000F05CFA1248002600680190A8
:109100008DF800606846FDF7DBFD0F4901A810DF10
:1091100005000AD0002020709DF80000FDF7F4FD46
:109120002DB128467CBD00207CBD0120F3E7A67050
:10913000667000F00FFB012000F03AFAF3E7000040
:10914000502B0020DC9C0200ED6A02000EB507499E
:10915000684600F031F805E0D0E90010884768461D
:1091600000F041F802980028F6D10EBDF89C0200EC
:109170000148007870470000502B00201FB568465A
:109180004BDF30B1052814D004B0BDE81040FDF726
:10919000C5BC084901A800F00FF806E0D0E900219D
:1091A0000098904701A800F01EF803980028E6D028
:1091B000F4E71FBD649D0200016009684160AFF3E0
:1091C000008010B5D0E900215368994201D10021F7
:1091D00004E0D1E90034A34202D01946816010BDF9
:1091E00008314160F0E7816800290BD0026892687D
:1091F0000A44826041684B689A4203D10831416059
:10920000FFF7DFBF7047000008480068012110F039
:10921000010F06D14FF0E020C02280F80024C0F8F2
:1092200000110349002008607047000000E100E0E1
:10923000180500400649024600200B790BB1852035
:10924000704700238B710A6001220A714B717047CD
:109250000C2B002004490120086004480168C1F378
:1092600000410029FAD170470C000040180400406A
:10927000002802D00149800108477047A19C0200E4
:1092800038B5044600208DF800006846FDF718FD4B
:109290000A4A517808290AD22170481C507008489F
:1092A000026801238B401A430260002400E004247A
:1092B0009DF80000FDF728FD204638BD1C2B00203E
:1092C0000805014004490120C1F80403086003496E
:1092D0000220087070470000000001401C2B002095
:1092E000084910B500204978074B084A06E000BF3E
:1092F00002EB8004C4F80036401CC0B28842F7D3A9
:1093000010BD00001C2B00203546526E00000140AD
:10931000104A5160117809B108207047012111707D
:109320000D4A0178116041684FF47A72C903B1FBAC
:10933000F2F1094A083A1160007A0849400181F8BF
:1093400000044FF0E0224FF480310020C2F80011F9
:10935000704700001C2B00200C05014010E000E0CD
:109360003EB504460078002818D10DA1D1E90001CE
:10937000CDE900010820ADF80800A28A0A48216959
:10938000FDF70CF8207D094C02AA69462070E3899C
:1093900004F11800FEF7B6F9012060713EBD00002F
:1093A000737563636573730018350020A02A00206D
:1093B00010B550B103280CD10220FEF751FC002853
:1093C00007D0BDE81040FDF7A9BBBDE8104000F094
:1093D000A1B910BD0078002807D104483B21C089FD
:1093E00076DF002801D0FDF799BB7047A02A002046
:1093F000F0B58BB0002601960D4604468988406979
:1094000001AAFDF79BFC0AA8CDE908600227ADF888
:109410002070ADF82260218AA88808AAADDF002854
:1094200019D1A069002816D00998FEF741FA002842
:1094300011D0019E0EB101203070182102A8FCF756
:10944000C6FF8DF808700394A888ADF81000059643
:10945000A16902A888470BB0F0BDF0B587B00C46F3
:1094600005468E1D8988406906AAFDF767FC18210C
:109470006846FCF7ACFF0195A088069AADF8080095
:10948000039231882B89002704F11200994202D1FE
:109490007389022B0DD0AA8991421ED1A969002996
:1094A0001BD08DF8007004907089ADF81400A96984
:1094B00011E0002A11D0FEF7FBF920B10699012036
:1094C0000870022002E00698077003208DF8000063
:1094D000A969002901D06846884707B0F0BD006837
:1094E000012805D0022803D0042801D000207047AD
:1094F0000120704770B5012670044FF0E02100256F
:10950000C1F88001084C4010C4F84803C4F80803AF
:1095100066602F20FFF7ACFEA660044C2F20A560EC
:10952000FFF7A6FEA57070BD00100140342B00208F
:1095300038B50021012548B101280CD0032809D1F4
:10954000FFF762FEBDE83840FFF7FEBB4FF0E020BA
:10955000C0F8805138BD8DF800106846FDF7B0FBAB
:10956000064C207808B9FFF7D3FBE068401CE060A8
:10957000A5709DF80000FDF7C7FB38BD9C360020A4
:109580003EB5044609496846FFF716FE08E000BFED
:10959000D0E900212046904730B16846FFF723FE0E
:1095A00002980028F4D13EBD11203EBDE09C02008F
:1095B0003EB5044608496846FFF7FEFD07E000BFD8
:1095C000D0E90021204690476846FFF70CFE02983C
:1095D0000028F5D13EBD0000EC9C020002498969DB
:1095E000002900D008477047083600202DE9F041D7
:1095F0000746806A14468846C8B3002531E000BF9C
:10960000B96A05EB450001EB8006B088801CFE2896
:1096100002D90C20BDE8F0812288401C08F8020025
:1096200020881622401C80B2208008F80020208864
:10963000401C80B2208000EB0801308800F0EAF97D
:109640002188084480B22080B28842B1B16871B1EB
:109650004044FCF7A3FE2088B188084420806D1C9C
:10966000EDB297F82C00A842CAD80020D2E7FFE755
:109670000720CFE70A78062822F0FF020A7010D2EE
:10968000DFE800F0030507090B0D002008E01120BA
:1096900006E0212004E0312002E0122000E0222038
:1096A0000870704770B5164D164C07E001682078B9
:1096B0008847002822D01248FFF795FDA8680028A7
:1096C000F4D1207803280CD002280AD0FFF750FDEF
:1096D00000B133DF0C4901200860BFF34F8F20BF7A
:1096E000FDE7BFF34F8F09480168094A01F4E061C3
:1096F00011430160BFF34F8F00BFFDE770BD000055
:1097000034380020482B0020000500400CED00E01C
:109710000400FA0510B50020FEF7A2FA08B1FDF723
:10972000FDF9FEF723FA08B1FDF7F8F933DF002859
:1097300003D0BDE81040FDF7F1B910BD002805D1F8
:109740000349012048700020FEF74EBC704700001E
:109750009C36002010B51620FDF78CF9A0B11148F9
:1097600090F800044009082811D20121814011F02D
:10977000EC0F0CD00C4882684FF480016AB101688C
:1097800041F48001016010BD42F2010001E042F2AB
:109790000200BDE81040FDF7C1B94FF0E020C0F86D
:1097A000001110BD16E000E02838002070B5FCF76D
:1097B0006BFE204C1E49204822794D7802EB420373
:1097C00000F8135000EB43030D785D70CD789D7069
:1097D0008D78DD704D791D7109795971218928299C
:1097E00005D22D2A03D2891D2181521C2271617854
:1097F00001291CD12279032A19D3A18902EB420243
:109800000B0A00F8123000EB42000A4A417020892E
:109810000832801C2081E389074902F11000FDF71E
:1098200071FF002020812071A089401CA08170BDA3
:10983000E42A0020A02A0020183500202DE9F84F46
:109840001D4C00256846D4E901A6FEF7DFFC002781
:1098500038B30023009A61681CE0D1F800C00846C4
:10986000944503D9ACEB02020A6015E0A2EB0C02AE
:1098700063440760D0F80CC0C1698146BCF1000F99
:1098800008D006EB030828F07F48C0E9018CC9F82E
:109890001C5005460029E0D128466160FEF750FEC5
:1098A00003E02846FEF74CFE10B15046FEF7BEFB23
:1098B000E770BDE8F88F0000342B00200D4B10B589
:1098C000596831B102680C68A24204D8A21A0A6031
:1098D000C161586010BD0B4603E00B46C969121BFD
:1098E00021B10C689442F8D3A41A0C600260C161E3
:1098F000D86110BD342B00202DE9F041144E77685B
:109900003D462C4603E0844204D02546E469002C01
:10991000F9D11BE0D4B1A5420BD1F869706040B910
:109920000C49012088600021B160F0702F20FFF702
:109930009FFC2168E069E86110B102681144016090
:109940007068874202D00120BDE8F0810020FBE76B
:10995000342B0020001001407CB5064600240D4643
:109960008DF800406846FDF7ABF901A800F0AAF8B1
:1099700070B10570094946609DF8040048709DF873
:109980000000FDF7C1F91420FCF788FE20467CBDDD
:1099900004249DF80000FDF7B7F9F7E71C37002015
:1099A0002DE9F041194D6C68002C2CD01848002787
:1099B0000068A968B846401A20F07F462068B04287
:1099C0000CD82146361A0744E469087C20B181F896
:1099D0001080886949698847002CEFD12978687818
:1099E000814206D1401CC0B26870022801D185F8BE
:1099F0000180064869780C3040F82170BDE8F041DC
:109A00001420FCF74BBEBDE8F0810000342B002091
:109A1000041501400870000A4870022070470000D9
:109A2000F8B5054680B2FEF73BFD040013D0154E95
:109A3000207A0027317B88420ED2A8B204F10A01B5
:109A400075DF28B1112806D0BDE8F840FFF7C6BD84
:109A5000207A401C2072F8BD2772307C38B1A8B241
:109A60003B2176DF18B1082801D0FFF7B7FD7169F7
:109A70000029F0D08DF80070ADF802506846884794
:109A8000F8BD000008360020417939B190F8521233
:109A900021B990F8540208B10120704700207047A6
:109AA00030B40446007A00280AD06088002166DFBE
:109AB00028B1112802D0616830BC0847012020720B
:109AC00030BC70470A494A788B78521CD2B2934214
:109AD00000D100220B78934201D100207047027020
:109AE000487800EB400001EBC000001D704700000B
:109AF0001C3700202DE9FC411646DDE90854CDE96C
:109B000000541F468046022200F00CF8002807D1BE
:109B1000CDE900543B4610223146404600F002F8A1
:109B2000BDE8FC812DE9FC5F0026DDE90C4B994680
:109B300092468E4680462788354630E0D8F80400A5
:109B4000002200EB850069460068019001A864DFEF
:109B5000002830D19DF8000050451FD10EB10021E2
:109B600000E00221228808441118594522D846B93C
:109B7000521C90B2208009F800E02088401C208010
:109B80000126218801A801EB0902694664DF00284B
:109B900011D120889DF80010084420806D1CB8F871
:109BA0000000A842CADC56B12088C01B401E80B20B
:109BB000FF2802D90C20BDE8FC9F09F8070000200F
:109BC000F9E7000010B504281DD209B1032400E014
:109BD0000024FDF767FF202802D24FF0A04102E0E9
:109BE0000A4900F01F0001EB8000D0F8001721F4B3
:109BF0004031C0F80017D0F8001741EA0441C0F81E
:109C00000017002010BD062010BD0000000300500A
:109C1000FCF760FD01000200582B0020782B00208B
:109C200001000000102700000600000001000000F5
:109C300010270000060000000D0E0F100B0C181965
:109C40006835002088350020B43500200B00030063
:109C50008D7B02000C0003008D7B020018000300C6
:109C60008D7B0200190003008D7B0200770A000043
:109C700000000000770A0000000000007ADA00000F
:109C8000000000009ECADC240EE5A9E093F3A3B512
:109C90000000406E00000050000300500000000073
:109CA0000338FDD8704700000000000000000000ED
:109CB00000000000000000000000000000000000A4
:109CC000A89C0200C09C02000400000000000000EC
:109CD000000000000000000000000000001002076B
:109CE000CC9C0200DC9C020008000000049D0200E5
:109CF000149D020008000000149D0200249D020033
:109D000008000000F09D0200F89D02000000000025
:109D100000000000E09D0200F09D02000000000035
:109D200000000000909D0200989D0200989D020096
:109D3000B89D0200B89D0200C89D0200C89D0200A7
:109D4000D09D0200982A0020249D0200449D02001C
:109D500008000000D09D0200D89D0200D89D02009E
:109D6000E09D0200549D0200649D02000800000076
:109D7000F89D0200982A0020C0000000546A0200EA
:109D8000B89E0200582B0020E82C0000646A0200F4
:109D900001760200000000008D8A0200A03200203F
:109DA00063700200C03200209574020000000000C1
:109DB000057502000000000041780200B82A00206A
:109DC0003B8C0200B4320020ED7302000000000062
:109DD0003D97020000000000CD700200C03200205C
:109DE00079900200000000007D9102000000000058
:109DF0003195020000000000D42A00200100040078
:109E00000000000000000100000000000000FFFF53
:109E1000140001000200000000000000000000002B
:109E2000000000000000000000000000982A002050
:109E30000000000000000000000000000000000022
:109E40000000000000000000000000000000000012
:109E50000000000000000000000000000000000002
:109E600000000000000000000000000000000000F2
:109E700000000000000000000000000000000000E2
:109E800000000000000000000000000000000000D2
:109E900000000000000000000000000000000000C2
:109EA00000000000000000000000000000000000B2
:089EB000000000000090D00347
:040000050002620192
:00000001FF
